{
  "address": "0x7D4B4370d2Ff84B78BBA09ee307E45290F8B22B2",
  "abi": [
    {
      "inputs": [
        {
          "internalType": "string",
          "name": "eip712Name",
          "type": "string"
        }
      ],
      "stateMutability": "nonpayable",
      "type": "constructor"
    },
    {
      "inputs": [],
      "name": "AlreadyInitialized",
      "type": "error"
    },
    {
      "inputs": [],
      "name": "ControllerAlreadyUpdated",
      "type": "error"
    },
    {
      "inputs": [
        {
          "internalType": "address",
          "name": "spender",
          "type": "address"
        },
        {
          "internalType": "uint256",
          "name": "allowance",
          "type": "uint256"
        },
        {
          "internalType": "uint256",
          "name": "needed",
          "type": "uint256"
        }
      ],
      "name": "ERC20InsufficientAllowance",
      "type": "error"
    },
    {
      "inputs": [
        {
          "internalType": "address",
          "name": "sender",
          "type": "address"
        },
        {
          "internalType": "uint256",
          "name": "balance",
          "type": "uint256"
        },
        {
          "internalType": "uint256",
          "name": "needed",
          "type": "uint256"
        }
      ],
      "name": "ERC20InsufficientBalance",
      "type": "error"
    },
    {
      "inputs": [
        {
          "internalType": "address",
          "name": "approver",
          "type": "address"
        }
      ],
      "name": "ERC20InvalidApprover",
      "type": "error"
    },
    {
      "inputs": [
        {
          "internalType": "address",
          "name": "receiver",
          "type": "address"
        }
      ],
      "name": "ERC20InvalidReceiver",
      "type": "error"
    },
    {
      "inputs": [
        {
          "internalType": "address",
          "name": "sender",
          "type": "address"
        }
      ],
      "name": "ERC20InvalidSender",
      "type": "error"
    },
    {
      "inputs": [
        {
          "internalType": "address",
          "name": "spender",
          "type": "address"
        }
      ],
      "name": "ERC20InvalidSpender",
      "type": "error"
    },
    {
      "inputs": [],
      "name": "InvalidShortString",
      "type": "error"
    },
    {
      "inputs": [],
      "name": "MsgSenderIsNotTheController",
      "type": "error"
    },
    {
      "inputs": [],
      "name": "MsgSenderIsNotTheFactory",
      "type": "error"
    },
    {
      "inputs": [],
      "name": "MsgSenderIsNotTheOwner",
      "type": "error"
    },
    {
      "inputs": [],
      "name": "OwnerIsTheZeroAddress",
      "type": "error"
    },
    {
      "inputs": [
        {
          "internalType": "string",
          "name": "str",
          "type": "string"
        }
      ],
      "name": "StringTooLong",
      "type": "error"
    },
    {
      "inputs": [],
      "name": "TokenAlreadyReady",
      "type": "error"
    },
    {
      "inputs": [],
      "name": "TokenNotReady",
      "type": "error"
    },
    {
      "anonymous": false,
      "inputs": [
        {
          "indexed": true,
          "internalType": "address",
          "name": "owner",
          "type": "address"
        },
        {
          "indexed": true,
          "internalType": "address",
          "name": "spender",
          "type": "address"
        },
        {
          "indexed": false,
          "internalType": "uint256",
          "name": "value",
          "type": "uint256"
        }
      ],
      "name": "Approval",
      "type": "event"
    },
    {
      "anonymous": false,
      "inputs": [],
      "name": "EIP712DomainChanged",
      "type": "event"
    },
    {
      "anonymous": false,
      "inputs": [
        {
          "indexed": false,
          "internalType": "address",
          "name": "owner",
          "type": "address"
        }
      ],
      "name": "OwnerUpdated",
      "type": "event"
    },
    {
      "anonymous": false,
      "inputs": [
        {
          "indexed": true,
          "internalType": "address",
          "name": "from",
          "type": "address"
        },
        {
          "indexed": true,
          "internalType": "address",
          "name": "to",
          "type": "address"
        },
        {
          "indexed": false,
          "internalType": "uint256",
          "name": "value",
          "type": "uint256"
        }
      ],
      "name": "Transfer",
      "type": "event"
    },
    {
      "inputs": [
        {
          "internalType": "address",
          "name": "owner",
          "type": "address"
        },
        {
          "internalType": "address",
          "name": "spender",
          "type": "address"
        }
      ],
      "name": "allowance",
      "outputs": [
        {
          "internalType": "uint256",
          "name": "",
          "type": "uint256"
        }
      ],
      "stateMutability": "view",
      "type": "function"
    },
    {
      "inputs": [
        {
          "internalType": "address",
          "name": "spender",
          "type": "address"
        },
        {
          "internalType": "uint256",
          "name": "value",
          "type": "uint256"
        }
      ],
      "name": "approve",
      "outputs": [
        {
          "internalType": "bool",
          "name": "",
          "type": "bool"
        }
      ],
      "stateMutability": "nonpayable",
      "type": "function"
    },
    {
      "inputs": [
        {
          "internalType": "address",
          "name": "account",
          "type": "address"
        }
      ],
      "name": "balanceOf",
      "outputs": [
        {
          "internalType": "uint256",
          "name": "",
          "type": "uint256"
        }
      ],
      "stateMutability": "view",
      "type": "function"
    },
    {
      "inputs": [],
      "name": "decimals",
      "outputs": [
        {
          "internalType": "uint8",
          "name": "",
          "type": "uint8"
        }
      ],
      "stateMutability": "view",
      "type": "function"
    },
    {
      "inputs": [],
      "name": "eip712Domain",
      "outputs": [
        {
          "internalType": "bytes1",
          "name": "fields",
          "type": "bytes1"
        },
        {
          "internalType": "string",
          "name": "name",
          "type": "string"
        },
        {
          "internalType": "string",
          "name": "version",
          "type": "string"
        },
        {
          "internalType": "uint256",
          "name": "chainId",
          "type": "uint256"
        },
        {
          "internalType": "address",
          "name": "verifyingContract",
          "type": "address"
        },
        {
          "internalType": "bytes32",
          "name": "salt",
          "type": "bytes32"
        },
        {
          "internalType": "uint256[]",
          "name": "extensions",
          "type": "uint256[]"
        }
      ],
      "stateMutability": "view",
      "type": "function"
    },
    {
      "inputs": [],
      "name": "getController",
      "outputs": [
        {
          "internalType": "address",
          "name": "",
          "type": "address"
        }
      ],
      "stateMutability": "view",
      "type": "function"
    },
    {
      "inputs": [],
      "name": "getFactory",
      "outputs": [
        {
          "internalType": "address",
          "name": "",
          "type": "address"
        }
      ],
      "stateMutability": "view",
      "type": "function"
    },
    {
      "inputs": [],
      "name": "getForwarder",
      "outputs": [
        {
          "internalType": "address",
          "name": "",
          "type": "address"
        }
      ],
      "stateMutability": "view",
      "type": "function"
    },
    {
      "inputs": [],
      "name": "getImpl",
      "outputs": [
        {
          "internalType": "address",
          "name": "",
          "type": "address"
        }
      ],
      "stateMutability": "view",
      "type": "function"
    },
    {
      "inputs": [],
      "name": "getOwner",
      "outputs": [
        {
          "internalType": "address",
          "name": "",
          "type": "address"
        }
      ],
      "stateMutability": "view",
      "type": "function"
    },
    {
      "inputs": [],
      "name": "getUnderlyingToken",
      "outputs": [
        {
          "internalType": "address",
          "name": "",
          "type": "address"
        }
      ],
      "stateMutability": "view",
      "type": "function"
    },
    {
      "inputs": [
        {
          "components": [
            {
              "internalType": "address",
              "name": "underlyingToken",
              "type": "address"
            }
          ],
          "internalType": "struct ERC20TokenWrappedImpl.InitializationData",
          "name": "initializationData",
          "type": "tuple"
        }
      ],
      "name": "hashInitialization",
      "outputs": [
        {
          "internalType": "bytes32",
          "name": "",
          "type": "bytes32"
        }
      ],
      "stateMutability": "view",
      "type": "function"
    },
    {
      "inputs": [
        {
          "internalType": "address",
          "name": "forwarder",
          "type": "address"
        },
        {
          "internalType": "address",
          "name": "underlyingToken",
          "type": "address"
        }
      ],
      "name": "initialize",
      "outputs": [],
      "stateMutability": "nonpayable",
      "type": "function"
    },
    {
      "inputs": [],
      "name": "isInitialized",
      "outputs": [
        {
          "internalType": "bool",
          "name": "",
          "type": "bool"
        }
      ],
      "stateMutability": "view",
      "type": "function"
    },
    {
      "inputs": [],
      "name": "isReady",
      "outputs": [
        {
          "internalType": "bool",
          "name": "",
          "type": "bool"
        }
      ],
      "stateMutability": "view",
      "type": "function"
    },
    {
      "inputs": [],
      "name": "name",
      "outputs": [
        {
          "internalType": "string",
          "name": "",
          "type": "string"
        }
      ],
      "stateMutability": "view",
      "type": "function"
    },
    {
      "inputs": [
        {
          "internalType": "address",
          "name": "controller",
          "type": "address"
        }
      ],
      "name": "setController",
      "outputs": [],
      "stateMutability": "nonpayable",
      "type": "function"
    },
    {
      "inputs": [
        {
          "internalType": "address",
          "name": "owner",
          "type": "address"
        }
      ],
      "name": "setOwner",
      "outputs": [],
      "stateMutability": "nonpayable",
      "type": "function"
    },
    {
      "inputs": [],
      "name": "setReady",
      "outputs": [],
      "stateMutability": "nonpayable",
      "type": "function"
    },
    {
      "inputs": [],
      "name": "symbol",
      "outputs": [
        {
          "internalType": "string",
          "name": "",
          "type": "string"
        }
      ],
      "stateMutability": "view",
      "type": "function"
    },
    {
      "inputs": [],
      "name": "totalSupply",
      "outputs": [
        {
          "internalType": "uint256",
          "name": "",
          "type": "uint256"
        }
      ],
      "stateMutability": "view",
      "type": "function"
    },
    {
      "inputs": [
        {
          "internalType": "address",
          "name": "to",
          "type": "address"
        },
        {
          "internalType": "uint256",
          "name": "value",
          "type": "uint256"
        }
      ],
      "name": "transfer",
      "outputs": [
        {
          "internalType": "bool",
          "name": "",
          "type": "bool"
        }
      ],
      "stateMutability": "nonpayable",
      "type": "function"
    },
    {
      "inputs": [
        {
          "internalType": "address",
          "name": "from",
          "type": "address"
        },
        {
          "internalType": "address",
          "name": "to",
          "type": "address"
        },
        {
          "internalType": "uint256",
          "name": "value",
          "type": "uint256"
        }
      ],
      "name": "transferFrom",
      "outputs": [
        {
          "internalType": "bool",
          "name": "",
          "type": "bool"
        }
      ],
      "stateMutability": "nonpayable",
      "type": "function"
    },
    {
      "inputs": [
        {
          "internalType": "uint256",
          "name": "value",
          "type": "uint256"
        }
      ],
      "name": "unwrap",
      "outputs": [],
      "stateMutability": "nonpayable",
      "type": "function"
    },
    {
      "inputs": [
        {
          "internalType": "address",
          "name": "to",
          "type": "address"
        },
        {
          "internalType": "uint256",
          "name": "value",
          "type": "uint256"
        }
      ],
      "name": "unwrapTo",
      "outputs": [],
      "stateMutability": "nonpayable",
      "type": "function"
    },
    {
      "inputs": [
        {
          "internalType": "uint256",
          "name": "value",
          "type": "uint256"
        }
      ],
      "name": "wrap",
      "outputs": [],
      "stateMutability": "nonpayable",
      "type": "function"
    },
    {
      "inputs": [
        {
          "internalType": "address",
          "name": "to",
          "type": "address"
        },
        {
          "internalType": "uint256",
          "name": "value",
          "type": "uint256"
        }
      ],
      "name": "wrapTo",
      "outputs": [],
      "stateMutability": "nonpayable",
      "type": "function"
    }
  ],
  "transactionHash": "0xa4003ced24b41b47199c989333bef75d7ce792b56ac41e1374e50bd4ff3fbc43",
  "args": [
    "OM!goods Wrapped Coin"
  ],
  "numDeployments": 1,
  "solcInputHash": "3c231b4b45fc16ef51b6ba82c0d650c2",
  "bytecode": "0x61016060405234801561001157600080fd5b506040516122bc3803806122bc83398101604081905261003091610280565b8080604051806020016040528060008152506040518060200160405280600081525082604051806040016040528060018152602001603160f81b81525061008160008361015360201b90919060201c565b61012052610090816001610153565b61014052815160208084019190912060e052815190820120610100524660a05261011d60e05161010051604080517f8b73c3c69bb8fe3d512ecc4cf759cc79239f7b179b0ffacaa9a75d522b39400f60208201529081019290925260608201524660808201523060a082015260009060c00160405160208183030381529060405280519060200120905090565b60805250503060c052600561013283826103bb565b50600661013f82826103bb565b5061014b915050610186565b5050506104d0565b600060208351101561016f5761016883610192565b9050610180565b8161017a84826103bb565b5060ff90505b92915050565b61019060016101dc565b565b600080829050601f815111156101c6578260405163305a27a960e01b81526004016101bd9190610479565b60405180910390fd5b80516101d1826104ac565b179392505050565b90565b80610234604051602001610213907f496e697469616c697a61626c6523696e697469616c697a656400000000000000815260190190565b604051602081830303815290604052805190602001206101d960201b60201c565b805460ff191691151591909117905550565b634e487b7160e01b600052604160045260246000fd5b60005b8381101561027757818101518382015260200161025f565b50506000910152565b60006020828403121561029257600080fd5b81516001600160401b038111156102a857600080fd5b8201601f810184136102b957600080fd5b80516001600160401b038111156102d2576102d2610246565b604051601f8201601f19908116603f011681016001600160401b038111828210171561030057610300610246565b60405281815282820160200186101561031857600080fd5b61032982602083016020860161025c565b95945050505050565b600181811c9082168061034657607f821691505b60208210810361036657634e487b7160e01b600052602260045260246000fd5b50919050565b601f8211156103b657806000526020600020601f840160051c810160208510156103935750805b601f840160051c820191505b818110156103b3576000815560010161039f565b50505b505050565b81516001600160401b038111156103d4576103d4610246565b6103e8816103e28454610332565b8461036c565b6020601f82116001811461041c57600083156104045750848201515b600019600385901b1c1916600184901b1784556103b3565b600084815260208120601f198516915b8281101561044c578785015182556020948501946001909201910161042c565b508482101561046a5786840151600019600387901b60f8161c191681555b50505050600190811b01905550565b602081526000825180602084015261049881604085016020870161025c565b601f01601f19169190910160400192915050565b805160208083015191908110156103665760001960209190910360031b1b16919050565b60805160a05160c05160e051610100516101205161014051611d9261052a6000396000610bc501526000610b98015260006114df015260006114b7015260006114120152600061143c015260006114660152611d926000f3fe608060405234801561001057600080fd5b50600436106101b95760003560e01c8063893d20e8116100f9578063c0fa2eee11610097578063de0e9a3e11610071578063de0e9a3e146103b5578063dfb80831146103c8578063ea598cb0146103d0578063ee719bc8146103e357600080fd5b8063c0fa2eee14610361578063c12ea3ca14610369578063dd62ed3e1461037c57600080fd5b80639f126fbe116100d35780639f126fbe14610310578063a004252614610323578063a094a0311461032b578063a9059cbb1461034e57600080fd5b8063893d20e8146102ed57806392eefe9b146102f557806395d89b411461030857600080fd5b8063313ce5671161016657806370a082311161014057806370a082311461028e57806372c83649146102b757806384b0196e146102ca57806388cc58e4146102e557600080fd5b8063313ce56714610259578063392e53cd14610273578063485cc9551461027b57600080fd5b806318160ddd1161019757806318160ddd1461021457806323b872dd146102265780633018205f1461023957600080fd5b806306fdde03146101be578063095ea7b3146101dc57806313af4035146101ff575b600080fd5b6101c66103f9565b6040516101d391906118ce565b60405180910390f35b6101ef6101ea3660046118f8565b610408565b60405190151581526020016101d3565b61021261020d366004611922565b610425565b005b6004545b6040519081526020016101d3565b6101ef61023436600461193d565b6104ac565b6102416104c9565b6040516001600160a01b0390911681526020016101d3565b6102616104dd565b60405160ff90911681526020016101d3565b6101ef6104e7565b61021261028936600461197a565b6104f1565b61021861029c366004611922565b6001600160a01b031660009081526002602052604090205490565b6102186102c53660046119ad565b6105aa565b6102d2610614565b6040516101d397969594939291906119c8565b610241610676565b610241610680565b610212610303366004611922565b610694565b6101c6610734565b61021261031e3660046118f8565b61073e565b610241610750565b60095474010000000000000000000000000000000000000000900460ff166101ef565b6101ef61035c3660046118f8565b610764565b610212610778565b6102126103773660046118f8565b61081e565b61021861038a36600461197a565b6001600160a01b03918216600090815260036020908152604080832093909416825291909152205490565b6102126103c3366004611a7c565b610830565b610241610847565b6102126103de366004611a7c565b610851565b600c5461010090046001600160a01b0316610241565b6060610403610868565b905090565b6000610412610903565b61041c83836109a5565b90505b92915050565b61042d6109c7565b6001600160a01b03811661046d576040517f465f799000000000000000000000000000000000000000000000000000000000815260040160405180910390fd5b600880547fffffffffffffffffffffffff0000000000000000000000000000000000000000166001600160a01b0383161790556104a9816109d7565b50565b60006104b6610903565b6104c1848484610a10565b949350505050565b60006104036009546001600160a01b031690565b6000610403610a3e565b6000610403610ab7565b6104f9610b11565b600780547fffffffffffffffffffffffff0000000000000000000000000000000000000000166001600160a01b038416179055600c80547fffffffffffffffffffffff0000000000000000000000000000000000000000ff166101006001600160a01b03841602179055600980547fffffffffffffffffffffff00ffffffffffffffffffffffffffffffffffffffff16740100000000000000000000000000000000000000001790555050565b5050565b600061041f7f5b4f426f4449994477219d96c2f52d82e3bf90cf693a4dab2033c4f73dd0560a6105dd6020850185611922565b6040516020016106009291909182526001600160a01b0316602082015260400190565b604051602081830303815290604052610b63565b600060608060008060006060610628610b91565b610630610bbe565b604080516000808252602082019092527f0f000000000000000000000000000000000000000000000000000000000000009b939a50919850469750309650945092509050565b6000610403610beb565b60006104036008546001600160a01b031690565b61069c610c32565b806001600160a01b03166106b86009546001600160a01b031690565b6001600160a01b0316036106f8576040517ff6d5cdeb00000000000000000000000000000000000000000000000000000000815260040160405180910390fd5b600980547fffffffffffffffffffffffff0000000000000000000000000000000000000000166001600160a01b0383161790556104a981610cb1565b6060610403610cd1565b6105a6610749610dc7565b8383610dd1565b60006104036007546001600160a01b031690565b600061076e610903565b61041c8383610e7d565b6107806109c7565b60095474010000000000000000000000000000000000000000900460ff16156107d5576040517fb27b883a00000000000000000000000000000000000000000000000000000000815260040160405180910390fd5b600980547fffffffffffffffffffffff00ffffffffffffffffffffffffffffffffffffffff167401000000000000000000000000000000000000000017905561081c610e95565b565b6105a6610829610dc7565b8383610e9f565b600061083a610dc7565b90506105a6818284610e9f565b6000610403610f45565b600061085b610dc7565b90506105a6818284610dd1565b6060600c60019054906101000a90046001600160a01b03166001600160a01b03166306fdde036040518163ffffffff1660e01b8152600401600060405180830381865afa1580156108bd573d6000803e3d6000fd5b505050506040513d6000823e601f3d9081017fffffffffffffffffffffffffffffffffffffffffffffffffffffffffffffffe01682016040526104039190810190611ac4565b60095474010000000000000000000000000000000000000000900460ff1661081c57600061092f610dc7565b90506109436009546001600160a01b031690565b6001600160a01b0316816001600160a01b0316148061096f57506008546001600160a01b038281169116145b6104a9576040517fdaa9e54400000000000000000000000000000000000000000000000000000000815260040160405180910390fd5b6000806109b0610dc7565b90506109bd818585610f7d565b5060019392505050565b61081c6109d2610dc7565b610f8a565b6109e081610fe6565b604080516001600160a01b03831660208201526104a991600191015b604051602081830303815290604052611025565b600080610a1b610dc7565b9050610a28858285611090565b610a33858585611144565b506001949350505050565b6000600c60019054906101000a90046001600160a01b03166001600160a01b031663313ce5676040518163ffffffff1660e01b8152600401602060405180830381865afa158015610a93573d6000803e3d6000fd5b505050506040513d601f19601f820116820180604052508101906104039190611bb6565b6000610b08604051602001610aef907f496e697469616c697a61626c6523696e697469616c697a656400000000000000815260190190565b6040516020818303038152906040528051906020012090565b5460ff16919050565b610b19610beb565b6001600160a01b0316336001600160a01b03161461081c576040517feae2104a00000000000000000000000000000000000000000000000000000000815260040160405180910390fd5b600080610b6e610beb565b6001600160a01b031603610b8c5761041f82805190602001206111d5565b919050565b60606104037f0000000000000000000000000000000000000000000000000000000000000000600061121d565b60606104037f0000000000000000000000000000000000000000000000000000000000000000600161121d565b6000610c23604051602001610aef907f436c6f6e6523666163746f7279000000000000000000000000000000000000008152600d0190565b546001600160a01b0316919050565b6000610c3c610dc7565b60095490915074010000000000000000000000000000000000000000900460ff16610c6a576104a981610f8a565b6009546001600160a01b038281169116146104a9576040517f16b45a5400000000000000000000000000000000000000000000000000000000815260040160405180910390fd5b604080516001600160a01b03831660208201526104a991600291016109fc565b60606040518060400160405280600181526020017f7700000000000000000000000000000000000000000000000000000000000000815250600c60019054906101000a90046001600160a01b03166001600160a01b03166395d89b416040518163ffffffff1660e01b8152600401600060405180830381865afa158015610d5c573d6000803e3d6000fd5b505050506040513d6000823e601f3d9081017fffffffffffffffffffffffffffffffffffffffffffffffffffffffffffffffe0168201604052610da29190810190611ac4565b604051602001610db3929190611be0565b604051602081830303815290604052905090565b60006104036112c8565b600c546040517f23b872dd0000000000000000000000000000000000000000000000000000000081526001600160a01b03858116600483015230602483015260448201849052610100909204909116906323b872dd906064016020604051808303816000875af1158015610e49573d6000803e3d6000fd5b505050506040513d601f19601f82011682018060405250810190610e6d9190611c0f565b50610e78828261131f565b505050565b600080610e88610dc7565b90506109bd818585611144565b61081c600061136e565b610ea98382611388565b600c546040517fa9059cbb0000000000000000000000000000000000000000000000000000000081526001600160a01b038481166004830152602482018490526101009092049091169063a9059cbb906044016020604051808303816000875af1158015610f1b573d6000803e3d6000fd5b505050506040513d601f19601f82011682018060405250810190610f3f9190611c0f565b50505050565b6000610c23604051602001610aef907f436c6f6e6523696d706c000000000000000000000000000000000000000000008152600a0190565b610e7883838360016113d7565b806001600160a01b0316610fa66008546001600160a01b031690565b6001600160a01b0316146104a9576040517fbfb2c26800000000000000000000000000000000000000000000000000000000815260040160405180910390fd5b6040516001600160a01b03821681527f4ffd725fc4a22075e9ec71c59edf9c38cdeb588a91b24fc5b61388c5be41282b9060200160405180910390a150565b61102d610beb565b6001600160a01b031663f70eb5be83836040518363ffffffff1660e01b815260040161105a929190611c31565b600060405180830381600087803b15801561107457600080fd5b505af1158015611088573d6000803e3d6000fd5b505050505050565b6001600160a01b038381166000908152600360209081526040808320938616835292905220547fffffffffffffffffffffffffffffffffffffffffffffffffffffffffffffffff8114610f3f5781811015611135576040517ffb8f41b20000000000000000000000000000000000000000000000000000000081526001600160a01b038416600482015260248101829052604481018390526064015b60405180910390fd5b610f3f848484840360006113d7565b6001600160a01b038316611187576040517f96c6fd1e0000000000000000000000000000000000000000000000000000000081526000600482015260240161112c565b6001600160a01b0382166111ca576040517fec442f050000000000000000000000000000000000000000000000000000000081526000600482015260240161112c565b610e788383836113ef565b600061041f6111e2611405565b836040517f19010000000000000000000000000000000000000000000000000000000000008152600281019290925260228201526042902090565b606060ff83146112375761123083611530565b905061041f565b81805461124390611c4d565b80601f016020809104026020016040519081016040528092919081815260200182805461126f90611c4d565b80156112bc5780601f10611291576101008083540402835291602001916112bc565b820191906000526020600020905b81548152906001019060200180831161129f57829003601f168201915b5050505050905061041f565b60075460009036906001600160a01b0316331480156112e8575060148110155b15611318576000366112fb601484611ccf565b611306928290611ce2565b61130f91611d0c565b60601c91505090565b3391505090565b6001600160a01b038216611362576040517fec442f050000000000000000000000000000000000000000000000000000000081526000600482015260240161112c565b6105a6600083836113ef565b6040805160008152602081019091526104a9908290611025565b6001600160a01b0382166113cb576040517f96c6fd1e0000000000000000000000000000000000000000000000000000000081526000600482015260240161112c565b6105a6826000836113ef565b6113e4848484600161156f565b610f3f848484611676565b6113fa8383836116a9565b610e788383836117ec565b6000306001600160a01b037f00000000000000000000000000000000000000000000000000000000000000001614801561145e57507f000000000000000000000000000000000000000000000000000000000000000046145b1561148857507f000000000000000000000000000000000000000000000000000000000000000090565b610403604080517f8b73c3c69bb8fe3d512ecc4cf759cc79239f7b179b0ffacaa9a75d522b39400f60208201527f0000000000000000000000000000000000000000000000000000000000000000918101919091527f000000000000000000000000000000000000000000000000000000000000000060608201524660808201523060a082015260009060c00160405160208183030381529060405280519060200120905090565b6060600061153d8361181f565b604080516020808252818301909252919250600091906020820181803683375050509182525060208101929092525090565b6001600160a01b0384166115b2576040517fe602df050000000000000000000000000000000000000000000000000000000081526000600482015260240161112c565b6001600160a01b0383166115f5576040517f94280d620000000000000000000000000000000000000000000000000000000081526000600482015260240161112c565b6001600160a01b0380851660009081526003602090815260408083209387168352929052208290558015610f3f57826001600160a01b0316846001600160a01b03167f8c5be1e5ebec7d5bd14f71427d1e84f3dd0314c0f7b2291e5b200ac8c7c3b9258460405161166891815260200190565b60405180910390a350505050565b604080516001600160a01b03808616602083015284169181019190915260608101829052610e78906051906080016109fc565b6001600160a01b0383166116d45780600460008282546116c99190611d72565b9091555061175f9050565b6001600160a01b03831660009081526002602052604090205481811015611740576040517fe450d38c0000000000000000000000000000000000000000000000000000000081526001600160a01b0385166004820152602481018290526044810183905260640161112c565b6001600160a01b03841660009081526002602052604090209082900390555b6001600160a01b03821661177b5760048054829003905561179a565b6001600160a01b03821660009081526002602052604090208054820190555b816001600160a01b0316836001600160a01b03167fddf252ad1be2c89b69c2b068fc378daa952ba7f163c4a11628f55a4df523b3ef836040516117df91815260200190565b60405180910390a3505050565b604080516001600160a01b03808616602083015284169181019190915260608101829052610e78906050906080016109fc565b600060ff8216601f81111561041f576040517fb3512b0c00000000000000000000000000000000000000000000000000000000815260040160405180910390fd5b60005b8381101561187b578181015183820152602001611863565b50506000910152565b6000815180845261189c816020860160208601611860565b601f017fffffffffffffffffffffffffffffffffffffffffffffffffffffffffffffffe0169290920160200192915050565b60208152600061041c6020830184611884565b80356001600160a01b0381168114610b8c57600080fd5b6000806040838503121561190b57600080fd5b611914836118e1565b946020939093013593505050565b60006020828403121561193457600080fd5b61041c826118e1565b60008060006060848603121561195257600080fd5b61195b846118e1565b9250611969602085016118e1565b929592945050506040919091013590565b6000806040838503121561198d57600080fd5b611996836118e1565b91506119a4602084016118e1565b90509250929050565b600060208284031280156119c057600080fd5b509092915050565b7fff000000000000000000000000000000000000000000000000000000000000008816815260e060208201526000611a0360e0830189611884565b8281036040840152611a158189611884565b606084018890526001600160a01b038716608085015260a0840186905283810360c08501528451808252602080870193509091019060005b81811015611a6b578351835260209384019390920191600101611a4d565b50909b9a5050505050505050505050565b600060208284031215611a8e57600080fd5b5035919050565b7f4e487b7100000000000000000000000000000000000000000000000000000000600052604160045260246000fd5b600060208284031215611ad657600080fd5b815167ffffffffffffffff811115611aed57600080fd5b8201601f81018413611afe57600080fd5b805167ffffffffffffffff811115611b1857611b18611a95565b6040517fffffffffffffffffffffffffffffffffffffffffffffffffffffffffffffffe0603f7fffffffffffffffffffffffffffffffffffffffffffffffffffffffffffffffe0601f8501160116810181811067ffffffffffffffff82111715611b8457611b84611a95565b604052818152828201602001861015611b9c57600080fd5b611bad826020830160208601611860565b95945050505050565b600060208284031215611bc857600080fd5b815160ff81168114611bd957600080fd5b9392505050565b60008351611bf2818460208801611860565b835190830190611c06818360208801611860565b01949350505050565b600060208284031215611c2157600080fd5b81518015158114611bd957600080fd5b60ff831681526040602082015260006104c16040830184611884565b600181811c90821680611c6157607f821691505b602082108103611c9a577f4e487b7100000000000000000000000000000000000000000000000000000000600052602260045260246000fd5b50919050565b7f4e487b7100000000000000000000000000000000000000000000000000000000600052601160045260246000fd5b8181038181111561041f5761041f611ca0565b60008085851115611cf257600080fd5b83861115611cff57600080fd5b5050820193919092039150565b80357fffffffffffffffffffffffffffffffffffffffff0000000000000000000000008116906014841015611d6b577fffffffffffffffffffffffffffffffffffffffff000000000000000000000000808560140360031b1b82161691505b5092915050565b8082018082111561041f5761041f611ca056fea164736f6c634300081b000a",
  "devdoc": {
    "errors": {
      "ERC20InsufficientAllowance(address,uint256,uint256)": [
        {
          "details": "Indicates a failure with the `spender`’s `allowance`. Used in transfers.",
          "params": {
            "allowance": "Amount of tokens a `spender` is allowed to operate with.",
            "needed": "Minimum amount required to perform a transfer.",
            "spender": "Address that may be allowed to operate on tokens without being their owner."
          }
        }
      ],
      "ERC20InsufficientBalance(address,uint256,uint256)": [
        {
          "details": "Indicates an error related to the current `balance` of a `sender`. Used in transfers.",
          "params": {
            "balance": "Current balance for the interacting account.",
            "needed": "Minimum amount required to perform a transfer.",
            "sender": "Address whose tokens are being transferred."
          }
        }
      ],
      "ERC20InvalidApprover(address)": [
        {
          "details": "Indicates a failure with the `approver` of a token to be approved. Used in approvals.",
          "params": {
            "approver": "Address initiating an approval operation."
          }
        }
      ],
      "ERC20InvalidReceiver(address)": [
        {
          "details": "Indicates a failure with the token `receiver`. Used in transfers.",
          "params": {
            "receiver": "Address to which tokens are being transferred."
          }
        }
      ],
      "ERC20InvalidSender(address)": [
        {
          "details": "Indicates a failure with the token `sender`. Used in transfers.",
          "params": {
            "sender": "Address whose tokens are being transferred."
          }
        }
      ],
      "ERC20InvalidSpender(address)": [
        {
          "details": "Indicates a failure with the `spender` to be approved. Used in approvals.",
          "params": {
            "spender": "Address that may be allowed to operate on tokens without being their owner."
          }
        }
      ]
    },
    "events": {
      "Approval(address,address,uint256)": {
        "details": "Emitted when the allowance of a `spender` for an `owner` is set by a call to {approve}. `value` is the new allowance."
      },
      "EIP712DomainChanged()": {
        "details": "MAY be emitted to signal that the domain could have changed."
      },
      "Transfer(address,address,uint256)": {
        "details": "Emitted when `value` tokens are moved from one account (`from`) to another (`to`). Note that `value` may be zero."
      }
    },
    "kind": "dev",
    "methods": {
      "allowance(address,address)": {
        "details": "See {IERC20-allowance}."
      },
      "approve(address,uint256)": {
        "details": "See {IERC20-approve}. NOTE: If `value` is the maximum `uint256`, the allowance is not updated on `transferFrom`. This is semantically equivalent to an infinite approval. Requirements: - `spender` cannot be the zero address."
      },
      "balanceOf(address)": {
        "details": "See {IERC20-balanceOf}."
      },
      "decimals()": {
        "details": "Returns the number of decimals used to get its user representation. For example, if `decimals` equals `2`, a balance of `505` tokens should be displayed to a user as `5.05` (`505 / 10 ** 2`). Tokens usually opt for a value of 18, imitating the relationship between Ether and Wei. This is the default value returned by this function, unless it's overridden. NOTE: This information is only used for _display_ purposes: it in no way affects any of the arithmetic of the contract, including {IERC20-balanceOf} and {IERC20-transfer}."
      },
      "eip712Domain()": {
        "details": "See {IERC-5267}."
      },
      "name()": {
        "details": "Returns the name of the token."
      },
      "symbol()": {
        "details": "Returns the symbol of the token, usually a shorter version of the name."
      },
      "totalSupply()": {
        "details": "See {IERC20-totalSupply}."
      },
      "transfer(address,uint256)": {
        "details": "See {IERC20-transfer}. Requirements: - `to` cannot be the zero address. - the caller must have a balance of at least `value`."
      },
      "transferFrom(address,address,uint256)": {
        "details": "See {IERC20-transferFrom}. Skips emitting an {Approval} event indicating an allowance update. This is not required by the ERC. See {xref-ERC20-_approve-address-address-uint256-bool-}[_approve]. NOTE: Does not update the allowance if the current allowance is the maximum `uint256`. Requirements: - `from` and `to` cannot be the zero address. - `from` must have a balance of at least `value`. - the caller must have allowance for ``from``'s tokens of at least `value`."
      }
    },
    "version": 1
  },
  "userdoc": {
    "kind": "user",
    "methods": {},
    "version": 1
  },
  "storageLayout": {
    "storage": [
      {
        "astId": 3304,
        "contract": "contracts/tokens/erc20/impls/ERC20TokenWrappedImpl.sol:ERC20TokenWrappedImpl",
        "label": "_nameFallback",
        "offset": 0,
        "slot": "0",
        "type": "t_string_storage"
      },
      {
        "astId": 3306,
        "contract": "contracts/tokens/erc20/impls/ERC20TokenWrappedImpl.sol:ERC20TokenWrappedImpl",
        "label": "_versionFallback",
        "offset": 0,
        "slot": "1",
        "type": "t_string_storage"
      },
      {
        "astId": 361,
        "contract": "contracts/tokens/erc20/impls/ERC20TokenWrappedImpl.sol:ERC20TokenWrappedImpl",
        "label": "_balances",
        "offset": 0,
        "slot": "2",
        "type": "t_mapping(t_address,t_uint256)"
      },
      {
        "astId": 367,
        "contract": "contracts/tokens/erc20/impls/ERC20TokenWrappedImpl.sol:ERC20TokenWrappedImpl",
        "label": "_allowances",
        "offset": 0,
        "slot": "3",
        "type": "t_mapping(t_address,t_mapping(t_address,t_uint256))"
      },
      {
        "astId": 369,
        "contract": "contracts/tokens/erc20/impls/ERC20TokenWrappedImpl.sol:ERC20TokenWrappedImpl",
        "label": "_totalSupply",
        "offset": 0,
        "slot": "4",
        "type": "t_uint256"
      },
      {
        "astId": 371,
        "contract": "contracts/tokens/erc20/impls/ERC20TokenWrappedImpl.sol:ERC20TokenWrappedImpl",
        "label": "_name",
        "offset": 0,
        "slot": "5",
        "type": "t_string_storage"
      },
      {
        "astId": 373,
        "contract": "contracts/tokens/erc20/impls/ERC20TokenWrappedImpl.sol:ERC20TokenWrappedImpl",
        "label": "_symbol",
        "offset": 0,
        "slot": "6",
        "type": "t_string_storage"
      },
      {
        "astId": 8149,
        "contract": "contracts/tokens/erc20/impls/ERC20TokenWrappedImpl.sol:ERC20TokenWrappedImpl",
        "label": "_forwarder",
        "offset": 0,
        "slot": "7",
        "type": "t_address"
      },
      {
        "astId": 7337,
        "contract": "contracts/tokens/erc20/impls/ERC20TokenWrappedImpl.sol:ERC20TokenWrappedImpl",
        "label": "_owner",
        "offset": 0,
        "slot": "8",
        "type": "t_address"
      },
      {
        "astId": 9233,
        "contract": "contracts/tokens/erc20/impls/ERC20TokenWrappedImpl.sol:ERC20TokenWrappedImpl",
        "label": "_controller",
        "offset": 0,
        "slot": "9",
        "type": "t_address"
      },
      {
        "astId": 9235,
        "contract": "contracts/tokens/erc20/impls/ERC20TokenWrappedImpl.sol:ERC20TokenWrappedImpl",
        "label": "_ready",
        "offset": 20,
        "slot": "9",
        "type": "t_bool"
      },
      {
        "astId": 9671,
        "contract": "contracts/tokens/erc20/impls/ERC20TokenWrappedImpl.sol:ERC20TokenWrappedImpl",
        "label": "_name",
        "offset": 0,
        "slot": "10",
        "type": "t_string_storage"
      },
      {
        "astId": 9673,
        "contract": "contracts/tokens/erc20/impls/ERC20TokenWrappedImpl.sol:ERC20TokenWrappedImpl",
        "label": "_symbol",
        "offset": 0,
        "slot": "11",
        "type": "t_string_storage"
      },
      {
        "astId": 9675,
        "contract": "contracts/tokens/erc20/impls/ERC20TokenWrappedImpl.sol:ERC20TokenWrappedImpl",
        "label": "_decimals",
        "offset": 0,
        "slot": "12",
        "type": "t_uint8"
      },
      {
        "astId": 10112,
        "contract": "contracts/tokens/erc20/impls/ERC20TokenWrappedImpl.sol:ERC20TokenWrappedImpl",
        "label": "_underlyingToken",
        "offset": 1,
        "slot": "12",
        "type": "t_address"
      }
    ],
    "types": {
      "t_address": {
        "encoding": "inplace",
        "label": "address",
        "numberOfBytes": "20"
      },
      "t_bool": {
        "encoding": "inplace",
        "label": "bool",
        "numberOfBytes": "1"
      },
      "t_mapping(t_address,t_mapping(t_address,t_uint256))": {
        "encoding": "mapping",
        "key": "t_address",
        "label": "mapping(address => mapping(address => uint256))",
        "numberOfBytes": "32",
        "value": "t_mapping(t_address,t_uint256)"
      },
      "t_mapping(t_address,t_uint256)": {
        "encoding": "mapping",
        "key": "t_address",
        "label": "mapping(address => uint256)",
        "numberOfBytes": "32",
        "value": "t_uint256"
      },
      "t_string_storage": {
        "encoding": "bytes",
        "label": "string",
        "numberOfBytes": "32"
      },
      "t_uint256": {
        "encoding": "inplace",
        "label": "uint256",
        "numberOfBytes": "32"
      },
      "t_uint8": {
        "encoding": "inplace",
        "label": "uint8",
        "numberOfBytes": "1"
      }
    }
  }
}