{
  "address": "0xd55a42dfDc552B3b4B95a4cE7F5206dFcBed2DFD",
  "abi": [
    {
      "inputs": [
        {
          "internalType": "string",
          "name": "eip712Name",
          "type": "string"
        },
        {
          "internalType": "address",
          "name": "owner",
          "type": "address"
        },
        {
          "internalType": "address",
          "name": "cloneTarget",
          "type": "address"
        }
      ],
      "stateMutability": "nonpayable",
      "type": "constructor"
    },
    {
      "inputs": [],
      "name": "AlreadyInitialized",
      "type": "error"
    },
    {
      "inputs": [],
      "name": "ECDSAInvalidSignature",
      "type": "error"
    },
    {
      "inputs": [
        {
          "internalType": "uint256",
          "name": "length",
          "type": "uint256"
        }
      ],
      "name": "ECDSAInvalidSignatureLength",
      "type": "error"
    },
    {
      "inputs": [
        {
          "internalType": "bytes32",
          "name": "s",
          "type": "bytes32"
        }
      ],
      "name": "ECDSAInvalidSignatureS",
      "type": "error"
    },
    {
      "inputs": [],
      "name": "FailedDeployment",
      "type": "error"
    },
    {
      "inputs": [],
      "name": "GuardianAlreadyExists",
      "type": "error"
    },
    {
      "inputs": [],
      "name": "GuardianDoesntExist",
      "type": "error"
    },
    {
      "inputs": [],
      "name": "GuardianIsTheZeroAddress",
      "type": "error"
    },
    {
      "inputs": [
        {
          "internalType": "uint256",
          "name": "balance",
          "type": "uint256"
        },
        {
          "internalType": "uint256",
          "name": "needed",
          "type": "uint256"
        }
      ],
      "name": "InsufficientBalance",
      "type": "error"
    },
    {
      "inputs": [],
      "name": "InvalidGuardianSignature",
      "type": "error"
    },
    {
      "inputs": [],
      "name": "InvalidShortString",
      "type": "error"
    },
    {
      "inputs": [],
      "name": "MsgSenderIsNotTheOwner",
      "type": "error"
    },
    {
      "inputs": [],
      "name": "MsgSenderIsNotTheToken",
      "type": "error"
    },
    {
      "inputs": [],
      "name": "OwnerIsTheZeroAddress",
      "type": "error"
    },
    {
      "inputs": [
        {
          "internalType": "string",
          "name": "str",
          "type": "string"
        }
      ],
      "name": "StringTooLong",
      "type": "error"
    },
    {
      "anonymous": false,
      "inputs": [],
      "name": "EIP712DomainChanged",
      "type": "event"
    },
    {
      "anonymous": false,
      "inputs": [
        {
          "indexed": false,
          "internalType": "address",
          "name": "guardian",
          "type": "address"
        }
      ],
      "name": "GuardianAdded",
      "type": "event"
    },
    {
      "anonymous": false,
      "inputs": [
        {
          "indexed": false,
          "internalType": "address",
          "name": "guardian",
          "type": "address"
        }
      ],
      "name": "GuardianRemoved",
      "type": "event"
    },
    {
      "anonymous": false,
      "inputs": [
        {
          "indexed": false,
          "internalType": "address",
          "name": "forwarder",
          "type": "address"
        },
        {
          "indexed": false,
          "internalType": "address[]",
          "name": "guardians",
          "type": "address[]"
        }
      ],
      "name": "Initialized",
      "type": "event"
    },
    {
      "anonymous": false,
      "inputs": [
        {
          "indexed": false,
          "internalType": "address",
          "name": "owner",
          "type": "address"
        }
      ],
      "name": "OwnerUpdated",
      "type": "event"
    },
    {
      "anonymous": false,
      "inputs": [
        {
          "indexed": false,
          "internalType": "address",
          "name": "token",
          "type": "address"
        },
        {
          "indexed": false,
          "internalType": "address",
          "name": "impl",
          "type": "address"
        },
        {
          "indexed": false,
          "internalType": "bytes",
          "name": "initData",
          "type": "bytes"
        },
        {
          "indexed": false,
          "internalType": "uint256",
          "name": "timestamp",
          "type": "uint256"
        }
      ],
      "name": "TokenCreated",
      "type": "event"
    },
    {
      "anonymous": false,
      "inputs": [
        {
          "indexed": false,
          "internalType": "address",
          "name": "token",
          "type": "address"
        },
        {
          "indexed": false,
          "internalType": "uint8",
          "name": "kind",
          "type": "uint8"
        },
        {
          "indexed": false,
          "internalType": "bytes",
          "name": "encodedData",
          "type": "bytes"
        },
        {
          "indexed": false,
          "internalType": "uint256",
          "name": "timestamp",
          "type": "uint256"
        }
      ],
      "name": "TokenNotification",
      "type": "event"
    },
    {
      "inputs": [
        {
          "internalType": "address",
          "name": "guardian",
          "type": "address"
        }
      ],
      "name": "addGuardian",
      "outputs": [],
      "stateMutability": "nonpayable",
      "type": "function"
    },
    {
      "inputs": [
        {
          "internalType": "bytes32",
          "name": "salt",
          "type": "bytes32"
        }
      ],
      "name": "computeToken",
      "outputs": [
        {
          "internalType": "address",
          "name": "",
          "type": "address"
        }
      ],
      "stateMutability": "view",
      "type": "function"
    },
    {
      "inputs": [
        {
          "internalType": "bytes32",
          "name": "salt",
          "type": "bytes32"
        },
        {
          "internalType": "address",
          "name": "impl",
          "type": "address"
        },
        {
          "internalType": "bytes",
          "name": "initData",
          "type": "bytes"
        },
        {
          "internalType": "bytes",
          "name": "signature",
          "type": "bytes"
        }
      ],
      "name": "createToken",
      "outputs": [],
      "stateMutability": "nonpayable",
      "type": "function"
    },
    {
      "inputs": [
        {
          "internalType": "bytes32",
          "name": "salt",
          "type": "bytes32"
        },
        {
          "internalType": "address",
          "name": "impl",
          "type": "address"
        },
        {
          "internalType": "bytes",
          "name": "initData",
          "type": "bytes"
        }
      ],
      "name": "createToken",
      "outputs": [],
      "stateMutability": "nonpayable",
      "type": "function"
    },
    {
      "inputs": [],
      "name": "eip712Domain",
      "outputs": [
        {
          "internalType": "bytes1",
          "name": "fields",
          "type": "bytes1"
        },
        {
          "internalType": "string",
          "name": "name",
          "type": "string"
        },
        {
          "internalType": "string",
          "name": "version",
          "type": "string"
        },
        {
          "internalType": "uint256",
          "name": "chainId",
          "type": "uint256"
        },
        {
          "internalType": "address",
          "name": "verifyingContract",
          "type": "address"
        },
        {
          "internalType": "bytes32",
          "name": "salt",
          "type": "bytes32"
        },
        {
          "internalType": "uint256[]",
          "name": "extensions",
          "type": "uint256[]"
        }
      ],
      "stateMutability": "view",
      "type": "function"
    },
    {
      "inputs": [
        {
          "internalType": "uint8",
          "name": "kind",
          "type": "uint8"
        },
        {
          "internalType": "bytes",
          "name": "encodedData",
          "type": "bytes"
        }
      ],
      "name": "emitTokenNotification",
      "outputs": [],
      "stateMutability": "nonpayable",
      "type": "function"
    },
    {
      "inputs": [],
      "name": "getForwarder",
      "outputs": [
        {
          "internalType": "address",
          "name": "",
          "type": "address"
        }
      ],
      "stateMutability": "view",
      "type": "function"
    },
    {
      "inputs": [],
      "name": "getOwner",
      "outputs": [
        {
          "internalType": "address",
          "name": "",
          "type": "address"
        }
      ],
      "stateMutability": "view",
      "type": "function"
    },
    {
      "inputs": [
        {
          "components": [
            {
              "internalType": "bytes32",
              "name": "salt",
              "type": "bytes32"
            },
            {
              "internalType": "address",
              "name": "impl",
              "type": "address"
            },
            {
              "internalType": "bytes",
              "name": "initData",
              "type": "bytes"
            }
          ],
          "internalType": "struct TokenFactory.TokenData",
          "name": "tokenData",
          "type": "tuple"
        }
      ],
      "name": "hashToken",
      "outputs": [
        {
          "internalType": "bytes32",
          "name": "",
          "type": "bytes32"
        }
      ],
      "stateMutability": "view",
      "type": "function"
    },
    {
      "inputs": [
        {
          "internalType": "address",
          "name": "forwarder",
          "type": "address"
        },
        {
          "internalType": "address[]",
          "name": "guardians",
          "type": "address[]"
        }
      ],
      "name": "initialize",
      "outputs": [],
      "stateMutability": "nonpayable",
      "type": "function"
    },
    {
      "inputs": [
        {
          "internalType": "address",
          "name": "guardian",
          "type": "address"
        }
      ],
      "name": "isGuardian",
      "outputs": [
        {
          "internalType": "bool",
          "name": "",
          "type": "bool"
        }
      ],
      "stateMutability": "view",
      "type": "function"
    },
    {
      "inputs": [],
      "name": "isInitialized",
      "outputs": [
        {
          "internalType": "bool",
          "name": "",
          "type": "bool"
        }
      ],
      "stateMutability": "view",
      "type": "function"
    },
    {
      "inputs": [
        {
          "internalType": "address",
          "name": "token",
          "type": "address"
        }
      ],
      "name": "isToken",
      "outputs": [
        {
          "internalType": "bool",
          "name": "",
          "type": "bool"
        }
      ],
      "stateMutability": "view",
      "type": "function"
    },
    {
      "inputs": [
        {
          "internalType": "address",
          "name": "guardian",
          "type": "address"
        }
      ],
      "name": "removeGuardian",
      "outputs": [],
      "stateMutability": "nonpayable",
      "type": "function"
    },
    {
      "inputs": [
        {
          "internalType": "address",
          "name": "owner",
          "type": "address"
        }
      ],
      "name": "setOwner",
      "outputs": [],
      "stateMutability": "nonpayable",
      "type": "function"
    }
  ],
  "transactionHash": "0x6263e9a11cbfb319e4fd8c53d22faea1856a0971a9d7cf6ef1d95e15da188c51",
  "args": [
    "OM!goods Coin Factory",
    "0x24a02d900C82E4590A3Be05b9601f658fDdabF7b",
    "0x7A4ADf885940351C189eBC217a6673365F72856C"
  ],
  "numDeployments": 1,
  "solcInputHash": "48b7536c1f70d8010a7f440f5d78645b",
  "bytecode": "0x61018060405234801561001157600080fd5b5060405161214838038061214883398101604081905261003091610230565b6040805180820190915260018152603160f81b60208201528190849061005782600061011a565b6101205261006681600161011a565b61014052815160208084019190912060e052815190820120610100524660a0526100f360e05161010051604080517f8b73c3c69bb8fe3d512ecc4cf759cc79239f7b179b0ffacaa9a75d522b39400f60208201529081019290925260608201524660808201523060a082015260009060c00160405160208183030381529060405280519060200120905090565b60805250503060c0526001600160a01b0316610160526101128261014d565b5050506104a2565b60006020835110156101365761012f83610193565b9050610147565b81610141848261038d565b5060ff90505b92915050565b6101906001600160a01b0382161561017c57600380546001600160a01b0319166001600160a01b038416179055565b600380546001600160a01b03191633179055565b50565b600080829050601f815111156101c7578260405163305a27a960e01b81526004016101be919061044b565b60405180910390fd5b80516101d28261047e565b179392505050565b634e487b7160e01b600052604160045260246000fd5b60005b8381101561020b5781810151838201526020016101f3565b50506000910152565b80516001600160a01b038116811461022b57600080fd5b919050565b60008060006060848603121561024557600080fd5b83516001600160401b0381111561025b57600080fd5b8401601f8101861361026c57600080fd5b80516001600160401b03811115610285576102856101da565b604051601f8201601f19908116603f011681016001600160401b03811182821017156102b3576102b36101da565b6040528181528282016020018810156102cb57600080fd5b6102dc8260208301602086016101f0565b94506102ed91505060208501610214565b91506102fb60408501610214565b90509250925092565b600181811c9082168061031857607f821691505b60208210810361033857634e487b7160e01b600052602260045260246000fd5b50919050565b601f82111561038857806000526020600020601f840160051c810160208510156103655750805b601f840160051c820191505b818110156103855760008155600101610371565b50505b505050565b81516001600160401b038111156103a6576103a66101da565b6103ba816103b48454610304565b8461033e565b6020601f8211600181146103ee57600083156103d65750848201515b600019600385901b1c1916600184901b178455610385565b600084815260208120601f198516915b8281101561041e57878501518255602094850194600190920191016103fe565b508482101561043c5786840151600019600387901b60f8161c191681555b50505050600190811b01905550565b602081526000825180602084015261046a8160408501602087016101f0565b601f01601f19169190910160400192915050565b805160208083015191908110156103385760001960209190910360031b1b16919050565b60805160a05160c05160e05161010051610120516101405161016051611c3a61050e600039600081816108ad0152610ec401526000610955015260006109280152600061106e0152600061104601526000610fa101526000610fcb01526000610ff50152611c3a6000f3fe608060405234801561001057600080fd5b50600436106100f55760003560e01c806384b0196e11610097578063a004252611610066578063a004252614610207578063a526d83b1461020f578063df9440bf14610222578063f70eb5be1461023557600080fd5b806384b0196e146101be57806387683f39146101d9578063893d20e8146101ec578063946d9204146101f457600080fd5b8063392e53cd116100d3578063392e53cd1461014a5780635531b8fc14610152578063714041561461017357806380a31f031461018657600080fd5b80630c68ba21146100fa57806313af40351461012257806319f3736114610137575b600080fd5b61010d610108366004611507565b610248565b60405190151581526020015b60405180910390f35b610135610130366004611507565b610259565b005b61010d610145366004611507565b6102fa565b61010d610327565b610165610160366004611522565b610336565b604051908152602001610119565b610135610181366004611507565b61035f565b61019961019436600461155d565b6103bd565b60405173ffffffffffffffffffffffffffffffffffffffff9091168152602001610119565b6101c66103c8565b60405161011997969594939291906115da565b6101356101e73660046116e4565b61042a565b61019961045a565b610135610202366004611773565b61047b565b610199610515565b61013561021d366004611507565b610536565b6101356102303660046117fb565b61058d565b610135610243366004611855565b6105a7565b6000610253826105c1565b92915050565b610261610642565b73ffffffffffffffffffffffffffffffffffffffff81166102ae576040517f465f799000000000000000000000000000000000000000000000000000000000815260040160405180910390fd5b600380547fffffffffffffffffffffffff00000000000000000000000000000000000000001673ffffffffffffffffffffffffffffffffffffffff83161790556102f781610654565b50565b73ffffffffffffffffffffffffffffffffffffffff81166000908152600560205260408120541515610253565b600061033161069a565b905090565b6000610253823561034d6040850160208601611507565b61035a60408601866118b0565b6106f4565b610367610642565b61037081610794565b60405173ffffffffffffffffffffffffffffffffffffffff821681527fb8107d0c6b40be480ce3172ee66ba6d64b71f6b1685a851340036e6e2e3e3c52906020015b60405180910390a150565b60006102538261088c565b6000606080600080600060606103dc610921565b6103e461094e565b604080516000808252602082019092527f0f000000000000000000000000000000000000000000000000000000000000009b939a50919850469750309650945092509050565b6000610438878787876106f4565b905061044581848461097b565b61045187878787610a00565b50505050505050565b600061033160035473ffffffffffffffffffffffffffffffffffffffff1690565b610483610642565b61048b610ab5565b600280547fffffffffffffffffffffffff00000000000000000000000000000000000000001673ffffffffffffffffffffffffffffffffffffffff85161790556104d58282610afc565b7f0feb0f9ede834a7ddfe99175340e9b07082bade6db9fcb833542ecf363f284b883838360405161050893929190611915565b60405180910390a1505050565b600061033160025473ffffffffffffffffffffffffffffffffffffffff1690565b61053e610642565b61054781610b3f565b60405173ffffffffffffffffffffffffffffffffffffffff821681527f038596bb31e2e7d3d9f184d4c98b310103f6d7f5830e5eec32bffe6f1728f969906020016103b2565b610595610642565b6105a184848484610a00565b50505050565b6105af610c3b565b6105bc3384848442610c81565b505050565b60006105e260035473ffffffffffffffffffffffffffffffffffffffff1690565b73ffffffffffffffffffffffffffffffffffffffff168273ffffffffffffffffffffffffffffffffffffffff16148061025357505073ffffffffffffffffffffffffffffffffffffffff1660009081526004602052604090205460ff1690565b61065261064d610cb8565b610d1c565b565b60405173ffffffffffffffffffffffffffffffffffffffff821681527f4ffd725fc4a22075e9ec71c59edf9c38cdeb588a91b24fc5b61388c5be41282b906020016103b2565b60006106eb6040516020016106d2907f496e697469616c697a61626c6523696e697469616c697a656400000000000000815260190190565b6040516020818303038152906040528051906020012090565b5460ff16919050565b600061078b7fa14aa44e80999830a2a099c67e38d31b476d9a7e46026810e0f2c62255e270618686868660405161072c92919061198b565b60405190819003812061077094939291602001938452602084019290925273ffffffffffffffffffffffffffffffffffffffff166040830152606082015260800190565b60405160208183030381529060405280519060200120610d9f565b95945050505050565b73ffffffffffffffffffffffffffffffffffffffff81166107e1576040517f0398ea3f00000000000000000000000000000000000000000000000000000000815260040160405180910390fd5b73ffffffffffffffffffffffffffffffffffffffff811660009081526004602052604090205460ff16610840576040517ff9c7c4e100000000000000000000000000000000000000000000000000000000815260040160405180910390fd5b73ffffffffffffffffffffffffffffffffffffffff16600090815260046020526040902080547fffffffffffffffffffffffffffffffffffffffffffffffffffffffffffffff00169055565b6040513060388201526f5af43d82803e903d91602b57fd5bf3ff60248201527f00000000000000000000000000000000000000000000000000000000000000006014820152733d602d80600a3d3981f3363d3d373d3d3d363d738152605881018290526037600c8201206078820152605560439091012060009073ffffffffffffffffffffffffffffffffffffffff16610253565b60606103317f00000000000000000000000000000000000000000000000000000000000000006000610de7565b60606103317f00000000000000000000000000000000000000000000000000000000000000006001610de7565b60006109bf83838080601f0160208091040260200160405190810160405280939291908181526020018383808284376000920191909152508893925050610e939050565b90506109ca816105c1565b6105a1576040517f07a81bc400000000000000000000000000000000000000000000000000000000815260040160405180910390fd5b6000610a43858585858080601f016020809104026020016040519081016040528093929190818152602001838380828437600092019190915250610ebd92505050565b73ffffffffffffffffffffffffffffffffffffffff811660009081526005602052604090819020879055519091507f5f1a4caf7b3c975317cf9b55286d970447e62caed203478183a4adf22228d92890610aa690839087908790879042906119e4565b60405180910390a15050505050565b610abd61069a565b15610af4576040517f0dc149f000000000000000000000000000000000000000000000000000000000815260040160405180910390fd5b610652610f7d565b8060005b818110156105a157610b37848483818110610b1d57610b1d611a42565b9050602002016020810190610b329190611507565b610b3f565b600101610b00565b73ffffffffffffffffffffffffffffffffffffffff8116610b8c576040517f0398ea3f00000000000000000000000000000000000000000000000000000000815260040160405180910390fd5b73ffffffffffffffffffffffffffffffffffffffff811660009081526004602052604090205460ff1615610bec576040517ffecca77f00000000000000000000000000000000000000000000000000000000815260040160405180910390fd5b73ffffffffffffffffffffffffffffffffffffffff16600090815260046020526040902080547fffffffffffffffffffffffffffffffffffffffffffffffffffffffffffffff00166001179055565b33600090815260056020526040902054610652576040517f5c81ee7b00000000000000000000000000000000000000000000000000000000815260040160405180910390fd5b7ff3c70573a0b743133ee3fbae3c662890bb43234336a97beb801b122f13fa2e178585858585604051610aa6959493929190611a71565b600254600090369073ffffffffffffffffffffffffffffffffffffffff1633148015610ce5575060148110155b15610d1557600036610cf8601484611aaa565b610d03928290611ae4565b610d0c91611b0e565b60601c91505090565b3391505090565b8073ffffffffffffffffffffffffffffffffffffffff16610d5260035473ffffffffffffffffffffffffffffffffffffffff1690565b73ffffffffffffffffffffffffffffffffffffffff16146102f7576040517fbfb2c26800000000000000000000000000000000000000000000000000000000815260040160405180910390fd5b6000610253610dac610f87565b836040517f19010000000000000000000000000000000000000000000000000000000000008152600281019290925260228201526042902090565b606060ff8314610e0157610dfa836110bf565b9050610253565b818054610e0d90611b74565b80601f0160208091040260200160405190810160405280929190818152602001828054610e3990611b74565b8015610e865780601f10610e5b57610100808354040283529160200191610e86565b820191906000526020600020905b815481529060010190602001808311610e6957829003601f168201915b5050505050905092915050565b600080600080610ea386866110fe565b925092509250610eb3828261114b565b5090949350505050565b6000610ee97f000000000000000000000000000000000000000000000000000000000000000085611258565b6040517fd1f57894000000000000000000000000000000000000000000000000000000008152909150819073ffffffffffffffffffffffffffffffffffffffff82169063d1f5789490610f429087908790600401611bc7565b600060405180830381600087803b158015610f5c57600080fd5b505af1158015610f70573d6000803e3d6000fd5b50505050505b9392505050565b6106526001611266565b60003073ffffffffffffffffffffffffffffffffffffffff7f000000000000000000000000000000000000000000000000000000000000000016148015610fed57507f000000000000000000000000000000000000000000000000000000000000000046145b1561101757507f000000000000000000000000000000000000000000000000000000000000000090565b610331604080517f8b73c3c69bb8fe3d512ecc4cf759cc79239f7b179b0ffacaa9a75d522b39400f60208201527f0000000000000000000000000000000000000000000000000000000000000000918101919091527f000000000000000000000000000000000000000000000000000000000000000060608201524660808201523060a082015260009060c00160405160208183030381529060405280519060200120905090565b606060006110cc836112cd565b604080516020808252818301909252919250600091906020820181803683375050509182525060208101929092525090565b600080600083516041036111385760208401516040850151606086015160001a61112a8882858561130e565b955095509550505050611144565b50508151600091506002905b9250925092565b600082600381111561115f5761115f611bfe565b03611168575050565b600182600381111561117c5761117c611bfe565b036111b3576040517ff645eedf00000000000000000000000000000000000000000000000000000000815260040160405180910390fd5b60028260038111156111c7576111c7611bfe565b03611206576040517ffce698f7000000000000000000000000000000000000000000000000000000008152600481018290526024015b60405180910390fd5b600382600381111561121a5761121a611bfe565b03611254576040517fd78bce0c000000000000000000000000000000000000000000000000000000008152600481018290526024016111fd565b5050565b6000610f7683836000611408565b8061129d6040516020016106d2907f496e697469616c697a61626c6523696e697469616c697a656400000000000000815260190190565b80547fffffffffffffffffffffffffffffffffffffffffffffffffffffffffffffff001691151591909117905550565b600060ff8216601f811115610253576040517fb3512b0c00000000000000000000000000000000000000000000000000000000815260040160405180910390fd5b600080807f7fffffffffffffffffffffffffffffff5d576e7357a4501ddfe92f46681b20a084111561134957506000915060039050826113fe565b604080516000808252602082018084528a905260ff891692820192909252606081018790526080810186905260019060a0016020604051602081039080840390855afa15801561139d573d6000803e3d6000fd5b50506040517fffffffffffffffffffffffffffffffffffffffffffffffffffffffffffffffe0015191505073ffffffffffffffffffffffffffffffffffffffff81166113f4575060009250600191508290506113fe565b9250600091508190505b9450945094915050565b60008147101561144d576040517fcf479181000000000000000000000000000000000000000000000000000000008152476004820152602481018390526044016111fd565b763d602d80600a3d3981f3363d3d373d3d3d363d730000008460601b60e81c176000526e5af43d82803e903d91602b57fd5bf38460781b17602052826037600984f5905073ffffffffffffffffffffffffffffffffffffffff8116610f76576040517fb06ebf3d00000000000000000000000000000000000000000000000000000000815260040160405180910390fd5b803573ffffffffffffffffffffffffffffffffffffffff8116811461150257600080fd5b919050565b60006020828403121561151957600080fd5b610f76826114de565b60006020828403121561153457600080fd5b813567ffffffffffffffff81111561154b57600080fd5b820160608185031215610f7657600080fd5b60006020828403121561156f57600080fd5b5035919050565b6000815180845260005b8181101561159c57602081850181015186830182015201611580565b5060006020828601015260207fffffffffffffffffffffffffffffffffffffffffffffffffffffffffffffffe0601f83011685010191505092915050565b7fff000000000000000000000000000000000000000000000000000000000000008816815260e06020820152600061161560e0830189611576565b82810360408401526116278189611576565b6060840188905273ffffffffffffffffffffffffffffffffffffffff8716608085015260a0840186905283810360c08501528451808252602080870193509091019060005b8181101561168a57835183526020938401939092019160010161166c565b50909b9a5050505050505050505050565b60008083601f8401126116ad57600080fd5b50813567ffffffffffffffff8111156116c557600080fd5b6020830191508360208285010111156116dd57600080fd5b9250929050565b600080600080600080608087890312156116fd57600080fd5b8635955061170d602088016114de565b9450604087013567ffffffffffffffff81111561172957600080fd5b61173589828a0161169b565b909550935050606087013567ffffffffffffffff81111561175557600080fd5b61176189828a0161169b565b979a9699509497509295939492505050565b60008060006040848603121561178857600080fd5b611791846114de565b9250602084013567ffffffffffffffff8111156117ad57600080fd5b8401601f810186136117be57600080fd5b803567ffffffffffffffff8111156117d557600080fd5b8660208260051b84010111156117ea57600080fd5b939660209190910195509293505050565b6000806000806060858703121561181157600080fd5b84359350611821602086016114de565b9250604085013567ffffffffffffffff81111561183d57600080fd5b6118498782880161169b565b95989497509550505050565b60008060006040848603121561186a57600080fd5b833560ff8116811461187b57600080fd5b9250602084013567ffffffffffffffff81111561189757600080fd5b6118a38682870161169b565b9497909650939450505050565b60008083357fffffffffffffffffffffffffffffffffffffffffffffffffffffffffffffffe18436030181126118e557600080fd5b83018035915067ffffffffffffffff82111561190057600080fd5b6020019150368190038213156116dd57600080fd5b73ffffffffffffffffffffffffffffffffffffffff84168152604060208201819052810182905260008360608301825b858110156119805773ffffffffffffffffffffffffffffffffffffffff61196b846114de565b16825260209283019290910190600101611945565b509695505050505050565b8183823760009101908152919050565b8183528181602085013750600060208284010152600060207fffffffffffffffffffffffffffffffffffffffffffffffffffffffffffffffe0601f840116840101905092915050565b73ffffffffffffffffffffffffffffffffffffffff8616815273ffffffffffffffffffffffffffffffffffffffff85166020820152608060408201526000611a3060808301858761199b565b90508260608301529695505050505050565b7f4e487b7100000000000000000000000000000000000000000000000000000000600052603260045260246000fd5b73ffffffffffffffffffffffffffffffffffffffff8616815260ff85166020820152608060408201526000611a3060808301858761199b565b81810381811115610253577f4e487b7100000000000000000000000000000000000000000000000000000000600052601160045260246000fd5b60008085851115611af457600080fd5b83861115611b0157600080fd5b5050820193919092039150565b80357fffffffffffffffffffffffffffffffffffffffff0000000000000000000000008116906014841015611b6d577fffffffffffffffffffffffffffffffffffffffff000000000000000000000000808560140360031b1b82161691505b5092915050565b600181811c90821680611b8857607f821691505b602082108103611bc1577f4e487b7100000000000000000000000000000000000000000000000000000000600052602260045260246000fd5b50919050565b73ffffffffffffffffffffffffffffffffffffffff83168152604060208201526000611bf66040830184611576565b949350505050565b7f4e487b7100000000000000000000000000000000000000000000000000000000600052602160045260246000fdfea164736f6c634300081b000a",
  "devdoc": {
    "errors": {
      "ECDSAInvalidSignature()": [
        {
          "details": "The signature derives the `address(0)`."
        }
      ],
      "ECDSAInvalidSignatureLength(uint256)": [
        {
          "details": "The signature has an invalid length."
        }
      ],
      "ECDSAInvalidSignatureS(bytes32)": [
        {
          "details": "The signature has an S value that is in the upper half order."
        }
      ],
      "FailedDeployment()": [
        {
          "details": "The deployment failed."
        }
      ],
      "InsufficientBalance(uint256,uint256)": [
        {
          "details": "The ETH balance of the account is not enough to perform the operation."
        }
      ]
    },
    "events": {
      "EIP712DomainChanged()": {
        "details": "MAY be emitted to signal that the domain could have changed."
      }
    },
    "kind": "dev",
    "methods": {
      "eip712Domain()": {
        "details": "See {IERC-5267}."
      }
    },
    "version": 1
  },
  "userdoc": {
    "kind": "user",
    "methods": {},
    "version": 1
  },
  "storageLayout": {
    "storage": [
      {
        "astId": 3304,
        "contract": "contracts/tokens/TokenFactory.sol:TokenFactory",
        "label": "_nameFallback",
        "offset": 0,
        "slot": "0",
        "type": "t_string_storage"
      },
      {
        "astId": 3306,
        "contract": "contracts/tokens/TokenFactory.sol:TokenFactory",
        "label": "_versionFallback",
        "offset": 0,
        "slot": "1",
        "type": "t_string_storage"
      },
      {
        "astId": 8149,
        "contract": "contracts/tokens/TokenFactory.sol:TokenFactory",
        "label": "_forwarder",
        "offset": 0,
        "slot": "2",
        "type": "t_address"
      },
      {
        "astId": 7337,
        "contract": "contracts/tokens/TokenFactory.sol:TokenFactory",
        "label": "_owner",
        "offset": 0,
        "slot": "3",
        "type": "t_address"
      },
      {
        "astId": 7134,
        "contract": "contracts/tokens/TokenFactory.sol:TokenFactory",
        "label": "_guardians",
        "offset": 0,
        "slot": "4",
        "type": "t_mapping(t_address,t_bool)"
      },
      {
        "astId": 8782,
        "contract": "contracts/tokens/TokenFactory.sol:TokenFactory",
        "label": "_tokenSalts",
        "offset": 0,
        "slot": "5",
        "type": "t_mapping(t_address,t_bytes32)"
      }
    ],
    "types": {
      "t_address": {
        "encoding": "inplace",
        "label": "address",
        "numberOfBytes": "20"
      },
      "t_bool": {
        "encoding": "inplace",
        "label": "bool",
        "numberOfBytes": "1"
      },
      "t_bytes32": {
        "encoding": "inplace",
        "label": "bytes32",
        "numberOfBytes": "32"
      },
      "t_mapping(t_address,t_bool)": {
        "encoding": "mapping",
        "key": "t_address",
        "label": "mapping(address => bool)",
        "numberOfBytes": "32",
        "value": "t_bool"
      },
      "t_mapping(t_address,t_bytes32)": {
        "encoding": "mapping",
        "key": "t_address",
        "label": "mapping(address => bytes32)",
        "numberOfBytes": "32",
        "value": "t_bytes32"
      },
      "t_string_storage": {
        "encoding": "bytes",
        "label": "string",
        "numberOfBytes": "32"
      }
    }
  }
}