{
  "address": "0xcc661F1C7ff1c19f4692396dC6845E2287995580",
  "abi": [
    {
      "inputs": [],
      "stateMutability": "nonpayable",
      "type": "constructor"
    },
    {
      "inputs": [],
      "name": "AlreadyInitialized",
      "type": "error"
    },
    {
      "inputs": [],
      "name": "ERC4337AccountUnsupported",
      "type": "error"
    },
    {
      "inputs": [],
      "name": "EmptyTransactionBatch",
      "type": "error"
    },
    {
      "inputs": [],
      "name": "InvalidTransactionBatchSize",
      "type": "error"
    },
    {
      "inputs": [],
      "name": "MsgSenderIsNotTheAccountOwner",
      "type": "error"
    },
    {
      "inputs": [],
      "name": "MsgSenderIsNotTheEntryPoint",
      "type": "error"
    },
    {
      "inputs": [],
      "name": "OwnerIsTheZeroAddress",
      "type": "error"
    },
    {
      "inputs": [],
      "name": "ProxyImplIsTheZeroAddress",
      "type": "error"
    },
    {
      "inputs": [],
      "name": "TransactionToInvalidAddress",
      "type": "error"
    },
    {
      "inputs": [],
      "name": "TransactionToTheZeroAddress",
      "type": "error"
    },
    {
      "anonymous": false,
      "inputs": [
        {
          "indexed": false,
          "internalType": "address",
          "name": "owner",
          "type": "address"
        }
      ],
      "name": "OwnerAdded",
      "type": "event"
    },
    {
      "anonymous": false,
      "inputs": [
        {
          "indexed": false,
          "internalType": "address",
          "name": "owner",
          "type": "address"
        }
      ],
      "name": "OwnerRemoved",
      "type": "event"
    },
    {
      "anonymous": false,
      "inputs": [
        {
          "indexed": false,
          "internalType": "address",
          "name": "proxyImpl",
          "type": "address"
        }
      ],
      "name": "ProxyImplUpdated",
      "type": "event"
    },
    {
      "anonymous": false,
      "inputs": [
        {
          "indexed": false,
          "internalType": "address",
          "name": "to",
          "type": "address"
        },
        {
          "indexed": false,
          "internalType": "uint256",
          "name": "value",
          "type": "uint256"
        },
        {
          "indexed": false,
          "internalType": "bytes",
          "name": "data",
          "type": "bytes"
        }
      ],
      "name": "TransactionExecuted",
      "type": "event"
    },
    {
      "anonymous": false,
      "inputs": [
        {
          "indexed": false,
          "internalType": "address[]",
          "name": "to",
          "type": "address[]"
        },
        {
          "indexed": false,
          "internalType": "uint256[]",
          "name": "value",
          "type": "uint256[]"
        },
        {
          "indexed": false,
          "internalType": "bytes[]",
          "name": "data",
          "type": "bytes[]"
        }
      ],
      "name": "TransactionsExecuted",
      "type": "event"
    },
    {
      "inputs": [
        {
          "internalType": "address",
          "name": "owner",
          "type": "address"
        }
      ],
      "name": "addOwner",
      "outputs": [],
      "stateMutability": "nonpayable",
      "type": "function"
    },
    {
      "inputs": [
        {
          "internalType": "address",
          "name": "to",
          "type": "address"
        },
        {
          "internalType": "uint256",
          "name": "value",
          "type": "uint256"
        },
        {
          "internalType": "bytes",
          "name": "data",
          "type": "bytes"
        }
      ],
      "name": "executeTransaction",
      "outputs": [],
      "stateMutability": "nonpayable",
      "type": "function"
    },
    {
      "inputs": [
        {
          "internalType": "address[]",
          "name": "to",
          "type": "address[]"
        },
        {
          "internalType": "uint256[]",
          "name": "value",
          "type": "uint256[]"
        },
        {
          "internalType": "bytes[]",
          "name": "data",
          "type": "bytes[]"
        }
      ],
      "name": "executeTransactions",
      "outputs": [],
      "stateMutability": "nonpayable",
      "type": "function"
    },
    {
      "inputs": [],
      "name": "getExternalOwners",
      "outputs": [
        {
          "internalType": "address",
          "name": "accountRegistry",
          "type": "address"
        },
        {
          "internalType": "address",
          "name": "entryPoint",
          "type": "address"
        }
      ],
      "stateMutability": "view",
      "type": "function"
    },
    {
      "inputs": [],
      "name": "getGateway",
      "outputs": [
        {
          "internalType": "address",
          "name": "",
          "type": "address"
        }
      ],
      "stateMutability": "view",
      "type": "function"
    },
    {
      "inputs": [],
      "name": "getProxyImpl",
      "outputs": [
        {
          "internalType": "address",
          "name": "proxyImpl",
          "type": "address"
        }
      ],
      "stateMutability": "view",
      "type": "function"
    },
    {
      "inputs": [
        {
          "internalType": "address",
          "name": "owner",
          "type": "address"
        }
      ],
      "name": "hasOwner",
      "outputs": [
        {
          "internalType": "bool",
          "name": "",
          "type": "bool"
        }
      ],
      "stateMutability": "view",
      "type": "function"
    },
    {
      "inputs": [
        {
          "internalType": "address",
          "name": "gateway",
          "type": "address"
        },
        {
          "internalType": "address",
          "name": "entryPoint",
          "type": "address"
        }
      ],
      "name": "initialize",
      "outputs": [],
      "stateMutability": "nonpayable",
      "type": "function"
    },
    {
      "inputs": [],
      "name": "initialized",
      "outputs": [
        {
          "internalType": "bool",
          "name": "",
          "type": "bool"
        }
      ],
      "stateMutability": "view",
      "type": "function"
    },
    {
      "inputs": [
        {
          "internalType": "bytes32",
          "name": "hash",
          "type": "bytes32"
        },
        {
          "internalType": "bytes",
          "name": "signature",
          "type": "bytes"
        }
      ],
      "name": "isValidSignature",
      "outputs": [
        {
          "internalType": "bytes4",
          "name": "",
          "type": "bytes4"
        }
      ],
      "stateMutability": "view",
      "type": "function"
    },
    {
      "inputs": [
        {
          "internalType": "address",
          "name": "",
          "type": "address"
        },
        {
          "internalType": "address",
          "name": "",
          "type": "address"
        },
        {
          "internalType": "uint256[]",
          "name": "",
          "type": "uint256[]"
        },
        {
          "internalType": "uint256[]",
          "name": "",
          "type": "uint256[]"
        },
        {
          "internalType": "bytes",
          "name": "",
          "type": "bytes"
        }
      ],
      "name": "onERC1155BatchReceived",
      "outputs": [
        {
          "internalType": "bytes4",
          "name": "",
          "type": "bytes4"
        }
      ],
      "stateMutability": "nonpayable",
      "type": "function"
    },
    {
      "inputs": [
        {
          "internalType": "address",
          "name": "",
          "type": "address"
        },
        {
          "internalType": "address",
          "name": "",
          "type": "address"
        },
        {
          "internalType": "uint256",
          "name": "",
          "type": "uint256"
        },
        {
          "internalType": "uint256",
          "name": "",
          "type": "uint256"
        },
        {
          "internalType": "bytes",
          "name": "",
          "type": "bytes"
        }
      ],
      "name": "onERC1155Received",
      "outputs": [
        {
          "internalType": "bytes4",
          "name": "",
          "type": "bytes4"
        }
      ],
      "stateMutability": "nonpayable",
      "type": "function"
    },
    {
      "inputs": [
        {
          "internalType": "address",
          "name": "",
          "type": "address"
        },
        {
          "internalType": "address",
          "name": "",
          "type": "address"
        },
        {
          "internalType": "uint256",
          "name": "",
          "type": "uint256"
        },
        {
          "internalType": "bytes",
          "name": "",
          "type": "bytes"
        }
      ],
      "name": "onERC721Received",
      "outputs": [
        {
          "internalType": "bytes4",
          "name": "",
          "type": "bytes4"
        }
      ],
      "stateMutability": "nonpayable",
      "type": "function"
    },
    {
      "inputs": [
        {
          "internalType": "address",
          "name": "owner",
          "type": "address"
        }
      ],
      "name": "removeOwner",
      "outputs": [],
      "stateMutability": "nonpayable",
      "type": "function"
    },
    {
      "inputs": [
        {
          "internalType": "bytes4",
          "name": "interfaceId",
          "type": "bytes4"
        }
      ],
      "name": "supportsInterface",
      "outputs": [
        {
          "internalType": "bool",
          "name": "",
          "type": "bool"
        }
      ],
      "stateMutability": "view",
      "type": "function"
    },
    {
      "inputs": [
        {
          "internalType": "address",
          "name": "",
          "type": "address"
        },
        {
          "internalType": "address",
          "name": "",
          "type": "address"
        },
        {
          "internalType": "address",
          "name": "",
          "type": "address"
        },
        {
          "internalType": "uint256",
          "name": "",
          "type": "uint256"
        },
        {
          "internalType": "bytes",
          "name": "",
          "type": "bytes"
        },
        {
          "internalType": "bytes",
          "name": "",
          "type": "bytes"
        }
      ],
      "name": "tokensReceived",
      "outputs": [],
      "stateMutability": "nonpayable",
      "type": "function"
    },
    {
      "inputs": [
        {
          "components": [
            {
              "internalType": "address",
              "name": "sender",
              "type": "address"
            },
            {
              "internalType": "uint256",
              "name": "nonce",
              "type": "uint256"
            },
            {
              "internalType": "bytes",
              "name": "initCode",
              "type": "bytes"
            },
            {
              "internalType": "bytes",
              "name": "callData",
              "type": "bytes"
            },
            {
              "internalType": "uint256",
              "name": "callGasLimit",
              "type": "uint256"
            },
            {
              "internalType": "uint256",
              "name": "verificationGasLimit",
              "type": "uint256"
            },
            {
              "internalType": "uint256",
              "name": "preVerificationGas",
              "type": "uint256"
            },
            {
              "internalType": "uint256",
              "name": "maxFeePerGas",
              "type": "uint256"
            },
            {
              "internalType": "uint256",
              "name": "maxPriorityFeePerGas",
              "type": "uint256"
            },
            {
              "internalType": "bytes",
              "name": "paymasterAndData",
              "type": "bytes"
            },
            {
              "internalType": "bytes",
              "name": "signature",
              "type": "bytes"
            }
          ],
          "internalType": "struct UserOperation",
          "name": "userOp",
          "type": "tuple"
        },
        {
          "internalType": "bytes32",
          "name": "userOpHash",
          "type": "bytes32"
        },
        {
          "internalType": "uint256",
          "name": "missingAccountFunds",
          "type": "uint256"
        }
      ],
      "name": "validateUserOp",
      "outputs": [
        {
          "internalType": "uint256",
          "name": "result",
          "type": "uint256"
        }
      ],
      "stateMutability": "nonpayable",
      "type": "function"
    },
    {
      "stateMutability": "payable",
      "type": "receive"
    }
  ],
  "transactionHash": "0xcad6826cfd12f49506d8716a0e1098b3d431927c199a32d3db312727f53f915d",
  "args": [],
  "numDeployments": 1,
  "solcInputHash": "6192676cc397315b66316256ae4c7243",
  "bytecode": "0x608060405234801561000f575f80fd5b505f805460ff19166001179055611c29806100295f395ff3fe60806040526004361061010b575f3560e01c80633a871cdd116100a15780637065cb4811610071578063bc197c8111610057578063bc197c8114610383578063bf085471146103ca578063f23a6e6114610409575f80fd5b80637065cb481461033157806370d4e35d14610350575f80fd5b80633a871cdd146102775780633f579f42146102a457806342bf3cc1146102c3578063485cc95514610312575f80fd5b8063158ef93e116100dc578063158ef93e146102045780631626ba7e1461021a578063173825d914610239578063230b379014610258575f80fd5b806223de291461011657806301ffc9a71461013c57806312e8eaef14610170578063150b7a021461018f575f80fd5b3661011257005b5f80fd5b348015610121575f80fd5b5061013a610130366004611496565b5050505050505050565b005b348015610147575f80fd5b5061015b61015636600461153a565b61044e565b60405190151581526020015b60405180910390f35b34801561017b575f80fd5b5061013a61018a3660046115c1565b61057d565b34801561019a575f80fd5b506101d36101a9366004611654565b7f150b7a020000000000000000000000000000000000000000000000000000000095945050505050565b6040517fffffffff000000000000000000000000000000000000000000000000000000009091168152602001610167565b34801561020f575f80fd5b505f5460ff1661015b565b348015610225575f80fd5b506101d36102343660046116be565b6107be565b348015610244575f80fd5b5061013a610253366004611706565b610861565b348015610263575f80fd5b5061015b610272366004611706565b61093f565b348015610282575f80fd5b5061029661029136600461171f565b610949565b604051908152602001610167565b3480156102af575f80fd5b5061013a6102be36600461176e565b610b4f565b3480156102ce575f80fd5b505f54610100900473ffffffffffffffffffffffffffffffffffffffff165b60405173ffffffffffffffffffffffffffffffffffffffff9091168152602001610167565b34801561031d575f80fd5b5061013a61032c3660046117c4565b610beb565b34801561033c575f80fd5b5061013a61034b366004611706565b610bfa565b34801561035b575f80fd5b507f360894a13ba1a3210667c828492db98dca3e2076cc3735a920a3ca505d382bbc546102ed565b34801561038e575f80fd5b506101d361039d3660046117f5565b7fbc197c810000000000000000000000000000000000000000000000000000000098975050505050505050565b3480156103d5575f80fd5b506002546001546040805173ffffffffffffffffffffffffffffffffffffffff938416815292909116602083015201610167565b348015610414575f80fd5b506101d3610423366004611887565b7ff23a6e61000000000000000000000000000000000000000000000000000000009695505050505050565b5f7fffffffff0000000000000000000000000000000000000000000000000000000082167f01ffc9a70000000000000000000000000000000000000000000000000000000014806104e057507fffffffff0000000000000000000000000000000000000000000000000000000082167f150b7a0200000000000000000000000000000000000000000000000000000000145b8061052b57507fffffffff0000000000000000000000000000000000000000000000000000000082167e23de2900000000000000000000000000000000000000000000000000000000145b8061057757507fffffffff0000000000000000000000000000000000000000000000000000000082167f4e2312e000000000000000000000000000000000000000000000000000000000145b92915050565b5f610586610ccc565b905061059181610d20565b5f8690036105cb576040517ff400c51d00000000000000000000000000000000000000000000000000000000815260040160405180910390fd5b85841415806105da5750838214155b15610611576040517ff0504de200000000000000000000000000000000000000000000000000000000815260040160405180910390fd5b5f5b868110156106c3576106bb888883818110610630576106306118e8565b90506020020160208101906106459190611706565b878784818110610657576106576118e8565b90506020020135868685818110610670576106706118e8565b90506020028101906106829190611915565b8080601f0160208091040260200160405190810160405280939291908181526020018383808284375f92019190915250610dd492505050565b600101610613565b5060025473ffffffffffffffffffffffffffffffffffffffff828116911614610774576002546040517fbaff090100000000000000000000000000000000000000000000000000000000815273ffffffffffffffffffffffffffffffffffffffff9091169063baff090190610746908a908a908a908a908a908a90600401611a65565b5f604051808303815f87803b15801561075d575f80fd5b505af115801561076f573d5f803e3d5ffd5b505050505b7f14b87e8268083180edbead633e11a5abbace7c87e8d87aa2d49cf3a08a2eb0cb8787878787876040516107ad96959493929190611a65565b60405180910390a150505050505050565b5f8061080184848080601f0160208091040260200160405190810160405280939291908181526020018383808284375f920191909152508993925050610eef9050565b905061080c81610f09565b610836577fffffffff00000000000000000000000000000000000000000000000000000000610858565b7f1626ba7e000000000000000000000000000000000000000000000000000000005b95945050505050565b61087161086c610ccc565b610d20565b6002546040517f625a5a2d00000000000000000000000000000000000000000000000000000000815273ffffffffffffffffffffffffffffffffffffffff83811660048301529091169063625a5a2d906024015f604051808303815f87803b1580156108db575f80fd5b505af11580156108ed573d5f803e3d5ffd5b505060405173ffffffffffffffffffffffffffffffffffffffff841681527f58619076adf5bb0943d100ef88d52d7c3fd691b19d3a9071b555b651fbf418da925060200190505b60405180910390a150565b5f61057782610f09565b6001545f9073ffffffffffffffffffffffffffffffffffffffff1661099a576040517fcdac6aa300000000000000000000000000000000000000000000000000000000815260040160405180910390fd5b60015473ffffffffffffffffffffffffffffffffffffffff1633146109eb576040517f6dcda75600000000000000000000000000000000000000000000000000000000815260040160405180910390fd5b7f19457468657265756d205369676e6564204d6573736167653a0a3332000000005f908152601c849052603c9020610a6e610a69610a2d610140880188611915565b8080601f0160208091040260200160405190810160405280939291908181526020018383808284375f920191909152508693925050610eef9050565b610f09565b610a7757600191505b8215610b4757604080515f80825260208201928390526001549192909173ffffffffffffffffffffffffffffffffffffffff16907fffffffffffffffffffffffffffffffffffffffffffffffffffffffffffffffff908790610ada908690611b41565b5f60405180830381858888f193505050503d805f8114610b15576040519150601f19603f3d011682016040523d82523d5f602084013e610b1a565b606091505b5050600154909150610b449073ffffffffffffffffffffffffffffffffffffffff16808785610fa1565b50505b509392505050565b5f610b58610ccc565b9050610b6381610d20565b610ba3858585858080601f0160208091040260200160405190810160405280939291908181526020018383808284375f92019190915250610dd492505050565b610be481868686868080601f0160208091040260200160405190810160405280939291908181526020018383808284375f92019190915250610fa192505050565b5050505050565b610bf682823361108c565b5050565b610c0561086c610ccc565b6002546040517fb74bfc2400000000000000000000000000000000000000000000000000000000815273ffffffffffffffffffffffffffffffffffffffff83811660048301529091169063b74bfc24906024015f604051808303815f87803b158015610c6f575f80fd5b505af1158015610c81573d5f803e3d5ffd5b505060405173ffffffffffffffffffffffffffffffffffffffff841681527f994a936646fe87ffe4f1e469d3d6aa417d6b855598397f323de5b449f765f0c392506020019050610934565b5f8054610100900473ffffffffffffffffffffffffffffffffffffffff163303610d1b57507fffffffffffffffffffffffffffffffffffffffffffffffffffffffffffffffec36013560601c90565b503390565b73ffffffffffffffffffffffffffffffffffffffff81163014801590610d61575060025473ffffffffffffffffffffffffffffffffffffffff828116911614155b8015610d88575060015473ffffffffffffffffffffffffffffffffffffffff828116911614155b8015610d9a5750610d9881610f09565b155b15610dd1576040517ffb4f8f7000000000000000000000000000000000000000000000000000000000815260040160405180910390fd5b50565b73ffffffffffffffffffffffffffffffffffffffff8316610e21576040517fcd5389da00000000000000000000000000000000000000000000000000000000815260040160405180910390fd5b60025473ffffffffffffffffffffffffffffffffffffffff90811690841603610e76576040517f5c18590e00000000000000000000000000000000000000000000000000000000815260040160405180910390fd5b5f808473ffffffffffffffffffffffffffffffffffffffff168484604051610e9e9190611b41565b5f6040518083038185875af1925050503d805f8114610ed8576040519150601f19603f3d011682016040523d82523d5f602084013e610edd565b606091505b509150915081610be457805160208201fd5b5f805f610efc858561114f565b91509150610b4781611191565b6002546040517ff088bf5d00000000000000000000000000000000000000000000000000000000815230600482015273ffffffffffffffffffffffffffffffffffffffff83811660248301525f92169063f088bf5d90604401602060405180830381865afa158015610f7d573d5f803e3d5ffd5b505050506040513d601f19601f820116820180604052508101906105779190611b5c565b60025473ffffffffffffffffffffffffffffffffffffffff85811691161461104b576002546040517f1da3075200000000000000000000000000000000000000000000000000000000815273ffffffffffffffffffffffffffffffffffffffff90911690631da307529061101d90869086908690600401611b7b565b5f604051808303815f87803b158015611034575f80fd5b505af1158015611046573d5f803e3d5ffd5b505050505b7f47d99ad340f52da66535aff7e10da1ceb85a32bcbd9fa1c42314d194545e14d283838360405161107e93929190611b7b565b60405180910390a150505050565b5f5460ff16156110c8576040517f0dc149f000000000000000000000000000000000000000000000000000000000815260040160405180910390fd5b5f805473ffffffffffffffffffffffffffffffffffffffff948516610100027fffffffffffffffffffffff00000000000000000000000000000000000000000090911617600190811790915580549284167fffffffffffffffffffffffff000000000000000000000000000000000000000093841617905560028054919093169116179055565b5f808251604103611183576020830151604084015160608501515f1a61117787828585611348565b9450945050505061118a565b505f905060025b9250929050565b5f8160048111156111a4576111a4611bef565b036111ac5750565b60018160048111156111c0576111c0611bef565b0361122c576040517f08c379a000000000000000000000000000000000000000000000000000000000815260206004820152601860248201527f45434453413a20696e76616c6964207369676e6174757265000000000000000060448201526064015b60405180910390fd5b600281600481111561124057611240611bef565b036112a7576040517f08c379a000000000000000000000000000000000000000000000000000000000815260206004820152601f60248201527f45434453413a20696e76616c6964207369676e6174757265206c656e677468006044820152606401611223565b60038160048111156112bb576112bb611bef565b03610dd1576040517f08c379a000000000000000000000000000000000000000000000000000000000815260206004820152602260248201527f45434453413a20696e76616c6964207369676e6174757265202773272076616c60448201527f75650000000000000000000000000000000000000000000000000000000000006064820152608401611223565b5f807f7fffffffffffffffffffffffffffffff5d576e7357a4501ddfe92f46681b20a083111561137d57505f90506003611427565b604080515f8082526020820180845289905260ff881692820192909252606081018690526080810185905260019060a0016020604051602081039080840390855afa1580156113ce573d5f803e3d5ffd5b50506040517fffffffffffffffffffffffffffffffffffffffffffffffffffffffffffffffe0015191505073ffffffffffffffffffffffffffffffffffffffff8116611421575f60019250925050611427565b91505f90505b94509492505050565b803573ffffffffffffffffffffffffffffffffffffffff81168114611453575f80fd5b919050565b5f8083601f840112611468575f80fd5b50813567ffffffffffffffff81111561147f575f80fd5b60208301915083602082850101111561118a575f80fd5b5f805f805f805f8060c0898b0312156114ad575f80fd5b6114b689611430565b97506114c460208a01611430565b96506114d260408a01611430565b955060608901359450608089013567ffffffffffffffff808211156114f5575f80fd5b6115018c838d01611458565b909650945060a08b0135915080821115611519575f80fd5b506115268b828c01611458565b999c989b5096995094979396929594505050565b5f6020828403121561154a575f80fd5b81357fffffffff0000000000000000000000000000000000000000000000000000000081168114611579575f80fd5b9392505050565b5f8083601f840112611590575f80fd5b50813567ffffffffffffffff8111156115a7575f80fd5b6020830191508360208260051b850101111561118a575f80fd5b5f805f805f80606087890312156115d6575f80fd5b863567ffffffffffffffff808211156115ed575f80fd5b6115f98a838b01611580565b90985096506020890135915080821115611611575f80fd5b61161d8a838b01611580565b90965094506040890135915080821115611635575f80fd5b5061164289828a01611580565b979a9699509497509295939492505050565b5f805f805f60808688031215611668575f80fd5b61167186611430565b945061167f60208701611430565b935060408601359250606086013567ffffffffffffffff8111156116a1575f80fd5b6116ad88828901611458565b969995985093965092949392505050565b5f805f604084860312156116d0575f80fd5b83359250602084013567ffffffffffffffff8111156116ed575f80fd5b6116f986828701611458565b9497909650939450505050565b5f60208284031215611716575f80fd5b61157982611430565b5f805f60608486031215611731575f80fd5b833567ffffffffffffffff811115611747575f80fd5b84016101608187031215611759575f80fd5b95602085013595506040909401359392505050565b5f805f8060608587031215611781575f80fd5b61178a85611430565b935060208501359250604085013567ffffffffffffffff8111156117ac575f80fd5b6117b887828801611458565b95989497509550505050565b5f80604083850312156117d5575f80fd5b6117de83611430565b91506117ec60208401611430565b90509250929050565b5f805f805f805f8060a0898b03121561180c575f80fd5b61181589611430565b975061182360208a01611430565b9650604089013567ffffffffffffffff8082111561183f575f80fd5b61184b8c838d01611580565b909850965060608b0135915080821115611863575f80fd5b61186f8c838d01611580565b909650945060808b0135915080821115611519575f80fd5b5f805f805f8060a0878903121561189c575f80fd5b6118a587611430565b95506118b360208801611430565b94506040870135935060608701359250608087013567ffffffffffffffff8111156118dc575f80fd5b61164289828a01611458565b7f4e487b71000000000000000000000000000000000000000000000000000000005f52603260045260245ffd5b5f8083357fffffffffffffffffffffffffffffffffffffffffffffffffffffffffffffffe1843603018112611948575f80fd5b83018035915067ffffffffffffffff821115611962575f80fd5b60200191503681900382131561118a575f80fd5b81835281816020850137505f602082840101525f60207fffffffffffffffffffffffffffffffffffffffffffffffffffffffffffffffe0601f840116840101905092915050565b8183525f60208085019450848460051b8601845f5b87811015611a5857838303895281357fffffffffffffffffffffffffffffffffffffffffffffffffffffffffffffffe1883603018112611a10575f80fd5b8701858101903567ffffffffffffffff811115611a2b575f80fd5b803603821315611a39575f80fd5b611a44858284611976565b9a87019a94505050908401906001016119d2565b5090979650505050505050565b606080825281018690525f8760808301825b89811015611ab25773ffffffffffffffffffffffffffffffffffffffff611a9d84611430565b16825260209283019290910190600101611a77565b5083810360208501528681527f07ffffffffffffffffffffffffffffffffffffffffffffffffffffffffffffff871115611aea575f80fd5b8660051b9150818860208301370182810360209081016040850152611b1290820185876119bd565b9998505050505050505050565b5f5b83811015611b39578181015183820152602001611b21565b50505f910152565b5f8251611b52818460208701611b1f565b9190910192915050565b5f60208284031215611b6c575f80fd5b81518015158114611579575f80fd5b73ffffffffffffffffffffffffffffffffffffffff84168152826020820152606060408201525f8251806060840152611bbb816080850160208701611b1f565b601f017fffffffffffffffffffffffffffffffffffffffffffffffffffffffffffffffe01691909101608001949350505050565b7f4e487b71000000000000000000000000000000000000000000000000000000005f52602160045260245ffdfea164736f6c6343000815000a",
  "devdoc": {
    "kind": "dev",
    "methods": {
      "isValidSignature(bytes32,bytes)": {
        "details": "Should return whether the signature provided is valid for the provided data",
        "params": {
          "hash": "Hash of the data to be signed",
          "signature": "Signature byte array associated with _data"
        }
      },
      "supportsInterface(bytes4)": {
        "details": "Returns true if this contract implements the interface defined by `interfaceId`. See the corresponding https://eips.ethereum.org/EIPS/eip-165#how-interfaces-are-identified[EIP section] to learn more about how these ids are created. This function call must use less than 30 000 gas."
      },
      "validateUserOp((address,uint256,bytes,bytes,uint256,uint256,uint256,uint256,uint256,bytes,bytes),bytes32,uint256)": {
        "details": "Must validate caller is the entryPoint.      Must validate the signature and nonce",
        "params": {
          "missingAccountFunds": "missing funds on the account's deposit in the entrypoint.      This is the minimum amount to transfer to the sender(entryPoint) to be able to make the call.      The excess is left as a deposit in the entrypoint, for future calls.      can be withdrawn anytime using \"entryPoint.withdrawTo()\"      In case there is a paymaster in the request (or the current deposit is high enough), this value will be zero.",
          "userOp": "the operation that is about to be executed.",
          "userOpHash": "hash of the user's request data. can be used as the basis for signature."
        },
        "returns": {
          "result": "packaged ValidationData structure. use `_packValidationData` and `_unpackValidationData` to encode and decode      <20-byte> sigAuthorizer - 0 for valid signature, 1 to mark signature failure,         otherwise, an address of an \"authorizer\" contract.      <6-byte> validUntil - last timestamp this operation is valid. 0 for \"indefinite\"      <6-byte> validAfter - first timestamp this operation is valid      If an account doesn't use time-range, it is enough to return SIG_VALIDATION_FAILED value (1) for signature failure.      Note that the validation code cannot use block.timestamp (or block.number) directly."
        }
      }
    },
    "version": 1
  },
  "userdoc": {
    "kind": "user",
    "methods": {
      "validateUserOp((address,uint256,bytes,bytes,uint256,uint256,uint256,uint256,uint256,bytes,bytes),bytes32,uint256)": {
        "notice": "Validate user's signature and nonce the entryPoint will make the call to the recipient only if this validation call returns successfully. signature failure should be reported by returning SIG_VALIDATION_FAILED (1). This allows making a \"simulation call\" without a valid signature Other failures (e.g. nonce mismatch, or invalid signature format) should still revert to signal failure."
      }
    },
    "version": 1
  },
  "storageLayout": {
    "storage": [
      {
        "astId": 6769,
        "contract": "contracts/account/AccountImpl.sol:AccountImpl",
        "label": "_initialized",
        "offset": 0,
        "slot": "0",
        "type": "t_bool"
      },
      {
        "astId": 7665,
        "contract": "contracts/account/AccountImpl.sol:AccountImpl",
        "label": "_gateway",
        "offset": 1,
        "slot": "0",
        "type": "t_address"
      },
      {
        "astId": 5860,
        "contract": "contracts/account/AccountImpl.sol:AccountImpl",
        "label": "_entryPoint",
        "offset": 0,
        "slot": "1",
        "type": "t_address"
      },
      {
        "astId": 4159,
        "contract": "contracts/account/AccountImpl.sol:AccountImpl",
        "label": "_accountRegistry",
        "offset": 0,
        "slot": "2",
        "type": "t_address"
      }
    ],
    "types": {
      "t_address": {
        "encoding": "inplace",
        "label": "address",
        "numberOfBytes": "20"
      },
      "t_bool": {
        "encoding": "inplace",
        "label": "bool",
        "numberOfBytes": "1"
      }
    }
  }
}