{
  "address": "0x9091Bf8a40Ad29093B2B19634be70Bca5aa9f3A5",
  "abi": [
    {
      "inputs": [
        {
          "internalType": "address",
          "name": "owner",
          "type": "address"
        }
      ],
      "stateMutability": "nonpayable",
      "type": "constructor"
    },
    {
      "inputs": [],
      "name": "AccountAlreadyCreated",
      "type": "error"
    },
    {
      "inputs": [],
      "name": "AccountImplIsTheZeroAddress",
      "type": "error"
    },
    {
      "inputs": [],
      "name": "AccountIsTheZeroAddress",
      "type": "error"
    },
    {
      "inputs": [],
      "name": "AccountOwnerAlreadyExists",
      "type": "error"
    },
    {
      "inputs": [],
      "name": "AccountOwnerDoesntExist",
      "type": "error"
    },
    {
      "inputs": [],
      "name": "AccountOwnerIsTheZeroAddress",
      "type": "error"
    },
    {
      "inputs": [],
      "name": "AlreadyInitialized",
      "type": "error"
    },
    {
      "inputs": [],
      "name": "MsgSenderIsNotTheAccount",
      "type": "error"
    },
    {
      "inputs": [],
      "name": "MsgSenderIsNotTheAccountOwner",
      "type": "error"
    },
    {
      "inputs": [],
      "name": "MsgSenderIsNotTheContractOwner",
      "type": "error"
    },
    {
      "inputs": [],
      "name": "NotEnoughAccountOwners",
      "type": "error"
    },
    {
      "inputs": [],
      "name": "OwnerIsTheZeroAddress",
      "type": "error"
    },
    {
      "inputs": [],
      "name": "SaltOwnerIsTheZeroAddress",
      "type": "error"
    },
    {
      "anonymous": false,
      "inputs": [
        {
          "indexed": false,
          "internalType": "address",
          "name": "account",
          "type": "address"
        }
      ],
      "name": "AccountCreated",
      "type": "event"
    },
    {
      "anonymous": false,
      "inputs": [
        {
          "indexed": false,
          "internalType": "address",
          "name": "account",
          "type": "address"
        },
        {
          "indexed": false,
          "internalType": "address",
          "name": "owner",
          "type": "address"
        }
      ],
      "name": "AccountOwnerAdded",
      "type": "event"
    },
    {
      "anonymous": false,
      "inputs": [
        {
          "indexed": false,
          "internalType": "address",
          "name": "account",
          "type": "address"
        },
        {
          "indexed": false,
          "internalType": "address",
          "name": "owner",
          "type": "address"
        }
      ],
      "name": "AccountOwnerRemoved",
      "type": "event"
    },
    {
      "anonymous": false,
      "inputs": [
        {
          "indexed": false,
          "internalType": "address",
          "name": "account",
          "type": "address"
        },
        {
          "indexed": false,
          "internalType": "address",
          "name": "to",
          "type": "address"
        },
        {
          "indexed": false,
          "internalType": "uint256",
          "name": "value",
          "type": "uint256"
        },
        {
          "indexed": false,
          "internalType": "bytes",
          "name": "data",
          "type": "bytes"
        }
      ],
      "name": "AccountTransactionExecuted",
      "type": "event"
    },
    {
      "anonymous": false,
      "inputs": [
        {
          "indexed": false,
          "internalType": "address",
          "name": "account",
          "type": "address"
        },
        {
          "indexed": false,
          "internalType": "address[]",
          "name": "to",
          "type": "address[]"
        },
        {
          "indexed": false,
          "internalType": "uint256[]",
          "name": "value",
          "type": "uint256[]"
        },
        {
          "indexed": false,
          "internalType": "bytes[]",
          "name": "data",
          "type": "bytes[]"
        }
      ],
      "name": "AccountTransactionsExecuted",
      "type": "event"
    },
    {
      "anonymous": false,
      "inputs": [
        {
          "indexed": false,
          "internalType": "address",
          "name": "gateway",
          "type": "address"
        },
        {
          "indexed": false,
          "internalType": "address",
          "name": "entryPoint",
          "type": "address"
        },
        {
          "indexed": false,
          "internalType": "address",
          "name": "accountImpl",
          "type": "address"
        }
      ],
      "name": "Initialized",
      "type": "event"
    },
    {
      "anonymous": false,
      "inputs": [
        {
          "indexed": false,
          "internalType": "address",
          "name": "owner",
          "type": "address"
        }
      ],
      "name": "OwnerUpdated",
      "type": "event"
    },
    {
      "inputs": [
        {
          "internalType": "address",
          "name": "account",
          "type": "address"
        },
        {
          "internalType": "address",
          "name": "owner",
          "type": "address"
        }
      ],
      "name": "addAccountOwner",
      "outputs": [],
      "stateMutability": "nonpayable",
      "type": "function"
    },
    {
      "inputs": [
        {
          "internalType": "address",
          "name": "saltOwner",
          "type": "address"
        }
      ],
      "name": "computeAccount",
      "outputs": [
        {
          "internalType": "address",
          "name": "result",
          "type": "address"
        }
      ],
      "stateMutability": "view",
      "type": "function"
    },
    {
      "inputs": [
        {
          "internalType": "address",
          "name": "account",
          "type": "address"
        }
      ],
      "name": "createAccount",
      "outputs": [],
      "stateMutability": "nonpayable",
      "type": "function"
    },
    {
      "inputs": [
        {
          "internalType": "address",
          "name": "owner",
          "type": "address"
        }
      ],
      "name": "directAddAccountOwner",
      "outputs": [],
      "stateMutability": "nonpayable",
      "type": "function"
    },
    {
      "inputs": [
        {
          "internalType": "address",
          "name": "owner",
          "type": "address"
        }
      ],
      "name": "directRemoveAccountOwner",
      "outputs": [],
      "stateMutability": "nonpayable",
      "type": "function"
    },
    {
      "inputs": [
        {
          "internalType": "address",
          "name": "to",
          "type": "address"
        },
        {
          "internalType": "uint256",
          "name": "value",
          "type": "uint256"
        },
        {
          "internalType": "bytes",
          "name": "data",
          "type": "bytes"
        }
      ],
      "name": "emitAccountTransactionExecuted",
      "outputs": [],
      "stateMutability": "nonpayable",
      "type": "function"
    },
    {
      "inputs": [
        {
          "internalType": "address[]",
          "name": "to",
          "type": "address[]"
        },
        {
          "internalType": "uint256[]",
          "name": "value",
          "type": "uint256[]"
        },
        {
          "internalType": "bytes[]",
          "name": "data",
          "type": "bytes[]"
        }
      ],
      "name": "emitAccountTransactionsExecuted",
      "outputs": [],
      "stateMutability": "nonpayable",
      "type": "function"
    },
    {
      "inputs": [
        {
          "internalType": "address payable",
          "name": "account",
          "type": "address"
        },
        {
          "internalType": "address",
          "name": "to",
          "type": "address"
        },
        {
          "internalType": "uint256",
          "name": "value",
          "type": "uint256"
        },
        {
          "internalType": "bytes",
          "name": "data",
          "type": "bytes"
        }
      ],
      "name": "executeAccountTransaction",
      "outputs": [],
      "stateMutability": "nonpayable",
      "type": "function"
    },
    {
      "inputs": [
        {
          "internalType": "address payable",
          "name": "account",
          "type": "address"
        },
        {
          "internalType": "address[]",
          "name": "to",
          "type": "address[]"
        },
        {
          "internalType": "uint256[]",
          "name": "value",
          "type": "uint256[]"
        },
        {
          "internalType": "bytes[]",
          "name": "data",
          "type": "bytes[]"
        }
      ],
      "name": "executeAccountTransactions",
      "outputs": [],
      "stateMutability": "nonpayable",
      "type": "function"
    },
    {
      "inputs": [
        {
          "internalType": "address",
          "name": "saltOwner",
          "type": "address"
        }
      ],
      "name": "forceAccountCreation",
      "outputs": [
        {
          "internalType": "address",
          "name": "account",
          "type": "address"
        }
      ],
      "stateMutability": "nonpayable",
      "type": "function"
    },
    {
      "inputs": [],
      "name": "getAccountImpl",
      "outputs": [
        {
          "internalType": "address",
          "name": "",
          "type": "address"
        }
      ],
      "stateMutability": "view",
      "type": "function"
    },
    {
      "inputs": [
        {
          "internalType": "address",
          "name": "account",
          "type": "address"
        }
      ],
      "name": "getAccountState",
      "outputs": [
        {
          "internalType": "enum AccountRegistry.AccountStates",
          "name": "",
          "type": "uint8"
        }
      ],
      "stateMutability": "view",
      "type": "function"
    },
    {
      "inputs": [],
      "name": "getGateway",
      "outputs": [
        {
          "internalType": "address",
          "name": "",
          "type": "address"
        }
      ],
      "stateMutability": "view",
      "type": "function"
    },
    {
      "inputs": [],
      "name": "getOwner",
      "outputs": [
        {
          "internalType": "address",
          "name": "",
          "type": "address"
        }
      ],
      "stateMutability": "view",
      "type": "function"
    },
    {
      "inputs": [
        {
          "internalType": "address",
          "name": "gateway",
          "type": "address"
        },
        {
          "internalType": "address",
          "name": "entryPoint",
          "type": "address"
        },
        {
          "internalType": "address",
          "name": "accountImpl",
          "type": "address"
        }
      ],
      "name": "initialize",
      "outputs": [],
      "stateMutability": "nonpayable",
      "type": "function"
    },
    {
      "inputs": [],
      "name": "initialized",
      "outputs": [
        {
          "internalType": "bool",
          "name": "",
          "type": "bool"
        }
      ],
      "stateMutability": "view",
      "type": "function"
    },
    {
      "inputs": [
        {
          "internalType": "address",
          "name": "account",
          "type": "address"
        },
        {
          "internalType": "address",
          "name": "owner",
          "type": "address"
        }
      ],
      "name": "isAccountOwner",
      "outputs": [
        {
          "internalType": "bool",
          "name": "result",
          "type": "bool"
        }
      ],
      "stateMutability": "view",
      "type": "function"
    },
    {
      "inputs": [
        {
          "internalType": "address",
          "name": "account",
          "type": "address"
        },
        {
          "internalType": "address",
          "name": "owner",
          "type": "address"
        }
      ],
      "name": "removeAccountOwner",
      "outputs": [],
      "stateMutability": "nonpayable",
      "type": "function"
    },
    {
      "inputs": [
        {
          "internalType": "address",
          "name": "owner",
          "type": "address"
        }
      ],
      "name": "setOwner",
      "outputs": [],
      "stateMutability": "nonpayable",
      "type": "function"
    }
  ],
  "transactionHash": "0x7dcb868f0f00f944868ea1937af2cbba0fb743c7f30c74554a9aed363d0df069",
  "args": [
    "0xF2a1699320517FA9C5c749EA9DfB5594Bb9862e5"
  ],
  "numDeployments": 1,
  "solcInputHash": "6192676cc397315b66316256ae4c7243",
  "bytecode": "0x608060405234801562000010575f80fd5b50604051620022c8380380620022c8833981016040819052620000339162000075565b806001600160a01b038116156200004b57806200004d565b335b5f80546001600160a01b0319166001600160a01b039290921691909117905550620000a49050565b5f6020828403121562000086575f80fd5b81516001600160a01b03811681146200009d575f80fd5b9392505050565b61221680620000b25f395ff3fe608060405234801561000f575f80fd5b5060043610610149575f3560e01c80639859387b116100c7578063c0c53b8b1161007d578063e5c7278f11610063578063e5c7278f14610312578063f088bf5d14610325578063f4876c7414610338575f80fd5b8063c0c53b8b146102ec578063db63f582146102ff575f80fd5b80639f31c901116100ad5780639f31c901146102a8578063b74bfc24146102c6578063baff0901146102d9575f80fd5b80639859387b146102505780639ee2735b14610263575f80fd5b8063583768a81161011c578063770e909011610102578063770e90901461020d578063893d20e8146102205780639252aa7d1461023d575f80fd5b8063583768a8146101e7578063625a5a2d146101fa575f80fd5b806313af40351461014d578063158ef93e146101625780631da307521461019557806342bf3cc1146101a8575b5f80fd5b61016061015b366004611a59565b61034b565b005b5f5474010000000000000000000000000000000000000000900460ff165b60405190151581526020015b60405180910390f35b6101606101a3366004611ab9565b610411565b60015473ffffffffffffffffffffffffffffffffffffffff165b60405173ffffffffffffffffffffffffffffffffffffffff909116815260200161018c565b6101606101f5366004611b52565b6104b2565b610160610208366004611a59565b6105e6565b6101c261021b366004611a59565b61064c565b5f5473ffffffffffffffffffffffffffffffffffffffff166101c2565b6101c261024b366004611a59565b61067a565b61016061025e366004611a59565b610840565b61029b610271366004611a59565b73ffffffffffffffffffffffffffffffffffffffff165f9081526005602052604090205460ff1690565b60405161018c9190611c24565b60035473ffffffffffffffffffffffffffffffffffffffff166101c2565b6101606102d4366004611a59565b6108cf565b6101606102e7366004611c63565b610935565b6101606102fa366004611cf6565b6109dc565b61016061030d366004611d3e565b610bd1565b610160610320366004611d75565b610cb8565b610180610333366004611d3e565b610ddd565b610160610346366004611d3e565b610f1f565b5f5473ffffffffffffffffffffffffffffffffffffffff1661036b611153565b73ffffffffffffffffffffffffffffffffffffffff16146103b8576040517fcd52968d00000000000000000000000000000000000000000000000000000000815260040160405180910390fd5b73ffffffffffffffffffffffffffffffffffffffff8116610405576040517f465f799000000000000000000000000000000000000000000000000000000000815260040160405180910390fd5b61040e81611161565b50565b6002335f9081526005602052604090205460ff16600281111561043657610436611bf7565b1461046d576040517fdb182e8300000000000000000000000000000000000000000000000000000000815260040160405180910390fd5b7f340fb2e74c21912483542bb22fd95fd068acf0035639e3f638364cfc5db86b3233858585856040516104a4959493929190611e2a565b60405180910390a150505050565b73ffffffffffffffffffffffffffffffffffffffff87166104ff576040517f744fa2d000000000000000000000000000000000000000000000000000000000815260040160405180910390fd5b6105108761050b611153565b6111ad565b506040517f12e8eaef00000000000000000000000000000000000000000000000000000000815273ffffffffffffffffffffffffffffffffffffffff8816906312e8eaef9061056d90899089908990899089908990600401611fbc565b5f604051808303815f87803b158015610584575f80fd5b505af1158015610596573d5f803e3d5ffd5b505050507f509c90fe5dc4eb004af0213503cbb8b5a04cbbd24662c8fc1c20eb99078213bc878787878787876040516105d59796959493929190612004565b60405180910390a150505050505050565b6002335f9081526005602052604090205460ff16600281111561060b5761060b611bf7565b14610642576040517fdb182e8300000000000000000000000000000000000000000000000000000000815260040160405180910390fd5b61040e3382611419565b5f73ffffffffffffffffffffffffffffffffffffffff82161561067557610672826115f5565b90505b919050565b5f73ffffffffffffffffffffffffffffffffffffffff82166106c8576040517f968afff600000000000000000000000000000000000000000000000000000000815260040160405180910390fd5b6040517fffffffffffffffffffffffffffffffffffffffff000000000000000000000000606084901b1660208201525f9060340160405160208183030381529060405280519060200120905061071d81611632565b73ffffffffffffffffffffffffffffffffffffffff81165f9081526005602052604090205490925060ff16600281600281111561075c5761075c611bf7565b1461083957600181600281111561077557610775611bf7565b036107a45773ffffffffffffffffffffffffffffffffffffffff83165f908152600460205260408120556107ae565b6107ae8385611659565b6107b7826116ff565b73ffffffffffffffffffffffffffffffffffffffff83165f8181526005602090815260409182902080547fffffffffffffffffffffffffffffffffffffffffffffffffffffffffffffff0016600217905590519182527f805996f252884581e2f74cf3d2b03564d5ec26ccc90850ae12653dc1b72d1fa2910160405180910390a15b5050919050565b73ffffffffffffffffffffffffffffffffffffffff811661088d576040517f744fa2d000000000000000000000000000000000000000000000000000000000815260040160405180910390fd5b6108998161050b611153565b61040e576040517fe242fbdf00000000000000000000000000000000000000000000000000000000815260040160405180910390fd5b6002335f9081526005602052604090205460ff1660028111156108f4576108f4611bf7565b1461092b576040517fdb182e8300000000000000000000000000000000000000000000000000000000815260040160405180910390fd5b61040e33826117b5565b6002335f9081526005602052604090205460ff16600281111561095a5761095a611bf7565b14610991576040517fdb182e8300000000000000000000000000000000000000000000000000000000815260040160405180910390fd5b7f509c90fe5dc4eb004af0213503cbb8b5a04cbbd24662c8fc1c20eb99078213bc338787878787876040516109cc9796959493929190612004565b60405180910390a1505050505050565b5f5473ffffffffffffffffffffffffffffffffffffffff166109fc611153565b73ffffffffffffffffffffffffffffffffffffffff1614610a49576040517fcd52968d00000000000000000000000000000000000000000000000000000000815260040160405180910390fd5b5f5474010000000000000000000000000000000000000000900460ff1615610a9d576040517f0dc149f000000000000000000000000000000000000000000000000000000000815260040160405180910390fd5b5f80547fffffffffffffffffffffff00ffffffffffffffffffffffffffffffffffffffff167401000000000000000000000000000000000000000017905573ffffffffffffffffffffffffffffffffffffffff8116610b28576040517f650ee24200000000000000000000000000000000000000000000000000000000815260040160405180910390fd5b6001805473ffffffffffffffffffffffffffffffffffffffff8581167fffffffffffffffffffffffff0000000000000000000000000000000000000000928316811790935560028054868316908416811790915560038054928616929093168217909255604080519384526020840192909252908201527fad307780531f6353137c35adc50ad58d71b76e76aa891e729387f2e720f2de209060600160405180910390a1505050565b73ffffffffffffffffffffffffffffffffffffffff8216610c1e576040517f744fa2d000000000000000000000000000000000000000000000000000000000815260040160405180910390fd5b73ffffffffffffffffffffffffffffffffffffffff82165f90815260066020526040812090610c4b611153565b73ffffffffffffffffffffffffffffffffffffffff16815260208101919091526040015f205460ff16610caa576040517ffb4f8f7000000000000000000000000000000000000000000000000000000000815260040160405180910390fd5b610cb48282611419565b5050565b73ffffffffffffffffffffffffffffffffffffffff8516610d05576040517f744fa2d000000000000000000000000000000000000000000000000000000000815260040160405180910390fd5b610d118561050b611153565b506040517f3f579f4200000000000000000000000000000000000000000000000000000000815273ffffffffffffffffffffffffffffffffffffffff861690633f579f4290610d6a908790879087908790600401612069565b5f604051808303815f87803b158015610d81575f80fd5b505af1158015610d93573d5f803e3d5ffd5b505050507f340fb2e74c21912483542bb22fd95fd068acf0035639e3f638364cfc5db86b328585858585604051610dce959493929190611e2a565b60405180910390a15050505050565b5f73ffffffffffffffffffffffffffffffffffffffff831615801590610e18575073ffffffffffffffffffffffffffffffffffffffff821615155b15610f195773ffffffffffffffffffffffffffffffffffffffff83165f9081526005602052604081205460ff166002811115610e5657610e56611bf7565b03610ee2576040517fffffffffffffffffffffffffffffffffffffffff000000000000000000000000606084901b166020820152610ead906034015b60405160208183030381529060405280519060200120611632565b73ffffffffffffffffffffffffffffffffffffffff168373ffffffffffffffffffffffffffffffffffffffff16149050610f19565b5073ffffffffffffffffffffffffffffffffffffffff8083165f9081526006602090815260408083209385168352929052205460ff165b92915050565b73ffffffffffffffffffffffffffffffffffffffff8216610f6c576040517f744fa2d000000000000000000000000000000000000000000000000000000000815260040160405180910390fd5b5f610f75611153565b90505f73ffffffffffffffffffffffffffffffffffffffff84165f9081526005602052604090205460ff166002811115610fb157610fb1611bf7565b036110d9576040517fffffffffffffffffffffffffffffffffffffffff000000000000000000000000606083901b1660208201525f906034016040516020818303038152906040528051906020012090508373ffffffffffffffffffffffffffffffffffffffff1661102282611632565b73ffffffffffffffffffffffffffffffffffffffff161461106f576040517ffb4f8f7000000000000000000000000000000000000000000000000000000000815260040160405180910390fd5b73ffffffffffffffffffffffffffffffffffffffff84165f9081526004602090815260408083208490556005909152902080547fffffffffffffffffffffffffffffffffffffffffffffffffffffffffffffff001660011790556110d38483611659565b50611144565b73ffffffffffffffffffffffffffffffffffffffff8084165f9081526006602090815260408083209385168352929052205460ff16611144576040517ffb4f8f7000000000000000000000000000000000000000000000000000000000815260040160405180910390fd5b61114e83836117b5565b505050565b5f61115c611878565b905090565b60405173ffffffffffffffffffffffffffffffffffffffff821681527f4ffd725fc4a22075e9ec71c59edf9c38cdeb588a91b24fc5b61388c5be41282b9060200160405180910390a150565b73ffffffffffffffffffffffffffffffffffffffff82165f9081526005602052604081205460ff16818160028111156111e8576111e8611bf7565b14158015611228575073ffffffffffffffffffffffffffffffffffffffff8085165f9081526006602090815260408083209387168352929052205460ff16155b1561125f576040517ffb4f8f7000000000000000000000000000000000000000000000000000000000815260040160405180910390fd5b600281600281111561127357611273611bf7565b14611412575f600182600281111561128d5761128d611bf7565b036112c1575073ffffffffffffffffffffffffffffffffffffffff84165f9081526004602052604081208054919055611382565b6040517fffffffffffffffffffffffffffffffffffffffff000000000000000000000000606086901b1660208201526034016040516020818303038152906040528051906020012090508473ffffffffffffffffffffffffffffffffffffffff1661132b82611632565b73ffffffffffffffffffffffffffffffffffffffff1614611378576040517ffb4f8f7000000000000000000000000000000000000000000000000000000000815260040160405180910390fd5b6113828585611659565b61138b816116ff565b73ffffffffffffffffffffffffffffffffffffffff85165f8181526005602090815260409182902080547fffffffffffffffffffffffffffffffffffffffffffffffffffffffffffffff0016600217905590519182527f805996f252884581e2f74cf3d2b03564d5ec26ccc90850ae12653dc1b72d1fa2910160405180910390a160019250505b5092915050565b73ffffffffffffffffffffffffffffffffffffffff8116611466576040517f07b9f29b00000000000000000000000000000000000000000000000000000000815260040160405180910390fd5b73ffffffffffffffffffffffffffffffffffffffff8083165f9081526006602090815260408083209385168352929052205460ff166114d1576040517f17086f1c00000000000000000000000000000000000000000000000000000000815260040160405180910390fd5b73ffffffffffffffffffffffffffffffffffffffff82165f9081526007602052604090205460010361152f576040517f174a4ce300000000000000000000000000000000000000000000000000000000815260040160405180910390fd5b73ffffffffffffffffffffffffffffffffffffffff8281165f81815260066020908152604080832094861680845294825280832080547fffffffffffffffffffffffffffffffffffffffffffffffffffffffffffffff00169055838352600782529182902080547fffffffffffffffffffffffffffffffffffffffffffffffffffffffffffffffff01905581519283528201929092527f1ce3cbbc43ee231e5b950332f2b0b9dd7d349291a3ee411ce5c5c7ed745661bb91015b60405180910390a15050565b6040517fffffffffffffffffffffffffffffffffffffffff000000000000000000000000606083901b1660208201525f9061067290603401610e92565b6003545f9061067290309073ffffffffffffffffffffffffffffffffffffffff16846118c9565b73ffffffffffffffffffffffffffffffffffffffff8281165f81815260066020908152604080832094861680845294825280832080547fffffffffffffffffffffffffffffffffffffffffffffffffffffffffffffff001660019081179091558484526007835292819020805490930190925581519283528201929092527f27e282f7712c5b4617277759c834b86d163dfc1aad25c8c3c5926a1c9e56446891016115e9565b6003545f906117249073ffffffffffffffffffffffffffffffffffffffff16836119d8565b6001546002546040517f485cc95500000000000000000000000000000000000000000000000000000000815273ffffffffffffffffffffffffffffffffffffffff9283166004820152908216602482015291925082169063485cc955906044015f604051808303815f87803b15801561179b575f80fd5b505af11580156117ad573d5f803e3d5ffd5b505050505050565b73ffffffffffffffffffffffffffffffffffffffff8116611802576040517f07b9f29b00000000000000000000000000000000000000000000000000000000815260040160405180910390fd5b73ffffffffffffffffffffffffffffffffffffffff8083165f9081526006602090815260408083209385168352929052205460ff161561186e576040517fb4f8403100000000000000000000000000000000000000000000000000000000815260040160405180910390fd5b610cb48282611659565b6001545f9073ffffffffffffffffffffffffffffffffffffffff1633036118c457507fffffffffffffffffffffffffffffffffffffffffffffffffffffffffffffffec36013560601c90565b503390565b5f80604051806020016118db90611a2c565b7fffffffffffffffffffffffffffffffffffffffffffffffffffffffffffffffe082820381018352601f90910116604081905261191f91905f9087906020016120a8565b604080518083037fffffffffffffffffffffffffffffffffffffffffffffffffffffffffffffffe001815282825280516020918201207fff000000000000000000000000000000000000000000000000000000000000008285015260609890981b7fffffffffffffffffffffffffffffffffffffffff0000000000000000000000001660218401526035830195909552605580830197909752805180830390970187526075909101905250508251920191909120919050565b5f81836040516119e790611a2c565b73ffffffffffffffffffffffffffffffffffffffff90911681526020018190604051809103905ff590508015611a1a5760015b611a2557505f610f19565b9392505050565b60df8061212b83390190565b73ffffffffffffffffffffffffffffffffffffffff8116811461040e575f80fd5b5f60208284031215611a69575f80fd5b8135611a2581611a38565b5f8083601f840112611a84575f80fd5b50813567ffffffffffffffff811115611a9b575f80fd5b602083019150836020828501011115611ab2575f80fd5b9250929050565b5f805f8060608587031215611acc575f80fd5b8435611ad781611a38565b935060208501359250604085013567ffffffffffffffff811115611af9575f80fd5b611b0587828801611a74565b95989497509550505050565b5f8083601f840112611b21575f80fd5b50813567ffffffffffffffff811115611b38575f80fd5b6020830191508360208260051b8501011115611ab2575f80fd5b5f805f805f805f6080888a031215611b68575f80fd5b8735611b7381611a38565b9650602088013567ffffffffffffffff80821115611b8f575f80fd5b611b9b8b838c01611b11565b909850965060408a0135915080821115611bb3575f80fd5b611bbf8b838c01611b11565b909650945060608a0135915080821115611bd7575f80fd5b50611be48a828b01611b11565b989b979a50959850939692959293505050565b7f4e487b71000000000000000000000000000000000000000000000000000000005f52602160045260245ffd5b6020810160038310611c5d577f4e487b71000000000000000000000000000000000000000000000000000000005f52602160045260245ffd5b91905290565b5f805f805f8060608789031215611c78575f80fd5b863567ffffffffffffffff80821115611c8f575f80fd5b611c9b8a838b01611b11565b90985096506020890135915080821115611cb3575f80fd5b611cbf8a838b01611b11565b90965094506040890135915080821115611cd7575f80fd5b50611ce489828a01611b11565b979a9699509497509295939492505050565b5f805f60608486031215611d08575f80fd5b8335611d1381611a38565b92506020840135611d2381611a38565b91506040840135611d3381611a38565b809150509250925092565b5f8060408385031215611d4f575f80fd5b8235611d5a81611a38565b91506020830135611d6a81611a38565b809150509250929050565b5f805f805f60808688031215611d89575f80fd5b8535611d9481611a38565b94506020860135611da481611a38565b935060408601359250606086013567ffffffffffffffff811115611dc6575f80fd5b611dd288828901611a74565b969995985093965092949392505050565b81835281816020850137505f602082840101525f60207fffffffffffffffffffffffffffffffffffffffffffffffffffffffffffffffe0601f840116840101905092915050565b5f73ffffffffffffffffffffffffffffffffffffffff808816835280871660208401525084604083015260806060830152611e69608083018486611de3565b979650505050505050565b8183525f60208085019450825f5b85811015611ebd578135611e9581611a38565b73ffffffffffffffffffffffffffffffffffffffff1687529582019590820190600101611e82565b509495945050505050565b8183525f7f07ffffffffffffffffffffffffffffffffffffffffffffffffffffffffffffff831115611ef8575f80fd5b8260051b80836020870137939093016020019392505050565b8183525f6020808501808196508560051b81019150845f5b87811015611faf57828403895281357fffffffffffffffffffffffffffffffffffffffffffffffffffffffffffffffe1883603018112611f67575f80fd5b8701858101903567ffffffffffffffff811115611f82575f80fd5b803603821315611f90575f80fd5b611f9b868284611de3565b9a87019a9550505090840190600101611f29565b5091979650505050505050565b606081525f611fcf60608301888a611e74565b8281036020840152611fe2818789611ec8565b90508281036040840152611ff7818587611f11565b9998505050505050505050565b73ffffffffffffffffffffffffffffffffffffffff88168152608060208201525f61203360808301888a611e74565b8281036040840152612046818789611ec8565b9050828103606084015261205b818587611f11565b9a9950505050505050505050565b73ffffffffffffffffffffffffffffffffffffffff85168152836020820152606060408201525f61209e606083018486611de3565b9695505050505050565b5f84515f5b818110156120c757602081880181015185830152016120ad565b507fffffffffffffffffffffffff0000000000000000000000000000000000000000949094169190930190815260609190911b7fffffffffffffffffffffffffffffffffffffffff00000000000000000000000016600c8201526020019291505056fe608060405234801561000f575f80fd5b506040516100df3803806100df83398101604081905261002e91610055565b7f360894a13ba1a3210667c828492db98dca3e2076cc3735a920a3ca505d382bbc55610082565b5f60208284031215610065575f80fd5b81516001600160a01b038116811461007b575f80fd5b9392505050565b60518061008e5f395ff3fe60806040527f360894a13ba1a3210667c828492db98dca3e2076cc3735a920a3ca505d382bbc54365f80375f80365f845af490503d5f803e80603f573d5ffd5b503d5ff3fea164736f6c6343000815000aa164736f6c6343000815000a",
  "devdoc": {
    "kind": "dev",
    "methods": {},
    "version": 1
  },
  "userdoc": {
    "kind": "user",
    "methods": {},
    "version": 1
  },
  "storageLayout": {
    "storage": [
      {
        "astId": 6300,
        "contract": "contracts/account/AccountRegistry.sol:AccountRegistry",
        "label": "_owner",
        "offset": 0,
        "slot": "0",
        "type": "t_address"
      },
      {
        "astId": 6769,
        "contract": "contracts/account/AccountRegistry.sol:AccountRegistry",
        "label": "_initialized",
        "offset": 20,
        "slot": "0",
        "type": "t_bool"
      },
      {
        "astId": 7665,
        "contract": "contracts/account/AccountRegistry.sol:AccountRegistry",
        "label": "_gateway",
        "offset": 0,
        "slot": "1",
        "type": "t_address"
      },
      {
        "astId": 4618,
        "contract": "contracts/account/AccountRegistry.sol:AccountRegistry",
        "label": "_entryPoint",
        "offset": 0,
        "slot": "2",
        "type": "t_address"
      },
      {
        "astId": 4620,
        "contract": "contracts/account/AccountRegistry.sol:AccountRegistry",
        "label": "_accountImpl",
        "offset": 0,
        "slot": "3",
        "type": "t_address"
      },
      {
        "astId": 4624,
        "contract": "contracts/account/AccountRegistry.sol:AccountRegistry",
        "label": "_accountSalts",
        "offset": 0,
        "slot": "4",
        "type": "t_mapping(t_address,t_bytes32)"
      },
      {
        "astId": 4629,
        "contract": "contracts/account/AccountRegistry.sol:AccountRegistry",
        "label": "_accountStates",
        "offset": 0,
        "slot": "5",
        "type": "t_mapping(t_address,t_enum(AccountStates)4616)"
      },
      {
        "astId": 4635,
        "contract": "contracts/account/AccountRegistry.sol:AccountRegistry",
        "label": "_accountOwners",
        "offset": 0,
        "slot": "6",
        "type": "t_mapping(t_address,t_mapping(t_address,t_bool))"
      },
      {
        "astId": 4639,
        "contract": "contracts/account/AccountRegistry.sol:AccountRegistry",
        "label": "_accountOwnersCounters",
        "offset": 0,
        "slot": "7",
        "type": "t_mapping(t_address,t_uint256)"
      }
    ],
    "types": {
      "t_address": {
        "encoding": "inplace",
        "label": "address",
        "numberOfBytes": "20"
      },
      "t_bool": {
        "encoding": "inplace",
        "label": "bool",
        "numberOfBytes": "1"
      },
      "t_bytes32": {
        "encoding": "inplace",
        "label": "bytes32",
        "numberOfBytes": "32"
      },
      "t_enum(AccountStates)4616": {
        "encoding": "inplace",
        "label": "enum AccountRegistry.AccountStates",
        "numberOfBytes": "1"
      },
      "t_mapping(t_address,t_bool)": {
        "encoding": "mapping",
        "key": "t_address",
        "label": "mapping(address => bool)",
        "numberOfBytes": "32",
        "value": "t_bool"
      },
      "t_mapping(t_address,t_bytes32)": {
        "encoding": "mapping",
        "key": "t_address",
        "label": "mapping(address => bytes32)",
        "numberOfBytes": "32",
        "value": "t_bytes32"
      },
      "t_mapping(t_address,t_enum(AccountStates)4616)": {
        "encoding": "mapping",
        "key": "t_address",
        "label": "mapping(address => enum AccountRegistry.AccountStates)",
        "numberOfBytes": "32",
        "value": "t_enum(AccountStates)4616"
      },
      "t_mapping(t_address,t_mapping(t_address,t_bool))": {
        "encoding": "mapping",
        "key": "t_address",
        "label": "mapping(address => mapping(address => bool))",
        "numberOfBytes": "32",
        "value": "t_mapping(t_address,t_bool)"
      },
      "t_mapping(t_address,t_uint256)": {
        "encoding": "mapping",
        "key": "t_address",
        "label": "mapping(address => uint256)",
        "numberOfBytes": "32",
        "value": "t_uint256"
      },
      "t_uint256": {
        "encoding": "inplace",
        "label": "uint256",
        "numberOfBytes": "32"
      }
    }
  }
}