{
  "address": "0x36466f7dC29cC2ea154aE831B84619e3B1ceFd81",
  "abi": [
    {
      "inputs": [
        {
          "internalType": "address",
          "name": "owner",
          "type": "address"
        },
        {
          "internalType": "string",
          "name": "name",
          "type": "string"
        }
      ],
      "stateMutability": "nonpayable",
      "type": "constructor"
    },
    {
      "inputs": [],
      "name": "AlreadyInitialized",
      "type": "error"
    },
    {
      "inputs": [],
      "name": "ECDSAInvalidSignature",
      "type": "error"
    },
    {
      "inputs": [
        {
          "internalType": "uint256",
          "name": "length",
          "type": "uint256"
        }
      ],
      "name": "ECDSAInvalidSignatureLength",
      "type": "error"
    },
    {
      "inputs": [
        {
          "internalType": "bytes32",
          "name": "s",
          "type": "bytes32"
        }
      ],
      "name": "ECDSAInvalidSignatureS",
      "type": "error"
    },
    {
      "inputs": [],
      "name": "ERC1167FailedCreateClone",
      "type": "error"
    },
    {
      "inputs": [],
      "name": "GuardianAlreadyExists",
      "type": "error"
    },
    {
      "inputs": [],
      "name": "GuardianDoesntExist",
      "type": "error"
    },
    {
      "inputs": [],
      "name": "GuardianIsTheZeroAddress",
      "type": "error"
    },
    {
      "inputs": [],
      "name": "InvalidGuardianSignature",
      "type": "error"
    },
    {
      "inputs": [],
      "name": "InvalidShortString",
      "type": "error"
    },
    {
      "inputs": [],
      "name": "MsgSenderIsNotTheContractGuardian",
      "type": "error"
    },
    {
      "inputs": [],
      "name": "MsgSenderIsNotTheContractOwner",
      "type": "error"
    },
    {
      "inputs": [],
      "name": "MsgSenderIsNotTheToken",
      "type": "error"
    },
    {
      "inputs": [],
      "name": "OwnerIsTheZeroAddress",
      "type": "error"
    },
    {
      "inputs": [
        {
          "internalType": "string",
          "name": "str",
          "type": "string"
        }
      ],
      "name": "StringTooLong",
      "type": "error"
    },
    {
      "inputs": [],
      "name": "TokenControllerIsTheZeroAddress",
      "type": "error"
    },
    {
      "inputs": [],
      "name": "TokenImplIsTheZeroAddress",
      "type": "error"
    },
    {
      "anonymous": false,
      "inputs": [],
      "name": "EIP712DomainChanged",
      "type": "event"
    },
    {
      "anonymous": false,
      "inputs": [
        {
          "indexed": false,
          "internalType": "address",
          "name": "guardian",
          "type": "address"
        }
      ],
      "name": "GuardianAdded",
      "type": "event"
    },
    {
      "anonymous": false,
      "inputs": [
        {
          "indexed": false,
          "internalType": "address",
          "name": "guardian",
          "type": "address"
        }
      ],
      "name": "GuardianRemoved",
      "type": "event"
    },
    {
      "anonymous": false,
      "inputs": [
        {
          "indexed": false,
          "internalType": "address",
          "name": "gateway",
          "type": "address"
        },
        {
          "indexed": false,
          "internalType": "address[]",
          "name": "guardians",
          "type": "address[]"
        },
        {
          "indexed": false,
          "internalType": "address",
          "name": "tokenImpl",
          "type": "address"
        }
      ],
      "name": "Initialized",
      "type": "event"
    },
    {
      "anonymous": false,
      "inputs": [
        {
          "indexed": false,
          "internalType": "address",
          "name": "owner",
          "type": "address"
        }
      ],
      "name": "OwnerUpdated",
      "type": "event"
    },
    {
      "anonymous": false,
      "inputs": [
        {
          "indexed": false,
          "internalType": "address",
          "name": "token",
          "type": "address"
        },
        {
          "indexed": false,
          "internalType": "address",
          "name": "owner",
          "type": "address"
        },
        {
          "indexed": false,
          "internalType": "address",
          "name": "spender",
          "type": "address"
        },
        {
          "indexed": false,
          "internalType": "uint256",
          "name": "value",
          "type": "uint256"
        }
      ],
      "name": "TokenApproval",
      "type": "event"
    },
    {
      "anonymous": false,
      "inputs": [
        {
          "indexed": false,
          "internalType": "address",
          "name": "token",
          "type": "address"
        },
        {
          "indexed": false,
          "internalType": "string",
          "name": "name",
          "type": "string"
        },
        {
          "indexed": false,
          "internalType": "string",
          "name": "symbol",
          "type": "string"
        },
        {
          "indexed": false,
          "internalType": "address",
          "name": "controller",
          "type": "address"
        }
      ],
      "name": "TokenCreated",
      "type": "event"
    },
    {
      "anonymous": false,
      "inputs": [
        {
          "indexed": false,
          "internalType": "address",
          "name": "token",
          "type": "address"
        },
        {
          "indexed": false,
          "internalType": "address",
          "name": "from",
          "type": "address"
        },
        {
          "indexed": false,
          "internalType": "address",
          "name": "to",
          "type": "address"
        },
        {
          "indexed": false,
          "internalType": "uint256",
          "name": "value",
          "type": "uint256"
        }
      ],
      "name": "TokenTransfer",
      "type": "event"
    },
    {
      "inputs": [
        {
          "internalType": "address",
          "name": "guardian",
          "type": "address"
        }
      ],
      "name": "addGuardian",
      "outputs": [],
      "stateMutability": "nonpayable",
      "type": "function"
    },
    {
      "inputs": [
        {
          "internalType": "string",
          "name": "symbol",
          "type": "string"
        }
      ],
      "name": "computeToken",
      "outputs": [
        {
          "internalType": "address",
          "name": "",
          "type": "address"
        }
      ],
      "stateMutability": "view",
      "type": "function"
    },
    {
      "inputs": [
        {
          "components": [
            {
              "internalType": "string",
              "name": "name",
              "type": "string"
            },
            {
              "internalType": "string",
              "name": "symbol",
              "type": "string"
            },
            {
              "internalType": "address",
              "name": "controller",
              "type": "address"
            }
          ],
          "internalType": "struct ERC20ControlledTokenFactory.TokenData",
          "name": "tokenData",
          "type": "tuple"
        },
        {
          "internalType": "bytes",
          "name": "signature",
          "type": "bytes"
        }
      ],
      "name": "createToken",
      "outputs": [],
      "stateMutability": "nonpayable",
      "type": "function"
    },
    {
      "inputs": [],
      "name": "eip712Domain",
      "outputs": [
        {
          "internalType": "bytes1",
          "name": "fields",
          "type": "bytes1"
        },
        {
          "internalType": "string",
          "name": "name",
          "type": "string"
        },
        {
          "internalType": "string",
          "name": "version",
          "type": "string"
        },
        {
          "internalType": "uint256",
          "name": "chainId",
          "type": "uint256"
        },
        {
          "internalType": "address",
          "name": "verifyingContract",
          "type": "address"
        },
        {
          "internalType": "bytes32",
          "name": "salt",
          "type": "bytes32"
        },
        {
          "internalType": "uint256[]",
          "name": "extensions",
          "type": "uint256[]"
        }
      ],
      "stateMutability": "view",
      "type": "function"
    },
    {
      "inputs": [
        {
          "internalType": "address",
          "name": "owner",
          "type": "address"
        },
        {
          "internalType": "address",
          "name": "spender",
          "type": "address"
        },
        {
          "internalType": "uint256",
          "name": "value",
          "type": "uint256"
        }
      ],
      "name": "emitTokenApproval",
      "outputs": [],
      "stateMutability": "nonpayable",
      "type": "function"
    },
    {
      "inputs": [
        {
          "internalType": "address",
          "name": "from",
          "type": "address"
        },
        {
          "internalType": "address",
          "name": "to",
          "type": "address"
        },
        {
          "internalType": "uint256",
          "name": "value",
          "type": "uint256"
        }
      ],
      "name": "emitTokenTransfer",
      "outputs": [],
      "stateMutability": "nonpayable",
      "type": "function"
    },
    {
      "inputs": [],
      "name": "getGateway",
      "outputs": [
        {
          "internalType": "address",
          "name": "",
          "type": "address"
        }
      ],
      "stateMutability": "view",
      "type": "function"
    },
    {
      "inputs": [],
      "name": "getOwner",
      "outputs": [
        {
          "internalType": "address",
          "name": "",
          "type": "address"
        }
      ],
      "stateMutability": "view",
      "type": "function"
    },
    {
      "inputs": [
        {
          "internalType": "address",
          "name": "guardian",
          "type": "address"
        }
      ],
      "name": "hasGuardian",
      "outputs": [
        {
          "internalType": "bool",
          "name": "",
          "type": "bool"
        }
      ],
      "stateMutability": "view",
      "type": "function"
    },
    {
      "inputs": [
        {
          "internalType": "address",
          "name": "token",
          "type": "address"
        }
      ],
      "name": "hasToken",
      "outputs": [
        {
          "internalType": "bool",
          "name": "",
          "type": "bool"
        }
      ],
      "stateMutability": "view",
      "type": "function"
    },
    {
      "inputs": [
        {
          "components": [
            {
              "internalType": "string",
              "name": "name",
              "type": "string"
            },
            {
              "internalType": "string",
              "name": "symbol",
              "type": "string"
            },
            {
              "internalType": "address",
              "name": "controller",
              "type": "address"
            }
          ],
          "internalType": "struct ERC20ControlledTokenFactory.TokenData",
          "name": "tokenData",
          "type": "tuple"
        }
      ],
      "name": "hashToken",
      "outputs": [
        {
          "internalType": "bytes32",
          "name": "",
          "type": "bytes32"
        }
      ],
      "stateMutability": "view",
      "type": "function"
    },
    {
      "inputs": [
        {
          "internalType": "address",
          "name": "gateway",
          "type": "address"
        },
        {
          "internalType": "address[]",
          "name": "guardians",
          "type": "address[]"
        },
        {
          "internalType": "address",
          "name": "tokenImpl",
          "type": "address"
        }
      ],
      "name": "initialize",
      "outputs": [],
      "stateMutability": "nonpayable",
      "type": "function"
    },
    {
      "inputs": [],
      "name": "initialized",
      "outputs": [
        {
          "internalType": "bool",
          "name": "",
          "type": "bool"
        }
      ],
      "stateMutability": "view",
      "type": "function"
    },
    {
      "inputs": [
        {
          "internalType": "address",
          "name": "guardian",
          "type": "address"
        }
      ],
      "name": "removeGuardian",
      "outputs": [],
      "stateMutability": "nonpayable",
      "type": "function"
    },
    {
      "inputs": [
        {
          "internalType": "address",
          "name": "owner",
          "type": "address"
        }
      ],
      "name": "setOwner",
      "outputs": [],
      "stateMutability": "nonpayable",
      "type": "function"
    }
  ],
  "transactionHash": "0xf98c10a9f14b69936ed1462fb61f6ca67cb1bcee14f1a0036ad316942470a43b",
  "args": [
    "0xF2a1699320517FA9C5c749EA9DfB5594Bb9862e5",
    "OM!goods ERC20 Controlled Token Factory"
  ],
  "numDeployments": 1,
  "solcInputHash": "1179d9d37cb9c2e343e41829b8119480",
  "bytecode": "0x61016060405234801562000011575f80fd5b50604051620021ae380380620021ae833981016040819052620000349162000214565b81818181818082604051806040016040528060018152602001603160f81b8152506200006a5f836200015960201b90919060201c565b610120526200007b81600162000159565b61014052815160208084019190912060e052815190820120610100524660a0526200010860e05161010051604080517f8b73c3c69bb8fe3d512ecc4cf759cc79239f7b179b0ffacaa9a75d522b39400f60208201529081019290925260608201524660808201523060a08201525f9060c00160405160208183030381529060405280519060200120905090565b60805250503060c0526001600160a01b038116156200012857806200012a565b335b600380546001600160a01b0319166001600160a01b039290921691909117905550620004959650505050505050565b5f6020835110156200017857620001708362000191565b90506200018b565b8162000185848262000375565b5060ff90505b92915050565b5f80829050601f81511115620001c7578260405163305a27a960e01b8152600401620001be91906200043d565b60405180910390fd5b8051620001d48262000471565b179392505050565b634e487b7160e01b5f52604160045260245ffd5b5f5b838110156200020c578181015183820152602001620001f2565b50505f910152565b5f806040838503121562000226575f80fd5b82516001600160a01b03811681146200023d575f80fd5b60208401519092506001600160401b03808211156200025a575f80fd5b818501915085601f8301126200026e575f80fd5b815181811115620002835762000283620001dc565b604051601f8201601f19908116603f01168101908382118183101715620002ae57620002ae620001dc565b81604052828152886020848701011115620002c7575f80fd5b620002da836020830160208801620001f0565b80955050505050509250929050565b600181811c90821680620002fe57607f821691505b6020821081036200031d57634e487b7160e01b5f52602260045260245ffd5b50919050565b601f82111562000370575f81815260208120601f850160051c810160208610156200034b5750805b601f850160051c820191505b818110156200036c5782815560010162000357565b5050505b505050565b81516001600160401b03811115620003915762000391620001dc565b620003a981620003a28454620002e9565b8462000323565b602080601f831160018114620003df575f8415620003c75750858301515b5f19600386901b1c1916600185901b1785556200036c565b5f85815260208120601f198616915b828110156200040f57888601518255948401946001909101908401620003ee565b50858210156200042d57878501515f19600388901b60f8161c191681555b5050505050600190811b01905550565b602081525f82518060208401526200045d816040850160208701620001f0565b601f01601f19169190910160400192915050565b805160208083015191908110156200031d575f1960209190910360031b1b16919050565b60805160a05160c05160e051610100516101205161014051611cc7620004e75f395f610ed301525f610ea701525f6113f501525f6113cd01525f61132801525f61135201525f61137c0152611cc75ff3fe608060405234801561000f575f80fd5b50600436106100f0575f3560e01c806384b0196e11610093578063dc5b68a611610063578063dc5b68a614610242578063e2684a8314610255578063f78356e114610268578063fd836ab81461027b575f80fd5b806384b0196e146101be578063893d20e8146101d95780639bb0f599146101f7578063a526d83b1461022f575f80fd5b80633230a9f2116100ce5780633230a9f21461013857806342bf3cc114610159578063704e8bc51461019857806371404156146101ab575f80fd5b806313af4035146100f4578063158ef93e146101095780631be4485914610125575b5f80fd5b61010761010236600461175a565b61028e565b005b60055460ff165b60405190151581526020015b60405180910390f35b610107610133366004611773565b6103c3565b61014b6101463660046117c2565b610472565b60405190815260200161011c565b60025473ffffffffffffffffffffffffffffffffffffffff165b60405173ffffffffffffffffffffffffffffffffffffffff909116815260200161011c565b6101076101a6366004611841565b610482565b6101076101b936600461175a565b610637565b6101c66107cb565b60405161011c9796959493929190611906565b60035473ffffffffffffffffffffffffffffffffffffffff16610173565b61011061020536600461175a565b73ffffffffffffffffffffffffffffffffffffffff165f9081526006602052604090205460ff1690565b61010761023d36600461175a565b610829565b6101076102503660046119c3565b6109c1565b61011061026336600461175a565b610ba8565b610173610276366004611a53565b610bb2565b610107610289366004611773565b610beb565b60035473ffffffffffffffffffffffffffffffffffffffff166102af610c91565b73ffffffffffffffffffffffffffffffffffffffff16146102fc576040517fcd52968d00000000000000000000000000000000000000000000000000000000815260040160405180910390fd5b73ffffffffffffffffffffffffffffffffffffffff8116610349576040517f465f799000000000000000000000000000000000000000000000000000000000815260040160405180910390fd5b600380547fffffffffffffffffffffffff00000000000000000000000000000000000000001673ffffffffffffffffffffffffffffffffffffffff83169081179091556040519081527f4ffd725fc4a22075e9ec71c59edf9c38cdeb588a91b24fc5b61388c5be41282b906020015b60405180910390a150565b335f9081526006602052604090205460ff1661040b576040517f5c81ee7b00000000000000000000000000000000000000000000000000000000815260040160405180910390fd5b6040805133815273ffffffffffffffffffffffffffffffffffffffff8086166020830152841691810191909152606081018290527fae33cb06d7303f889d953bb09540983050163c1c4c98b330db432a911cfb63fd906080015b60405180910390a1505050565b5f61047c82610ce7565b92915050565b5f610493606085016040860161175a565b73ffffffffffffffffffffffffffffffffffffffff16036104e0576040517fa667669100000000000000000000000000000000000000000000000000000000815260040160405180910390fd5b6104f36104ec84610ce7565b8383610dd7565b5f6105306105046020860186611a92565b604051602001610515929190611af3565b60405160208183030381529060405280519060200120610e23565b60025490915073ffffffffffffffffffffffffffffffffffffffff8083169163613d25bb91166105608780611a92565b61056d60208a018a611a92565b61057d60608c0160408d0161175a565b6040518763ffffffff1660e01b815260040161059e96959493929190611b49565b5f604051808303815f87803b1580156105b5575f80fd5b505af11580156105c7573d5f803e3d5ffd5b507f6596c1670eb3390048d23721809c3da5d3f531375ac0e2cab0f77a808ed6433192508391506105fa90508680611a92565b6106076020890189611a92565b61061760608b0160408c0161175a565b60405161062996959493929190611b49565b60405180910390a150505050565b60035473ffffffffffffffffffffffffffffffffffffffff16610658610c91565b73ffffffffffffffffffffffffffffffffffffffff16146106a5576040517fcd52968d00000000000000000000000000000000000000000000000000000000815260040160405180910390fd5b73ffffffffffffffffffffffffffffffffffffffff81166106f2576040517f0398ea3f00000000000000000000000000000000000000000000000000000000815260040160405180910390fd5b73ffffffffffffffffffffffffffffffffffffffff81165f9081526004602052604090205460ff16610750576040517ff9c7c4e100000000000000000000000000000000000000000000000000000000815260040160405180910390fd5b73ffffffffffffffffffffffffffffffffffffffff81165f8181526004602090815260409182902080547fffffffffffffffffffffffffffffffffffffffffffffffffffffffffffffff0016905590519182527fb8107d0c6b40be480ce3172ee66ba6d64b71f6b1685a851340036e6e2e3e3c5291016103b8565b5f6060805f805f60606107dc610ea0565b6107e4610ecc565b604080515f808252602082019092527f0f000000000000000000000000000000000000000000000000000000000000009b939a50919850469750309650945092509050565b60035473ffffffffffffffffffffffffffffffffffffffff1661084a610c91565b73ffffffffffffffffffffffffffffffffffffffff1614610897576040517fcd52968d00000000000000000000000000000000000000000000000000000000815260040160405180910390fd5b73ffffffffffffffffffffffffffffffffffffffff81166108e4576040517f0398ea3f00000000000000000000000000000000000000000000000000000000815260040160405180910390fd5b73ffffffffffffffffffffffffffffffffffffffff81165f9081526004602052604090205460ff1615610943576040517ffecca77f00000000000000000000000000000000000000000000000000000000815260040160405180910390fd5b73ffffffffffffffffffffffffffffffffffffffff81165f8181526004602090815260409182902080547fffffffffffffffffffffffffffffffffffffffffffffffffffffffffffffff0016600117905590519182527f038596bb31e2e7d3d9f184d4c98b310103f6d7f5830e5eec32bffe6f1728f96991016103b8565b60055460ff16156109fe576040517f0dc149f000000000000000000000000000000000000000000000000000000000815260040160405180910390fd5b600580547fffffffffffffffffffffffffffffffffffffffffffffffffffffffffffffff0016600117905560035473ffffffffffffffffffffffffffffffffffffffff16610a4a610c91565b73ffffffffffffffffffffffffffffffffffffffff1614610a97576040517fcd52968d00000000000000000000000000000000000000000000000000000000815260040160405180910390fd5b73ffffffffffffffffffffffffffffffffffffffff8116610ae4576040517f0e11028600000000000000000000000000000000000000000000000000000000815260040160405180910390fd5b600280547fffffffffffffffffffffffff00000000000000000000000000000000000000001673ffffffffffffffffffffffffffffffffffffffff8616179055610b2e8383610ef9565b600580547fffffffffffffffffffffff0000000000000000000000000000000000000000ff1661010073ffffffffffffffffffffffffffffffffffffffff8416021790556040517fe4fd2004c05020ea04f23d6df3f7507a1a531f39324e32ccbcefee06adf8539d90610629908690869086908690611ba3565b5f61047c82611035565b5f610be48383604051602001610bc9929190611af3565b60405160208183030381529060405280519060200120611086565b9392505050565b335f9081526006602052604090205460ff16610c33576040517f5c81ee7b00000000000000000000000000000000000000000000000000000000815260040160405180910390fd5b6040805133815273ffffffffffffffffffffffffffffffffffffffff8086166020830152841691810191909152606081018290527f2c6e87be19eb54f68d01e25832a3ea2b8247b5cc92fcc754d67e161193a154f590608001610465565b6002545f9073ffffffffffffffffffffffffffffffffffffffff163303610cdd57507fffffffffffffffffffffffffffffffffffffffffffffffffffffffffffffffec36013560601c90565b503390565b905090565b5f61047c7f721cd4535b1e0b262878e4dbf649f8a231b1ba2dca4007b2efb6b7757031cd3a610d168480611a92565b604051602001610d27929190611af3565b60405160208183030381529060405280519060200120848060200190610d4d9190611a92565b604051602001610d5e929190611af3565b60405160208183030381529060405280519060200120856040016020810190610d87919061175a565b604080516020810195909552840192909252606083015273ffffffffffffffffffffffffffffffffffffffff16608082015260a001604051602081830303815290604052805190602001206110b0565b60035473ffffffffffffffffffffffffffffffffffffffff16610df8610c91565b73ffffffffffffffffffffffffffffffffffffffff1614610e1e57610e1e8383836110f7565b505050565b6005545f90610e4d90610100900473ffffffffffffffffffffffffffffffffffffffff1683611176565b73ffffffffffffffffffffffffffffffffffffffff81165f90815260066020526040902080547fffffffffffffffffffffffffffffffffffffffffffffffffffffffffffffff0016600117905592915050565b6060610ce27f00000000000000000000000000000000000000000000000000000000000000005f611207565b6060610ce27f00000000000000000000000000000000000000000000000000000000000000006001611207565b805f5b8181101561102f575f848483818110610f1757610f17611c15565b9050602002016020810190610f2c919061175a565b905073ffffffffffffffffffffffffffffffffffffffff8116610f7b576040517f0398ea3f00000000000000000000000000000000000000000000000000000000815260040160405180910390fd5b73ffffffffffffffffffffffffffffffffffffffff81165f9081526004602052604090205460ff1615610fda576040517ffecca77f00000000000000000000000000000000000000000000000000000000815260040160405180910390fd5b73ffffffffffffffffffffffffffffffffffffffff165f90815260046020526040902080547fffffffffffffffffffffffffffffffffffffffffffffffffffffffffffffff0016600190811790915501610efc565b50505050565b6003545f9073ffffffffffffffffffffffffffffffffffffffff8381169116148061047c57505073ffffffffffffffffffffffffffffffffffffffff165f9081526004602052604090205460ff1690565b6005545f9061047c90610100900473ffffffffffffffffffffffffffffffffffffffff16836112b0565b5f61047c6110bc61130f565b836040517f19010000000000000000000000000000000000000000000000000000000000008152600281019290925260228201526042902090565b61114061113b83838080601f0160208091040260200160405190810160405280939291908181526020018383808284375f9201919091525088939250506114459050565b611035565b610e1e576040517f07a81bc400000000000000000000000000000000000000000000000000000000815260040160405180910390fd5b5f763d602d80600a3d3981f3363d3d373d3d3d363d730000008360601b60e81c175f526e5af43d82803e903d91602b57fd5bf38360781b1760205281603760095ff5905073ffffffffffffffffffffffffffffffffffffffff811661047c576040517fc2f868f400000000000000000000000000000000000000000000000000000000815260040160405180910390fd5b606060ff83146112215761121a8361146d565b905061047c565b81805461122d90611c42565b80601f016020809104026020016040519081016040528092919081815260200182805461125990611c42565b80156112a45780601f1061127b576101008083540402835291602001916112a4565b820191905f5260205f20905b81548152906001019060200180831161128757829003601f168201915b5050505050905061047c565b6040513060388201526f5af43d82803e903d91602b57fd5bf3ff602482015260148101839052733d602d80600a3d3981f3363d3d373d3d3d363d738152605881018290526037600c820120607882015260556043909101205f90610be4565b5f3073ffffffffffffffffffffffffffffffffffffffff7f00000000000000000000000000000000000000000000000000000000000000001614801561137457507f000000000000000000000000000000000000000000000000000000000000000046145b1561139e57507f000000000000000000000000000000000000000000000000000000000000000090565b610ce2604080517f8b73c3c69bb8fe3d512ecc4cf759cc79239f7b179b0ffacaa9a75d522b39400f60208201527f0000000000000000000000000000000000000000000000000000000000000000918101919091527f000000000000000000000000000000000000000000000000000000000000000060608201524660808201523060a08201525f9060c00160405160208183030381529060405280519060200120905090565b5f805f8061145386866114aa565b92509250925061146382826114f3565b5090949350505050565b60605f611479836115ff565b6040805160208082528183019092529192505f91906020820181803683375050509182525060208101929092525090565b5f805f83516041036114e1576020840151604085015160608601515f1a6114d38882858561163f565b9550955095505050506114ec565b505081515f91506002905b9250925092565b5f82600381111561150657611506611c8d565b0361150f575050565b600182600381111561152357611523611c8d565b0361155a576040517ff645eedf00000000000000000000000000000000000000000000000000000000815260040160405180910390fd5b600282600381111561156e5761156e611c8d565b036115ad576040517ffce698f7000000000000000000000000000000000000000000000000000000008152600481018290526024015b60405180910390fd5b60038260038111156115c1576115c1611c8d565b036115fb576040517fd78bce0c000000000000000000000000000000000000000000000000000000008152600481018290526024016115a4565b5050565b5f60ff8216601f81111561047c576040517fb3512b0c00000000000000000000000000000000000000000000000000000000815260040160405180910390fd5b5f80807f7fffffffffffffffffffffffffffffff5d576e7357a4501ddfe92f46681b20a084111561167857505f91506003905082611728565b604080515f808252602082018084528a905260ff891692820192909252606081018790526080810186905260019060a0016020604051602081039080840390855afa1580156116c9573d5f803e3d5ffd5b50506040517fffffffffffffffffffffffffffffffffffffffffffffffffffffffffffffffe0015191505073ffffffffffffffffffffffffffffffffffffffff811661171f57505f925060019150829050611728565b92505f91508190505b9450945094915050565b803573ffffffffffffffffffffffffffffffffffffffff81168114611755575f80fd5b919050565b5f6020828403121561176a575f80fd5b610be482611732565b5f805f60608486031215611785575f80fd5b61178e84611732565b925061179c60208501611732565b9150604084013590509250925092565b5f606082840312156117bc575f80fd5b50919050565b5f602082840312156117d2575f80fd5b813567ffffffffffffffff8111156117e8575f80fd5b6117f4848285016117ac565b949350505050565b5f8083601f84011261180c575f80fd5b50813567ffffffffffffffff811115611823575f80fd5b60208301915083602082850101111561183a575f80fd5b9250929050565b5f805f60408486031215611853575f80fd5b833567ffffffffffffffff8082111561186a575f80fd5b611876878388016117ac565b9450602086013591508082111561188b575f80fd5b50611898868287016117fc565b9497909650939450505050565b5f81518084525f5b818110156118c9576020818501810151868301820152016118ad565b505f6020828601015260207fffffffffffffffffffffffffffffffffffffffffffffffffffffffffffffffe0601f83011685010191505092915050565b7fff00000000000000000000000000000000000000000000000000000000000000881681525f602060e08184015261194160e084018a6118a5565b8381036040850152611953818a6118a5565b6060850189905273ffffffffffffffffffffffffffffffffffffffff8816608086015260a0850187905284810360c086015285518082528387019250908301905f5b818110156119b157835183529284019291840191600101611995565b50909c9b505050505050505050505050565b5f805f80606085870312156119d6575f80fd5b6119df85611732565b9350602085013567ffffffffffffffff808211156119fb575f80fd5b818701915087601f830112611a0e575f80fd5b813581811115611a1c575f80fd5b8860208260051b8501011115611a30575f80fd5b602083019550809450505050611a4860408601611732565b905092959194509250565b5f8060208385031215611a64575f80fd5b823567ffffffffffffffff811115611a7a575f80fd5b611a86858286016117fc565b90969095509350505050565b5f8083357fffffffffffffffffffffffffffffffffffffffffffffffffffffffffffffffe1843603018112611ac5575f80fd5b83018035915067ffffffffffffffff821115611adf575f80fd5b60200191503681900382131561183a575f80fd5b818382375f9101908152919050565b81835281816020850137505f602082840101525f60207fffffffffffffffffffffffffffffffffffffffffffffffffffffffffffffffe0601f840116840101905092915050565b5f73ffffffffffffffffffffffffffffffffffffffff808916835260806020840152611b7960808401888a611b02565b8381036040850152611b8c818789611b02565b925050808416606084015250979650505050505050565b73ffffffffffffffffffffffffffffffffffffffff8581168252606060208084018290529083018590525f91869160808501845b88811015611bfc5783611be986611732565b1682529382019390820190600101611bd7565b5080945050508085166040850152505095945050505050565b7f4e487b71000000000000000000000000000000000000000000000000000000005f52603260045260245ffd5b600181811c90821680611c5657607f821691505b6020821081036117bc577f4e487b71000000000000000000000000000000000000000000000000000000005f52602260045260245ffd5b7f4e487b71000000000000000000000000000000000000000000000000000000005f52602160045260245ffdfea164736f6c6343000815000a",
  "devdoc": {
    "errors": {
      "ECDSAInvalidSignature()": [
        {
          "details": "The signature derives the `address(0)`."
        }
      ],
      "ECDSAInvalidSignatureLength(uint256)": [
        {
          "details": "The signature has an invalid length."
        }
      ],
      "ECDSAInvalidSignatureS(bytes32)": [
        {
          "details": "The signature has an S value that is in the upper half order."
        }
      ],
      "ERC1167FailedCreateClone()": [
        {
          "details": "A clone instance deployment failed."
        }
      ]
    },
    "events": {
      "EIP712DomainChanged()": {
        "details": "MAY be emitted to signal that the domain could have changed."
      }
    },
    "kind": "dev",
    "methods": {
      "eip712Domain()": {
        "details": "See {IERC-5267}."
      }
    },
    "version": 1
  },
  "userdoc": {
    "kind": "user",
    "methods": {},
    "version": 1
  },
  "storageLayout": {
    "storage": [
      {
        "astId": 2447,
        "contract": "contracts/tokens/erc20/controlled/ERC20ControlledTokenFactory.sol:ERC20ControlledTokenFactory",
        "label": "_nameFallback",
        "offset": 0,
        "slot": "0",
        "type": "t_string_storage"
      },
      {
        "astId": 2449,
        "contract": "contracts/tokens/erc20/controlled/ERC20ControlledTokenFactory.sol:ERC20ControlledTokenFactory",
        "label": "_versionFallback",
        "offset": 0,
        "slot": "1",
        "type": "t_string_storage"
      },
      {
        "astId": 4732,
        "contract": "contracts/tokens/erc20/controlled/ERC20ControlledTokenFactory.sol:ERC20ControlledTokenFactory",
        "label": "_gateway",
        "offset": 0,
        "slot": "2",
        "type": "t_address"
      },
      {
        "astId": 4099,
        "contract": "contracts/tokens/erc20/controlled/ERC20ControlledTokenFactory.sol:ERC20ControlledTokenFactory",
        "label": "_owner",
        "offset": 0,
        "slot": "3",
        "type": "t_address"
      },
      {
        "astId": 3885,
        "contract": "contracts/tokens/erc20/controlled/ERC20ControlledTokenFactory.sol:ERC20ControlledTokenFactory",
        "label": "_guardians",
        "offset": 0,
        "slot": "4",
        "type": "t_mapping(t_address,t_bool)"
      },
      {
        "astId": 6325,
        "contract": "contracts/tokens/erc20/controlled/ERC20ControlledTokenFactory.sol:ERC20ControlledTokenFactory",
        "label": "_initialized",
        "offset": 0,
        "slot": "5",
        "type": "t_bool"
      },
      {
        "astId": 4782,
        "contract": "contracts/tokens/erc20/controlled/ERC20ControlledTokenFactory.sol:ERC20ControlledTokenFactory",
        "label": "_tokenImpl",
        "offset": 1,
        "slot": "5",
        "type": "t_address"
      },
      {
        "astId": 4786,
        "contract": "contracts/tokens/erc20/controlled/ERC20ControlledTokenFactory.sol:ERC20ControlledTokenFactory",
        "label": "_tokens",
        "offset": 0,
        "slot": "6",
        "type": "t_mapping(t_address,t_bool)"
      }
    ],
    "types": {
      "t_address": {
        "encoding": "inplace",
        "label": "address",
        "numberOfBytes": "20"
      },
      "t_bool": {
        "encoding": "inplace",
        "label": "bool",
        "numberOfBytes": "1"
      },
      "t_mapping(t_address,t_bool)": {
        "encoding": "mapping",
        "key": "t_address",
        "label": "mapping(address => bool)",
        "numberOfBytes": "32",
        "value": "t_bool"
      },
      "t_string_storage": {
        "encoding": "bytes",
        "label": "string",
        "numberOfBytes": "32"
      }
    }
  }
}