{
  "address": "0x8Aa98716a7105022307bbD8140Be8835d04F949e",
  "abi": [
    {
      "inputs": [
        {
          "internalType": "address",
          "name": "owner",
          "type": "address"
        },
        {
          "internalType": "string",
          "name": "name",
          "type": "string"
        },
        {
          "internalType": "string",
          "name": "version",
          "type": "string"
        }
      ],
      "stateMutability": "nonpayable",
      "type": "constructor"
    },
    {
      "inputs": [],
      "name": "AlreadyInitialized",
      "type": "error"
    },
    {
      "inputs": [],
      "name": "InvalidShortString",
      "type": "error"
    },
    {
      "inputs": [],
      "name": "MinterIsTheZeroAddress",
      "type": "error"
    },
    {
      "inputs": [],
      "name": "MsgSenderIsNotTheContractOwner",
      "type": "error"
    },
    {
      "inputs": [],
      "name": "OwnerIsTheZeroAddress",
      "type": "error"
    },
    {
      "inputs": [
        {
          "internalType": "string",
          "name": "str",
          "type": "string"
        }
      ],
      "name": "StringTooLong",
      "type": "error"
    },
    {
      "inputs": [],
      "name": "TokenImplIsTheZeroAddress",
      "type": "error"
    },
    {
      "inputs": [],
      "name": "TokenOwnerIsTheZeroAddress",
      "type": "error"
    },
    {
      "inputs": [],
      "name": "TokenRegistryIsTheZeroAddress",
      "type": "error"
    },
    {
      "anonymous": false,
      "inputs": [],
      "name": "EIP712DomainChanged",
      "type": "event"
    },
    {
      "anonymous": false,
      "inputs": [
        {
          "indexed": false,
          "internalType": "address",
          "name": "gateway",
          "type": "address"
        },
        {
          "indexed": false,
          "internalType": "address",
          "name": "tokenRegistry",
          "type": "address"
        },
        {
          "indexed": false,
          "internalType": "address",
          "name": "tokenImpl",
          "type": "address"
        }
      ],
      "name": "Initialized",
      "type": "event"
    },
    {
      "anonymous": false,
      "inputs": [
        {
          "indexed": false,
          "internalType": "address",
          "name": "owner",
          "type": "address"
        }
      ],
      "name": "OwnerUpdated",
      "type": "event"
    },
    {
      "anonymous": false,
      "inputs": [
        {
          "indexed": false,
          "internalType": "address",
          "name": "token",
          "type": "address"
        },
        {
          "indexed": false,
          "internalType": "string",
          "name": "name",
          "type": "string"
        },
        {
          "indexed": false,
          "internalType": "string",
          "name": "symbol",
          "type": "string"
        },
        {
          "indexed": false,
          "internalType": "address",
          "name": "owner",
          "type": "address"
        },
        {
          "indexed": false,
          "internalType": "address",
          "name": "minter",
          "type": "address"
        },
        {
          "indexed": false,
          "internalType": "address",
          "name": "burner",
          "type": "address"
        },
        {
          "indexed": false,
          "internalType": "uint256",
          "name": "initialSupply",
          "type": "uint256"
        }
      ],
      "name": "TokenCreated",
      "type": "event"
    },
    {
      "inputs": [
        {
          "internalType": "string",
          "name": "symbol",
          "type": "string"
        }
      ],
      "name": "computeToken",
      "outputs": [
        {
          "internalType": "address",
          "name": "",
          "type": "address"
        }
      ],
      "stateMutability": "view",
      "type": "function"
    },
    {
      "inputs": [
        {
          "components": [
            {
              "internalType": "address",
              "name": "owner",
              "type": "address"
            },
            {
              "internalType": "address",
              "name": "minter",
              "type": "address"
            },
            {
              "internalType": "address",
              "name": "burner",
              "type": "address"
            },
            {
              "internalType": "uint256",
              "name": "initialSupply",
              "type": "uint256"
            },
            {
              "internalType": "string",
              "name": "name",
              "type": "string"
            },
            {
              "internalType": "string",
              "name": "symbol",
              "type": "string"
            }
          ],
          "internalType": "struct ERC20ControlledTokenFactory.TokenData",
          "name": "tokenData",
          "type": "tuple"
        },
        {
          "internalType": "bytes",
          "name": "guardianSignature",
          "type": "bytes"
        }
      ],
      "name": "createToken",
      "outputs": [],
      "stateMutability": "nonpayable",
      "type": "function"
    },
    {
      "inputs": [],
      "name": "eip712Domain",
      "outputs": [
        {
          "internalType": "bytes1",
          "name": "fields",
          "type": "bytes1"
        },
        {
          "internalType": "string",
          "name": "name",
          "type": "string"
        },
        {
          "internalType": "string",
          "name": "version",
          "type": "string"
        },
        {
          "internalType": "uint256",
          "name": "chainId",
          "type": "uint256"
        },
        {
          "internalType": "address",
          "name": "verifyingContract",
          "type": "address"
        },
        {
          "internalType": "bytes32",
          "name": "salt",
          "type": "bytes32"
        },
        {
          "internalType": "uint256[]",
          "name": "extensions",
          "type": "uint256[]"
        }
      ],
      "stateMutability": "view",
      "type": "function"
    },
    {
      "inputs": [],
      "name": "getGateway",
      "outputs": [
        {
          "internalType": "address",
          "name": "",
          "type": "address"
        }
      ],
      "stateMutability": "view",
      "type": "function"
    },
    {
      "inputs": [],
      "name": "getOwner",
      "outputs": [
        {
          "internalType": "address",
          "name": "",
          "type": "address"
        }
      ],
      "stateMutability": "view",
      "type": "function"
    },
    {
      "inputs": [
        {
          "components": [
            {
              "internalType": "address",
              "name": "owner",
              "type": "address"
            },
            {
              "internalType": "address",
              "name": "minter",
              "type": "address"
            },
            {
              "internalType": "address",
              "name": "burner",
              "type": "address"
            },
            {
              "internalType": "uint256",
              "name": "initialSupply",
              "type": "uint256"
            },
            {
              "internalType": "string",
              "name": "name",
              "type": "string"
            },
            {
              "internalType": "string",
              "name": "symbol",
              "type": "string"
            }
          ],
          "internalType": "struct ERC20ControlledTokenFactory.TokenData",
          "name": "tokenData",
          "type": "tuple"
        }
      ],
      "name": "hashToken",
      "outputs": [
        {
          "internalType": "bytes32",
          "name": "",
          "type": "bytes32"
        }
      ],
      "stateMutability": "view",
      "type": "function"
    },
    {
      "inputs": [
        {
          "internalType": "address",
          "name": "gateway",
          "type": "address"
        },
        {
          "internalType": "address",
          "name": "tokenRegistry",
          "type": "address"
        },
        {
          "internalType": "address",
          "name": "tokenImpl",
          "type": "address"
        }
      ],
      "name": "initialize",
      "outputs": [],
      "stateMutability": "nonpayable",
      "type": "function"
    },
    {
      "inputs": [],
      "name": "initialized",
      "outputs": [
        {
          "internalType": "bool",
          "name": "",
          "type": "bool"
        }
      ],
      "stateMutability": "view",
      "type": "function"
    },
    {
      "inputs": [
        {
          "internalType": "address",
          "name": "owner",
          "type": "address"
        }
      ],
      "name": "setOwner",
      "outputs": [],
      "stateMutability": "nonpayable",
      "type": "function"
    }
  ],
  "transactionHash": "0x8fb90fd32b5b5984edfdbdcafae5098f77df077a152a80106782d8369c3424bd",
  "args": [
    "0xF2a1699320517FA9C5c749EA9DfB5594Bb9862e5",
    "ERC20ControlledTokenFactory",
    "0.0.1"
  ],
  "numDeployments": 1,
  "solcInputHash": "6192676cc397315b66316256ae4c7243",
  "bytecode": "0x61016060405234801562000011575f80fd5b5060405162001a6538038062001a65833981016040819052620000349162000279565b8280838362000044825f62000130565b610120526200005581600162000130565b61014052815160208084019190912060e052815190820120610100524660a052620000e260e05161010051604080517f8b73c3c69bb8fe3d512ecc4cf759cc79239f7b179b0ffacaa9a75d522b39400f60208201529081019290925260608201524660808201523060a08201525f9060c00160405160208183030381529060405280519060200120905090565b60805250503060c0526001600160a01b0381161562000102578062000104565b335b600280546001600160a01b0319166001600160a01b039290921691909117905550620004a99350505050565b5f6020835110156200014f57620001478362000168565b905062000162565b816200015c848262000389565b5060ff90505b92915050565b5f80829050601f815111156200019e578260405163305a27a960e01b815260040162000195919062000451565b60405180910390fd5b8051620001ab8262000485565b179392505050565b634e487b7160e01b5f52604160045260245ffd5b5f5b83811015620001e3578181015183820152602001620001c9565b50505f910152565b5f82601f830112620001fb575f80fd5b81516001600160401b0380821115620002185762000218620001b3565b604051601f8301601f19908116603f01168101908282118183101715620002435762000243620001b3565b816040528381528660208588010111156200025c575f80fd5b6200026f846020830160208901620001c7565b9695505050505050565b5f805f606084860312156200028c575f80fd5b83516001600160a01b0381168114620002a3575f80fd5b60208501519093506001600160401b0380821115620002c0575f80fd5b620002ce87838801620001eb565b93506040860151915080821115620002e4575f80fd5b50620002f386828701620001eb565b9150509250925092565b600181811c908216806200031257607f821691505b6020821081036200033157634e487b7160e01b5f52602260045260245ffd5b50919050565b601f82111562000384575f81815260208120601f850160051c810160208610156200035f5750805b601f850160051c820191505b8181101562000380578281556001016200036b565b5050505b505050565b81516001600160401b03811115620003a557620003a5620001b3565b620003bd81620003b68454620002fd565b8462000337565b602080601f831160018114620003f3575f8415620003db5750858301515b5f19600386901b1c1916600185901b17855562000380565b5f85815260208120601f198616915b82811015620004235788860151825594840194600190910190840162000402565b50858210156200044157878501515f19600388901b60f8161c191681555b5050505050600190811b01905550565b602081525f825180602084015262000471816040850160208701620001c7565b601f01601f19169190910160400192915050565b8051602080830151919081101562000331575f1960209190910360031b1b16919050565b60805160a05160c05160e05161010051610120516101405161156a620004fb5f395f6102bb01525f61029101525f610e8601525f610e5e01525f610db901525f610de301525f610e0d015261156a5ff3fe608060405234801561000f575f80fd5b506004361061009f575f3560e01c8063893d20e811610072578063c0c53b8b11610058578063c0c53b8b14610176578063f59e0aea14610189578063f78356e1146101aa575f80fd5b8063893d20e814610145578063bd5f094414610163575f80fd5b806313af4035146100a3578063158ef93e146100b857806342bf3cc1146100eb57806384b0196e1461012a575b5f80fd5b6100b66100b1366004610f03565b6101bd565b005b60025474010000000000000000000000000000000000000000900460ff1660405190151581526020015b60405180910390f35b60035473ffffffffffffffffffffffffffffffffffffffff165b60405173ffffffffffffffffffffffffffffffffffffffff90911681526020016100e2565b610132610284565b6040516100e29796959493929190610f89565b60025473ffffffffffffffffffffffffffffffffffffffff16610105565b6100b66101713660046110a1565b610326565b6100b6610184366004611105565b610588565b61019c61019736600461114d565b6105f0565b6040519081526020016100e2565b6101056101b8366004611187565b610600565b60025473ffffffffffffffffffffffffffffffffffffffff166101de610639565b73ffffffffffffffffffffffffffffffffffffffff161461022b576040517fcd52968d00000000000000000000000000000000000000000000000000000000815260040160405180910390fd5b73ffffffffffffffffffffffffffffffffffffffff8116610278576040517f465f799000000000000000000000000000000000000000000000000000000000815260040160405180910390fd5b61028181610647565b50565b5f606080828080836102b67f000000000000000000000000000000000000000000000000000000000000000083610693565b6102e17f00000000000000000000000000000000000000000000000000000000000000006001610693565b604080515f808252602082019092527f0f000000000000000000000000000000000000000000000000000000000000009b939a50919850469750309650945092509050565b5f6103346020850185610f03565b73ffffffffffffffffffffffffffffffffffffffff1603610381576040517fe4cd128600000000000000000000000000000000000000000000000000000000815260040160405180910390fd5b5f6103926040850160208601610f03565b73ffffffffffffffffffffffffffffffffffffffff16036103df576040517f54c636b000000000000000000000000000000000000000000000000000000000815260040160405180910390fd5b5f6104276103f060a08601866111c6565b604051602001610401929190611227565b604051602081830303815290604052805190602001206104208661073c565b85856108a4565b60035460045491925073ffffffffffffffffffffffffffffffffffffffff8084169263865a58d1928216911661046060808901896111c6565b61046d60a08b018b6111c6565b61047a60208d018d610f03565b61048a60408e0160208f01610f03565b8d604001602081019061049d9190610f03565b8e606001356040518b63ffffffff1660e01b81526004016104c79a9998979695949392919061127d565b5f604051808303815f87803b1580156104de575f80fd5b505af11580156104f0573d5f803e3d5ffd5b505050507f855d9190c526b2876fcac4129045bba9f8e33d0bcb71ce4ebd0d3f846752fefe8185806080019061052691906111c6565b61053360a08901896111c6565b61054060208b018b610f03565b61055060408c0160208d01610f03565b61056060608d0160408e01610f03565b8c6060013560405161057a999897969594939291906112f4565b60405180910390a150505050565b610593838383610950565b6040805173ffffffffffffffffffffffffffffffffffffffff8581168252848116602083015283168183015290517fad307780531f6353137c35adc50ad58d71b76e76aa891e729387f2e720f2de209181900360600190a1505050565b5f6105fa8261073c565b92915050565b5f6106328383604051602001610617929190611227565b60405160208183030381529060405280519060200120610b50565b9392505050565b5f610642610b7c565b905090565b60405173ffffffffffffffffffffffffffffffffffffffff821681527f4ffd725fc4a22075e9ec71c59edf9c38cdeb588a91b24fc5b61388c5be41282b9060200160405180910390a150565b606060ff83146106ad576106a683610bcd565b90506105fa565b8180546106b99061135f565b80601f01602080910402602001604051908101604052809291908181526020018280546106e59061135f565b80156107305780601f1061070757610100808354040283529160200191610730565b820191905f5260205f20905b81548152906001019060200180831161071357829003601f168201915b505050505090506105fa565b5f6105fa7f84cc3476dd0bf31950774b50a7310822e3d5960d1fd6f54a752335a94a8415c061076e60808501856111c6565b60405160200161077f929190611227565b604080517fffffffffffffffffffffffffffffffffffffffffffffffffffffffffffffffe081840301815291905280516020909101206107c260a08601866111c6565b6040516020016107d3929190611227565b604080517fffffffffffffffffffffffffffffffffffffffffffffffffffffffffffffffe081840301815291905280516020918201209061081690870187610f03565b6108266040880160208901610f03565b6108366060890160408a01610f03565b60408051602081019790975286019490945260608581019390935273ffffffffffffffffffffffffffffffffffffffff9182166080860152811660a085015290911660c083015284013560e08201526101000160405160208183030381529060405280519060200120610c0a565b600480546005546040517fa88252840000000000000000000000000000000000000000000000000000000081525f9373ffffffffffffffffffffffffffffffffffffffff9384169363a882528493610907939116918a918a918a918a91016113aa565b6020604051808303815f875af1158015610923573d5f803e3d5ffd5b505050506040513d601f19601f8201168201806040525081019061094791906113f0565b95945050505050565b60025473ffffffffffffffffffffffffffffffffffffffff16610971610639565b73ffffffffffffffffffffffffffffffffffffffff16146109be576040517fcd52968d00000000000000000000000000000000000000000000000000000000815260040160405180910390fd5b60025474010000000000000000000000000000000000000000900460ff1615610a13576040517f0dc149f000000000000000000000000000000000000000000000000000000000815260040160405180910390fd5b600280547fffffffffffffffffffffff00ffffffffffffffffffffffffffffffffffffffff167401000000000000000000000000000000000000000017905573ffffffffffffffffffffffffffffffffffffffff8216610a9f576040517fb4889bf600000000000000000000000000000000000000000000000000000000815260040160405180910390fd5b73ffffffffffffffffffffffffffffffffffffffff8116610aec576040517f0e11028600000000000000000000000000000000000000000000000000000000815260040160405180910390fd5b6003805473ffffffffffffffffffffffffffffffffffffffff9485167fffffffffffffffffffffffff000000000000000000000000000000000000000091821617909155600480549385169382169390931790925560058054919093169116179055565b6004546005545f916105fa9173ffffffffffffffffffffffffffffffffffffffff918216911684610c51565b6003545f9073ffffffffffffffffffffffffffffffffffffffff163303610bc857507fffffffffffffffffffffffffffffffffffffffffffffffffffffffffffffffec36013560601c90565b503390565b60605f610bd983610d60565b6040805160208082528183019092529192505f91906020820181803683375050509182525060208101929092525090565b5f6105fa610c16610da0565b836040517f19010000000000000000000000000000000000000000000000000000000000008152600281019290925260228201526042902090565b5f8060405180602001610c6390610ed6565b7fffffffffffffffffffffffffffffffffffffffffffffffffffffffffffffffe082820381018352601f909101166040819052610ca791905f90879060200161140b565b604080518083037fffffffffffffffffffffffffffffffffffffffffffffffffffffffffffffffe001815282825280516020918201207fff000000000000000000000000000000000000000000000000000000000000008285015260609890981b7fffffffffffffffffffffffffffffffffffffffff0000000000000000000000001660218401526035830195909552605580830197909752805180830390970187526075909101905250508251920191909120919050565b5f60ff8216601f8111156105fa576040517fb3512b0c00000000000000000000000000000000000000000000000000000000815260040160405180910390fd5b5f3073ffffffffffffffffffffffffffffffffffffffff7f000000000000000000000000000000000000000000000000000000000000000016148015610e0557507f000000000000000000000000000000000000000000000000000000000000000046145b15610e2f57507f000000000000000000000000000000000000000000000000000000000000000090565b610642604080517f8b73c3c69bb8fe3d512ecc4cf759cc79239f7b179b0ffacaa9a75d522b39400f60208201527f0000000000000000000000000000000000000000000000000000000000000000918101919091527f000000000000000000000000000000000000000000000000000000000000000060608201524660808201523060a08201525f9060c00160405160208183030381529060405280519060200120905090565b60df8061147f83390190565b73ffffffffffffffffffffffffffffffffffffffff81168114610281575f80fd5b5f60208284031215610f13575f80fd5b813561063281610ee2565b5f5b83811015610f38578181015183820152602001610f20565b50505f910152565b5f8151808452610f57816020860160208601610f1e565b601f017fffffffffffffffffffffffffffffffffffffffffffffffffffffffffffffffe0169290920160200192915050565b7fff00000000000000000000000000000000000000000000000000000000000000881681525f602060e081840152610fc460e084018a610f40565b8381036040850152610fd6818a610f40565b6060850189905273ffffffffffffffffffffffffffffffffffffffff8816608086015260a0850187905284810360c086015285518082528387019250908301905f5b8181101561103457835183529284019291840191600101611018565b50909c9b505050505050505050505050565b5f60c08284031215611056575f80fd5b50919050565b5f8083601f84011261106c575f80fd5b50813567ffffffffffffffff811115611083575f80fd5b60208301915083602082850101111561109a575f80fd5b9250929050565b5f805f604084860312156110b3575f80fd5b833567ffffffffffffffff808211156110ca575f80fd5b6110d687838801611046565b945060208601359150808211156110eb575f80fd5b506110f88682870161105c565b9497909650939450505050565b5f805f60608486031215611117575f80fd5b833561112281610ee2565b9250602084013561113281610ee2565b9150604084013561114281610ee2565b809150509250925092565b5f6020828403121561115d575f80fd5b813567ffffffffffffffff811115611173575f80fd5b61117f84828501611046565b949350505050565b5f8060208385031215611198575f80fd5b823567ffffffffffffffff8111156111ae575f80fd5b6111ba8582860161105c565b90969095509350505050565b5f8083357fffffffffffffffffffffffffffffffffffffffffffffffffffffffffffffffe18436030181126111f9575f80fd5b83018035915067ffffffffffffffff821115611213575f80fd5b60200191503681900382131561109a575f80fd5b818382375f9101908152919050565b81835281816020850137505f602082840101525f60207fffffffffffffffffffffffffffffffffffffffffffffffffffffffffffffffe0601f840116840101905092915050565b5f61010073ffffffffffffffffffffffffffffffffffffffff808e168452808d1660208501528160408501526112b68285018c8e611236565b915083820360608501526112cb828a8c611236565b978116608085015295861660a084015250509190921660c082015260e001529695505050505050565b5f73ffffffffffffffffffffffffffffffffffffffff808c16835260e0602084015261132460e084018b8d611236565b8381036040850152611337818a8c611236565b9782166060850152509485166080830152509190921660a082015260c0015295945050505050565b600181811c9082168061137357607f821691505b602082108103611056577f4e487b71000000000000000000000000000000000000000000000000000000005f52602260045260245ffd5b73ffffffffffffffffffffffffffffffffffffffff86168152846020820152836040820152608060608201525f6113e5608083018486611236565b979650505050505050565b5f60208284031215611400575f80fd5b815161063281610ee2565b5f845161141c818460208901610f1e565b7fffffffffffffffffffffffff0000000000000000000000000000000000000000949094169190930190815260609190911b7fffffffffffffffffffffffffffffffffffffffff00000000000000000000000016600c8201526020019291505056fe608060405234801561000f575f80fd5b506040516100df3803806100df83398101604081905261002e91610055565b7f360894a13ba1a3210667c828492db98dca3e2076cc3735a920a3ca505d382bbc55610082565b5f60208284031215610065575f80fd5b81516001600160a01b038116811461007b575f80fd5b9392505050565b60518061008e5f395ff3fe60806040527f360894a13ba1a3210667c828492db98dca3e2076cc3735a920a3ca505d382bbc54365f80375f80365f845af490503d5f803e80603f573d5ffd5b503d5ff3fea164736f6c6343000815000aa164736f6c6343000815000a",
  "devdoc": {
    "events": {
      "EIP712DomainChanged()": {
        "details": "MAY be emitted to signal that the domain could have changed."
      }
    },
    "kind": "dev",
    "methods": {
      "eip712Domain()": {
        "details": "See {EIP-5267}. _Available since v4.9._"
      }
    },
    "version": 1
  },
  "userdoc": {
    "kind": "user",
    "methods": {},
    "version": 1
  },
  "storageLayout": {
    "storage": [
      {
        "astId": 2979,
        "contract": "contracts/token/erc20/controlled/ERC20ControlledTokenFactory.sol:ERC20ControlledTokenFactory",
        "label": "_nameFallback",
        "offset": 0,
        "slot": "0",
        "type": "t_string_storage"
      },
      {
        "astId": 2981,
        "contract": "contracts/token/erc20/controlled/ERC20ControlledTokenFactory.sol:ERC20ControlledTokenFactory",
        "label": "_versionFallback",
        "offset": 0,
        "slot": "1",
        "type": "t_string_storage"
      },
      {
        "astId": 6300,
        "contract": "contracts/token/erc20/controlled/ERC20ControlledTokenFactory.sol:ERC20ControlledTokenFactory",
        "label": "_owner",
        "offset": 0,
        "slot": "2",
        "type": "t_address"
      },
      {
        "astId": 6769,
        "contract": "contracts/token/erc20/controlled/ERC20ControlledTokenFactory.sol:ERC20ControlledTokenFactory",
        "label": "_initialized",
        "offset": 20,
        "slot": "2",
        "type": "t_bool"
      },
      {
        "astId": 7665,
        "contract": "contracts/token/erc20/controlled/ERC20ControlledTokenFactory.sol:ERC20ControlledTokenFactory",
        "label": "_gateway",
        "offset": 0,
        "slot": "3",
        "type": "t_address"
      },
      {
        "astId": 7851,
        "contract": "contracts/token/erc20/controlled/ERC20ControlledTokenFactory.sol:ERC20ControlledTokenFactory",
        "label": "_tokenRegistry",
        "offset": 0,
        "slot": "4",
        "type": "t_address"
      },
      {
        "astId": 7853,
        "contract": "contracts/token/erc20/controlled/ERC20ControlledTokenFactory.sol:ERC20ControlledTokenFactory",
        "label": "_tokenImpl",
        "offset": 0,
        "slot": "5",
        "type": "t_address"
      }
    ],
    "types": {
      "t_address": {
        "encoding": "inplace",
        "label": "address",
        "numberOfBytes": "20"
      },
      "t_bool": {
        "encoding": "inplace",
        "label": "bool",
        "numberOfBytes": "1"
      },
      "t_string_storage": {
        "encoding": "bytes",
        "label": "string",
        "numberOfBytes": "32"
      }
    }
  }
}