{
  "address": "0xcb7436d0AaE60b2A6fd69fe736573dC09BE69922",
  "abi": [
    {
      "inputs": [],
      "stateMutability": "nonpayable",
      "type": "constructor"
    },
    {
      "inputs": [],
      "name": "AlreadyInitialized",
      "type": "error"
    },
    {
      "inputs": [],
      "name": "ApproveToTheZeroAddress",
      "type": "error"
    },
    {
      "inputs": [],
      "name": "BurnAmountExceedsBalance",
      "type": "error"
    },
    {
      "inputs": [],
      "name": "BurnAmountIsZero",
      "type": "error"
    },
    {
      "inputs": [],
      "name": "BurnFromTheZeroAddress",
      "type": "error"
    },
    {
      "inputs": [],
      "name": "InsufficientAllowance",
      "type": "error"
    },
    {
      "inputs": [],
      "name": "MintAmountIsZero",
      "type": "error"
    },
    {
      "inputs": [],
      "name": "MintToTheZeroAddress",
      "type": "error"
    },
    {
      "inputs": [],
      "name": "MsgSenderIsNotTheContractOwner",
      "type": "error"
    },
    {
      "inputs": [],
      "name": "MsgSenderIsNotTheTokenBurner",
      "type": "error"
    },
    {
      "inputs": [],
      "name": "MsgSenderIsNotTheTokenMinter",
      "type": "error"
    },
    {
      "inputs": [],
      "name": "OwnerIsTheZeroAddress",
      "type": "error"
    },
    {
      "inputs": [],
      "name": "ProxyImplIsTheZeroAddress",
      "type": "error"
    },
    {
      "inputs": [],
      "name": "TokenRegistryIsTheZeroAddress",
      "type": "error"
    },
    {
      "inputs": [],
      "name": "TransferAmountExceedsBalance",
      "type": "error"
    },
    {
      "inputs": [],
      "name": "TransferAmountIsZero",
      "type": "error"
    },
    {
      "inputs": [],
      "name": "TransferFromTheZeroAddress",
      "type": "error"
    },
    {
      "inputs": [],
      "name": "TransferToTheZeroAddress",
      "type": "error"
    },
    {
      "anonymous": false,
      "inputs": [
        {
          "indexed": true,
          "internalType": "address",
          "name": "owner",
          "type": "address"
        },
        {
          "indexed": true,
          "internalType": "address",
          "name": "spender",
          "type": "address"
        },
        {
          "indexed": false,
          "internalType": "uint256",
          "name": "value",
          "type": "uint256"
        }
      ],
      "name": "Approval",
      "type": "event"
    },
    {
      "anonymous": false,
      "inputs": [
        {
          "indexed": false,
          "internalType": "address",
          "name": "owner",
          "type": "address"
        }
      ],
      "name": "OwnerUpdated",
      "type": "event"
    },
    {
      "anonymous": false,
      "inputs": [
        {
          "indexed": false,
          "internalType": "address",
          "name": "proxyImpl",
          "type": "address"
        }
      ],
      "name": "ProxyImplUpdated",
      "type": "event"
    },
    {
      "anonymous": false,
      "inputs": [
        {
          "indexed": true,
          "internalType": "address",
          "name": "from",
          "type": "address"
        },
        {
          "indexed": true,
          "internalType": "address",
          "name": "to",
          "type": "address"
        },
        {
          "indexed": false,
          "internalType": "uint256",
          "name": "value",
          "type": "uint256"
        }
      ],
      "name": "Transfer",
      "type": "event"
    },
    {
      "inputs": [
        {
          "internalType": "address",
          "name": "owner",
          "type": "address"
        },
        {
          "internalType": "address",
          "name": "spender",
          "type": "address"
        }
      ],
      "name": "allowance",
      "outputs": [
        {
          "internalType": "uint256",
          "name": "",
          "type": "uint256"
        }
      ],
      "stateMutability": "view",
      "type": "function"
    },
    {
      "inputs": [
        {
          "internalType": "address",
          "name": "spender",
          "type": "address"
        },
        {
          "internalType": "uint256",
          "name": "amount",
          "type": "uint256"
        }
      ],
      "name": "approve",
      "outputs": [
        {
          "internalType": "bool",
          "name": "",
          "type": "bool"
        }
      ],
      "stateMutability": "nonpayable",
      "type": "function"
    },
    {
      "inputs": [
        {
          "internalType": "address",
          "name": "account",
          "type": "address"
        }
      ],
      "name": "balanceOf",
      "outputs": [
        {
          "internalType": "uint256",
          "name": "",
          "type": "uint256"
        }
      ],
      "stateMutability": "view",
      "type": "function"
    },
    {
      "inputs": [
        {
          "internalType": "address",
          "name": "from",
          "type": "address"
        },
        {
          "internalType": "uint256",
          "name": "amount",
          "type": "uint256"
        }
      ],
      "name": "burn",
      "outputs": [],
      "stateMutability": "nonpayable",
      "type": "function"
    },
    {
      "inputs": [],
      "name": "decimals",
      "outputs": [
        {
          "internalType": "uint8",
          "name": "",
          "type": "uint8"
        }
      ],
      "stateMutability": "view",
      "type": "function"
    },
    {
      "inputs": [],
      "name": "getControllers",
      "outputs": [
        {
          "internalType": "address",
          "name": "minter",
          "type": "address"
        },
        {
          "internalType": "address",
          "name": "burner",
          "type": "address"
        }
      ],
      "stateMutability": "view",
      "type": "function"
    },
    {
      "inputs": [],
      "name": "getGateway",
      "outputs": [
        {
          "internalType": "address",
          "name": "",
          "type": "address"
        }
      ],
      "stateMutability": "view",
      "type": "function"
    },
    {
      "inputs": [],
      "name": "getOwner",
      "outputs": [
        {
          "internalType": "address",
          "name": "",
          "type": "address"
        }
      ],
      "stateMutability": "view",
      "type": "function"
    },
    {
      "inputs": [],
      "name": "getProxyImpl",
      "outputs": [
        {
          "internalType": "address",
          "name": "proxyImpl",
          "type": "address"
        }
      ],
      "stateMutability": "view",
      "type": "function"
    },
    {
      "inputs": [],
      "name": "getTokenRegistry",
      "outputs": [
        {
          "internalType": "address",
          "name": "",
          "type": "address"
        }
      ],
      "stateMutability": "view",
      "type": "function"
    },
    {
      "inputs": [
        {
          "internalType": "address",
          "name": "gateway",
          "type": "address"
        },
        {
          "internalType": "address",
          "name": "tokenRegistry",
          "type": "address"
        },
        {
          "internalType": "string",
          "name": "name_",
          "type": "string"
        },
        {
          "internalType": "string",
          "name": "symbol_",
          "type": "string"
        },
        {
          "internalType": "address",
          "name": "owner",
          "type": "address"
        },
        {
          "internalType": "address",
          "name": "minter",
          "type": "address"
        },
        {
          "internalType": "address",
          "name": "burner",
          "type": "address"
        },
        {
          "internalType": "uint256",
          "name": "initialSupply_",
          "type": "uint256"
        }
      ],
      "name": "initialize",
      "outputs": [],
      "stateMutability": "nonpayable",
      "type": "function"
    },
    {
      "inputs": [],
      "name": "initialized",
      "outputs": [
        {
          "internalType": "bool",
          "name": "",
          "type": "bool"
        }
      ],
      "stateMutability": "view",
      "type": "function"
    },
    {
      "inputs": [
        {
          "internalType": "address",
          "name": "to",
          "type": "address"
        },
        {
          "internalType": "uint256",
          "name": "amount",
          "type": "uint256"
        }
      ],
      "name": "mint",
      "outputs": [],
      "stateMutability": "nonpayable",
      "type": "function"
    },
    {
      "inputs": [],
      "name": "name",
      "outputs": [
        {
          "internalType": "string",
          "name": "",
          "type": "string"
        }
      ],
      "stateMutability": "view",
      "type": "function"
    },
    {
      "inputs": [
        {
          "internalType": "address",
          "name": "owner",
          "type": "address"
        }
      ],
      "name": "setOwner",
      "outputs": [],
      "stateMutability": "nonpayable",
      "type": "function"
    },
    {
      "inputs": [],
      "name": "symbol",
      "outputs": [
        {
          "internalType": "string",
          "name": "",
          "type": "string"
        }
      ],
      "stateMutability": "view",
      "type": "function"
    },
    {
      "inputs": [],
      "name": "totalSupply",
      "outputs": [
        {
          "internalType": "uint256",
          "name": "",
          "type": "uint256"
        }
      ],
      "stateMutability": "view",
      "type": "function"
    },
    {
      "inputs": [
        {
          "internalType": "address",
          "name": "to",
          "type": "address"
        },
        {
          "internalType": "uint256",
          "name": "amount",
          "type": "uint256"
        }
      ],
      "name": "transfer",
      "outputs": [
        {
          "internalType": "bool",
          "name": "",
          "type": "bool"
        }
      ],
      "stateMutability": "nonpayable",
      "type": "function"
    },
    {
      "inputs": [
        {
          "internalType": "address",
          "name": "from",
          "type": "address"
        },
        {
          "internalType": "address",
          "name": "to",
          "type": "address"
        },
        {
          "internalType": "uint256",
          "name": "amount",
          "type": "uint256"
        }
      ],
      "name": "transferFrom",
      "outputs": [
        {
          "internalType": "bool",
          "name": "",
          "type": "bool"
        }
      ],
      "stateMutability": "nonpayable",
      "type": "function"
    }
  ],
  "transactionHash": "0x59dec86883f24daec7c40382e94f7e7bf2c186855111bc59e6306850015522d3",
  "args": [],
  "numDeployments": 1,
  "solcInputHash": "a11c78e700f6d31615766f3d6ca64eab",
  "bytecode": "0x608060405234801561000f575f80fd5b505f8054600160a01b6001600160a81b0319909116331717815561143990819061003890395ff3fe608060405234801561000f575f80fd5b5060043610610149575f3560e01c806342bf3cc1116100c757806395d89b411161007d578063a9059cbb11610063578063a9059cbb1461030c578063b4e8a6c41461031f578063dd62ed3e14610352575f80fd5b806395d89b41146102f15780639dc29fac146102f9575f80fd5b806370d4e35d116100ad57806370d4e35d1461029a578063865a58d1146102c1578063893d20e8146102d4575f80fd5b806342bf3cc11461024757806370a0823114610265575f80fd5b8063158ef93e1161011c57806323b872dd1161010257806323b872dd14610212578063313ce5671461022557806340c10f1914610234575f80fd5b8063158ef93e146101de57806318160ddd14610200575f80fd5b8063057838bd1461014d57806306fdde0314610191578063095ea7b3146101a657806313af4035146101c9575b5f80fd5b60025473ffffffffffffffffffffffffffffffffffffffff165b60405173ffffffffffffffffffffffffffffffffffffffff90911681526020015b60405180910390f35b610199610397565b6040516101889190610fcd565b6101b96101b436600461105e565b610427565b6040519015158152602001610188565b6101dc6101d7366004611086565b610491565b005b5f5474010000000000000000000000000000000000000000900460ff166101b9565b6005545b604051908152602001610188565b6101b96102203660046110a6565b610557565b60405160128152602001610188565b6101dc61024236600461105e565b6105cc565b60015473ffffffffffffffffffffffffffffffffffffffff16610167565b610204610273366004611086565b73ffffffffffffffffffffffffffffffffffffffff165f9081526006602052604090205490565b7f360894a13ba1a3210667c828492db98dca3e2076cc3735a920a3ca505d382bbc54610167565b6101dc6102cf366004611124565b610648565b5f5473ffffffffffffffffffffffffffffffffffffffff16610167565b6101996106cd565b6101dc61030736600461105e565b6106dc565b6101b961031a36600461105e565b610754565b6008546009546040805173ffffffffffffffffffffffffffffffffffffffff938416815292909116602083015201610188565b6102046103603660046111e9565b73ffffffffffffffffffffffffffffffffffffffff9182165f90815260076020908152604080832093909416825291909152205490565b6060600380546103a69061121a565b80601f01602080910402602001604051908101604052809291908181526020018280546103d29061121a565b801561041d5780601f106103f45761010080835404028352916020019161041d565b820191905f5260205f20905b81548152906001019060200180831161040057829003601f168201915b5050505050905090565b5f73ffffffffffffffffffffffffffffffffffffffff8316610475576040517fb2fa1ef300000000000000000000000000000000000000000000000000000000815260040160405180910390fd5b610487610480610767565b8484610775565b5060015b92915050565b5f5473ffffffffffffffffffffffffffffffffffffffff166104b1610767565b73ffffffffffffffffffffffffffffffffffffffff16146104fe576040517fcd52968d00000000000000000000000000000000000000000000000000000000815260040160405180910390fd5b73ffffffffffffffffffffffffffffffffffffffff811661054b576040517f465f799000000000000000000000000000000000000000000000000000000000815260040160405180910390fd5b610554816107b9565b50565b5f73ffffffffffffffffffffffffffffffffffffffff84166105a5576040517f2405317000000000000000000000000000000000000000000000000000000000815260040160405180910390fd5b6105b7846105b1610767565b84610845565b6105c28484846108eb565b5060019392505050565b60085473ffffffffffffffffffffffffffffffffffffffff166105ed610767565b73ffffffffffffffffffffffffffffffffffffffff161461063a576040517f3052ac4800000000000000000000000000000000000000000000000000000000815260040160405180910390fd5b6106448282610a12565b5050565b6106568a8a8a8a8a8a610ae3565b5f805473ffffffffffffffffffffffffffffffffffffffff8087167fffffffffffffffffffffffff0000000000000000000000000000000000000000928316179092556008805486841690831617905560098054928516929091169190911790556106c18482610a12565b50505050505050505050565b6060600480546103a69061121a565b60095473ffffffffffffffffffffffffffffffffffffffff166106fd610767565b73ffffffffffffffffffffffffffffffffffffffff161461074a576040517f6bcce65c00000000000000000000000000000000000000000000000000000000815260040160405180910390fd5b6106448282610b11565b5f610487610760610767565b84846108eb565b5f610770610c34565b905090565b73ffffffffffffffffffffffffffffffffffffffff8084165f9081526007602090815260408083209386168352929052208190556107b4838383610c85565b505050565b6107c281610d81565b6002546040517f2d81d8fd00000000000000000000000000000000000000000000000000000000815273ffffffffffffffffffffffffffffffffffffffff838116600483015290911690632d81d8fd906024015f604051808303815f87803b15801561082c575f80fd5b505af115801561083e573d5f803e3d5ffd5b5050505050565b73ffffffffffffffffffffffffffffffffffffffff8084165f908152600760209081526040808320938616835292905220547fffffffffffffffffffffffffffffffffffffffffffffffffffffffffffffffff81146108e557818110156108d8576040517f13be252b00000000000000000000000000000000000000000000000000000000815260040160405180910390fd5b6108e58484848403610775565b50505050565b73ffffffffffffffffffffffffffffffffffffffff8216610938576040517fce3a35ba00000000000000000000000000000000000000000000000000000000815260040160405180910390fd5b805f03610971576040517fc4c8a67700000000000000000000000000000000000000000000000000000000815260040160405180910390fd5b73ffffffffffffffffffffffffffffffffffffffff83165f90815260066020526040902054818110156109d0576040517f5dd58b8b00000000000000000000000000000000000000000000000000000000815260040160405180910390fd5b73ffffffffffffffffffffffffffffffffffffffff8085165f9081526006602052604080822085850390559185168152208054830190556108e5848484610dcd565b73ffffffffffffffffffffffffffffffffffffffff8216610a5f576040517fc96c2a0b00000000000000000000000000000000000000000000000000000000815260040160405180910390fd5b805f03610a98576040517f7a5f358c00000000000000000000000000000000000000000000000000000000815260040160405180910390fd5b8060055f828254610aa9919061126b565b909155505073ffffffffffffffffffffffffffffffffffffffff82165f908152600660205260408120805483019055610644908383610dcd565b6003610af0848683611315565b506004610afe828483611315565b50610b098686610e9b565b505050505050565b73ffffffffffffffffffffffffffffffffffffffff8216610b5e576040517f4fca6bd000000000000000000000000000000000000000000000000000000000815260040160405180910390fd5b805f03610b97576040517f5d59c49e00000000000000000000000000000000000000000000000000000000815260040160405180910390fd5b73ffffffffffffffffffffffffffffffffffffffff82165f9081526006602052604090205481811015610bf6576040517f177466fe00000000000000000000000000000000000000000000000000000000815260040160405180910390fd5b73ffffffffffffffffffffffffffffffffffffffff83165f90815260066020526040812083830390556005805484900390556107b490849084610dcd565b6001545f9073ffffffffffffffffffffffffffffffffffffffff163303610c8057507fffffffffffffffffffffffffffffffffffffffffffffffffffffffffffffffec36013560601c90565b503390565b8173ffffffffffffffffffffffffffffffffffffffff168373ffffffffffffffffffffffffffffffffffffffff167f8c5be1e5ebec7d5bd14f71427d1e84f3dd0314c0f7b2291e5b200ac8c7c3b92583604051610ce491815260200190565b60405180910390a36002546040517ffd836ab800000000000000000000000000000000000000000000000000000000815273ffffffffffffffffffffffffffffffffffffffff85811660048301528481166024830152604482018490529091169063fd836ab8906064015b5f604051808303815f87803b158015610d66575f80fd5b505af1158015610d78573d5f803e3d5ffd5b50505050505050565b60405173ffffffffffffffffffffffffffffffffffffffff821681527f4ffd725fc4a22075e9ec71c59edf9c38cdeb588a91b24fc5b61388c5be41282b9060200160405180910390a150565b8173ffffffffffffffffffffffffffffffffffffffff168373ffffffffffffffffffffffffffffffffffffffff167fddf252ad1be2c89b69c2b068fc378daa952ba7f163c4a11628f55a4df523b3ef83604051610e2c91815260200190565b60405180910390a36002546040517f1be4485900000000000000000000000000000000000000000000000000000000815273ffffffffffffffffffffffffffffffffffffffff858116600483015284811660248301526044820184905290911690631be4485990606401610d4f565b5f5474010000000000000000000000000000000000000000900460ff1615610eef576040517f0dc149f000000000000000000000000000000000000000000000000000000000815260040160405180910390fd5b5f80547fffffffffffffffffffffff00ffffffffffffffffffffffffffffffffffffffff167401000000000000000000000000000000000000000017905573ffffffffffffffffffffffffffffffffffffffff8116610f7a576040517fb4889bf600000000000000000000000000000000000000000000000000000000815260040160405180910390fd5b6001805473ffffffffffffffffffffffffffffffffffffffff9384167fffffffffffffffffffffffff00000000000000000000000000000000000000009182161790915560028054929093169116179055565b5f6020808352835180828501525f5b81811015610ff857858101830151858201604001528201610fdc565b505f6040828601015260407fffffffffffffffffffffffffffffffffffffffffffffffffffffffffffffffe0601f8301168501019250505092915050565b803573ffffffffffffffffffffffffffffffffffffffff81168114611059575f80fd5b919050565b5f806040838503121561106f575f80fd5b61107883611036565b946020939093013593505050565b5f60208284031215611096575f80fd5b61109f82611036565b9392505050565b5f805f606084860312156110b8575f80fd5b6110c184611036565b92506110cf60208501611036565b9150604084013590509250925092565b5f8083601f8401126110ef575f80fd5b50813567ffffffffffffffff811115611106575f80fd5b60208301915083602082850101111561111d575f80fd5b9250929050565b5f805f805f805f805f806101008b8d03121561113e575f80fd5b6111478b611036565b995061115560208c01611036565b985060408b013567ffffffffffffffff80821115611171575f80fd5b61117d8e838f016110df565b909a50985060608d0135915080821115611195575f80fd5b506111a28d828e016110df565b90975095506111b5905060808c01611036565b93506111c360a08c01611036565b92506111d160c08c01611036565b915060e08b013590509295989b9194979a5092959850565b5f80604083850312156111fa575f80fd5b61120383611036565b915061121160208401611036565b90509250929050565b600181811c9082168061122e57607f821691505b602082108103611265577f4e487b71000000000000000000000000000000000000000000000000000000005f52602260045260245ffd5b50919050565b8082018082111561048b577f4e487b71000000000000000000000000000000000000000000000000000000005f52601160045260245ffd5b7f4e487b71000000000000000000000000000000000000000000000000000000005f52604160045260245ffd5b601f8211156107b4575f81815260208120601f850160051c810160208610156112f65750805b601f850160051c820191505b81811015610b0957828155600101611302565b67ffffffffffffffff83111561132d5761132d6112a3565b6113418361133b835461121a565b836112d0565b5f601f841160018114611391575f851561135b5750838201355b7fffffffffffffffffffffffffffffffffffffffffffffffffffffffffffffffff600387901b1c1916600186901b17835561083e565b5f838152602090207fffffffffffffffffffffffffffffffffffffffffffffffffffffffffffffffe0861690835b828110156113df57868501358255602094850194600190920191016113bf565b508682101561141a577fffffffffffffffffffffffffffffffffffffffffffffffffffffffffffffffff60f88860031b161c19848701351681555b505060018560011b018355505050505056fea164736f6c6343000815000a",
  "devdoc": {
    "events": {
      "Approval(address,address,uint256)": {
        "details": "Emitted when the allowance of a `spender` for an `owner` is set by a call to {approve}. `value` is the new allowance."
      },
      "Transfer(address,address,uint256)": {
        "details": "Emitted when `value` tokens are moved from one account (`from`) to another (`to`). Note that `value` may be zero."
      }
    },
    "kind": "dev",
    "methods": {
      "allowance(address,address)": {
        "details": "Returns the remaining number of tokens that `spender` will be allowed to spend on behalf of `owner` through {transferFrom}. This is zero by default. This value changes when {approve} or {transferFrom} are called."
      },
      "approve(address,uint256)": {
        "details": "Sets `amount` as the allowance of `spender` over the caller's tokens. Returns a boolean value indicating whether the operation succeeded. IMPORTANT: Beware that changing an allowance with this method brings the risk that someone may use both the old and the new allowance by unfortunate transaction ordering. One possible solution to mitigate this race condition is to first reduce the spender's allowance to 0 and set the desired value afterwards: https://github.com/ethereum/EIPs/issues/20#issuecomment-263524729 Emits an {Approval} event."
      },
      "balanceOf(address)": {
        "details": "Returns the amount of tokens owned by `account`."
      },
      "decimals()": {
        "details": "Returns the decimals places of the token."
      },
      "name()": {
        "details": "Returns the name of the token."
      },
      "symbol()": {
        "details": "Returns the symbol of the token."
      },
      "totalSupply()": {
        "details": "Returns the amount of tokens in existence."
      },
      "transfer(address,uint256)": {
        "details": "Moves `amount` tokens from the caller's account to `to`. Returns a boolean value indicating whether the operation succeeded. Emits a {Transfer} event."
      },
      "transferFrom(address,address,uint256)": {
        "details": "Moves `amount` tokens from `from` to `to` using the allowance mechanism. `amount` is then deducted from the caller's allowance. Returns a boolean value indicating whether the operation succeeded. Emits a {Transfer} event."
      }
    },
    "version": 1
  },
  "userdoc": {
    "kind": "user",
    "methods": {},
    "version": 1
  },
  "storageLayout": {
    "storage": [
      {
        "astId": 6300,
        "contract": "contracts/token/erc20/controlled/ERC20ControlledTokenImpl.sol:ERC20ControlledTokenImpl",
        "label": "_owner",
        "offset": 0,
        "slot": "0",
        "type": "t_address"
      },
      {
        "astId": 6769,
        "contract": "contracts/token/erc20/controlled/ERC20ControlledTokenImpl.sol:ERC20ControlledTokenImpl",
        "label": "_initialized",
        "offset": 20,
        "slot": "0",
        "type": "t_bool"
      },
      {
        "astId": 7665,
        "contract": "contracts/token/erc20/controlled/ERC20ControlledTokenImpl.sol:ERC20ControlledTokenImpl",
        "label": "_gateway",
        "offset": 0,
        "slot": "1",
        "type": "t_address"
      },
      {
        "astId": 7747,
        "contract": "contracts/token/erc20/controlled/ERC20ControlledTokenImpl.sol:ERC20ControlledTokenImpl",
        "label": "_tokenRegistry",
        "offset": 0,
        "slot": "2",
        "type": "t_address"
      },
      {
        "astId": 8578,
        "contract": "contracts/token/erc20/controlled/ERC20ControlledTokenImpl.sol:ERC20ControlledTokenImpl",
        "label": "_name",
        "offset": 0,
        "slot": "3",
        "type": "t_string_storage"
      },
      {
        "astId": 8580,
        "contract": "contracts/token/erc20/controlled/ERC20ControlledTokenImpl.sol:ERC20ControlledTokenImpl",
        "label": "_symbol",
        "offset": 0,
        "slot": "4",
        "type": "t_string_storage"
      },
      {
        "astId": 8582,
        "contract": "contracts/token/erc20/controlled/ERC20ControlledTokenImpl.sol:ERC20ControlledTokenImpl",
        "label": "_totalSupply",
        "offset": 0,
        "slot": "5",
        "type": "t_uint256"
      },
      {
        "astId": 8586,
        "contract": "contracts/token/erc20/controlled/ERC20ControlledTokenImpl.sol:ERC20ControlledTokenImpl",
        "label": "_balances",
        "offset": 0,
        "slot": "6",
        "type": "t_mapping(t_address,t_uint256)"
      },
      {
        "astId": 8592,
        "contract": "contracts/token/erc20/controlled/ERC20ControlledTokenImpl.sol:ERC20ControlledTokenImpl",
        "label": "_allowances",
        "offset": 0,
        "slot": "7",
        "type": "t_mapping(t_address,t_mapping(t_address,t_uint256))"
      },
      {
        "astId": 9576,
        "contract": "contracts/token/erc20/controlled/ERC20ControlledTokenImpl.sol:ERC20ControlledTokenImpl",
        "label": "_minter",
        "offset": 0,
        "slot": "8",
        "type": "t_address"
      },
      {
        "astId": 9578,
        "contract": "contracts/token/erc20/controlled/ERC20ControlledTokenImpl.sol:ERC20ControlledTokenImpl",
        "label": "_burner",
        "offset": 0,
        "slot": "9",
        "type": "t_address"
      }
    ],
    "types": {
      "t_address": {
        "encoding": "inplace",
        "label": "address",
        "numberOfBytes": "20"
      },
      "t_bool": {
        "encoding": "inplace",
        "label": "bool",
        "numberOfBytes": "1"
      },
      "t_mapping(t_address,t_mapping(t_address,t_uint256))": {
        "encoding": "mapping",
        "key": "t_address",
        "label": "mapping(address => mapping(address => uint256))",
        "numberOfBytes": "32",
        "value": "t_mapping(t_address,t_uint256)"
      },
      "t_mapping(t_address,t_uint256)": {
        "encoding": "mapping",
        "key": "t_address",
        "label": "mapping(address => uint256)",
        "numberOfBytes": "32",
        "value": "t_uint256"
      },
      "t_string_storage": {
        "encoding": "bytes",
        "label": "string",
        "numberOfBytes": "32"
      },
      "t_uint256": {
        "encoding": "inplace",
        "label": "uint256",
        "numberOfBytes": "32"
      }
    }
  }
}