{
  "address": "0x02E31Aa2F846A28a00a50F2b71211c7c78d9f3B2",
  "abi": [
    {
      "inputs": [
        {
          "internalType": "address",
          "name": "owner",
          "type": "address"
        },
        {
          "internalType": "string",
          "name": "name",
          "type": "string"
        },
        {
          "internalType": "string",
          "name": "version",
          "type": "string"
        }
      ],
      "stateMutability": "nonpayable",
      "type": "constructor"
    },
    {
      "inputs": [],
      "name": "AlreadyInitialized",
      "type": "error"
    },
    {
      "inputs": [],
      "name": "ECDSAInvalidSignature",
      "type": "error"
    },
    {
      "inputs": [
        {
          "internalType": "uint256",
          "name": "length",
          "type": "uint256"
        }
      ],
      "name": "ECDSAInvalidSignatureLength",
      "type": "error"
    },
    {
      "inputs": [
        {
          "internalType": "bytes32",
          "name": "s",
          "type": "bytes32"
        }
      ],
      "name": "ECDSAInvalidSignatureS",
      "type": "error"
    },
    {
      "inputs": [],
      "name": "ERC1167FailedCreateClone",
      "type": "error"
    },
    {
      "inputs": [],
      "name": "GuardianAlreadyExists",
      "type": "error"
    },
    {
      "inputs": [],
      "name": "GuardianDoesntExist",
      "type": "error"
    },
    {
      "inputs": [],
      "name": "GuardianIsTheZeroAddress",
      "type": "error"
    },
    {
      "inputs": [],
      "name": "InvalidGuardianSignature",
      "type": "error"
    },
    {
      "inputs": [],
      "name": "InvalidShortString",
      "type": "error"
    },
    {
      "inputs": [],
      "name": "MsgSenderIsNotTheContractGuardian",
      "type": "error"
    },
    {
      "inputs": [],
      "name": "MsgSenderIsNotTheContractOwner",
      "type": "error"
    },
    {
      "inputs": [],
      "name": "MsgSenderIsNotTheToken",
      "type": "error"
    },
    {
      "inputs": [],
      "name": "OwnerIsTheZeroAddress",
      "type": "error"
    },
    {
      "inputs": [
        {
          "internalType": "string",
          "name": "str",
          "type": "string"
        }
      ],
      "name": "StringTooLong",
      "type": "error"
    },
    {
      "inputs": [],
      "name": "TokenImplIsTheZeroAddress",
      "type": "error"
    },
    {
      "inputs": [],
      "name": "UnderlyingTokenIsTheZeroAddress",
      "type": "error"
    },
    {
      "inputs": [],
      "name": "UnsupportedUnderlyingToken",
      "type": "error"
    },
    {
      "anonymous": false,
      "inputs": [],
      "name": "EIP712DomainChanged",
      "type": "event"
    },
    {
      "anonymous": false,
      "inputs": [
        {
          "indexed": false,
          "internalType": "address",
          "name": "guardian",
          "type": "address"
        }
      ],
      "name": "GuardianAdded",
      "type": "event"
    },
    {
      "anonymous": false,
      "inputs": [
        {
          "indexed": false,
          "internalType": "address",
          "name": "guardian",
          "type": "address"
        }
      ],
      "name": "GuardianRemoved",
      "type": "event"
    },
    {
      "anonymous": false,
      "inputs": [
        {
          "indexed": false,
          "internalType": "address",
          "name": "gateway",
          "type": "address"
        },
        {
          "indexed": false,
          "internalType": "address[]",
          "name": "guardians",
          "type": "address[]"
        },
        {
          "indexed": false,
          "internalType": "address",
          "name": "tokenImpl",
          "type": "address"
        }
      ],
      "name": "Initialized",
      "type": "event"
    },
    {
      "anonymous": false,
      "inputs": [
        {
          "indexed": false,
          "internalType": "address",
          "name": "owner",
          "type": "address"
        }
      ],
      "name": "OwnerUpdated",
      "type": "event"
    },
    {
      "anonymous": false,
      "inputs": [
        {
          "indexed": false,
          "internalType": "address",
          "name": "token",
          "type": "address"
        },
        {
          "indexed": false,
          "internalType": "address",
          "name": "owner",
          "type": "address"
        },
        {
          "indexed": false,
          "internalType": "address",
          "name": "spender",
          "type": "address"
        },
        {
          "indexed": false,
          "internalType": "uint256",
          "name": "value",
          "type": "uint256"
        }
      ],
      "name": "TokenApproval",
      "type": "event"
    },
    {
      "anonymous": false,
      "inputs": [
        {
          "indexed": false,
          "internalType": "address",
          "name": "token",
          "type": "address"
        },
        {
          "indexed": false,
          "internalType": "string",
          "name": "name",
          "type": "string"
        },
        {
          "indexed": false,
          "internalType": "string",
          "name": "symbol",
          "type": "string"
        },
        {
          "indexed": false,
          "internalType": "address",
          "name": "underlyingToken",
          "type": "address"
        }
      ],
      "name": "TokenCreated",
      "type": "event"
    },
    {
      "anonymous": false,
      "inputs": [
        {
          "indexed": false,
          "internalType": "address",
          "name": "token",
          "type": "address"
        },
        {
          "indexed": false,
          "internalType": "address",
          "name": "from",
          "type": "address"
        },
        {
          "indexed": false,
          "internalType": "address",
          "name": "to",
          "type": "address"
        },
        {
          "indexed": false,
          "internalType": "uint256",
          "name": "value",
          "type": "uint256"
        }
      ],
      "name": "TokenTransfer",
      "type": "event"
    },
    {
      "inputs": [
        {
          "internalType": "address",
          "name": "guardian",
          "type": "address"
        }
      ],
      "name": "addGuardian",
      "outputs": [],
      "stateMutability": "nonpayable",
      "type": "function"
    },
    {
      "inputs": [
        {
          "internalType": "address",
          "name": "underlyingToken",
          "type": "address"
        }
      ],
      "name": "computeToken",
      "outputs": [
        {
          "internalType": "address",
          "name": "",
          "type": "address"
        }
      ],
      "stateMutability": "view",
      "type": "function"
    },
    {
      "inputs": [
        {
          "internalType": "address",
          "name": "underlyingToken",
          "type": "address"
        },
        {
          "internalType": "bytes",
          "name": "signature",
          "type": "bytes"
        }
      ],
      "name": "createToken",
      "outputs": [],
      "stateMutability": "nonpayable",
      "type": "function"
    },
    {
      "inputs": [],
      "name": "eip712Domain",
      "outputs": [
        {
          "internalType": "bytes1",
          "name": "fields",
          "type": "bytes1"
        },
        {
          "internalType": "string",
          "name": "name",
          "type": "string"
        },
        {
          "internalType": "string",
          "name": "version",
          "type": "string"
        },
        {
          "internalType": "uint256",
          "name": "chainId",
          "type": "uint256"
        },
        {
          "internalType": "address",
          "name": "verifyingContract",
          "type": "address"
        },
        {
          "internalType": "bytes32",
          "name": "salt",
          "type": "bytes32"
        },
        {
          "internalType": "uint256[]",
          "name": "extensions",
          "type": "uint256[]"
        }
      ],
      "stateMutability": "view",
      "type": "function"
    },
    {
      "inputs": [
        {
          "internalType": "address",
          "name": "owner",
          "type": "address"
        },
        {
          "internalType": "address",
          "name": "spender",
          "type": "address"
        },
        {
          "internalType": "uint256",
          "name": "value",
          "type": "uint256"
        }
      ],
      "name": "emitTokenApproval",
      "outputs": [],
      "stateMutability": "nonpayable",
      "type": "function"
    },
    {
      "inputs": [
        {
          "internalType": "address",
          "name": "from",
          "type": "address"
        },
        {
          "internalType": "address",
          "name": "to",
          "type": "address"
        },
        {
          "internalType": "uint256",
          "name": "value",
          "type": "uint256"
        }
      ],
      "name": "emitTokenTransfer",
      "outputs": [],
      "stateMutability": "nonpayable",
      "type": "function"
    },
    {
      "inputs": [],
      "name": "getGateway",
      "outputs": [
        {
          "internalType": "address",
          "name": "",
          "type": "address"
        }
      ],
      "stateMutability": "view",
      "type": "function"
    },
    {
      "inputs": [],
      "name": "getOwner",
      "outputs": [
        {
          "internalType": "address",
          "name": "",
          "type": "address"
        }
      ],
      "stateMutability": "view",
      "type": "function"
    },
    {
      "inputs": [
        {
          "internalType": "address",
          "name": "guardian",
          "type": "address"
        }
      ],
      "name": "hasGuardian",
      "outputs": [
        {
          "internalType": "bool",
          "name": "",
          "type": "bool"
        }
      ],
      "stateMutability": "view",
      "type": "function"
    },
    {
      "inputs": [
        {
          "internalType": "address",
          "name": "token",
          "type": "address"
        }
      ],
      "name": "hasToken",
      "outputs": [
        {
          "internalType": "bool",
          "name": "",
          "type": "bool"
        }
      ],
      "stateMutability": "view",
      "type": "function"
    },
    {
      "inputs": [
        {
          "internalType": "address",
          "name": "underlyingToken",
          "type": "address"
        }
      ],
      "name": "hashToken",
      "outputs": [
        {
          "internalType": "bytes32",
          "name": "",
          "type": "bytes32"
        }
      ],
      "stateMutability": "view",
      "type": "function"
    },
    {
      "inputs": [
        {
          "internalType": "address",
          "name": "gateway",
          "type": "address"
        },
        {
          "internalType": "address[]",
          "name": "guardians",
          "type": "address[]"
        },
        {
          "internalType": "address",
          "name": "tokenImpl",
          "type": "address"
        }
      ],
      "name": "initialize",
      "outputs": [],
      "stateMutability": "nonpayable",
      "type": "function"
    },
    {
      "inputs": [],
      "name": "initialized",
      "outputs": [
        {
          "internalType": "bool",
          "name": "",
          "type": "bool"
        }
      ],
      "stateMutability": "view",
      "type": "function"
    },
    {
      "inputs": [
        {
          "internalType": "address",
          "name": "guardian",
          "type": "address"
        }
      ],
      "name": "removeGuardian",
      "outputs": [],
      "stateMutability": "nonpayable",
      "type": "function"
    },
    {
      "inputs": [
        {
          "internalType": "address",
          "name": "owner",
          "type": "address"
        }
      ],
      "name": "setOwner",
      "outputs": [],
      "stateMutability": "nonpayable",
      "type": "function"
    }
  ],
  "transactionHash": "0xa2a7987c31aa099ca46545450a160e6afbe2256ab1f1b17d25947027d370a5f7",
  "args": [
    "0xF2a1699320517FA9C5c749EA9DfB5594Bb9862e5",
    "OM!goods ERC20 Wrapped Token Factory",
    "0.0.1"
  ],
  "numDeployments": 1,
  "solcInputHash": "685ee4bb9059aba9f38e71aa7b58c8d2",
  "bytecode": "0x61016060405234801562000011575f80fd5b506040516200202738038062002027833981016040819052620000349162000285565b828282828282828083836200004a825f6200013c565b610120526200005b8160016200013c565b61014052815160208084019190912060e052815190820120610100524660a052620000e860e05161010051604080517f8b73c3c69bb8fe3d512ecc4cf759cc79239f7b179b0ffacaa9a75d522b39400f60208201529081019290925260608201524660808201523060a08201525f9060c00160405160208183030381529060405280519060200120905090565b60805250503060c0526001600160a01b038116156200010857806200010a565b335b600380546001600160a01b0319166001600160a01b039290921691909117905550620004b59950505050505050505050565b5f6020835110156200015b57620001538362000174565b90506200016e565b8162000168848262000395565b5060ff90505b92915050565b5f80829050601f81511115620001aa578260405163305a27a960e01b8152600401620001a191906200045d565b60405180910390fd5b8051620001b78262000491565b179392505050565b634e487b7160e01b5f52604160045260245ffd5b5f5b83811015620001ef578181015183820152602001620001d5565b50505f910152565b5f82601f83011262000207575f80fd5b81516001600160401b0380821115620002245762000224620001bf565b604051601f8301601f19908116603f011681019082821181831017156200024f576200024f620001bf565b8160405283815286602085880101111562000268575f80fd5b6200027b846020830160208901620001d3565b9695505050505050565b5f805f6060848603121562000298575f80fd5b83516001600160a01b0381168114620002af575f80fd5b60208501519093506001600160401b0380821115620002cc575f80fd5b620002da87838801620001f7565b93506040860151915080821115620002f0575f80fd5b50620002ff86828701620001f7565b9150509250925092565b600181811c908216806200031e57607f821691505b6020821081036200033d57634e487b7160e01b5f52602260045260245ffd5b50919050565b601f82111562000390575f81815260208120601f850160051c810160208610156200036b5750805b601f850160051c820191505b818110156200038c5782815560010162000377565b5050505b505050565b81516001600160401b03811115620003b157620003b1620001bf565b620003c981620003c2845462000309565b8462000343565b602080601f831160018114620003ff575f8415620003e75750858301515b5f19600386901b1c1916600185901b1785556200038c565b5f85815260208120601f198616915b828110156200042f578886015182559484019460019091019084016200040e565b50858210156200044d57878501515f19600388901b60f8161c191681555b5050505050600190811b01905550565b602081525f82518060208401526200047d816040850160208701620001d3565b601f01601f19169190910160400192915050565b805160208083015191908110156200033d575f1960209190910360031b1b16919050565b60805160a05160c05160e051610100516101205161014051611b20620005075f395f610e2601525f610dfa01525f6112e301525f6112bb01525f61121601525f61124001525f61126a0152611b205ff3fe608060405234801561000f575f80fd5b50600436106100f0575f3560e01c806384b0196e11610093578063a526d83b11610063578063a526d83b1461020e578063dc5b68a614610221578063e2684a8314610234578063fd836ab814610247575f80fd5b806384b0196e146101a4578063893d20e8146101bf5780638fb07e61146101d05780639bb0f599146101e3575f80fd5b806332a41af3116100ce57806332a41af31461013857806342bf3cc1146101595780636c180a341461017e5780637140415614610191575f80fd5b806313af4035146100f4578063158ef93e146101095780631be4485914610125575b5f80fd5b61010761010236600461162e565b61025a565b005b60055460ff165b60405190151581526020015b60405180910390f35b610107610133366004611647565b61035b565b61014b61014636600461162e565b6103fd565b60405190815260200161011c565b6002546001600160a01b03165b6040516001600160a01b03909116815260200161011c565b61010761018c366004611680565b61040d565b61010761019f36600461162e565b61070d565b6101ac610860565b60405161011c9796959493929190611767565b6003546001600160a01b0316610166565b6101666101de36600461162e565b6108be565b6101106101f136600461162e565b6001600160a01b03165f9081526006602052604090205460ff1690565b61010761021c36600461162e565b610911565b61010761022f366004611817565b610a68565b61011061024236600461162e565b610c0e565b610107610255366004611647565b610c18565b6003546001600160a01b031661026e610cb1565b6001600160a01b0316146102ae576040517fcd52968d00000000000000000000000000000000000000000000000000000000815260040160405180910390fd5b6001600160a01b0381166102ee576040517f465f799000000000000000000000000000000000000000000000000000000000815260040160405180910390fd5b600380547fffffffffffffffffffffffff0000000000000000000000000000000000000000166001600160a01b0383169081179091556040519081527f4ffd725fc4a22075e9ec71c59edf9c38cdeb588a91b24fc5b61388c5be41282b906020015b60405180910390a150565b335f9081526006602052604090205460ff166103a3576040517f5c81ee7b00000000000000000000000000000000000000000000000000000000815260040160405180910390fd5b604080513381526001600160a01b038086166020830152841691810191909152606081018290527fae33cb06d7303f889d953bb09540983050163c1c4c98b330db432a911cfb63fd906080015b60405180910390a1505050565b5f61040782610cfa565b92915050565b6001600160a01b03831661044d576040517ffb86e91d00000000000000000000000000000000000000000000000000000000815260040160405180910390fd5b826001600160a01b031663313ce5676040518163ffffffff1660e01b8152600401602060405180830381865afa158015610489573d5f803e3d5ffd5b505050506040513d601f19601f820116820180604052508101906104ad91906118a7565b60ff166012146104e9576040517feba7f22500000000000000000000000000000000000000000000000000000000815260040160405180910390fd5b6104fc6104f584610cfa565b8383610d5e565b6040517fffffffffffffffffffffffffffffffffffffffff000000000000000000000000606085901b1660208201525f9061054f9060340160405160208183030381529060405280519060200120610d90565b6002546040517f485cc9550000000000000000000000000000000000000000000000000000000081526001600160a01b039182166004820152868216602482015291925082169063485cc955906044015f604051808303815f87803b1580156105b6575f80fd5b505af11580156105c8573d5f803e3d5ffd5b505050507f6596c1670eb3390048d23721809c3da5d3f531375ac0e2cab0f77a808ed6433181826001600160a01b03166306fdde036040518163ffffffff1660e01b81526004015f60405180830381865afa158015610629573d5f803e3d5ffd5b505050506040513d5f823e601f3d9081017fffffffffffffffffffffffffffffffffffffffffffffffffffffffffffffffe016820160405261066e91908101906118f4565b836001600160a01b03166395d89b416040518163ffffffff1660e01b81526004015f60405180830381865afa1580156106a9573d5f803e3d5ffd5b505050506040513d5f823e601f3d9081017fffffffffffffffffffffffffffffffffffffffffffffffffffffffffffffffe01682016040526106ee91908101906118f4565b876040516106ff94939291906119ba565b60405180910390a150505050565b6003546001600160a01b0316610721610cb1565b6001600160a01b031614610761576040517fcd52968d00000000000000000000000000000000000000000000000000000000815260040160405180910390fd5b6001600160a01b0381166107a1576040517f0398ea3f00000000000000000000000000000000000000000000000000000000815260040160405180910390fd5b6001600160a01b0381165f9081526004602052604090205460ff166107f2576040517ff9c7c4e100000000000000000000000000000000000000000000000000000000815260040160405180910390fd5b6001600160a01b0381165f8181526004602090815260409182902080547fffffffffffffffffffffffffffffffffffffffffffffffffffffffffffffff0016905590519182527fb8107d0c6b40be480ce3172ee66ba6d64b71f6b1685a851340036e6e2e3e3c529101610350565b5f6060805f805f6060610871610df3565b610879610e1f565b604080515f808252602082019092527f0f000000000000000000000000000000000000000000000000000000000000009b939a50919850469750309650945092509050565b6040517fffffffffffffffffffffffffffffffffffffffff000000000000000000000000606083901b1660208201525f906104079060340160405160208183030381529060405280519060200120610e4c565b6003546001600160a01b0316610925610cb1565b6001600160a01b031614610965576040517fcd52968d00000000000000000000000000000000000000000000000000000000815260040160405180910390fd5b6001600160a01b0381166109a5576040517f0398ea3f00000000000000000000000000000000000000000000000000000000815260040160405180910390fd5b6001600160a01b0381165f9081526004602052604090205460ff16156109f7576040517ffecca77f00000000000000000000000000000000000000000000000000000000815260040160405180910390fd5b6001600160a01b0381165f8181526004602090815260409182902080547fffffffffffffffffffffffffffffffffffffffffffffffffffffffffffffff0016600117905590519182527f038596bb31e2e7d3d9f184d4c98b310103f6d7f5830e5eec32bffe6f1728f9699101610350565b60055460ff1615610aa5576040517f0dc149f000000000000000000000000000000000000000000000000000000000815260040160405180910390fd5b600580547fffffffffffffffffffffffffffffffffffffffffffffffffffffffffffffff001660011790556003546001600160a01b0316610ae4610cb1565b6001600160a01b031614610b24576040517fcd52968d00000000000000000000000000000000000000000000000000000000815260040160405180910390fd5b6001600160a01b038116610b64576040517f0e11028600000000000000000000000000000000000000000000000000000000815260040160405180910390fd5b600280547fffffffffffffffffffffffff0000000000000000000000000000000000000000166001600160a01b038616179055610ba18383610e69565b600580547fffffffffffffffffffffff0000000000000000000000000000000000000000ff166101006001600160a01b038416021790556040517fe4fd2004c05020ea04f23d6df3f7507a1a531f39324e32ccbcefee06adf8539d906106ff908690869086908690611a03565b5f61040782610f7e565b335f9081526006602052604090205460ff16610c60576040517f5c81ee7b00000000000000000000000000000000000000000000000000000000815260040160405180910390fd5b604080513381526001600160a01b038086166020830152841691810191909152606081018290527f2c6e87be19eb54f68d01e25832a3ea2b8247b5cc92fcc754d67e161193a154f5906080016103f0565b6002545f906001600160a01b03163303610cf057507fffffffffffffffffffffffffffffffffffffffffffffffffffffffffffffffec36013560601c90565b503390565b905090565b5f6104077f94fc59b8454f5c974855da8b9dfcedd8b0e9853bb81de9e40e6cc4a978cddb0383604051602001610d439291909182526001600160a01b0316602082015260400190565b60405160208183030381529060405280519060200120610fb5565b6003546001600160a01b0316610d72610cb1565b6001600160a01b031614610d8b57610d8b838383610ffc565b505050565b6005545f90610dad9061010090046001600160a01b03168361107b565b6001600160a01b0381165f90815260066020526040902080547fffffffffffffffffffffffffffffffffffffffffffffffffffffffffffffff0016600117905592915050565b6060610cf57f00000000000000000000000000000000000000000000000000000000000000005f6110ff565b6060610cf57f000000000000000000000000000000000000000000000000000000000000000060016110ff565b6005545f906104079061010090046001600160a01b0316836111a8565b805f5b81811015610f78575f848483818110610e8757610e87611a68565b9050602002016020810190610e9c919061162e565b90506001600160a01b038116610ede576040517f0398ea3f00000000000000000000000000000000000000000000000000000000815260040160405180910390fd5b6001600160a01b0381165f9081526004602052604090205460ff1615610f30576040517ffecca77f00000000000000000000000000000000000000000000000000000000815260040160405180910390fd5b6001600160a01b03165f90815260046020526040902080547fffffffffffffffffffffffffffffffffffffffffffffffffffffffffffffff0016600190811790915501610e6c565b50505050565b6003545f906001600160a01b03838116911614806104075750506001600160a01b03165f9081526004602052604090205460ff1690565b5f610407610fc161120a565b836040517f19010000000000000000000000000000000000000000000000000000000000008152600281019290925260228201526042902090565b61104561104083838080601f0160208091040260200160405190810160405280939291908181526020018383808284375f9201919091525088939250506113339050565b610f7e565b610d8b576040517f07a81bc400000000000000000000000000000000000000000000000000000000815260040160405180910390fd5b5f763d602d80600a3d3981f3363d3d373d3d3d363d730000008360601b60e81c175f526e5af43d82803e903d91602b57fd5bf38360781b1760205281603760095ff590506001600160a01b038116610407576040517fc2f868f400000000000000000000000000000000000000000000000000000000815260040160405180910390fd5b606060ff8314611119576111128361135b565b9050610407565b81805461112590611a95565b80601f016020809104026020016040519081016040528092919081815260200182805461115190611a95565b801561119c5780601f106111735761010080835404028352916020019161119c565b820191905f5260205f20905b81548152906001019060200180831161117f57829003601f168201915b50505050509050610407565b6040513060388201526f5af43d82803e903d91602b57fd5bf3ff602482015260148101839052733d602d80600a3d3981f3363d3d373d3d3d363d738152605881018290526037600c820120607882015260556043909101205f905b9392505050565b5f306001600160a01b037f00000000000000000000000000000000000000000000000000000000000000001614801561126257507f000000000000000000000000000000000000000000000000000000000000000046145b1561128c57507f000000000000000000000000000000000000000000000000000000000000000090565b610cf5604080517f8b73c3c69bb8fe3d512ecc4cf759cc79239f7b179b0ffacaa9a75d522b39400f60208201527f0000000000000000000000000000000000000000000000000000000000000000918101919091527f000000000000000000000000000000000000000000000000000000000000000060608201524660808201523060a08201525f9060c00160405160208183030381529060405280519060200120905090565b5f805f806113418686611398565b92509250925061135182826113e1565b5090949350505050565b60605f611367836114ed565b6040805160208082528183019092529192505f91906020820181803683375050509182525060208101929092525090565b5f805f83516041036113cf576020840151604085015160608601515f1a6113c18882858561152d565b9550955095505050506113da565b505081515f91506002905b9250925092565b5f8260038111156113f4576113f4611ae6565b036113fd575050565b600182600381111561141157611411611ae6565b03611448576040517ff645eedf00000000000000000000000000000000000000000000000000000000815260040160405180910390fd5b600282600381111561145c5761145c611ae6565b0361149b576040517ffce698f7000000000000000000000000000000000000000000000000000000008152600481018290526024015b60405180910390fd5b60038260038111156114af576114af611ae6565b036114e9576040517fd78bce0c00000000000000000000000000000000000000000000000000000000815260048101829052602401611492565b5050565b5f60ff8216601f811115610407576040517fb3512b0c00000000000000000000000000000000000000000000000000000000815260040160405180910390fd5b5f80807f7fffffffffffffffffffffffffffffff5d576e7357a4501ddfe92f46681b20a084111561156657505f91506003905082611609565b604080515f808252602082018084528a905260ff891692820192909252606081018790526080810186905260019060a0016020604051602081039080840390855afa1580156115b7573d5f803e3d5ffd5b50506040517fffffffffffffffffffffffffffffffffffffffffffffffffffffffffffffffe001519150506001600160a01b03811661160057505f925060019150829050611609565b92505f91508190505b9450945094915050565b80356001600160a01b0381168114611629575f80fd5b919050565b5f6020828403121561163e575f80fd5b61120382611613565b5f805f60608486031215611659575f80fd5b61166284611613565b925061167060208501611613565b9150604084013590509250925092565b5f805f60408486031215611692575f80fd5b61169b84611613565b9250602084013567ffffffffffffffff808211156116b7575f80fd5b818601915086601f8301126116ca575f80fd5b8135818111156116d8575f80fd5b8760208285010111156116e9575f80fd5b6020830194508093505050509250925092565b5f5b838110156117165781810151838201526020016116fe565b50505f910152565b5f81518084526117358160208601602086016116fc565b601f017fffffffffffffffffffffffffffffffffffffffffffffffffffffffffffffffe0169290920160200192915050565b7fff00000000000000000000000000000000000000000000000000000000000000881681525f602060e0818401526117a260e084018a61171e565b83810360408501526117b4818a61171e565b606085018990526001600160a01b038816608086015260a0850187905284810360c086015285518082528387019250908301905f5b81811015611805578351835292840192918401916001016117e9565b50909c9b505050505050505050505050565b5f805f806060858703121561182a575f80fd5b61183385611613565b9350602085013567ffffffffffffffff8082111561184f575f80fd5b818701915087601f830112611862575f80fd5b813581811115611870575f80fd5b8860208260051b8501011115611884575f80fd5b60208301955080945050505061189c60408601611613565b905092959194509250565b5f602082840312156118b7575f80fd5b815160ff81168114611203575f80fd5b7f4e487b71000000000000000000000000000000000000000000000000000000005f52604160045260245ffd5b5f60208284031215611904575f80fd5b815167ffffffffffffffff8082111561191b575f80fd5b818401915084601f83011261192e575f80fd5b815181811115611940576119406118c7565b604051601f82017fffffffffffffffffffffffffffffffffffffffffffffffffffffffffffffffe0908116603f01168101908382118183101715611986576119866118c7565b8160405282815287602084870101111561199e575f80fd5b6119af8360208301602088016116fc565b979650505050505050565b5f6001600160a01b038087168352608060208401526119dc608084018761171e565b83810360408501526119ee818761171e565b92505080841660608401525095945050505050565b6001600160a01b038581168252606060208084018290529083018590525f91869160808501845b88811015611a4f5783611a3c86611613565b1682529382019390820190600101611a2a565b5080945050508085166040850152505095945050505050565b7f4e487b71000000000000000000000000000000000000000000000000000000005f52603260045260245ffd5b600181811c90821680611aa957607f821691505b602082108103611ae0577f4e487b71000000000000000000000000000000000000000000000000000000005f52602260045260245ffd5b50919050565b7f4e487b71000000000000000000000000000000000000000000000000000000005f52602160045260245ffdfea164736f6c6343000815000a",
  "devdoc": {
    "errors": {
      "ECDSAInvalidSignature()": [
        {
          "details": "The signature derives the `address(0)`."
        }
      ],
      "ECDSAInvalidSignatureLength(uint256)": [
        {
          "details": "The signature has an invalid length."
        }
      ],
      "ECDSAInvalidSignatureS(bytes32)": [
        {
          "details": "The signature has an S value that is in the upper half order."
        }
      ],
      "ERC1167FailedCreateClone()": [
        {
          "details": "A clone instance deployment failed."
        }
      ]
    },
    "events": {
      "EIP712DomainChanged()": {
        "details": "MAY be emitted to signal that the domain could have changed."
      }
    },
    "kind": "dev",
    "methods": {
      "eip712Domain()": {
        "details": "See {IERC-5267}."
      }
    },
    "version": 1
  },
  "userdoc": {
    "kind": "user",
    "methods": {},
    "version": 1
  },
  "storageLayout": {
    "storage": [
      {
        "astId": 2447,
        "contract": "contracts/tokens/erc20/wrapped/ERC20WrappedTokenFactory.sol:ERC20WrappedTokenFactory",
        "label": "_nameFallback",
        "offset": 0,
        "slot": "0",
        "type": "t_string_storage"
      },
      {
        "astId": 2449,
        "contract": "contracts/tokens/erc20/wrapped/ERC20WrappedTokenFactory.sol:ERC20WrappedTokenFactory",
        "label": "_versionFallback",
        "offset": 0,
        "slot": "1",
        "type": "t_string_storage"
      },
      {
        "astId": 4803,
        "contract": "contracts/tokens/erc20/wrapped/ERC20WrappedTokenFactory.sol:ERC20WrappedTokenFactory",
        "label": "_gateway",
        "offset": 0,
        "slot": "2",
        "type": "t_address"
      },
      {
        "astId": 4099,
        "contract": "contracts/tokens/erc20/wrapped/ERC20WrappedTokenFactory.sol:ERC20WrappedTokenFactory",
        "label": "_owner",
        "offset": 0,
        "slot": "3",
        "type": "t_address"
      },
      {
        "astId": 3885,
        "contract": "contracts/tokens/erc20/wrapped/ERC20WrappedTokenFactory.sol:ERC20WrappedTokenFactory",
        "label": "_guardians",
        "offset": 0,
        "slot": "4",
        "type": "t_mapping(t_address,t_bool)"
      },
      {
        "astId": 6624,
        "contract": "contracts/tokens/erc20/wrapped/ERC20WrappedTokenFactory.sol:ERC20WrappedTokenFactory",
        "label": "_initialized",
        "offset": 0,
        "slot": "5",
        "type": "t_bool"
      },
      {
        "astId": 4995,
        "contract": "contracts/tokens/erc20/wrapped/ERC20WrappedTokenFactory.sol:ERC20WrappedTokenFactory",
        "label": "_tokenImpl",
        "offset": 1,
        "slot": "5",
        "type": "t_address"
      },
      {
        "astId": 4999,
        "contract": "contracts/tokens/erc20/wrapped/ERC20WrappedTokenFactory.sol:ERC20WrappedTokenFactory",
        "label": "_tokens",
        "offset": 0,
        "slot": "6",
        "type": "t_mapping(t_address,t_bool)"
      }
    ],
    "types": {
      "t_address": {
        "encoding": "inplace",
        "label": "address",
        "numberOfBytes": "20"
      },
      "t_bool": {
        "encoding": "inplace",
        "label": "bool",
        "numberOfBytes": "1"
      },
      "t_mapping(t_address,t_bool)": {
        "encoding": "mapping",
        "key": "t_address",
        "label": "mapping(address => bool)",
        "numberOfBytes": "32",
        "value": "t_bool"
      },
      "t_string_storage": {
        "encoding": "bytes",
        "label": "string",
        "numberOfBytes": "32"
      }
    }
  }
}