{
  "address": "0x8847A58a4b03BD73F63a0da7552536F6133b20e8",
  "abi": [
    {
      "inputs": [],
      "stateMutability": "nonpayable",
      "type": "constructor"
    },
    {
      "inputs": [
        {
          "internalType": "address",
          "name": "target",
          "type": "address"
        }
      ],
      "name": "AddressEmptyCode",
      "type": "error"
    },
    {
      "inputs": [
        {
          "internalType": "address",
          "name": "account",
          "type": "address"
        }
      ],
      "name": "AddressInsufficientBalance",
      "type": "error"
    },
    {
      "inputs": [],
      "name": "AlreadyInitialized",
      "type": "error"
    },
    {
      "inputs": [
        {
          "internalType": "address",
          "name": "spender",
          "type": "address"
        },
        {
          "internalType": "uint256",
          "name": "allowance",
          "type": "uint256"
        },
        {
          "internalType": "uint256",
          "name": "needed",
          "type": "uint256"
        }
      ],
      "name": "ERC20InsufficientAllowance",
      "type": "error"
    },
    {
      "inputs": [
        {
          "internalType": "address",
          "name": "sender",
          "type": "address"
        },
        {
          "internalType": "uint256",
          "name": "balance",
          "type": "uint256"
        },
        {
          "internalType": "uint256",
          "name": "needed",
          "type": "uint256"
        }
      ],
      "name": "ERC20InsufficientBalance",
      "type": "error"
    },
    {
      "inputs": [
        {
          "internalType": "address",
          "name": "approver",
          "type": "address"
        }
      ],
      "name": "ERC20InvalidApprover",
      "type": "error"
    },
    {
      "inputs": [
        {
          "internalType": "address",
          "name": "receiver",
          "type": "address"
        }
      ],
      "name": "ERC20InvalidReceiver",
      "type": "error"
    },
    {
      "inputs": [
        {
          "internalType": "address",
          "name": "sender",
          "type": "address"
        }
      ],
      "name": "ERC20InvalidSender",
      "type": "error"
    },
    {
      "inputs": [
        {
          "internalType": "address",
          "name": "spender",
          "type": "address"
        }
      ],
      "name": "ERC20InvalidSpender",
      "type": "error"
    },
    {
      "inputs": [],
      "name": "FailedInnerCall",
      "type": "error"
    },
    {
      "inputs": [],
      "name": "MsgSenderIsNotTheOwner",
      "type": "error"
    },
    {
      "inputs": [],
      "name": "OwnerIsTheZeroAddress",
      "type": "error"
    },
    {
      "inputs": [
        {
          "internalType": "address",
          "name": "token",
          "type": "address"
        }
      ],
      "name": "SafeERC20FailedOperation",
      "type": "error"
    },
    {
      "inputs": [],
      "name": "TokenRegistryIsTheZeroAddress",
      "type": "error"
    },
    {
      "inputs": [],
      "name": "UnderlyingTokenIsTheZeroAddress",
      "type": "error"
    },
    {
      "anonymous": false,
      "inputs": [
        {
          "indexed": true,
          "internalType": "address",
          "name": "owner",
          "type": "address"
        },
        {
          "indexed": true,
          "internalType": "address",
          "name": "spender",
          "type": "address"
        },
        {
          "indexed": false,
          "internalType": "uint256",
          "name": "value",
          "type": "uint256"
        }
      ],
      "name": "Approval",
      "type": "event"
    },
    {
      "anonymous": false,
      "inputs": [
        {
          "indexed": false,
          "internalType": "address",
          "name": "owner",
          "type": "address"
        }
      ],
      "name": "OwnerUpdated",
      "type": "event"
    },
    {
      "anonymous": false,
      "inputs": [
        {
          "indexed": true,
          "internalType": "address",
          "name": "from",
          "type": "address"
        },
        {
          "indexed": true,
          "internalType": "address",
          "name": "to",
          "type": "address"
        },
        {
          "indexed": false,
          "internalType": "uint256",
          "name": "value",
          "type": "uint256"
        }
      ],
      "name": "Transfer",
      "type": "event"
    },
    {
      "inputs": [
        {
          "internalType": "address",
          "name": "owner",
          "type": "address"
        },
        {
          "internalType": "address",
          "name": "spender",
          "type": "address"
        }
      ],
      "name": "allowance",
      "outputs": [
        {
          "internalType": "uint256",
          "name": "",
          "type": "uint256"
        }
      ],
      "stateMutability": "view",
      "type": "function"
    },
    {
      "inputs": [
        {
          "internalType": "address",
          "name": "spender",
          "type": "address"
        },
        {
          "internalType": "uint256",
          "name": "value",
          "type": "uint256"
        }
      ],
      "name": "approve",
      "outputs": [
        {
          "internalType": "bool",
          "name": "",
          "type": "bool"
        }
      ],
      "stateMutability": "nonpayable",
      "type": "function"
    },
    {
      "inputs": [
        {
          "internalType": "address",
          "name": "account",
          "type": "address"
        }
      ],
      "name": "balanceOf",
      "outputs": [
        {
          "internalType": "uint256",
          "name": "",
          "type": "uint256"
        }
      ],
      "stateMutability": "view",
      "type": "function"
    },
    {
      "inputs": [],
      "name": "decimals",
      "outputs": [
        {
          "internalType": "uint8",
          "name": "",
          "type": "uint8"
        }
      ],
      "stateMutability": "view",
      "type": "function"
    },
    {
      "inputs": [
        {
          "internalType": "uint256",
          "name": "value",
          "type": "uint256"
        }
      ],
      "name": "deposit",
      "outputs": [],
      "stateMutability": "nonpayable",
      "type": "function"
    },
    {
      "inputs": [
        {
          "internalType": "address",
          "name": "to",
          "type": "address"
        },
        {
          "internalType": "uint256",
          "name": "value",
          "type": "uint256"
        }
      ],
      "name": "depositTo",
      "outputs": [],
      "stateMutability": "nonpayable",
      "type": "function"
    },
    {
      "inputs": [],
      "name": "getGateway",
      "outputs": [
        {
          "internalType": "address",
          "name": "",
          "type": "address"
        }
      ],
      "stateMutability": "view",
      "type": "function"
    },
    {
      "inputs": [],
      "name": "getOwner",
      "outputs": [
        {
          "internalType": "address",
          "name": "",
          "type": "address"
        }
      ],
      "stateMutability": "view",
      "type": "function"
    },
    {
      "inputs": [],
      "name": "getTokenRegistry",
      "outputs": [
        {
          "internalType": "address",
          "name": "",
          "type": "address"
        }
      ],
      "stateMutability": "view",
      "type": "function"
    },
    {
      "inputs": [],
      "name": "getUnderlyingToken",
      "outputs": [
        {
          "internalType": "address",
          "name": "",
          "type": "address"
        }
      ],
      "stateMutability": "view",
      "type": "function"
    },
    {
      "inputs": [
        {
          "internalType": "address",
          "name": "gateway",
          "type": "address"
        },
        {
          "internalType": "address",
          "name": "underlyingToken",
          "type": "address"
        }
      ],
      "name": "initialize",
      "outputs": [],
      "stateMutability": "nonpayable",
      "type": "function"
    },
    {
      "inputs": [],
      "name": "initialized",
      "outputs": [
        {
          "internalType": "bool",
          "name": "",
          "type": "bool"
        }
      ],
      "stateMutability": "view",
      "type": "function"
    },
    {
      "inputs": [],
      "name": "name",
      "outputs": [
        {
          "internalType": "string",
          "name": "",
          "type": "string"
        }
      ],
      "stateMutability": "view",
      "type": "function"
    },
    {
      "inputs": [
        {
          "internalType": "address",
          "name": "owner",
          "type": "address"
        }
      ],
      "name": "setOwner",
      "outputs": [],
      "stateMutability": "nonpayable",
      "type": "function"
    },
    {
      "inputs": [],
      "name": "symbol",
      "outputs": [
        {
          "internalType": "string",
          "name": "",
          "type": "string"
        }
      ],
      "stateMutability": "view",
      "type": "function"
    },
    {
      "inputs": [],
      "name": "totalSupply",
      "outputs": [
        {
          "internalType": "uint256",
          "name": "",
          "type": "uint256"
        }
      ],
      "stateMutability": "view",
      "type": "function"
    },
    {
      "inputs": [
        {
          "internalType": "address",
          "name": "to",
          "type": "address"
        },
        {
          "internalType": "uint256",
          "name": "value",
          "type": "uint256"
        }
      ],
      "name": "transfer",
      "outputs": [
        {
          "internalType": "bool",
          "name": "",
          "type": "bool"
        }
      ],
      "stateMutability": "nonpayable",
      "type": "function"
    },
    {
      "inputs": [
        {
          "internalType": "address",
          "name": "from",
          "type": "address"
        },
        {
          "internalType": "address",
          "name": "to",
          "type": "address"
        },
        {
          "internalType": "uint256",
          "name": "value",
          "type": "uint256"
        }
      ],
      "name": "transferFrom",
      "outputs": [
        {
          "internalType": "bool",
          "name": "",
          "type": "bool"
        }
      ],
      "stateMutability": "nonpayable",
      "type": "function"
    },
    {
      "inputs": [
        {
          "internalType": "uint256",
          "name": "value",
          "type": "uint256"
        }
      ],
      "name": "withdraw",
      "outputs": [],
      "stateMutability": "nonpayable",
      "type": "function"
    },
    {
      "inputs": [
        {
          "internalType": "address",
          "name": "to",
          "type": "address"
        },
        {
          "internalType": "uint256",
          "name": "value",
          "type": "uint256"
        }
      ],
      "name": "withdrawTo",
      "outputs": [],
      "stateMutability": "nonpayable",
      "type": "function"
    }
  ],
  "transactionHash": "0xe460b5725ce3517eb46927ab995f4eacf6d9389ccb9e6279f1c3ee42b9b0feba",
  "args": [],
  "numDeployments": 1,
  "solcInputHash": "a9e2a0197f364155452382066c2f023a",
  "bytecode": "0x60806040523480156200001157600080fd5b506040805160208082018352600080835283519182019093529182529060036200003c83826200010c565b5060046200004b82826200010c565b50506006805460ff60a01b1916600160a01b17905550620001d8565b634e487b7160e01b600052604160045260246000fd5b600181811c908216806200009257607f821691505b602082108103620000b357634e487b7160e01b600052602260045260246000fd5b50919050565b601f8211156200010757600081815260208120601f850160051c81016020861015620000e25750805b601f850160051c820191505b818110156200010357828155600101620000ee565b5050505b505050565b81516001600160401b0381111562000128576200012862000067565b62000140816200013984546200007d565b84620000b9565b602080601f8311600181146200017857600084156200015f5750858301515b600019600386901b1c1916600185901b17855562000103565b600085815260208120601f198616915b82811015620001a95788860151825594840194600190910190840162000188565b5085821015620001c85787850151600019600388901b60f8161c191681555b5050505050600190811b01905550565b6113f280620001e86000396000f3fe608060405234801561001057600080fd5b506004361061016c5760003560e01c806342bf3cc1116100cd578063a9059cbb11610081578063dd62ed3e11610066578063dd62ed3e146102fc578063ee719bc814610335578063ffaad6a51461034657600080fd5b8063a9059cbb146102d6578063b6b55f25146102e957600080fd5b806370a08231116100b257806370a0823114610294578063893d20e8146102bd57806395d89b41146102ce57600080fd5b806342bf3cc114610270578063485cc9551461028157600080fd5b806318160ddd1161012457806323b872dd1161010957806323b872dd146102305780632e1a7d4d14610243578063313ce5671461025657600080fd5b806318160ddd1461020b578063205c28781461021d57600080fd5b8063095ea7b311610155578063095ea7b3146101b057806313af4035146101d3578063158ef93e146101e857600080fd5b8063057838bd1461017157806306fdde031461019b575b600080fd5b6007546001600160a01b03165b6040516001600160a01b0390911681526020015b60405180910390f35b6101a3610359565b6040516101929190611130565b6101c36101be36600461115f565b610368565b6040519015158152602001610192565b6101e66101e1366004611189565b61038c565b005b60065474010000000000000000000000000000000000000000900460ff166101c3565b6002545b604051908152602001610192565b6101e661022b36600461115f565b6103a2565b6101c361023e3660046111a4565b6103b8565b6101e66102513660046111e0565b6103e8565b61025e6103ff565b60405160ff9091168152602001610192565b6005546001600160a01b031661017e565b6101e661028f3660046111f9565b610486565b61020f6102a2366004611189565b6001600160a01b031660009081526020819052604090205490565b6006546001600160a01b031661017e565b6101a361050a565b6101c36102e436600461115f565b610514565b6101e66102f73660046111e0565b61052c565b61020f61030a3660046111f9565b6001600160a01b03918216600090815260016020908152604080832093909416825291909152205490565b6008546001600160a01b031661017e565b6101e661035436600461115f565b610543565b6060610363610555565b905090565b6000806103736105fe565b9050610380818585610608565b60019150505b92915050565b61039461061a565b61039f81600161062c565b50565b6103b46103ad6105fe565b838361066c565b5050565b6000806103c36105fe565b90506103d085828561068d565b6103db858585610747565b60019150505b9392505050565b60006103f26105fe565b90506103b481828461066c565b600854604080517f313ce56700000000000000000000000000000000000000000000000000000000815290516000926001600160a01b03169163313ce5679160048083019260209291908290030181865afa158015610462573d6000803e3d6000fd5b505050506040513d601f19601f82011682018060405250810190610363919061122c565b6001600160a01b0381166104c6576040517ffb86e91d00000000000000000000000000000000000000000000000000000000815260040160405180910390fd5b6104cf826107d8565b600880547fffffffffffffffffffffffff0000000000000000000000000000000000000000166001600160a01b039290921691909117905550565b60606103636108af565b60008061051f6105fe565b9050610380818585610747565b60006105366105fe565b90506103b4818284610912565b6103b461054e6105fe565b8383610912565b600854604080517f06fdde0300000000000000000000000000000000000000000000000000000000815290516060926001600160a01b0316916306fdde039160048083019260009291908290030181865afa1580156105b8573d6000803e3d6000fd5b505050506040513d6000823e601f3d9081017fffffffffffffffffffffffffffffffffffffffffffffffffffffffffffffffe0168201604052610363919081019061127e565b6000610363610934565b6106158383836001610979565b505050565b61062a6106256105fe565b6109b9565b565b6106368282610a00565b80156103b457604080516001600160a01b03841660208201526103b491600091015b604051602081830303815290604052610ab9565b6106768382610b3a565b600854610615906001600160a01b03168383610b89565b6001600160a01b038381166000908152600160209081526040808320938616835292905220547fffffffffffffffffffffffffffffffffffffffffffffffffffffffffffffffff81146107415781811015610732576040517ffb8f41b20000000000000000000000000000000000000000000000000000000081526001600160a01b038416600482015260248101829052604481018390526064015b60405180910390fd5b61074184848484036000610979565b50505050565b6001600160a01b03831661078a576040517f96c6fd1e00000000000000000000000000000000000000000000000000000000815260006004820152602401610729565b6001600160a01b0382166107cd576040517fec442f0500000000000000000000000000000000000000000000000000000000815260006004820152602401610729565b610615838383610bfd565b60065474010000000000000000000000000000000000000000900460ff161561082d576040517f0dc149f000000000000000000000000000000000000000000000000000000000815260040160405180910390fd5b600680547fffffffffffffffffffffff00ffffffffffffffffffffffffffffffffffffffff1674010000000000000000000000000000000000000000179055600580546001600160a01b039092167fffffffffffffffffffffffff00000000000000000000000000000000000000009283161790556007805490911633179055565b600854604080517f95d89b4100000000000000000000000000000000000000000000000000000000815290516060926001600160a01b0316916395d89b419160048083019260009291908290030181865afa1580156105b8573d6000803e3d6000fd5b60085461092a906001600160a01b0316843084610c3b565b6106158282610c74565b6005546000906001600160a01b0316330361097457507fffffffffffffffffffffffffffffffffffffffffffffffffffffffffffffffec36013560601c90565b503390565b6109868484846001610cc3565b604080516001600160a01b0380871660208301528516918101919091526060810183905261074190605190608001610658565b6006546001600160a01b0382811691161461039f576040517fbfb2c26800000000000000000000000000000000000000000000000000000000815260040160405180910390fd5b6001600160a01b038216610a40576040517f465f799000000000000000000000000000000000000000000000000000000000815260040160405180910390fd5b600680547fffffffffffffffffffffffff0000000000000000000000000000000000000000166001600160a01b03841617905580156103b4576040516001600160a01b03831681527f4ffd725fc4a22075e9ec71c59edf9c38cdeb588a91b24fc5b61388c5be41282b9060200160405180910390a15050565b6007546040517f62d40c2f0000000000000000000000000000000000000000000000000000000081526001600160a01b03909116906362d40c2f90610b049085908590600401611349565b600060405180830381600087803b158015610b1e57600080fd5b505af1158015610b32573d6000803e3d6000fd5b505050505050565b6001600160a01b038216610b7d576040517f96c6fd1e00000000000000000000000000000000000000000000000000000000815260006004820152602401610729565b6103b482600083610bfd565b6040516001600160a01b0383811660248301526044820183905261061591859182169063a9059cbb906064015b604051602081830303815290604052915060e01b6020820180517bffffffffffffffffffffffffffffffffffffffffffffffffffffffff8381831617835250505050610dca565b610c08838383610e46565b604080516001600160a01b0380861660208301528416918101919091526060810182905261061590605090608001610658565b6040516001600160a01b0384811660248301528381166044830152606482018390526107419186918216906323b872dd90608401610bb6565b6001600160a01b038216610cb7576040517fec442f0500000000000000000000000000000000000000000000000000000000815260006004820152602401610729565b6103b460008383610bfd565b6001600160a01b038416610d06576040517fe602df0500000000000000000000000000000000000000000000000000000000815260006004820152602401610729565b6001600160a01b038316610d49576040517f94280d6200000000000000000000000000000000000000000000000000000000815260006004820152602401610729565b6001600160a01b038085166000908152600160209081526040808320938716835292905220829055801561074157826001600160a01b0316846001600160a01b03167f8c5be1e5ebec7d5bd14f71427d1e84f3dd0314c0f7b2291e5b200ac8c7c3b92584604051610dbc91815260200190565b60405180910390a350505050565b6000610ddf6001600160a01b03841683610f89565b90508051600014158015610e04575080806020019051810190610e02919061136d565b155b15610615576040517f5274afe70000000000000000000000000000000000000000000000000000000081526001600160a01b0384166004820152602401610729565b6001600160a01b038316610e71578060026000828254610e66919061138f565b90915550610efc9050565b6001600160a01b03831660009081526020819052604090205481811015610edd576040517fe450d38c0000000000000000000000000000000000000000000000000000000081526001600160a01b03851660048201526024810182905260448101839052606401610729565b6001600160a01b03841660009081526020819052604090209082900390555b6001600160a01b038216610f1857600280548290039055610f37565b6001600160a01b03821660009081526020819052604090208054820190555b816001600160a01b0316836001600160a01b03167fddf252ad1be2c89b69c2b068fc378daa952ba7f163c4a11628f55a4df523b3ef83604051610f7c91815260200190565b60405180910390a3505050565b60606103e18383600084600080856001600160a01b03168486604051610faf91906113c9565b60006040518083038185875af1925050503d8060008114610fec576040519150601f19603f3d011682016040523d82523d6000602084013e610ff1565b606091505b509150915061100186838361100b565b9695505050505050565b6060826110205761101b82611080565b6103e1565b815115801561103757506001600160a01b0384163b155b15611079576040517f9996b3150000000000000000000000000000000000000000000000000000000081526001600160a01b0385166004820152602401610729565b50806103e1565b8051156110905780518082602001fd5b6040517f1425ea4200000000000000000000000000000000000000000000000000000000815260040160405180910390fd5b60005b838110156110dd5781810151838201526020016110c5565b50506000910152565b600081518084526110fe8160208601602086016110c2565b601f017fffffffffffffffffffffffffffffffffffffffffffffffffffffffffffffffe0169290920160200192915050565b6020815260006103e160208301846110e6565b80356001600160a01b038116811461115a57600080fd5b919050565b6000806040838503121561117257600080fd5b61117b83611143565b946020939093013593505050565b60006020828403121561119b57600080fd5b6103e182611143565b6000806000606084860312156111b957600080fd5b6111c284611143565b92506111d060208501611143565b9150604084013590509250925092565b6000602082840312156111f257600080fd5b5035919050565b6000806040838503121561120c57600080fd5b61121583611143565b915061122360208401611143565b90509250929050565b60006020828403121561123e57600080fd5b815160ff811681146103e157600080fd5b7f4e487b7100000000000000000000000000000000000000000000000000000000600052604160045260246000fd5b60006020828403121561129057600080fd5b815167ffffffffffffffff808211156112a857600080fd5b818401915084601f8301126112bc57600080fd5b8151818111156112ce576112ce61124f565b604051601f82017fffffffffffffffffffffffffffffffffffffffffffffffffffffffffffffffe0908116603f011681019083821181831017156113145761131461124f565b8160405282815287602084870101111561132d57600080fd5b61133e8360208301602088016110c2565b979650505050505050565b60ff8316815260406020820152600061136560408301846110e6565b949350505050565b60006020828403121561137f57600080fd5b815180151581146103e157600080fd5b80820180821115610386577f4e487b7100000000000000000000000000000000000000000000000000000000600052601160045260246000fd5b600082516113db8184602087016110c2565b919091019291505056fea164736f6c6343000815000a",
  "devdoc": {
    "errors": {
      "AddressEmptyCode(address)": [
        {
          "details": "There's no code at `target` (it is not a contract)."
        }
      ],
      "AddressInsufficientBalance(address)": [
        {
          "details": "The ETH balance of the account is not enough to perform the operation."
        }
      ],
      "ERC20InsufficientAllowance(address,uint256,uint256)": [
        {
          "details": "Indicates a failure with the `spender`’s `allowance`. Used in transfers.",
          "params": {
            "allowance": "Amount of tokens a `spender` is allowed to operate with.",
            "needed": "Minimum amount required to perform a transfer.",
            "spender": "Address that may be allowed to operate on tokens without being their owner."
          }
        }
      ],
      "ERC20InsufficientBalance(address,uint256,uint256)": [
        {
          "details": "Indicates an error related to the current `balance` of a `sender`. Used in transfers.",
          "params": {
            "balance": "Current balance for the interacting account.",
            "needed": "Minimum amount required to perform a transfer.",
            "sender": "Address whose tokens are being transferred."
          }
        }
      ],
      "ERC20InvalidApprover(address)": [
        {
          "details": "Indicates a failure with the `approver` of a token to be approved. Used in approvals.",
          "params": {
            "approver": "Address initiating an approval operation."
          }
        }
      ],
      "ERC20InvalidReceiver(address)": [
        {
          "details": "Indicates a failure with the token `receiver`. Used in transfers.",
          "params": {
            "receiver": "Address to which tokens are being transferred."
          }
        }
      ],
      "ERC20InvalidSender(address)": [
        {
          "details": "Indicates a failure with the token `sender`. Used in transfers.",
          "params": {
            "sender": "Address whose tokens are being transferred."
          }
        }
      ],
      "ERC20InvalidSpender(address)": [
        {
          "details": "Indicates a failure with the `spender` to be approved. Used in approvals.",
          "params": {
            "spender": "Address that may be allowed to operate on tokens without being their owner."
          }
        }
      ],
      "FailedInnerCall()": [
        {
          "details": "A call to an address target failed. The target may have reverted."
        }
      ],
      "SafeERC20FailedOperation(address)": [
        {
          "details": "An operation with an ERC20 token failed."
        }
      ]
    },
    "events": {
      "Approval(address,address,uint256)": {
        "details": "Emitted when the allowance of a `spender` for an `owner` is set by a call to {approve}. `value` is the new allowance."
      },
      "Transfer(address,address,uint256)": {
        "details": "Emitted when `value` tokens are moved from one account (`from`) to another (`to`). Note that `value` may be zero."
      }
    },
    "kind": "dev",
    "methods": {
      "allowance(address,address)": {
        "details": "See {IERC20-allowance}."
      },
      "approve(address,uint256)": {
        "details": "See {IERC20-approve}. NOTE: If `value` is the maximum `uint256`, the allowance is not updated on `transferFrom`. This is semantically equivalent to an infinite approval. Requirements: - `spender` cannot be the zero address."
      },
      "balanceOf(address)": {
        "details": "See {IERC20-balanceOf}."
      },
      "decimals()": {
        "details": "Returns the number of decimals used to get its user representation. For example, if `decimals` equals `2`, a balance of `505` tokens should be displayed to a user as `5.05` (`505 / 10 ** 2`). Tokens usually opt for a value of 18, imitating the relationship between Ether and Wei. This is the default value returned by this function, unless it's overridden. NOTE: This information is only used for _display_ purposes: it in no way affects any of the arithmetic of the contract, including {IERC20-balanceOf} and {IERC20-transfer}."
      },
      "totalSupply()": {
        "details": "See {IERC20-totalSupply}."
      },
      "transfer(address,uint256)": {
        "details": "See {IERC20-transfer}. Requirements: - `to` cannot be the zero address. - the caller must have a balance of at least `value`."
      },
      "transferFrom(address,address,uint256)": {
        "details": "See {IERC20-transferFrom}. Emits an {Approval} event indicating the updated allowance. This is not required by the EIP. See the note at the beginning of {ERC20}. NOTE: Does not update the allowance if the current allowance is the maximum `uint256`. Requirements: - `from` and `to` cannot be the zero address. - `from` must have a balance of at least `value`. - the caller must have allowance for ``from``'s tokens of at least `value`."
      }
    },
    "version": 1
  },
  "userdoc": {
    "kind": "user",
    "methods": {},
    "version": 1
  },
  "storageLayout": {
    "storage": [
      {
        "astId": 283,
        "contract": "contracts/tokens/erc20/presets/ERC20WrappedTokenImpl.sol:ERC20WrappedTokenImpl",
        "label": "_balances",
        "offset": 0,
        "slot": "0",
        "type": "t_mapping(t_address,t_uint256)"
      },
      {
        "astId": 289,
        "contract": "contracts/tokens/erc20/presets/ERC20WrappedTokenImpl.sol:ERC20WrappedTokenImpl",
        "label": "_allowances",
        "offset": 0,
        "slot": "1",
        "type": "t_mapping(t_address,t_mapping(t_address,t_uint256))"
      },
      {
        "astId": 291,
        "contract": "contracts/tokens/erc20/presets/ERC20WrappedTokenImpl.sol:ERC20WrappedTokenImpl",
        "label": "_totalSupply",
        "offset": 0,
        "slot": "2",
        "type": "t_uint256"
      },
      {
        "astId": 293,
        "contract": "contracts/tokens/erc20/presets/ERC20WrappedTokenImpl.sol:ERC20WrappedTokenImpl",
        "label": "_name",
        "offset": 0,
        "slot": "3",
        "type": "t_string_storage"
      },
      {
        "astId": 295,
        "contract": "contracts/tokens/erc20/presets/ERC20WrappedTokenImpl.sol:ERC20WrappedTokenImpl",
        "label": "_symbol",
        "offset": 0,
        "slot": "4",
        "type": "t_string_storage"
      },
      {
        "astId": 5984,
        "contract": "contracts/tokens/erc20/presets/ERC20WrappedTokenImpl.sol:ERC20WrappedTokenImpl",
        "label": "_gateway",
        "offset": 0,
        "slot": "5",
        "type": "t_address"
      },
      {
        "astId": 5255,
        "contract": "contracts/tokens/erc20/presets/ERC20WrappedTokenImpl.sol:ERC20WrappedTokenImpl",
        "label": "_owner",
        "offset": 0,
        "slot": "6",
        "type": "t_address"
      },
      {
        "astId": 8326,
        "contract": "contracts/tokens/erc20/presets/ERC20WrappedTokenImpl.sol:ERC20WrappedTokenImpl",
        "label": "_initialized",
        "offset": 20,
        "slot": "6",
        "type": "t_bool"
      },
      {
        "astId": 6173,
        "contract": "contracts/tokens/erc20/presets/ERC20WrappedTokenImpl.sol:ERC20WrappedTokenImpl",
        "label": "_tokenRegistry",
        "offset": 0,
        "slot": "7",
        "type": "t_address"
      },
      {
        "astId": 8156,
        "contract": "contracts/tokens/erc20/presets/ERC20WrappedTokenImpl.sol:ERC20WrappedTokenImpl",
        "label": "_underlyingToken",
        "offset": 0,
        "slot": "8",
        "type": "t_address"
      }
    ],
    "types": {
      "t_address": {
        "encoding": "inplace",
        "label": "address",
        "numberOfBytes": "20"
      },
      "t_bool": {
        "encoding": "inplace",
        "label": "bool",
        "numberOfBytes": "1"
      },
      "t_mapping(t_address,t_mapping(t_address,t_uint256))": {
        "encoding": "mapping",
        "key": "t_address",
        "label": "mapping(address => mapping(address => uint256))",
        "numberOfBytes": "32",
        "value": "t_mapping(t_address,t_uint256)"
      },
      "t_mapping(t_address,t_uint256)": {
        "encoding": "mapping",
        "key": "t_address",
        "label": "mapping(address => uint256)",
        "numberOfBytes": "32",
        "value": "t_uint256"
      },
      "t_string_storage": {
        "encoding": "bytes",
        "label": "string",
        "numberOfBytes": "32"
      },
      "t_uint256": {
        "encoding": "inplace",
        "label": "uint256",
        "numberOfBytes": "32"
      }
    }
  }
}