{
  "address": "0xe049591127Ba23e891437B1ed2EB9E20B7696106",
  "abi": [
    {
      "inputs": [],
      "stateMutability": "nonpayable",
      "type": "constructor"
    },
    {
      "inputs": [],
      "name": "AlreadyInitialized",
      "type": "error"
    },
    {
      "inputs": [
        {
          "internalType": "address",
          "name": "spender",
          "type": "address"
        },
        {
          "internalType": "uint256",
          "name": "allowance",
          "type": "uint256"
        },
        {
          "internalType": "uint256",
          "name": "needed",
          "type": "uint256"
        }
      ],
      "name": "ERC20InsufficientAllowance",
      "type": "error"
    },
    {
      "inputs": [
        {
          "internalType": "address",
          "name": "sender",
          "type": "address"
        },
        {
          "internalType": "uint256",
          "name": "balance",
          "type": "uint256"
        },
        {
          "internalType": "uint256",
          "name": "needed",
          "type": "uint256"
        }
      ],
      "name": "ERC20InsufficientBalance",
      "type": "error"
    },
    {
      "inputs": [
        {
          "internalType": "address",
          "name": "approver",
          "type": "address"
        }
      ],
      "name": "ERC20InvalidApprover",
      "type": "error"
    },
    {
      "inputs": [
        {
          "internalType": "address",
          "name": "receiver",
          "type": "address"
        }
      ],
      "name": "ERC20InvalidReceiver",
      "type": "error"
    },
    {
      "inputs": [
        {
          "internalType": "address",
          "name": "sender",
          "type": "address"
        }
      ],
      "name": "ERC20InvalidSender",
      "type": "error"
    },
    {
      "inputs": [
        {
          "internalType": "address",
          "name": "spender",
          "type": "address"
        }
      ],
      "name": "ERC20InvalidSpender",
      "type": "error"
    },
    {
      "inputs": [],
      "name": "ExpectedLocked",
      "type": "error"
    },
    {
      "inputs": [],
      "name": "MsgSenderIsNotTheController",
      "type": "error"
    },
    {
      "inputs": [],
      "name": "MsgSenderIsNotTheOwner",
      "type": "error"
    },
    {
      "inputs": [],
      "name": "OwnerIsTheZeroAddress",
      "type": "error"
    },
    {
      "inputs": [],
      "name": "TokenRegistryIsTheZeroAddress",
      "type": "error"
    },
    {
      "anonymous": false,
      "inputs": [
        {
          "indexed": true,
          "internalType": "address",
          "name": "owner",
          "type": "address"
        },
        {
          "indexed": true,
          "internalType": "address",
          "name": "spender",
          "type": "address"
        },
        {
          "indexed": false,
          "internalType": "uint256",
          "name": "value",
          "type": "uint256"
        }
      ],
      "name": "Approval",
      "type": "event"
    },
    {
      "anonymous": false,
      "inputs": [
        {
          "indexed": false,
          "internalType": "address",
          "name": "owner",
          "type": "address"
        }
      ],
      "name": "OwnerUpdated",
      "type": "event"
    },
    {
      "anonymous": false,
      "inputs": [
        {
          "indexed": true,
          "internalType": "address",
          "name": "from",
          "type": "address"
        },
        {
          "indexed": true,
          "internalType": "address",
          "name": "to",
          "type": "address"
        },
        {
          "indexed": false,
          "internalType": "uint256",
          "name": "value",
          "type": "uint256"
        }
      ],
      "name": "Transfer",
      "type": "event"
    },
    {
      "anonymous": false,
      "inputs": [],
      "name": "Unlocked",
      "type": "event"
    },
    {
      "inputs": [
        {
          "internalType": "address",
          "name": "owner",
          "type": "address"
        },
        {
          "internalType": "address",
          "name": "spender",
          "type": "address"
        }
      ],
      "name": "allowance",
      "outputs": [
        {
          "internalType": "uint256",
          "name": "",
          "type": "uint256"
        }
      ],
      "stateMutability": "view",
      "type": "function"
    },
    {
      "inputs": [
        {
          "internalType": "address",
          "name": "spender",
          "type": "address"
        },
        {
          "internalType": "uint256",
          "name": "value",
          "type": "uint256"
        }
      ],
      "name": "approve",
      "outputs": [
        {
          "internalType": "bool",
          "name": "",
          "type": "bool"
        }
      ],
      "stateMutability": "nonpayable",
      "type": "function"
    },
    {
      "inputs": [
        {
          "internalType": "address",
          "name": "account",
          "type": "address"
        }
      ],
      "name": "balanceOf",
      "outputs": [
        {
          "internalType": "uint256",
          "name": "",
          "type": "uint256"
        }
      ],
      "stateMutability": "view",
      "type": "function"
    },
    {
      "inputs": [
        {
          "internalType": "address",
          "name": "from",
          "type": "address"
        },
        {
          "internalType": "uint256",
          "name": "value",
          "type": "uint256"
        }
      ],
      "name": "burn",
      "outputs": [],
      "stateMutability": "nonpayable",
      "type": "function"
    },
    {
      "inputs": [],
      "name": "decimals",
      "outputs": [
        {
          "internalType": "uint8",
          "name": "",
          "type": "uint8"
        }
      ],
      "stateMutability": "view",
      "type": "function"
    },
    {
      "inputs": [],
      "name": "getController",
      "outputs": [
        {
          "internalType": "address",
          "name": "",
          "type": "address"
        }
      ],
      "stateMutability": "view",
      "type": "function"
    },
    {
      "inputs": [],
      "name": "getGateway",
      "outputs": [
        {
          "internalType": "address",
          "name": "",
          "type": "address"
        }
      ],
      "stateMutability": "view",
      "type": "function"
    },
    {
      "inputs": [],
      "name": "getOwner",
      "outputs": [
        {
          "internalType": "address",
          "name": "",
          "type": "address"
        }
      ],
      "stateMutability": "view",
      "type": "function"
    },
    {
      "inputs": [],
      "name": "getTokenRegistry",
      "outputs": [
        {
          "internalType": "address",
          "name": "",
          "type": "address"
        }
      ],
      "stateMutability": "view",
      "type": "function"
    },
    {
      "inputs": [
        {
          "internalType": "address",
          "name": "gateway",
          "type": "address"
        },
        {
          "internalType": "address",
          "name": "owner",
          "type": "address"
        },
        {
          "internalType": "string",
          "name": "name_",
          "type": "string"
        },
        {
          "internalType": "string",
          "name": "symbol_",
          "type": "string"
        },
        {
          "internalType": "address",
          "name": "controller",
          "type": "address"
        },
        {
          "internalType": "bool",
          "name": "locked_",
          "type": "bool"
        }
      ],
      "name": "initialize",
      "outputs": [],
      "stateMutability": "nonpayable",
      "type": "function"
    },
    {
      "inputs": [],
      "name": "initialized",
      "outputs": [
        {
          "internalType": "bool",
          "name": "",
          "type": "bool"
        }
      ],
      "stateMutability": "view",
      "type": "function"
    },
    {
      "inputs": [],
      "name": "locked",
      "outputs": [
        {
          "internalType": "bool",
          "name": "",
          "type": "bool"
        }
      ],
      "stateMutability": "view",
      "type": "function"
    },
    {
      "inputs": [
        {
          "internalType": "address",
          "name": "to",
          "type": "address"
        },
        {
          "internalType": "uint256",
          "name": "value",
          "type": "uint256"
        }
      ],
      "name": "mint",
      "outputs": [],
      "stateMutability": "nonpayable",
      "type": "function"
    },
    {
      "inputs": [],
      "name": "name",
      "outputs": [
        {
          "internalType": "string",
          "name": "",
          "type": "string"
        }
      ],
      "stateMutability": "view",
      "type": "function"
    },
    {
      "inputs": [
        {
          "internalType": "address",
          "name": "owner",
          "type": "address"
        }
      ],
      "name": "setOwner",
      "outputs": [],
      "stateMutability": "nonpayable",
      "type": "function"
    },
    {
      "inputs": [],
      "name": "symbol",
      "outputs": [
        {
          "internalType": "string",
          "name": "",
          "type": "string"
        }
      ],
      "stateMutability": "view",
      "type": "function"
    },
    {
      "inputs": [],
      "name": "totalSupply",
      "outputs": [
        {
          "internalType": "uint256",
          "name": "",
          "type": "uint256"
        }
      ],
      "stateMutability": "view",
      "type": "function"
    },
    {
      "inputs": [
        {
          "internalType": "address",
          "name": "to",
          "type": "address"
        },
        {
          "internalType": "uint256",
          "name": "value",
          "type": "uint256"
        }
      ],
      "name": "transfer",
      "outputs": [
        {
          "internalType": "bool",
          "name": "",
          "type": "bool"
        }
      ],
      "stateMutability": "nonpayable",
      "type": "function"
    },
    {
      "inputs": [
        {
          "internalType": "address",
          "name": "from",
          "type": "address"
        },
        {
          "internalType": "address",
          "name": "to",
          "type": "address"
        },
        {
          "internalType": "uint256",
          "name": "value",
          "type": "uint256"
        }
      ],
      "name": "transferFrom",
      "outputs": [
        {
          "internalType": "bool",
          "name": "",
          "type": "bool"
        }
      ],
      "stateMutability": "nonpayable",
      "type": "function"
    },
    {
      "inputs": [],
      "name": "unlock",
      "outputs": [],
      "stateMutability": "nonpayable",
      "type": "function"
    }
  ],
  "transactionHash": "0x1f6ba51edb9f5ef324f97cb65f51d5653d07a6dff9fe5703525da50536f9a6ca",
  "args": [],
  "numDeployments": 1,
  "solcInputHash": "a9e2a0197f364155452382066c2f023a",
  "bytecode": "0x60806040523480156200001157600080fd5b506040805160208082018352600080835283519182019093529182529060036200003c83826200010c565b5060046200004b82826200010c565b50506006805460ff60a01b1916600160a01b17905550620001d8565b634e487b7160e01b600052604160045260246000fd5b600181811c908216806200009257607f821691505b602082108103620000b357634e487b7160e01b600052602260045260246000fd5b50919050565b601f8211156200010757600081815260208120601f850160051c81016020861015620000e25750805b601f850160051c820191505b818110156200010357828155600101620000ee565b5050505b505050565b81516001600160401b0381111562000128576200012862000067565b62000140816200013984546200007d565b84620000b9565b602080601f8311600181146200017857600084156200015f5750858301515b600019600386901b1c1916600185901b17855562000103565b600085815260208120601f198616915b82811015620001a95788860151825594840194600190910190840162000188565b5085821015620001c85787850151600019600388901b60f8161c191681555b5050505050600190811b01905550565b61151e80620001e86000396000f3fe608060405234801561001057600080fd5b506004361061016c5760003560e01c806340c10f19116100cd5780639dc29fac11610081578063a9059cbb11610066578063a9059cbb14610332578063cf30901214610345578063dd62ed3e1461036857600080fd5b80639dc29fac14610317578063a69df4b51461032a57600080fd5b806370a08231116100b257806370a08231146102bb578063893d20e8146102f157806395d89b411461030f57600080fd5b806340c10f191461028a57806342bf3cc11461029d57600080fd5b8063158ef93e1161012457806323b872dd1161010957806323b872dd1461024a5780633018205f1461025d578063313ce5671461027b57600080fd5b8063158ef93e1461021557806318160ddd1461023857600080fd5b8063095ea7b311610155578063095ea7b3146101ca57806310ef9b87146101ed57806313af40351461020257600080fd5b8063057838bd1461017157806306fdde03146101b5575b600080fd5b60075473ffffffffffffffffffffffffffffffffffffffff165b60405173ffffffffffffffffffffffffffffffffffffffff90911681526020015b60405180910390f35b6101bd6103ae565b6040516101ac91906110d5565b6101dd6101d8366004611118565b6103bd565b60405190151581526020016101ac565b6102006101fb36600461118b565b6103e1565b005b610200610210366004611246565b61047a565b60065474010000000000000000000000000000000000000000900460ff166101dd565b6002545b6040519081526020016101ac565b6101dd610258366004611261565b610490565b600a5473ffffffffffffffffffffffffffffffffffffffff1661018b565b604051601281526020016101ac565b610200610298366004611118565b6104be565b60055473ffffffffffffffffffffffffffffffffffffffff1661018b565b61023c6102c9366004611246565b73ffffffffffffffffffffffffffffffffffffffff1660009081526020819052604090205490565b60065473ffffffffffffffffffffffffffffffffffffffff1661018b565b6101bd6104d4565b610200610325366004611118565b6104de565b6102006104f0565b6101dd610340366004611118565b61056e565b600a5474010000000000000000000000000000000000000000900460ff166101dd565b61023c61037636600461129d565b73ffffffffffffffffffffffffffffffffffffffff918216600090815260016020908152604080832093909416825291909152205490565b60606103b8610586565b905090565b6000806103c8610618565b90506103d5818585610622565b60019150505b92915050565b6103ea88610634565b6103f5876000610718565b6008610402868883611398565b506009610410848683611398565b50600a805491151574010000000000000000000000000000000000000000027fffffffffffffffffffffff00000000000000000000000000000000000000000090921673ffffffffffffffffffffffffffffffffffffffff90931692909217179055505050505050565b610482610765565b61048d816001610718565b50565b60008061049b610618565b90506104a8858285610775565b6104b3858585610849565b506001949350505050565b6104c66108f4565b6104d08282610981565b5050565b60606103b86109dd565b6104e66108f4565b6104d082826109ec565b6104f8610765565b610500610a48565b600a80547fffffffffffffffffffffff00ffffffffffffffffffffffffffffffffffffffff1690556040517f19aad37188a1d3921e29eb3c66acf43d81975e107cb650d58cca878627955fd690600090a160408051600081526020810190915261056c90601090610a9c565b565b600080610579610618565b90506103d5818585610849565b606060088054610595906112ff565b80601f01602080910402602001604051908101604052809291908181526020018280546105c1906112ff565b801561060e5780601f106105e35761010080835404028352916020019161060e565b820191906000526020600020905b8154815290600101906020018083116105f157829003601f168201915b5050505050905090565b60006103b8610b2a565b61062f8383836001610b7c565b505050565b60065474010000000000000000000000000000000000000000900460ff1615610689576040517f0dc149f000000000000000000000000000000000000000000000000000000000815260040160405180910390fd5b600680547fffffffffffffffffffffff00ffffffffffffffffffffffffffffffffffffffff16740100000000000000000000000000000000000000001790556005805473ffffffffffffffffffffffffffffffffffffffff9092167fffffffffffffffffffffffff00000000000000000000000000000000000000009283161790556007805490911633179055565b6107228282610bc9565b80156104d0576040805173ffffffffffffffffffffffffffffffffffffffff841660208201526104d091600091015b604051602081830303815290604052610a9c565b61056c610770610618565b610ca9565b73ffffffffffffffffffffffffffffffffffffffff8381166000908152600160209081526040808320938616835292905220547fffffffffffffffffffffffffffffffffffffffffffffffffffffffffffffffff81146108435781811015610834576040517ffb8f41b200000000000000000000000000000000000000000000000000000000815273ffffffffffffffffffffffffffffffffffffffff8416600482015260248101829052604481018390526064015b60405180910390fd5b61084384848484036000610b7c565b50505050565b73ffffffffffffffffffffffffffffffffffffffff8316610899576040517f96c6fd1e0000000000000000000000000000000000000000000000000000000081526000600482015260240161082b565b73ffffffffffffffffffffffffffffffffffffffff82166108e9576040517fec442f050000000000000000000000000000000000000000000000000000000081526000600482015260240161082b565b61062f838383610cfd565b60006108fe610618565b600a5490915073ffffffffffffffffffffffffffffffffffffffff80831691161461048d57600a5474010000000000000000000000000000000000000000900460ff161561094f5761048d81610ca9565b6040517f16b45a5400000000000000000000000000000000000000000000000000000000815260040160405180910390fd5b73ffffffffffffffffffffffffffffffffffffffff82166109d1576040517fec442f050000000000000000000000000000000000000000000000000000000081526000600482015260240161082b565b6104d060008383610cfd565b606060098054610595906112ff565b73ffffffffffffffffffffffffffffffffffffffff8216610a3c576040517f96c6fd1e0000000000000000000000000000000000000000000000000000000081526000600482015260240161082b565b6104d082600083610cfd565b600a5474010000000000000000000000000000000000000000900460ff1661056c576040517fd00a654600000000000000000000000000000000000000000000000000000000815260040160405180910390fd5b6007546040517f62d40c2f00000000000000000000000000000000000000000000000000000000815273ffffffffffffffffffffffffffffffffffffffff909116906362d40c2f90610af490859085906004016114b3565b600060405180830381600087803b158015610b0e57600080fd5b505af1158015610b22573d6000803e3d6000fd5b505050505050565b60055460009073ffffffffffffffffffffffffffffffffffffffff163303610b7757507fffffffffffffffffffffffffffffffffffffffffffffffffffffffffffffffec36013560601c90565b503390565b610b898484846001610d33565b6040805173ffffffffffffffffffffffffffffffffffffffff80871660208301528516918101919091526060810183905261084390605190608001610751565b73ffffffffffffffffffffffffffffffffffffffff8216610c16576040517f465f799000000000000000000000000000000000000000000000000000000000815260040160405180910390fd5b600680547fffffffffffffffffffffffff00000000000000000000000000000000000000001673ffffffffffffffffffffffffffffffffffffffff841617905580156104d05760405173ffffffffffffffffffffffffffffffffffffffff831681527f4ffd725fc4a22075e9ec71c59edf9c38cdeb588a91b24fc5b61388c5be41282b9060200160405180910390a15050565b60065473ffffffffffffffffffffffffffffffffffffffff82811691161461048d576040517fbfb2c26800000000000000000000000000000000000000000000000000000000815260040160405180910390fd5b600a5474010000000000000000000000000000000000000000900460ff1615610d2857610d28610765565b61062f838383610e7b565b73ffffffffffffffffffffffffffffffffffffffff8416610d83576040517fe602df050000000000000000000000000000000000000000000000000000000081526000600482015260240161082b565b73ffffffffffffffffffffffffffffffffffffffff8316610dd3576040517f94280d620000000000000000000000000000000000000000000000000000000081526000600482015260240161082b565b73ffffffffffffffffffffffffffffffffffffffff80851660009081526001602090815260408083209387168352929052208290558015610843578273ffffffffffffffffffffffffffffffffffffffff168473ffffffffffffffffffffffffffffffffffffffff167f8c5be1e5ebec7d5bd14f71427d1e84f3dd0314c0f7b2291e5b200ac8c7c3b92584604051610e6d91815260200190565b60405180910390a350505050565b610e86838383610ec6565b6040805173ffffffffffffffffffffffffffffffffffffffff80861660208301528416918101919091526060810182905261062f90605090608001610751565b73ffffffffffffffffffffffffffffffffffffffff8316610efe578060026000828254610ef391906114d7565b90915550610fb09050565b73ffffffffffffffffffffffffffffffffffffffff831660009081526020819052604090205481811015610f84576040517fe450d38c00000000000000000000000000000000000000000000000000000000815273ffffffffffffffffffffffffffffffffffffffff85166004820152602481018290526044810183905260640161082b565b73ffffffffffffffffffffffffffffffffffffffff841660009081526020819052604090209082900390555b73ffffffffffffffffffffffffffffffffffffffff8216610fd957600280548290039055611005565b73ffffffffffffffffffffffffffffffffffffffff821660009081526020819052604090208054820190555b8173ffffffffffffffffffffffffffffffffffffffff168373ffffffffffffffffffffffffffffffffffffffff167fddf252ad1be2c89b69c2b068fc378daa952ba7f163c4a11628f55a4df523b3ef8360405161106491815260200190565b60405180910390a3505050565b6000815180845260005b818110156110975760208185018101518683018201520161107b565b5060006020828601015260207fffffffffffffffffffffffffffffffffffffffffffffffffffffffffffffffe0601f83011685010191505092915050565b6020815260006110e86020830184611071565b9392505050565b803573ffffffffffffffffffffffffffffffffffffffff8116811461111357600080fd5b919050565b6000806040838503121561112b57600080fd5b611134836110ef565b946020939093013593505050565b60008083601f84011261115457600080fd5b50813567ffffffffffffffff81111561116c57600080fd5b60208301915083602082850101111561118457600080fd5b9250929050565b60008060008060008060008060c0898b0312156111a757600080fd5b6111b0896110ef565b97506111be60208a016110ef565b9650604089013567ffffffffffffffff808211156111db57600080fd5b6111e78c838d01611142565b909850965060608b013591508082111561120057600080fd5b5061120d8b828c01611142565b9095509350611220905060808a016110ef565b915060a0890135801515811461123557600080fd5b809150509295985092959890939650565b60006020828403121561125857600080fd5b6110e8826110ef565b60008060006060848603121561127657600080fd5b61127f846110ef565b925061128d602085016110ef565b9150604084013590509250925092565b600080604083850312156112b057600080fd5b6112b9836110ef565b91506112c7602084016110ef565b90509250929050565b7f4e487b7100000000000000000000000000000000000000000000000000000000600052604160045260246000fd5b600181811c9082168061131357607f821691505b60208210810361134c577f4e487b7100000000000000000000000000000000000000000000000000000000600052602260045260246000fd5b50919050565b601f82111561062f57600081815260208120601f850160051c810160208610156113795750805b601f850160051c820191505b81811015610b2257828155600101611385565b67ffffffffffffffff8311156113b0576113b06112d0565b6113c4836113be83546112ff565b83611352565b6000601f84116001811461141657600085156113e05750838201355b7fffffffffffffffffffffffffffffffffffffffffffffffffffffffffffffffff600387901b1c1916600186901b1783556114ac565b6000838152602090207fffffffffffffffffffffffffffffffffffffffffffffffffffffffffffffffe0861690835b828110156114655786850135825560209485019460019092019101611445565b50868210156114a0577fffffffffffffffffffffffffffffffffffffffffffffffffffffffffffffffff60f88860031b161c19848701351681555b505060018560011b0183555b5050505050565b60ff831681526040602082015260006114cf6040830184611071565b949350505050565b808201808211156103db577f4e487b7100000000000000000000000000000000000000000000000000000000600052601160045260246000fdfea164736f6c6343000815000a",
  "devdoc": {
    "errors": {
      "ERC20InsufficientAllowance(address,uint256,uint256)": [
        {
          "details": "Indicates a failure with the `spender`’s `allowance`. Used in transfers.",
          "params": {
            "allowance": "Amount of tokens a `spender` is allowed to operate with.",
            "needed": "Minimum amount required to perform a transfer.",
            "spender": "Address that may be allowed to operate on tokens without being their owner."
          }
        }
      ],
      "ERC20InsufficientBalance(address,uint256,uint256)": [
        {
          "details": "Indicates an error related to the current `balance` of a `sender`. Used in transfers.",
          "params": {
            "balance": "Current balance for the interacting account.",
            "needed": "Minimum amount required to perform a transfer.",
            "sender": "Address whose tokens are being transferred."
          }
        }
      ],
      "ERC20InvalidApprover(address)": [
        {
          "details": "Indicates a failure with the `approver` of a token to be approved. Used in approvals.",
          "params": {
            "approver": "Address initiating an approval operation."
          }
        }
      ],
      "ERC20InvalidReceiver(address)": [
        {
          "details": "Indicates a failure with the token `receiver`. Used in transfers.",
          "params": {
            "receiver": "Address to which tokens are being transferred."
          }
        }
      ],
      "ERC20InvalidSender(address)": [
        {
          "details": "Indicates a failure with the token `sender`. Used in transfers.",
          "params": {
            "sender": "Address whose tokens are being transferred."
          }
        }
      ],
      "ERC20InvalidSpender(address)": [
        {
          "details": "Indicates a failure with the `spender` to be approved. Used in approvals.",
          "params": {
            "spender": "Address that may be allowed to operate on tokens without being their owner."
          }
        }
      ]
    },
    "events": {
      "Approval(address,address,uint256)": {
        "details": "Emitted when the allowance of a `spender` for an `owner` is set by a call to {approve}. `value` is the new allowance."
      },
      "Transfer(address,address,uint256)": {
        "details": "Emitted when `value` tokens are moved from one account (`from`) to another (`to`). Note that `value` may be zero."
      }
    },
    "kind": "dev",
    "methods": {
      "allowance(address,address)": {
        "details": "See {IERC20-allowance}."
      },
      "approve(address,uint256)": {
        "details": "See {IERC20-approve}. NOTE: If `value` is the maximum `uint256`, the allowance is not updated on `transferFrom`. This is semantically equivalent to an infinite approval. Requirements: - `spender` cannot be the zero address."
      },
      "balanceOf(address)": {
        "details": "See {IERC20-balanceOf}."
      },
      "decimals()": {
        "details": "Returns the number of decimals used to get its user representation. For example, if `decimals` equals `2`, a balance of `505` tokens should be displayed to a user as `5.05` (`505 / 10 ** 2`). Tokens usually opt for a value of 18, imitating the relationship between Ether and Wei. This is the default value returned by this function, unless it's overridden. NOTE: This information is only used for _display_ purposes: it in no way affects any of the arithmetic of the contract, including {IERC20-balanceOf} and {IERC20-transfer}."
      },
      "totalSupply()": {
        "details": "See {IERC20-totalSupply}."
      },
      "transfer(address,uint256)": {
        "details": "See {IERC20-transfer}. Requirements: - `to` cannot be the zero address. - the caller must have a balance of at least `value`."
      },
      "transferFrom(address,address,uint256)": {
        "details": "See {IERC20-transferFrom}. Emits an {Approval} event indicating the updated allowance. This is not required by the EIP. See the note at the beginning of {ERC20}. NOTE: Does not update the allowance if the current allowance is the maximum `uint256`. Requirements: - `from` and `to` cannot be the zero address. - `from` must have a balance of at least `value`. - the caller must have allowance for ``from``'s tokens of at least `value`."
      }
    },
    "version": 1
  },
  "userdoc": {
    "kind": "user",
    "methods": {},
    "version": 1
  },
  "storageLayout": {
    "storage": [
      {
        "astId": 283,
        "contract": "contracts/tokens/erc20/presets/ERC20DefaultTokenImpl.sol:ERC20DefaultTokenImpl",
        "label": "_balances",
        "offset": 0,
        "slot": "0",
        "type": "t_mapping(t_address,t_uint256)"
      },
      {
        "astId": 289,
        "contract": "contracts/tokens/erc20/presets/ERC20DefaultTokenImpl.sol:ERC20DefaultTokenImpl",
        "label": "_allowances",
        "offset": 0,
        "slot": "1",
        "type": "t_mapping(t_address,t_mapping(t_address,t_uint256))"
      },
      {
        "astId": 291,
        "contract": "contracts/tokens/erc20/presets/ERC20DefaultTokenImpl.sol:ERC20DefaultTokenImpl",
        "label": "_totalSupply",
        "offset": 0,
        "slot": "2",
        "type": "t_uint256"
      },
      {
        "astId": 293,
        "contract": "contracts/tokens/erc20/presets/ERC20DefaultTokenImpl.sol:ERC20DefaultTokenImpl",
        "label": "_name",
        "offset": 0,
        "slot": "3",
        "type": "t_string_storage"
      },
      {
        "astId": 295,
        "contract": "contracts/tokens/erc20/presets/ERC20DefaultTokenImpl.sol:ERC20DefaultTokenImpl",
        "label": "_symbol",
        "offset": 0,
        "slot": "4",
        "type": "t_string_storage"
      },
      {
        "astId": 5984,
        "contract": "contracts/tokens/erc20/presets/ERC20DefaultTokenImpl.sol:ERC20DefaultTokenImpl",
        "label": "_gateway",
        "offset": 0,
        "slot": "5",
        "type": "t_address"
      },
      {
        "astId": 5255,
        "contract": "contracts/tokens/erc20/presets/ERC20DefaultTokenImpl.sol:ERC20DefaultTokenImpl",
        "label": "_owner",
        "offset": 0,
        "slot": "6",
        "type": "t_address"
      },
      {
        "astId": 8326,
        "contract": "contracts/tokens/erc20/presets/ERC20DefaultTokenImpl.sol:ERC20DefaultTokenImpl",
        "label": "_initialized",
        "offset": 20,
        "slot": "6",
        "type": "t_bool"
      },
      {
        "astId": 6173,
        "contract": "contracts/tokens/erc20/presets/ERC20DefaultTokenImpl.sol:ERC20DefaultTokenImpl",
        "label": "_tokenRegistry",
        "offset": 0,
        "slot": "7",
        "type": "t_address"
      },
      {
        "astId": 7912,
        "contract": "contracts/tokens/erc20/presets/ERC20DefaultTokenImpl.sol:ERC20DefaultTokenImpl",
        "label": "_name",
        "offset": 0,
        "slot": "8",
        "type": "t_string_storage"
      },
      {
        "astId": 7914,
        "contract": "contracts/tokens/erc20/presets/ERC20DefaultTokenImpl.sol:ERC20DefaultTokenImpl",
        "label": "_symbol",
        "offset": 0,
        "slot": "9",
        "type": "t_string_storage"
      },
      {
        "astId": 7916,
        "contract": "contracts/tokens/erc20/presets/ERC20DefaultTokenImpl.sol:ERC20DefaultTokenImpl",
        "label": "_controller",
        "offset": 0,
        "slot": "10",
        "type": "t_address"
      },
      {
        "astId": 7918,
        "contract": "contracts/tokens/erc20/presets/ERC20DefaultTokenImpl.sol:ERC20DefaultTokenImpl",
        "label": "_locked",
        "offset": 20,
        "slot": "10",
        "type": "t_bool"
      }
    ],
    "types": {
      "t_address": {
        "encoding": "inplace",
        "label": "address",
        "numberOfBytes": "20"
      },
      "t_bool": {
        "encoding": "inplace",
        "label": "bool",
        "numberOfBytes": "1"
      },
      "t_mapping(t_address,t_mapping(t_address,t_uint256))": {
        "encoding": "mapping",
        "key": "t_address",
        "label": "mapping(address => mapping(address => uint256))",
        "numberOfBytes": "32",
        "value": "t_mapping(t_address,t_uint256)"
      },
      "t_mapping(t_address,t_uint256)": {
        "encoding": "mapping",
        "key": "t_address",
        "label": "mapping(address => uint256)",
        "numberOfBytes": "32",
        "value": "t_uint256"
      },
      "t_string_storage": {
        "encoding": "bytes",
        "label": "string",
        "numberOfBytes": "32"
      },
      "t_uint256": {
        "encoding": "inplace",
        "label": "uint256",
        "numberOfBytes": "32"
      }
    }
  }
}