{
  "address": "0xF8316a310703c6C43eD281aE492aEdb901Cb6727",
  "abi": [
    {
      "inputs": [
        {
          "internalType": "address",
          "name": "owner",
          "type": "address"
        }
      ],
      "stateMutability": "nonpayable",
      "type": "constructor"
    },
    {
      "inputs": [],
      "name": "AlreadyInitialized",
      "type": "error"
    },
    {
      "inputs": [],
      "name": "GuardianAlreadyExists",
      "type": "error"
    },
    {
      "inputs": [],
      "name": "GuardianDoesntExist",
      "type": "error"
    },
    {
      "inputs": [],
      "name": "GuardianIsTheZeroAddress",
      "type": "error"
    },
    {
      "inputs": [],
      "name": "InvalidGuardianSignature",
      "type": "error"
    },
    {
      "inputs": [],
      "name": "MsgSenderIsNotTheContractGuardian",
      "type": "error"
    },
    {
      "inputs": [],
      "name": "MsgSenderIsNotTheContractOwner",
      "type": "error"
    },
    {
      "inputs": [],
      "name": "MsgSenderIsNotTheToken",
      "type": "error"
    },
    {
      "inputs": [],
      "name": "MsgSenderIsNotTheTokenFactory",
      "type": "error"
    },
    {
      "inputs": [],
      "name": "OwnerIsTheZeroAddress",
      "type": "error"
    },
    {
      "inputs": [],
      "name": "TokenAlreadyExists",
      "type": "error"
    },
    {
      "inputs": [],
      "name": "TokenFactoryAlreadyExists",
      "type": "error"
    },
    {
      "inputs": [],
      "name": "TokenFactoryDoesntExist",
      "type": "error"
    },
    {
      "inputs": [],
      "name": "TokenFactoryIsTheZeroAddress",
      "type": "error"
    },
    {
      "inputs": [],
      "name": "TokenIsTheZeroAddress",
      "type": "error"
    },
    {
      "anonymous": false,
      "inputs": [
        {
          "indexed": false,
          "internalType": "address",
          "name": "guardian",
          "type": "address"
        }
      ],
      "name": "GuardianAdded",
      "type": "event"
    },
    {
      "anonymous": false,
      "inputs": [
        {
          "indexed": false,
          "internalType": "address",
          "name": "guardian",
          "type": "address"
        }
      ],
      "name": "GuardianRemoved",
      "type": "event"
    },
    {
      "anonymous": false,
      "inputs": [
        {
          "indexed": false,
          "internalType": "address[]",
          "name": "guardians",
          "type": "address[]"
        }
      ],
      "name": "Initialized",
      "type": "event"
    },
    {
      "anonymous": false,
      "inputs": [
        {
          "indexed": false,
          "internalType": "address",
          "name": "owner",
          "type": "address"
        }
      ],
      "name": "OwnerUpdated",
      "type": "event"
    },
    {
      "anonymous": false,
      "inputs": [
        {
          "indexed": false,
          "internalType": "address",
          "name": "token",
          "type": "address"
        }
      ],
      "name": "TokenAdded",
      "type": "event"
    },
    {
      "anonymous": false,
      "inputs": [
        {
          "indexed": false,
          "internalType": "address",
          "name": "token",
          "type": "address"
        },
        {
          "indexed": false,
          "internalType": "address",
          "name": "owner",
          "type": "address"
        },
        {
          "indexed": false,
          "internalType": "address",
          "name": "spender",
          "type": "address"
        },
        {
          "indexed": false,
          "internalType": "uint256",
          "name": "amount",
          "type": "uint256"
        }
      ],
      "name": "TokenApproval",
      "type": "event"
    },
    {
      "anonymous": false,
      "inputs": [
        {
          "indexed": false,
          "internalType": "address",
          "name": "token",
          "type": "address"
        },
        {
          "indexed": false,
          "internalType": "address",
          "name": "tokenFactory",
          "type": "address"
        }
      ],
      "name": "TokenCreated",
      "type": "event"
    },
    {
      "anonymous": false,
      "inputs": [
        {
          "indexed": false,
          "internalType": "address",
          "name": "tokenFactory",
          "type": "address"
        }
      ],
      "name": "TokenFactoryAdded",
      "type": "event"
    },
    {
      "anonymous": false,
      "inputs": [
        {
          "indexed": false,
          "internalType": "address",
          "name": "tokenFactory",
          "type": "address"
        }
      ],
      "name": "TokenFactoryRemoved",
      "type": "event"
    },
    {
      "anonymous": false,
      "inputs": [
        {
          "indexed": false,
          "internalType": "address",
          "name": "token",
          "type": "address"
        },
        {
          "indexed": false,
          "internalType": "address",
          "name": "owner",
          "type": "address"
        }
      ],
      "name": "TokenOwnerUpdated",
      "type": "event"
    },
    {
      "anonymous": false,
      "inputs": [
        {
          "indexed": false,
          "internalType": "address",
          "name": "token",
          "type": "address"
        },
        {
          "indexed": false,
          "internalType": "address",
          "name": "from",
          "type": "address"
        },
        {
          "indexed": false,
          "internalType": "address",
          "name": "to",
          "type": "address"
        },
        {
          "indexed": false,
          "internalType": "uint256",
          "name": "amount",
          "type": "uint256"
        }
      ],
      "name": "TokenTransfer",
      "type": "event"
    },
    {
      "inputs": [
        {
          "internalType": "address",
          "name": "guardian",
          "type": "address"
        }
      ],
      "name": "addGuardian",
      "outputs": [],
      "stateMutability": "nonpayable",
      "type": "function"
    },
    {
      "inputs": [
        {
          "internalType": "address",
          "name": "token",
          "type": "address"
        }
      ],
      "name": "addToken",
      "outputs": [],
      "stateMutability": "nonpayable",
      "type": "function"
    },
    {
      "inputs": [
        {
          "internalType": "address",
          "name": "tokenFactory",
          "type": "address"
        }
      ],
      "name": "addTokenFactory",
      "outputs": [],
      "stateMutability": "nonpayable",
      "type": "function"
    },
    {
      "inputs": [
        {
          "internalType": "address",
          "name": "tokenImpl",
          "type": "address"
        },
        {
          "internalType": "bytes32",
          "name": "salt",
          "type": "bytes32"
        },
        {
          "internalType": "bytes32",
          "name": "initHash",
          "type": "bytes32"
        },
        {
          "internalType": "bytes",
          "name": "guardianSignature",
          "type": "bytes"
        }
      ],
      "name": "createToken",
      "outputs": [
        {
          "internalType": "address",
          "name": "token",
          "type": "address"
        }
      ],
      "stateMutability": "nonpayable",
      "type": "function"
    },
    {
      "inputs": [
        {
          "internalType": "address",
          "name": "owner",
          "type": "address"
        },
        {
          "internalType": "address",
          "name": "spender",
          "type": "address"
        },
        {
          "internalType": "uint256",
          "name": "amount",
          "type": "uint256"
        }
      ],
      "name": "emitTokenApproval",
      "outputs": [],
      "stateMutability": "nonpayable",
      "type": "function"
    },
    {
      "inputs": [
        {
          "internalType": "address",
          "name": "owner",
          "type": "address"
        }
      ],
      "name": "emitTokenOwnerUpdated",
      "outputs": [],
      "stateMutability": "nonpayable",
      "type": "function"
    },
    {
      "inputs": [
        {
          "internalType": "address",
          "name": "from",
          "type": "address"
        },
        {
          "internalType": "address",
          "name": "to",
          "type": "address"
        },
        {
          "internalType": "uint256",
          "name": "amount",
          "type": "uint256"
        }
      ],
      "name": "emitTokenTransfer",
      "outputs": [],
      "stateMutability": "nonpayable",
      "type": "function"
    },
    {
      "inputs": [],
      "name": "getOwner",
      "outputs": [
        {
          "internalType": "address",
          "name": "",
          "type": "address"
        }
      ],
      "stateMutability": "view",
      "type": "function"
    },
    {
      "inputs": [
        {
          "internalType": "address",
          "name": "guardian",
          "type": "address"
        }
      ],
      "name": "hasGuardian",
      "outputs": [
        {
          "internalType": "bool",
          "name": "",
          "type": "bool"
        }
      ],
      "stateMutability": "view",
      "type": "function"
    },
    {
      "inputs": [
        {
          "internalType": "address",
          "name": "token",
          "type": "address"
        }
      ],
      "name": "hasToken",
      "outputs": [
        {
          "internalType": "bool",
          "name": "",
          "type": "bool"
        }
      ],
      "stateMutability": "view",
      "type": "function"
    },
    {
      "inputs": [
        {
          "internalType": "address",
          "name": "tokenFactory",
          "type": "address"
        }
      ],
      "name": "hasTokenFactory",
      "outputs": [
        {
          "internalType": "bool",
          "name": "",
          "type": "bool"
        }
      ],
      "stateMutability": "view",
      "type": "function"
    },
    {
      "inputs": [
        {
          "internalType": "address[]",
          "name": "guardians",
          "type": "address[]"
        }
      ],
      "name": "initialize",
      "outputs": [],
      "stateMutability": "nonpayable",
      "type": "function"
    },
    {
      "inputs": [],
      "name": "initialized",
      "outputs": [
        {
          "internalType": "bool",
          "name": "",
          "type": "bool"
        }
      ],
      "stateMutability": "view",
      "type": "function"
    },
    {
      "inputs": [
        {
          "internalType": "address",
          "name": "guardian",
          "type": "address"
        }
      ],
      "name": "removeGuardian",
      "outputs": [],
      "stateMutability": "nonpayable",
      "type": "function"
    },
    {
      "inputs": [
        {
          "internalType": "address",
          "name": "tokenFactory",
          "type": "address"
        }
      ],
      "name": "removeTokenFactory",
      "outputs": [],
      "stateMutability": "nonpayable",
      "type": "function"
    },
    {
      "inputs": [
        {
          "internalType": "address",
          "name": "owner",
          "type": "address"
        }
      ],
      "name": "setOwner",
      "outputs": [],
      "stateMutability": "nonpayable",
      "type": "function"
    }
  ],
  "transactionHash": "0x1c5df99094eb9a74e1fb22d6ad38ea9dba010a4206995d4841b389bd483b96f8",
  "args": [
    "0xF2a1699320517FA9C5c749EA9DfB5594Bb9862e5"
  ],
  "numDeployments": 1,
  "solcInputHash": "6192676cc397315b66316256ae4c7243",
  "bytecode": "0x608060405234801561000f575f80fd5b506040516118fb3803806118fb83398101604081905261002e91610071565b8080806001600160a01b038116156100465780610048565b335b5f80546001600160a01b0319166001600160a01b03929092169190911790555061009e92505050565b5f60208284031215610081575f80fd5b81516001600160a01b0381168114610097575f80fd5b9392505050565b611850806100ab5f395ff3fe608060405234801561000f575f80fd5b50600436106100fb575f3560e01c80639ce1936511610093578063a882528411610063578063a882528414610263578063d48bfca714610276578063e2684a8314610289578063fd836ab81461029c575f80fd5b80639ce19365146101f2578063a0fcedbb14610205578063a224cee71461023d578063a526d83b14610250575f80fd5b806371404156116100ce5780637140415614610156578063893d20e814610169578063937529ef146101a75780639bb0f599146101ba575f80fd5b806313af4035146100ff578063158ef93e146101145780631be44859146101305780632d81d8fd14610143575b5f80fd5b61011261010d366004611565565b6102af565b005b60025460ff165b60405190151581526020015b60405180910390f35b61011261013e36600461157e565b61036e565b610112610151366004611565565b61041d565b610112610164366004611565565b6104b7565b5f5473ffffffffffffffffffffffffffffffffffffffff165b60405173ffffffffffffffffffffffffffffffffffffffff9091168152602001610127565b6101126101b5366004611565565b610643565b61011b6101c8366004611565565b73ffffffffffffffffffffffffffffffffffffffff165f9081526003602052604090205460ff1690565b610112610200366004611565565b6107cf565b61011b610213366004611565565b73ffffffffffffffffffffffffffffffffffffffff165f9081526004602052604090205460ff1690565b61011261024b3660046115b7565b61095f565b61011261025e366004611565565b610a74565b610182610271366004611626565b610c05565b610112610284366004611565565b610d40565b61011b610297366004611565565b610ed0565b6101126102aa36600461157e565b610ee0565b5f5473ffffffffffffffffffffffffffffffffffffffff163373ffffffffffffffffffffffffffffffffffffffff1614610315576040517fcd52968d00000000000000000000000000000000000000000000000000000000815260040160405180910390fd5b73ffffffffffffffffffffffffffffffffffffffff8116610362576040517f465f799000000000000000000000000000000000000000000000000000000000815260040160405180910390fd5b61036b81610f86565b50565b335f9081526003602052604090205460ff166103b6576040517f5c81ee7b00000000000000000000000000000000000000000000000000000000815260040160405180910390fd5b6040805133815273ffffffffffffffffffffffffffffffffffffffff8086166020830152841691810191909152606081018290527fae33cb06d7303f889d953bb09540983050163c1c4c98b330db432a911cfb63fd906080015b60405180910390a1505050565b335f9081526003602052604090205460ff16610465576040517f5c81ee7b00000000000000000000000000000000000000000000000000000000815260040160405180910390fd5b6040805133815273ffffffffffffffffffffffffffffffffffffffff831660208201527f58c4666d1756c527d157a91550f4ca84593b1353eea2528168c1ff4be211370691015b60405180910390a150565b5f5473ffffffffffffffffffffffffffffffffffffffff163373ffffffffffffffffffffffffffffffffffffffff161461051d576040517fcd52968d00000000000000000000000000000000000000000000000000000000815260040160405180910390fd5b73ffffffffffffffffffffffffffffffffffffffff811661056a576040517f0398ea3f00000000000000000000000000000000000000000000000000000000815260040160405180910390fd5b73ffffffffffffffffffffffffffffffffffffffff81165f9081526001602052604090205460ff166105c8576040517ff9c7c4e100000000000000000000000000000000000000000000000000000000815260040160405180910390fd5b73ffffffffffffffffffffffffffffffffffffffff81165f8181526001602090815260409182902080547fffffffffffffffffffffffffffffffffffffffffffffffffffffffffffffff0016905590519182527fb8107d0c6b40be480ce3172ee66ba6d64b71f6b1685a851340036e6e2e3e3c5291016104ac565b5f5473ffffffffffffffffffffffffffffffffffffffff163373ffffffffffffffffffffffffffffffffffffffff16146106a9576040517fcd52968d00000000000000000000000000000000000000000000000000000000815260040160405180910390fd5b73ffffffffffffffffffffffffffffffffffffffff81166106f6576040517f449bb61500000000000000000000000000000000000000000000000000000000815260040160405180910390fd5b73ffffffffffffffffffffffffffffffffffffffff81165f9081526004602052604090205460ff16610754576040517fd9ba596300000000000000000000000000000000000000000000000000000000815260040160405180910390fd5b73ffffffffffffffffffffffffffffffffffffffff81165f8181526004602090815260409182902080547fffffffffffffffffffffffffffffffffffffffffffffffffffffffffffffff0016905590519182527fd1fd5274f793d20291c0abfe42e1ef63213a11b34996d485f7afb8fe0142485191016104ac565b5f5473ffffffffffffffffffffffffffffffffffffffff163373ffffffffffffffffffffffffffffffffffffffff1614610835576040517fcd52968d00000000000000000000000000000000000000000000000000000000815260040160405180910390fd5b73ffffffffffffffffffffffffffffffffffffffff8116610882576040517f449bb61500000000000000000000000000000000000000000000000000000000815260040160405180910390fd5b73ffffffffffffffffffffffffffffffffffffffff81165f9081526004602052604090205460ff16156108e1576040517fb491dc8700000000000000000000000000000000000000000000000000000000815260040160405180910390fd5b73ffffffffffffffffffffffffffffffffffffffff81165f8181526004602090815260409182902080547fffffffffffffffffffffffffffffffffffffffffffffffffffffffffffffff0016600117905590519182527f45eb8ac5344d2d3f306550fe6e969ca4190526313c512afed851d052bf2ab2fd91016104ac565b5f5473ffffffffffffffffffffffffffffffffffffffff163373ffffffffffffffffffffffffffffffffffffffff16146109c5576040517fcd52968d00000000000000000000000000000000000000000000000000000000815260040160405180910390fd5b60025460ff1615610a02576040517f0dc149f000000000000000000000000000000000000000000000000000000000815260040160405180910390fd5b600280547fffffffffffffffffffffffffffffffffffffffffffffffffffffffffffffff00166001179055610a378282610fcc565b7fe58d4b3592c74e580b584cc31679cad3eefea91577f47aabd1764352d4b4901b8282604051610a689291906116b2565b60405180910390a15050565b5f5473ffffffffffffffffffffffffffffffffffffffff163373ffffffffffffffffffffffffffffffffffffffff1614610ada576040517fcd52968d00000000000000000000000000000000000000000000000000000000815260040160405180910390fd5b73ffffffffffffffffffffffffffffffffffffffff8116610b27576040517f0398ea3f00000000000000000000000000000000000000000000000000000000815260040160405180910390fd5b73ffffffffffffffffffffffffffffffffffffffff81165f9081526001602052604090205460ff1615610b86576040517ffecca77f00000000000000000000000000000000000000000000000000000000815260040160405180910390fd5b73ffffffffffffffffffffffffffffffffffffffff81165f8181526001602081815260409283902080547fffffffffffffffffffffffffffffffffffffffffffffffffffffffffffffff001690921790915590519182527f038596bb31e2e7d3d9f184d4c98b310103f6d7f5830e5eec32bffe6f1728f96991016104ac565b335f9081526004602052604081205460ff16610c4d576040517f18725c8200000000000000000000000000000000000000000000000000000000815260040160405180910390fd5b610c58848484611107565b610c62868661118b565b905073ffffffffffffffffffffffffffffffffffffffff8116610cb1576040517fc991cbb100000000000000000000000000000000000000000000000000000000815260040160405180910390fd5b73ffffffffffffffffffffffffffffffffffffffff81165f8181526003602090815260409182902080547fffffffffffffffffffffffffffffffffffffffffffffffffffffffffffffff00166001179055815192835233908301527fd5f9bdf12adf29dab0248c349842c3822d53ae2bb4f36352f301630d018c8139910160405180910390a195945050505050565b5f5473ffffffffffffffffffffffffffffffffffffffff163373ffffffffffffffffffffffffffffffffffffffff1614610da6576040517fcd52968d00000000000000000000000000000000000000000000000000000000815260040160405180910390fd5b73ffffffffffffffffffffffffffffffffffffffff8116610df3576040517f2a3191c500000000000000000000000000000000000000000000000000000000815260040160405180910390fd5b73ffffffffffffffffffffffffffffffffffffffff81165f9081526003602052604090205460ff1615610e52576040517fc991cbb100000000000000000000000000000000000000000000000000000000815260040160405180910390fd5b73ffffffffffffffffffffffffffffffffffffffff81165f8181526003602090815260409182902080547fffffffffffffffffffffffffffffffffffffffffffffffffffffffffffffff0016600117905590519182527f784c8f4dbf0ffedd6e72c76501c545a70f8b203b30a26ce542bf92ba87c248a491016104ac565b5f610eda826111df565b92915050565b335f9081526003602052604090205460ff16610f28576040517f5c81ee7b00000000000000000000000000000000000000000000000000000000815260040160405180910390fd5b6040805133815273ffffffffffffffffffffffffffffffffffffffff8086166020830152841691810191909152606081018290527f2c6e87be19eb54f68d01e25832a3ea2b8247b5cc92fcc754d67e161193a154f590608001610410565b60405173ffffffffffffffffffffffffffffffffffffffff821681527f4ffd725fc4a22075e9ec71c59edf9c38cdeb588a91b24fc5b61388c5be41282b906020016104ac565b805f5b81811015611101575f848483818110610fea57610fea61170a565b9050602002016020810190610fff9190611565565b905073ffffffffffffffffffffffffffffffffffffffff811661104e576040517f0398ea3f00000000000000000000000000000000000000000000000000000000815260040160405180910390fd5b73ffffffffffffffffffffffffffffffffffffffff81165f9081526001602052604090205460ff16156110ad576040517ffecca77f00000000000000000000000000000000000000000000000000000000815260040160405180910390fd5b73ffffffffffffffffffffffffffffffffffffffff165f90815260016020819052604090912080547fffffffffffffffffffffffffffffffffffffffffffffffffffffffffffffff00168217905501610fcf565b50505050565b61115061114b83838080601f0160208091040260200160405190810160405280939291908181526020018383808284375f92019190915250889392505061122e9050565b6111df565b611186576040517f07a81bc400000000000000000000000000000000000000000000000000000000815260040160405180910390fd5b505050565b5f818360405161119a90611531565b73ffffffffffffffffffffffffffffffffffffffff90911681526020018190604051809103905ff5905080156111cd5760015b6111d857505f610eda565b9392505050565b5f805473ffffffffffffffffffffffffffffffffffffffff83811691161480610eda57505073ffffffffffffffffffffffffffffffffffffffff165f9081526001602052604090205460ff1690565b5f805f61123b8585611250565b9150915061124881611292565b509392505050565b5f808251604103611284576020830151604084015160608501515f1a61127887828585611449565b9450945050505061128b565b505f905060025b9250929050565b5f8160048111156112a5576112a5611737565b036112ad5750565b60018160048111156112c1576112c1611737565b0361132d576040517f08c379a000000000000000000000000000000000000000000000000000000000815260206004820152601860248201527f45434453413a20696e76616c6964207369676e6174757265000000000000000060448201526064015b60405180910390fd5b600281600481111561134157611341611737565b036113a8576040517f08c379a000000000000000000000000000000000000000000000000000000000815260206004820152601f60248201527f45434453413a20696e76616c6964207369676e6174757265206c656e677468006044820152606401611324565b60038160048111156113bc576113bc611737565b0361036b576040517f08c379a000000000000000000000000000000000000000000000000000000000815260206004820152602260248201527f45434453413a20696e76616c6964207369676e6174757265202773272076616c60448201527f75650000000000000000000000000000000000000000000000000000000000006064820152608401611324565b5f807f7fffffffffffffffffffffffffffffff5d576e7357a4501ddfe92f46681b20a083111561147e57505f90506003611528565b604080515f8082526020820180845289905260ff881692820192909252606081018690526080810185905260019060a0016020604051602081039080840390855afa1580156114cf573d5f803e3d5ffd5b50506040517fffffffffffffffffffffffffffffffffffffffffffffffffffffffffffffffe0015191505073ffffffffffffffffffffffffffffffffffffffff8116611522575f60019250925050611528565b91505f90505b94509492505050565b60df8061176583390190565b803573ffffffffffffffffffffffffffffffffffffffff81168114611560575f80fd5b919050565b5f60208284031215611575575f80fd5b6111d88261153d565b5f805f60608486031215611590575f80fd5b6115998461153d565b92506115a76020850161153d565b9150604084013590509250925092565b5f80602083850312156115c8575f80fd5b823567ffffffffffffffff808211156115df575f80fd5b818501915085601f8301126115f2575f80fd5b813581811115611600575f80fd5b8660208260051b8501011115611614575f80fd5b60209290920196919550909350505050565b5f805f805f6080868803121561163a575f80fd5b6116438661153d565b94506020860135935060408601359250606086013567ffffffffffffffff8082111561166d575f80fd5b818801915088601f830112611680575f80fd5b81358181111561168e575f80fd5b89602082850101111561169f575f80fd5b9699959850939650602001949392505050565b60208082528181018390525f908460408401835b868110156116ff5773ffffffffffffffffffffffffffffffffffffffff6116ec8461153d565b16825291830191908301906001016116c6565b509695505050505050565b7f4e487b71000000000000000000000000000000000000000000000000000000005f52603260045260245ffd5b7f4e487b71000000000000000000000000000000000000000000000000000000005f52602160045260245ffdfe608060405234801561000f575f80fd5b506040516100df3803806100df83398101604081905261002e91610055565b7f360894a13ba1a3210667c828492db98dca3e2076cc3735a920a3ca505d382bbc55610082565b5f60208284031215610065575f80fd5b81516001600160a01b038116811461007b575f80fd5b9392505050565b60518061008e5f395ff3fe60806040527f360894a13ba1a3210667c828492db98dca3e2076cc3735a920a3ca505d382bbc54365f80375f80365f845af490503d5f803e80603f573d5ffd5b503d5ff3fea164736f6c6343000815000aa164736f6c6343000815000a",
  "devdoc": {
    "kind": "dev",
    "methods": {},
    "version": 1
  },
  "userdoc": {
    "kind": "user",
    "methods": {},
    "version": 1
  },
  "storageLayout": {
    "storage": [
      {
        "astId": 6300,
        "contract": "contracts/token/erc20/ERC20TokenRegistry.sol:ERC20TokenRegistry",
        "label": "_owner",
        "offset": 0,
        "slot": "0",
        "type": "t_address"
      },
      {
        "astId": 6086,
        "contract": "contracts/token/erc20/ERC20TokenRegistry.sol:ERC20TokenRegistry",
        "label": "_guardians",
        "offset": 0,
        "slot": "1",
        "type": "t_mapping(t_address,t_bool)"
      },
      {
        "astId": 6769,
        "contract": "contracts/token/erc20/ERC20TokenRegistry.sol:ERC20TokenRegistry",
        "label": "_initialized",
        "offset": 0,
        "slot": "2",
        "type": "t_bool"
      },
      {
        "astId": 8115,
        "contract": "contracts/token/erc20/ERC20TokenRegistry.sol:ERC20TokenRegistry",
        "label": "_tokens",
        "offset": 0,
        "slot": "3",
        "type": "t_mapping(t_address,t_bool)"
      },
      {
        "astId": 8119,
        "contract": "contracts/token/erc20/ERC20TokenRegistry.sol:ERC20TokenRegistry",
        "label": "_tokenFactories",
        "offset": 0,
        "slot": "4",
        "type": "t_mapping(t_address,t_bool)"
      }
    ],
    "types": {
      "t_address": {
        "encoding": "inplace",
        "label": "address",
        "numberOfBytes": "20"
      },
      "t_bool": {
        "encoding": "inplace",
        "label": "bool",
        "numberOfBytes": "1"
      },
      "t_mapping(t_address,t_bool)": {
        "encoding": "mapping",
        "key": "t_address",
        "label": "mapping(address => bool)",
        "numberOfBytes": "32",
        "value": "t_bool"
      }
    }
  }
}