{
  "address": "0xd1916aEa513d1CdDb92c73E6EcABC3B5c4AEa5F8",
  "abi": [
    {
      "inputs": [],
      "stateMutability": "nonpayable",
      "type": "constructor"
    },
    {
      "inputs": [
        {
          "internalType": "address",
          "name": "target",
          "type": "address"
        }
      ],
      "name": "AddressEmptyCode",
      "type": "error"
    },
    {
      "inputs": [
        {
          "internalType": "address",
          "name": "account",
          "type": "address"
        }
      ],
      "name": "AddressInsufficientBalance",
      "type": "error"
    },
    {
      "inputs": [],
      "name": "AlreadyInitialized",
      "type": "error"
    },
    {
      "inputs": [
        {
          "internalType": "address",
          "name": "spender",
          "type": "address"
        },
        {
          "internalType": "uint256",
          "name": "allowance",
          "type": "uint256"
        },
        {
          "internalType": "uint256",
          "name": "needed",
          "type": "uint256"
        }
      ],
      "name": "ERC20InsufficientAllowance",
      "type": "error"
    },
    {
      "inputs": [
        {
          "internalType": "address",
          "name": "sender",
          "type": "address"
        },
        {
          "internalType": "uint256",
          "name": "balance",
          "type": "uint256"
        },
        {
          "internalType": "uint256",
          "name": "needed",
          "type": "uint256"
        }
      ],
      "name": "ERC20InsufficientBalance",
      "type": "error"
    },
    {
      "inputs": [
        {
          "internalType": "address",
          "name": "approver",
          "type": "address"
        }
      ],
      "name": "ERC20InvalidApprover",
      "type": "error"
    },
    {
      "inputs": [
        {
          "internalType": "address",
          "name": "receiver",
          "type": "address"
        }
      ],
      "name": "ERC20InvalidReceiver",
      "type": "error"
    },
    {
      "inputs": [
        {
          "internalType": "address",
          "name": "sender",
          "type": "address"
        }
      ],
      "name": "ERC20InvalidSender",
      "type": "error"
    },
    {
      "inputs": [
        {
          "internalType": "address",
          "name": "spender",
          "type": "address"
        }
      ],
      "name": "ERC20InvalidSpender",
      "type": "error"
    },
    {
      "inputs": [],
      "name": "FailedInnerCall",
      "type": "error"
    },
    {
      "inputs": [
        {
          "internalType": "address",
          "name": "token",
          "type": "address"
        }
      ],
      "name": "SafeERC20FailedOperation",
      "type": "error"
    },
    {
      "anonymous": false,
      "inputs": [
        {
          "indexed": true,
          "internalType": "address",
          "name": "owner",
          "type": "address"
        },
        {
          "indexed": true,
          "internalType": "address",
          "name": "spender",
          "type": "address"
        },
        {
          "indexed": false,
          "internalType": "uint256",
          "name": "value",
          "type": "uint256"
        }
      ],
      "name": "Approval",
      "type": "event"
    },
    {
      "anonymous": false,
      "inputs": [
        {
          "indexed": true,
          "internalType": "address",
          "name": "from",
          "type": "address"
        },
        {
          "indexed": true,
          "internalType": "address",
          "name": "to",
          "type": "address"
        },
        {
          "indexed": false,
          "internalType": "uint256",
          "name": "value",
          "type": "uint256"
        }
      ],
      "name": "Transfer",
      "type": "event"
    },
    {
      "inputs": [
        {
          "internalType": "address",
          "name": "owner",
          "type": "address"
        },
        {
          "internalType": "address",
          "name": "spender",
          "type": "address"
        }
      ],
      "name": "allowance",
      "outputs": [
        {
          "internalType": "uint256",
          "name": "",
          "type": "uint256"
        }
      ],
      "stateMutability": "view",
      "type": "function"
    },
    {
      "inputs": [
        {
          "internalType": "address",
          "name": "spender",
          "type": "address"
        },
        {
          "internalType": "uint256",
          "name": "value",
          "type": "uint256"
        }
      ],
      "name": "approve",
      "outputs": [
        {
          "internalType": "bool",
          "name": "",
          "type": "bool"
        }
      ],
      "stateMutability": "nonpayable",
      "type": "function"
    },
    {
      "inputs": [
        {
          "internalType": "address",
          "name": "account",
          "type": "address"
        }
      ],
      "name": "balanceOf",
      "outputs": [
        {
          "internalType": "uint256",
          "name": "",
          "type": "uint256"
        }
      ],
      "stateMutability": "view",
      "type": "function"
    },
    {
      "inputs": [],
      "name": "decimals",
      "outputs": [
        {
          "internalType": "uint8",
          "name": "",
          "type": "uint8"
        }
      ],
      "stateMutability": "view",
      "type": "function"
    },
    {
      "inputs": [
        {
          "internalType": "uint256",
          "name": "value",
          "type": "uint256"
        }
      ],
      "name": "deposit",
      "outputs": [],
      "stateMutability": "nonpayable",
      "type": "function"
    },
    {
      "inputs": [
        {
          "internalType": "address",
          "name": "to",
          "type": "address"
        },
        {
          "internalType": "uint256",
          "name": "value",
          "type": "uint256"
        }
      ],
      "name": "depositTo",
      "outputs": [],
      "stateMutability": "nonpayable",
      "type": "function"
    },
    {
      "inputs": [],
      "name": "getGateway",
      "outputs": [
        {
          "internalType": "address",
          "name": "",
          "type": "address"
        }
      ],
      "stateMutability": "view",
      "type": "function"
    },
    {
      "inputs": [],
      "name": "getUnderlyingToken",
      "outputs": [
        {
          "internalType": "address",
          "name": "",
          "type": "address"
        }
      ],
      "stateMutability": "view",
      "type": "function"
    },
    {
      "inputs": [
        {
          "internalType": "address",
          "name": "gateway",
          "type": "address"
        },
        {
          "internalType": "address",
          "name": "underlyingToken",
          "type": "address"
        }
      ],
      "name": "initialize",
      "outputs": [],
      "stateMutability": "nonpayable",
      "type": "function"
    },
    {
      "inputs": [],
      "name": "initialized",
      "outputs": [
        {
          "internalType": "bool",
          "name": "",
          "type": "bool"
        }
      ],
      "stateMutability": "view",
      "type": "function"
    },
    {
      "inputs": [],
      "name": "name",
      "outputs": [
        {
          "internalType": "string",
          "name": "",
          "type": "string"
        }
      ],
      "stateMutability": "view",
      "type": "function"
    },
    {
      "inputs": [],
      "name": "symbol",
      "outputs": [
        {
          "internalType": "string",
          "name": "",
          "type": "string"
        }
      ],
      "stateMutability": "view",
      "type": "function"
    },
    {
      "inputs": [],
      "name": "totalSupply",
      "outputs": [
        {
          "internalType": "uint256",
          "name": "",
          "type": "uint256"
        }
      ],
      "stateMutability": "view",
      "type": "function"
    },
    {
      "inputs": [
        {
          "internalType": "address",
          "name": "to",
          "type": "address"
        },
        {
          "internalType": "uint256",
          "name": "value",
          "type": "uint256"
        }
      ],
      "name": "transfer",
      "outputs": [
        {
          "internalType": "bool",
          "name": "",
          "type": "bool"
        }
      ],
      "stateMutability": "nonpayable",
      "type": "function"
    },
    {
      "inputs": [
        {
          "internalType": "address",
          "name": "from",
          "type": "address"
        },
        {
          "internalType": "address",
          "name": "to",
          "type": "address"
        },
        {
          "internalType": "uint256",
          "name": "value",
          "type": "uint256"
        }
      ],
      "name": "transferFrom",
      "outputs": [
        {
          "internalType": "bool",
          "name": "",
          "type": "bool"
        }
      ],
      "stateMutability": "nonpayable",
      "type": "function"
    },
    {
      "inputs": [
        {
          "internalType": "uint256",
          "name": "value",
          "type": "uint256"
        }
      ],
      "name": "withdraw",
      "outputs": [],
      "stateMutability": "nonpayable",
      "type": "function"
    },
    {
      "inputs": [
        {
          "internalType": "address",
          "name": "to",
          "type": "address"
        },
        {
          "internalType": "uint256",
          "name": "value",
          "type": "uint256"
        }
      ],
      "name": "withdrawTo",
      "outputs": [],
      "stateMutability": "nonpayable",
      "type": "function"
    }
  ],
  "transactionHash": "0xa717d9d868dbdd2d0e5fdba9e4548f65e8257d01ebd4c566538c92f3e70ffcc2",
  "args": [],
  "numDeployments": 1,
  "solcInputHash": "1179d9d37cb9c2e343e41829b8119480",
  "bytecode": "0x608060405234801562000010575f80fd5b5060408051602080820183525f80835283519182019093529182529060036200003a838262000105565b50600462000049828262000105565b50506005805460ff60a01b1916600160a01b17905550620001cd565b634e487b7160e01b5f52604160045260245ffd5b600181811c908216806200008e57607f821691505b602082108103620000ad57634e487b7160e01b5f52602260045260245ffd5b50919050565b601f82111562000100575f81815260208120601f850160051c81016020861015620000db5750805b601f850160051c820191505b81811015620000fc57828155600101620000e7565b5050505b505050565b81516001600160401b0381111562000121576200012162000065565b620001398162000132845462000079565b84620000b3565b602080601f8311600181146200016f575f8415620001575750858301515b5f19600386901b1c1916600185901b178555620000fc565b5f85815260208120601f198616915b828110156200019f578886015182559484019460019091019084016200017e565b5085821015620001bd57878501515f19600388901b60f8161c191681555b5050505050600190811b01905550565b6112bd80620001db5f395ff3fe608060405234801561000f575f80fd5b5060043610610115575f3560e01c806342bf3cc1116100ad578063a9059cbb1161007d578063dd62ed3e11610063578063dd62ed3e1461028e578063ee719bc8146102d3578063ffaad6a5146102f1575f80fd5b8063a9059cbb14610268578063b6b55f251461027b575f80fd5b806342bf3cc1146101d9578063485cc9551461021857806370a082311461022b57806395d89b4114610260575f80fd5b8063205c2878116100e8578063205c28781461018f57806323b872dd146101a45780632e1a7d4d146101b7578063313ce567146101ca575f80fd5b806306fdde0314610119578063095ea7b314610137578063158ef93e1461015a57806318160ddd1461017d575b5f80fd5b610121610304565b60405161012e9190611011565b60405180910390f35b61014a610145366004611089565b6103bb565b604051901515815260200161012e565b60055474010000000000000000000000000000000000000000900460ff1661014a565b6002545b60405190815260200161012e565b6101a261019d366004611089565b6103de565b005b61014a6101b23660046110b1565b6103f4565b6101a26101c53660046110ea565b610423565b6040516012815260200161012e565b60055473ffffffffffffffffffffffffffffffffffffffff165b60405173ffffffffffffffffffffffffffffffffffffffff909116815260200161012e565b6101a2610226366004611101565b610439565b610181610239366004611132565b73ffffffffffffffffffffffffffffffffffffffff165f9081526020819052604090205490565b61012161048a565b61014a610276366004611089565b6104f7565b6101a26102893660046110ea565b61050e565b61018161029c366004611101565b73ffffffffffffffffffffffffffffffffffffffff9182165f90815260016020908152604080832093909416825291909152205490565b60095473ffffffffffffffffffffffffffffffffffffffff166101f3565b6101a26102ff366004611089565b610524565b600954604080517f06fdde03000000000000000000000000000000000000000000000000000000008152905160609273ffffffffffffffffffffffffffffffffffffffff16916306fdde03916004808301925f9291908290030181865afa158015610371573d5f803e3d5ffd5b505050506040513d5f823e601f3d9081017fffffffffffffffffffffffffffffffffffffffffffffffffffffffffffffffe01682016040526103b69190810190611178565b905090565b5f806103c5610536565b90506103d281858561053f565b60019150505b92915050565b6103f06103e9610536565b8383610551565b5050565b5f806103fe610536565b905061040b85828561057f565b610416858585610651565b60019150505b9392505050565b5f61042c610536565b90506103f0818284610551565b610442826106fa565b600980547fffffffffffffffffffffffff00000000000000000000000000000000000000001673ffffffffffffffffffffffffffffffffffffffff9290921691909117905550565b600954604080517f95d89b41000000000000000000000000000000000000000000000000000000008152905160609273ffffffffffffffffffffffffffffffffffffffff16916395d89b41916004808301925f9291908290030181865afa158015610371573d5f803e3d5ffd5b5f80610501610536565b90506103d2818585610651565b5f610517610536565b90506103f08182846107d8565b6103f061052f610536565b83836107d8565b5f6103b6610807565b61054c8383836001610858565b505050565b61055b83826108fa565b60095461054c9073ffffffffffffffffffffffffffffffffffffffff168383610954565b73ffffffffffffffffffffffffffffffffffffffff8381165f908152600160209081526040808320938616835292905220547fffffffffffffffffffffffffffffffffffffffffffffffffffffffffffffffff811461064b578181101561063d576040517ffb8f41b200000000000000000000000000000000000000000000000000000000815273ffffffffffffffffffffffffffffffffffffffff8416600482015260248101829052604481018390526064015b60405180910390fd5b61064b84848484035f610858565b50505050565b73ffffffffffffffffffffffffffffffffffffffff83166106a0576040517f96c6fd1e0000000000000000000000000000000000000000000000000000000081525f6004820152602401610634565b73ffffffffffffffffffffffffffffffffffffffff82166106ef576040517fec442f050000000000000000000000000000000000000000000000000000000081525f6004820152602401610634565b61054c8383836109d5565b60055474010000000000000000000000000000000000000000900460ff161561074f576040517f0dc149f000000000000000000000000000000000000000000000000000000000815260040160405180910390fd5b6005805473ffffffffffffffffffffffffffffffffffffffff9092167fffffffffffffffffffffff0000000000000000000000000000000000000000009092169190911774010000000000000000000000000000000000000000179055600680547fffffffffffffffffffffffff00000000000000000000000000000000000000001633179055565b6009546107fd9073ffffffffffffffffffffffffffffffffffffffff16843084610a74565b61054c8282610aba565b6005545f9073ffffffffffffffffffffffffffffffffffffffff16330361085357507fffffffffffffffffffffffffffffffffffffffffffffffffffffffffffffffec36013560601c90565b503390565b6108658484846001610b14565b6006546040517ffd836ab800000000000000000000000000000000000000000000000000000000815273ffffffffffffffffffffffffffffffffffffffff86811660048301528581166024830152604482018590529091169063fd836ab8906064015f604051808303815f87803b1580156108de575f80fd5b505af11580156108f0573d5f803e3d5ffd5b5050505050505050565b73ffffffffffffffffffffffffffffffffffffffff8216610949576040517f96c6fd1e0000000000000000000000000000000000000000000000000000000081525f6004820152602401610634565b6103f0825f836109d5565b60405173ffffffffffffffffffffffffffffffffffffffff83811660248301526044820183905261054c91859182169063a9059cbb906064015b604051602081830303815290604052915060e01b6020820180517bffffffffffffffffffffffffffffffffffffffffffffffffffffffff8381831617835250505050610c59565b6109e0838383610ced565b6006546040517f1be4485900000000000000000000000000000000000000000000000000000000815273ffffffffffffffffffffffffffffffffffffffff858116600483015284811660248301526044820184905290911690631be44859906064015f604051808303815f87803b158015610a59575f80fd5b505af1158015610a6b573d5f803e3d5ffd5b50505050505050565b60405173ffffffffffffffffffffffffffffffffffffffff848116602483015283811660448301526064820183905261064b9186918216906323b872dd9060840161098e565b73ffffffffffffffffffffffffffffffffffffffff8216610b09576040517fec442f050000000000000000000000000000000000000000000000000000000081525f6004820152602401610634565b6103f05f83836109d5565b73ffffffffffffffffffffffffffffffffffffffff8416610b63576040517fe602df050000000000000000000000000000000000000000000000000000000081525f6004820152602401610634565b73ffffffffffffffffffffffffffffffffffffffff8316610bb2576040517f94280d620000000000000000000000000000000000000000000000000000000081525f6004820152602401610634565b73ffffffffffffffffffffffffffffffffffffffff8085165f908152600160209081526040808320938716835292905220829055801561064b578273ffffffffffffffffffffffffffffffffffffffff168473ffffffffffffffffffffffffffffffffffffffff167f8c5be1e5ebec7d5bd14f71427d1e84f3dd0314c0f7b2291e5b200ac8c7c3b92584604051610c4b91815260200190565b60405180910390a350505050565b5f610c7a73ffffffffffffffffffffffffffffffffffffffff841683610e94565b905080515f14158015610c9e575080806020019051810190610c9c919061123e565b155b1561054c576040517f5274afe700000000000000000000000000000000000000000000000000000000815273ffffffffffffffffffffffffffffffffffffffff84166004820152602401610634565b73ffffffffffffffffffffffffffffffffffffffff8316610d24578060025f828254610d19919061125d565b90915550610dd49050565b73ffffffffffffffffffffffffffffffffffffffff83165f9081526020819052604090205481811015610da9576040517fe450d38c00000000000000000000000000000000000000000000000000000000815273ffffffffffffffffffffffffffffffffffffffff851660048201526024810182905260448101839052606401610634565b73ffffffffffffffffffffffffffffffffffffffff84165f9081526020819052604090209082900390555b73ffffffffffffffffffffffffffffffffffffffff8216610dfd57600280548290039055610e28565b73ffffffffffffffffffffffffffffffffffffffff82165f9081526020819052604090208054820190555b8173ffffffffffffffffffffffffffffffffffffffff168373ffffffffffffffffffffffffffffffffffffffff167fddf252ad1be2c89b69c2b068fc378daa952ba7f163c4a11628f55a4df523b3ef83604051610e8791815260200190565b60405180910390a3505050565b606061041c83835f845f808573ffffffffffffffffffffffffffffffffffffffff168486604051610ec59190611295565b5f6040518083038185875af1925050503d805f8114610eff576040519150601f19603f3d011682016040523d82523d5f602084013e610f04565b606091505b5091509150610f14868383610f1e565b9695505050505050565b606082610f3357610f2e82610fad565b61041c565b8151158015610f57575073ffffffffffffffffffffffffffffffffffffffff84163b155b15610fa6576040517f9996b31500000000000000000000000000000000000000000000000000000000815273ffffffffffffffffffffffffffffffffffffffff85166004820152602401610634565b508061041c565b805115610fbd5780518082602001fd5b6040517f1425ea4200000000000000000000000000000000000000000000000000000000815260040160405180910390fd5b5f5b83811015611009578181015183820152602001610ff1565b50505f910152565b602081525f825180602084015261102f816040850160208701610fef565b601f017fffffffffffffffffffffffffffffffffffffffffffffffffffffffffffffffe0169190910160400192915050565b803573ffffffffffffffffffffffffffffffffffffffff81168114611084575f80fd5b919050565b5f806040838503121561109a575f80fd5b6110a383611061565b946020939093013593505050565b5f805f606084860312156110c3575f80fd5b6110cc84611061565b92506110da60208501611061565b9150604084013590509250925092565b5f602082840312156110fa575f80fd5b5035919050565b5f8060408385031215611112575f80fd5b61111b83611061565b915061112960208401611061565b90509250929050565b5f60208284031215611142575f80fd5b61041c82611061565b7f4e487b71000000000000000000000000000000000000000000000000000000005f52604160045260245ffd5b5f60208284031215611188575f80fd5b815167ffffffffffffffff8082111561119f575f80fd5b818401915084601f8301126111b2575f80fd5b8151818111156111c4576111c461114b565b604051601f82017fffffffffffffffffffffffffffffffffffffffffffffffffffffffffffffffe0908116603f0116810190838211818310171561120a5761120a61114b565b81604052828152876020848701011115611222575f80fd5b611233836020830160208801610fef565b979650505050505050565b5f6020828403121561124e575f80fd5b8151801515811461041c575f80fd5b808201808211156103d8577f4e487b71000000000000000000000000000000000000000000000000000000005f52601160045260245ffd5b5f82516112a6818460208701610fef565b919091019291505056fea164736f6c6343000815000a",
  "devdoc": {
    "errors": {
      "AddressEmptyCode(address)": [
        {
          "details": "There's no code at `target` (it is not a contract)."
        }
      ],
      "AddressInsufficientBalance(address)": [
        {
          "details": "The ETH balance of the account is not enough to perform the operation."
        }
      ],
      "ERC20InsufficientAllowance(address,uint256,uint256)": [
        {
          "details": "Indicates a failure with the `spender`’s `allowance`. Used in transfers.",
          "params": {
            "allowance": "Amount of tokens a `spender` is allowed to operate with.",
            "needed": "Minimum amount required to perform a transfer.",
            "spender": "Address that may be allowed to operate on tokens without being their owner."
          }
        }
      ],
      "ERC20InsufficientBalance(address,uint256,uint256)": [
        {
          "details": "Indicates an error related to the current `balance` of a `sender`. Used in transfers.",
          "params": {
            "balance": "Current balance for the interacting account.",
            "needed": "Minimum amount required to perform a transfer.",
            "sender": "Address whose tokens are being transferred."
          }
        }
      ],
      "ERC20InvalidApprover(address)": [
        {
          "details": "Indicates a failure with the `approver` of a token to be approved. Used in approvals.",
          "params": {
            "approver": "Address initiating an approval operation."
          }
        }
      ],
      "ERC20InvalidReceiver(address)": [
        {
          "details": "Indicates a failure with the token `receiver`. Used in transfers.",
          "params": {
            "receiver": "Address to which tokens are being transferred."
          }
        }
      ],
      "ERC20InvalidSender(address)": [
        {
          "details": "Indicates a failure with the token `sender`. Used in transfers.",
          "params": {
            "sender": "Address whose tokens are being transferred."
          }
        }
      ],
      "ERC20InvalidSpender(address)": [
        {
          "details": "Indicates a failure with the `spender` to be approved. Used in approvals.",
          "params": {
            "spender": "Address that may be allowed to operate on tokens without being their owner."
          }
        }
      ],
      "FailedInnerCall()": [
        {
          "details": "A call to an address target failed. The target may have reverted."
        }
      ],
      "SafeERC20FailedOperation(address)": [
        {
          "details": "An operation with an ERC20 token failed."
        }
      ]
    },
    "events": {
      "Approval(address,address,uint256)": {
        "details": "Emitted when the allowance of a `spender` for an `owner` is set by a call to {approve}. `value` is the new allowance."
      },
      "Transfer(address,address,uint256)": {
        "details": "Emitted when `value` tokens are moved from one account (`from`) to another (`to`). Note that `value` may be zero."
      }
    },
    "kind": "dev",
    "methods": {
      "allowance(address,address)": {
        "details": "See {IERC20-allowance}."
      },
      "approve(address,uint256)": {
        "details": "See {IERC20-approve}. NOTE: If `value` is the maximum `uint256`, the allowance is not updated on `transferFrom`. This is semantically equivalent to an infinite approval. Requirements: - `spender` cannot be the zero address."
      },
      "balanceOf(address)": {
        "details": "See {IERC20-balanceOf}."
      },
      "decimals()": {
        "details": "Returns the number of decimals used to get its user representation. For example, if `decimals` equals `2`, a balance of `505` tokens should be displayed to a user as `5.05` (`505 / 10 ** 2`). Tokens usually opt for a value of 18, imitating the relationship between Ether and Wei. This is the default value returned by this function, unless it's overridden. NOTE: This information is only used for _display_ purposes: it in no way affects any of the arithmetic of the contract, including {IERC20-balanceOf} and {IERC20-transfer}."
      },
      "totalSupply()": {
        "details": "See {IERC20-totalSupply}."
      },
      "transfer(address,uint256)": {
        "details": "See {IERC20-transfer}. Requirements: - `to` cannot be the zero address. - the caller must have a balance of at least `value`."
      },
      "transferFrom(address,address,uint256)": {
        "details": "See {IERC20-transferFrom}. Emits an {Approval} event indicating the updated allowance. This is not required by the EIP. See the note at the beginning of {ERC20}. NOTE: Does not update the allowance if the current allowance is the maximum `uint256`. Requirements: - `from` and `to` cannot be the zero address. - `from` must have a balance of at least `value`. - the caller must have allowance for ``from``'s tokens of at least `value`."
      }
    },
    "version": 1
  },
  "userdoc": {
    "kind": "user",
    "methods": {},
    "version": 1
  },
  "storageLayout": {
    "storage": [
      {
        "astId": 283,
        "contract": "contracts/tokens/erc20/wrapped/ERC20WrappedTokenImpl.sol:ERC20WrappedTokenImpl",
        "label": "_balances",
        "offset": 0,
        "slot": "0",
        "type": "t_mapping(t_address,t_uint256)"
      },
      {
        "astId": 289,
        "contract": "contracts/tokens/erc20/wrapped/ERC20WrappedTokenImpl.sol:ERC20WrappedTokenImpl",
        "label": "_allowances",
        "offset": 0,
        "slot": "1",
        "type": "t_mapping(t_address,t_mapping(t_address,t_uint256))"
      },
      {
        "astId": 291,
        "contract": "contracts/tokens/erc20/wrapped/ERC20WrappedTokenImpl.sol:ERC20WrappedTokenImpl",
        "label": "_totalSupply",
        "offset": 0,
        "slot": "2",
        "type": "t_uint256"
      },
      {
        "astId": 293,
        "contract": "contracts/tokens/erc20/wrapped/ERC20WrappedTokenImpl.sol:ERC20WrappedTokenImpl",
        "label": "_name",
        "offset": 0,
        "slot": "3",
        "type": "t_string_storage"
      },
      {
        "astId": 295,
        "contract": "contracts/tokens/erc20/wrapped/ERC20WrappedTokenImpl.sol:ERC20WrappedTokenImpl",
        "label": "_symbol",
        "offset": 0,
        "slot": "4",
        "type": "t_string_storage"
      },
      {
        "astId": 4732,
        "contract": "contracts/tokens/erc20/wrapped/ERC20WrappedTokenImpl.sol:ERC20WrappedTokenImpl",
        "label": "_gateway",
        "offset": 0,
        "slot": "5",
        "type": "t_address"
      },
      {
        "astId": 6325,
        "contract": "contracts/tokens/erc20/wrapped/ERC20WrappedTokenImpl.sol:ERC20WrappedTokenImpl",
        "label": "_initialized",
        "offset": 20,
        "slot": "5",
        "type": "t_bool"
      },
      {
        "astId": 4957,
        "contract": "contracts/tokens/erc20/wrapped/ERC20WrappedTokenImpl.sol:ERC20WrappedTokenImpl",
        "label": "_tokenFactory",
        "offset": 0,
        "slot": "6",
        "type": "t_address"
      },
      {
        "astId": 4959,
        "contract": "contracts/tokens/erc20/wrapped/ERC20WrappedTokenImpl.sol:ERC20WrappedTokenImpl",
        "label": "_name",
        "offset": 0,
        "slot": "7",
        "type": "t_string_storage"
      },
      {
        "astId": 4961,
        "contract": "contracts/tokens/erc20/wrapped/ERC20WrappedTokenImpl.sol:ERC20WrappedTokenImpl",
        "label": "_symbol",
        "offset": 0,
        "slot": "8",
        "type": "t_string_storage"
      },
      {
        "astId": 6099,
        "contract": "contracts/tokens/erc20/wrapped/ERC20WrappedTokenImpl.sol:ERC20WrappedTokenImpl",
        "label": "_underlyingToken",
        "offset": 0,
        "slot": "9",
        "type": "t_contract(IERC20Metadata)879"
      }
    ],
    "types": {
      "t_address": {
        "encoding": "inplace",
        "label": "address",
        "numberOfBytes": "20"
      },
      "t_bool": {
        "encoding": "inplace",
        "label": "bool",
        "numberOfBytes": "1"
      },
      "t_contract(IERC20Metadata)879": {
        "encoding": "inplace",
        "label": "contract IERC20Metadata",
        "numberOfBytes": "20"
      },
      "t_mapping(t_address,t_mapping(t_address,t_uint256))": {
        "encoding": "mapping",
        "key": "t_address",
        "label": "mapping(address => mapping(address => uint256))",
        "numberOfBytes": "32",
        "value": "t_mapping(t_address,t_uint256)"
      },
      "t_mapping(t_address,t_uint256)": {
        "encoding": "mapping",
        "key": "t_address",
        "label": "mapping(address => uint256)",
        "numberOfBytes": "32",
        "value": "t_uint256"
      },
      "t_string_storage": {
        "encoding": "bytes",
        "label": "string",
        "numberOfBytes": "32"
      },
      "t_uint256": {
        "encoding": "inplace",
        "label": "uint256",
        "numberOfBytes": "32"
      }
    }
  }
}