{
  "address": "0x56822e80c68e7dEea809850B8CB7dbCd54dfFb4a",
  "abi": [
    {
      "inputs": [
        {
          "internalType": "address",
          "name": "owner",
          "type": "address"
        },
        {
          "internalType": "string",
          "name": "name",
          "type": "string"
        },
        {
          "internalType": "string",
          "name": "version",
          "type": "string"
        }
      ],
      "stateMutability": "nonpayable",
      "type": "constructor"
    },
    {
      "inputs": [],
      "name": "AlreadyInitialized",
      "type": "error"
    },
    {
      "inputs": [],
      "name": "InvalidShortString",
      "type": "error"
    },
    {
      "inputs": [],
      "name": "MsgSenderIsNotTheContractOwner",
      "type": "error"
    },
    {
      "inputs": [],
      "name": "OwnerIsTheZeroAddress",
      "type": "error"
    },
    {
      "inputs": [
        {
          "internalType": "string",
          "name": "str",
          "type": "string"
        }
      ],
      "name": "StringTooLong",
      "type": "error"
    },
    {
      "inputs": [],
      "name": "TokenImplIsTheZeroAddress",
      "type": "error"
    },
    {
      "inputs": [],
      "name": "TokenOwnerIsTheZeroAddress",
      "type": "error"
    },
    {
      "inputs": [],
      "name": "TokenRegistryIsTheZeroAddress",
      "type": "error"
    },
    {
      "inputs": [],
      "name": "UnderlyingTokenIsTheZeroAddress",
      "type": "error"
    },
    {
      "anonymous": false,
      "inputs": [],
      "name": "EIP712DomainChanged",
      "type": "event"
    },
    {
      "anonymous": false,
      "inputs": [
        {
          "indexed": false,
          "internalType": "address",
          "name": "gateway",
          "type": "address"
        },
        {
          "indexed": false,
          "internalType": "address",
          "name": "tokenRegistry",
          "type": "address"
        },
        {
          "indexed": false,
          "internalType": "address",
          "name": "tokenImpl",
          "type": "address"
        }
      ],
      "name": "Initialized",
      "type": "event"
    },
    {
      "anonymous": false,
      "inputs": [
        {
          "indexed": false,
          "internalType": "address",
          "name": "owner",
          "type": "address"
        }
      ],
      "name": "OwnerUpdated",
      "type": "event"
    },
    {
      "anonymous": false,
      "inputs": [
        {
          "indexed": false,
          "internalType": "address",
          "name": "token",
          "type": "address"
        },
        {
          "indexed": false,
          "internalType": "address",
          "name": "underlyingToken",
          "type": "address"
        }
      ],
      "name": "TokenCreated",
      "type": "event"
    },
    {
      "inputs": [
        {
          "internalType": "address",
          "name": "underlyingToken",
          "type": "address"
        }
      ],
      "name": "computeToken",
      "outputs": [
        {
          "internalType": "address",
          "name": "",
          "type": "address"
        }
      ],
      "stateMutability": "view",
      "type": "function"
    },
    {
      "inputs": [
        {
          "internalType": "address",
          "name": "underlyingToken",
          "type": "address"
        },
        {
          "internalType": "bytes",
          "name": "guardianSignature",
          "type": "bytes"
        }
      ],
      "name": "createToken",
      "outputs": [],
      "stateMutability": "nonpayable",
      "type": "function"
    },
    {
      "inputs": [],
      "name": "eip712Domain",
      "outputs": [
        {
          "internalType": "bytes1",
          "name": "fields",
          "type": "bytes1"
        },
        {
          "internalType": "string",
          "name": "name",
          "type": "string"
        },
        {
          "internalType": "string",
          "name": "version",
          "type": "string"
        },
        {
          "internalType": "uint256",
          "name": "chainId",
          "type": "uint256"
        },
        {
          "internalType": "address",
          "name": "verifyingContract",
          "type": "address"
        },
        {
          "internalType": "bytes32",
          "name": "salt",
          "type": "bytes32"
        },
        {
          "internalType": "uint256[]",
          "name": "extensions",
          "type": "uint256[]"
        }
      ],
      "stateMutability": "view",
      "type": "function"
    },
    {
      "inputs": [],
      "name": "getGateway",
      "outputs": [
        {
          "internalType": "address",
          "name": "",
          "type": "address"
        }
      ],
      "stateMutability": "view",
      "type": "function"
    },
    {
      "inputs": [],
      "name": "getOwner",
      "outputs": [
        {
          "internalType": "address",
          "name": "",
          "type": "address"
        }
      ],
      "stateMutability": "view",
      "type": "function"
    },
    {
      "inputs": [
        {
          "internalType": "address",
          "name": "underlyingToken",
          "type": "address"
        }
      ],
      "name": "hashToken",
      "outputs": [
        {
          "internalType": "bytes32",
          "name": "",
          "type": "bytes32"
        }
      ],
      "stateMutability": "view",
      "type": "function"
    },
    {
      "inputs": [
        {
          "internalType": "address",
          "name": "gateway",
          "type": "address"
        },
        {
          "internalType": "address",
          "name": "tokenRegistry",
          "type": "address"
        },
        {
          "internalType": "address",
          "name": "tokenImpl",
          "type": "address"
        }
      ],
      "name": "initialize",
      "outputs": [],
      "stateMutability": "nonpayable",
      "type": "function"
    },
    {
      "inputs": [],
      "name": "initialized",
      "outputs": [
        {
          "internalType": "bool",
          "name": "",
          "type": "bool"
        }
      ],
      "stateMutability": "view",
      "type": "function"
    },
    {
      "inputs": [
        {
          "internalType": "address",
          "name": "owner",
          "type": "address"
        }
      ],
      "name": "setOwner",
      "outputs": [],
      "stateMutability": "nonpayable",
      "type": "function"
    }
  ],
  "transactionHash": "0xf888cc6e692c226082c6a0d31c6c4209612f4a2ade610a88baa305124517aa48",
  "args": [
    "0xF2a1699320517FA9C5c749EA9DfB5594Bb9862e5",
    "ERC20WrappedTokenFactory",
    "0.0.1"
  ],
  "numDeployments": 1,
  "solcInputHash": "6192676cc397315b66316256ae4c7243",
  "bytecode": "0x61016060405234801562000011575f80fd5b50604051620016ab380380620016ab833981016040819052620000349162000279565b8280838362000044825f62000130565b610120526200005581600162000130565b61014052815160208084019190912060e052815190820120610100524660a052620000e260e05161010051604080517f8b73c3c69bb8fe3d512ecc4cf759cc79239f7b179b0ffacaa9a75d522b39400f60208201529081019290925260608201524660808201523060a08201525f9060c00160405160208183030381529060405280519060200120905090565b60805250503060c0526001600160a01b0381161562000102578062000104565b335b600280546001600160a01b0319166001600160a01b039290921691909117905550620004a99350505050565b5f6020835110156200014f57620001478362000168565b905062000162565b816200015c848262000389565b5060ff90505b92915050565b5f80829050601f815111156200019e578260405163305a27a960e01b815260040162000195919062000451565b60405180910390fd5b8051620001ab8262000485565b179392505050565b634e487b7160e01b5f52604160045260245ffd5b5f5b83811015620001e3578181015183820152602001620001c9565b50505f910152565b5f82601f830112620001fb575f80fd5b81516001600160401b0380821115620002185762000218620001b3565b604051601f8301601f19908116603f01168101908282118183101715620002435762000243620001b3565b816040528381528660208588010111156200025c575f80fd5b6200026f846020830160208901620001c7565b9695505050505050565b5f805f606084860312156200028c575f80fd5b83516001600160a01b0381168114620002a3575f80fd5b60208501519093506001600160401b0380821115620002c0575f80fd5b620002ce87838801620001eb565b93506040860151915080821115620002e4575f80fd5b50620002f386828701620001eb565b9150509250925092565b600181811c908216806200031257607f821691505b6020821081036200033157634e487b7160e01b5f52602260045260245ffd5b50919050565b601f82111562000384575f81815260208120601f850160051c810160208610156200035f5750805b601f850160051c820191505b8181101562000380578281556001016200036b565b5050505b505050565b81516001600160401b03811115620003a557620003a5620001b3565b620003bd81620003b68454620002fd565b8462000337565b602080601f831160018114620003f3575f8415620003db5750858301515b5f19600386901b1c1916600185901b17855562000380565b5f85815260208120601f198616915b82811015620004235788860151825594840194600190910190840162000402565b50858210156200044157878501515f19600388901b60f8161c191681555b5050505050600190811b01905550565b602081525f825180602084015262000471816040850160208701620001c7565b601f01601f19169190910160400192915050565b8051602080830151919081101562000331575f1960209190910360031b1b16919050565b60805160a05160c05160e0516101005161012051610140516111b0620004fb5f395f61046401525f61043a01525f610ca101525f610c7901525f610bd401525f610bfe01525f610c2801526111b05ff3fe608060405234801561000f575f80fd5b506004361061009f575f3560e01c80636c180a3411610072578063893d20e811610058578063893d20e8146101795780638fb07e6114610197578063c0c53b8b146101aa575f80fd5b80636c180a341461014b57806384b0196e1461015e575f80fd5b806313af4035146100a3578063158ef93e146100b857806332a41af3146100eb57806342bf3cc11461010c575b5f80fd5b6100b66100b1366004610d5e565b6101bd565b005b60025474010000000000000000000000000000000000000000900460ff1660405190151581526020015b60405180910390f35b6100fe6100f9366004610d5e565b610284565b6040519081526020016100e2565b60035473ffffffffffffffffffffffffffffffffffffffff165b60405173ffffffffffffffffffffffffffffffffffffffff90911681526020016100e2565b6100b6610159366004610d80565b610294565b61016661042d565b6040516100e29796959493929190610e69565b60025473ffffffffffffffffffffffffffffffffffffffff16610126565b6101266101a5366004610d5e565b6104cf565b6100b66101b8366004610f26565b610522565b60025473ffffffffffffffffffffffffffffffffffffffff166101de61058a565b73ffffffffffffffffffffffffffffffffffffffff161461022b576040517fcd52968d00000000000000000000000000000000000000000000000000000000815260040160405180910390fd5b73ffffffffffffffffffffffffffffffffffffffff8116610278576040517f465f799000000000000000000000000000000000000000000000000000000000815260040160405180910390fd5b61028181610598565b50565b5f61028e826105e4565b92915050565b73ffffffffffffffffffffffffffffffffffffffff83166102e1576040517ffb86e91d00000000000000000000000000000000000000000000000000000000815260040160405180910390fd5b6040517fffffffffffffffffffffffffffffffffffffffff000000000000000000000000606085901b1660208201525f9061033f9060340160405160208183030381529060405280519060200120610338866105e4565b8585610655565b600354600480546040517fc0c53b8b00000000000000000000000000000000000000000000000000000000815273ffffffffffffffffffffffffffffffffffffffff9384169281019290925282166024820152868216604482015291925082169063c0c53b8b906064015f604051808303815f87803b1580156103c0575f80fd5b505af11580156103d2573d5f803e3d5ffd5b50506040805173ffffffffffffffffffffffffffffffffffffffff8086168252881660208201527fd5f9bdf12adf29dab0248c349842c3822d53ae2bb4f36352f301630d018c8139935001905060405180910390a150505050565b5f6060808280808361045f7f000000000000000000000000000000000000000000000000000000000000000083610701565b61048a7f00000000000000000000000000000000000000000000000000000000000000006001610701565b604080515f808252602082019092527f0f000000000000000000000000000000000000000000000000000000000000009b939a50919850469750309650945092509050565b6040517fffffffffffffffffffffffffffffffffffffffff000000000000000000000000606083901b1660208201525f9061028e90603401604051602081830303815290604052805190602001206107ab565b61052d8383836107d7565b6040805173ffffffffffffffffffffffffffffffffffffffff8581168252848116602083015283168183015290517fad307780531f6353137c35adc50ad58d71b76e76aa891e729387f2e720f2de209181900360600190a1505050565b5f6105936109d7565b905090565b60405173ffffffffffffffffffffffffffffffffffffffff821681527f4ffd725fc4a22075e9ec71c59edf9c38cdeb588a91b24fc5b61388c5be41282b9060200160405180910390a150565b5f61028e7f94fc59b8454f5c974855da8b9dfcedd8b0e9853bb81de9e40e6cc4a978cddb038360405160200161063a92919091825273ffffffffffffffffffffffffffffffffffffffff16602082015260400190565b60405160208183030381529060405280519060200120610a28565b600480546005546040517fa88252840000000000000000000000000000000000000000000000000000000081525f9373ffffffffffffffffffffffffffffffffffffffff9384169363a8825284936106b8939116918a918a918a918a9101610f6e565b6020604051808303815f875af11580156106d4573d5f803e3d5ffd5b505050506040513d601f19601f820116820180604052508101906106f89190610fe5565b95945050505050565b606060ff831461071b5761071483610a6f565b905061028e565b81805461072790611000565b80601f016020809104026020016040519081016040528092919081815260200182805461075390611000565b801561079e5780601f106107755761010080835404028352916020019161079e565b820191905f5260205f20905b81548152906001019060200180831161078157829003601f168201915b5050505050905092915050565b6004546005545f9161028e9173ffffffffffffffffffffffffffffffffffffffff918216911684610aac565b60025473ffffffffffffffffffffffffffffffffffffffff166107f861058a565b73ffffffffffffffffffffffffffffffffffffffff1614610845576040517fcd52968d00000000000000000000000000000000000000000000000000000000815260040160405180910390fd5b60025474010000000000000000000000000000000000000000900460ff161561089a576040517f0dc149f000000000000000000000000000000000000000000000000000000000815260040160405180910390fd5b600280547fffffffffffffffffffffff00ffffffffffffffffffffffffffffffffffffffff167401000000000000000000000000000000000000000017905573ffffffffffffffffffffffffffffffffffffffff8216610926576040517fb4889bf600000000000000000000000000000000000000000000000000000000815260040160405180910390fd5b73ffffffffffffffffffffffffffffffffffffffff8116610973576040517f0e11028600000000000000000000000000000000000000000000000000000000815260040160405180910390fd5b6003805473ffffffffffffffffffffffffffffffffffffffff9485167fffffffffffffffffffffffff000000000000000000000000000000000000000091821617909155600480549385169382169390931790925560058054919093169116179055565b6003545f9073ffffffffffffffffffffffffffffffffffffffff163303610a2357507fffffffffffffffffffffffffffffffffffffffffffffffffffffffffffffffec36013560601c90565b503390565b5f61028e610a34610bbb565b836040517f19010000000000000000000000000000000000000000000000000000000000008152600281019290925260228201526042902090565b60605f610a7b83610cf1565b6040805160208082528183019092529192505f91906020820181803683375050509182525060208101929092525090565b5f8060405180602001610abe90610d31565b7fffffffffffffffffffffffffffffffffffffffffffffffffffffffffffffffe082820381018352601f909101166040819052610b0291905f908790602001611051565b604080518083037fffffffffffffffffffffffffffffffffffffffffffffffffffffffffffffffe001815282825280516020918201207fff000000000000000000000000000000000000000000000000000000000000008285015260609890981b7fffffffffffffffffffffffffffffffffffffffff0000000000000000000000001660218401526035830195909552605580830197909752805180830390970187526075909101905250508251920191909120919050565b5f3073ffffffffffffffffffffffffffffffffffffffff7f000000000000000000000000000000000000000000000000000000000000000016148015610c2057507f000000000000000000000000000000000000000000000000000000000000000046145b15610c4a57507f000000000000000000000000000000000000000000000000000000000000000090565b610593604080517f8b73c3c69bb8fe3d512ecc4cf759cc79239f7b179b0ffacaa9a75d522b39400f60208201527f0000000000000000000000000000000000000000000000000000000000000000918101919091527f000000000000000000000000000000000000000000000000000000000000000060608201524660808201523060a08201525f9060c00160405160208183030381529060405280519060200120905090565b5f60ff8216601f81111561028e576040517fb3512b0c00000000000000000000000000000000000000000000000000000000815260040160405180910390fd5b60df806110c583390190565b73ffffffffffffffffffffffffffffffffffffffff81168114610281575f80fd5b5f60208284031215610d6e575f80fd5b8135610d7981610d3d565b9392505050565b5f805f60408486031215610d92575f80fd5b8335610d9d81610d3d565b9250602084013567ffffffffffffffff80821115610db9575f80fd5b818601915086601f830112610dcc575f80fd5b813581811115610dda575f80fd5b876020828501011115610deb575f80fd5b6020830194508093505050509250925092565b5f5b83811015610e18578181015183820152602001610e00565b50505f910152565b5f8151808452610e37816020860160208601610dfe565b601f017fffffffffffffffffffffffffffffffffffffffffffffffffffffffffffffffe0169290920160200192915050565b7fff00000000000000000000000000000000000000000000000000000000000000881681525f602060e081840152610ea460e084018a610e20565b8381036040850152610eb6818a610e20565b6060850189905273ffffffffffffffffffffffffffffffffffffffff8816608086015260a0850187905284810360c086015285518082528387019250908301905f5b81811015610f1457835183529284019291840191600101610ef8565b50909c9b505050505050505050505050565b5f805f60608486031215610f38575f80fd5b8335610f4381610d3d565b92506020840135610f5381610d3d565b91506040840135610f6381610d3d565b809150509250925092565b73ffffffffffffffffffffffffffffffffffffffff8616815284602082015283604082015260806060820152816080820152818360a08301375f81830160a090810191909152601f9092017fffffffffffffffffffffffffffffffffffffffffffffffffffffffffffffffe0160101949350505050565b5f60208284031215610ff5575f80fd5b8151610d7981610d3d565b600181811c9082168061101457607f821691505b60208210810361104b577f4e487b71000000000000000000000000000000000000000000000000000000005f52602260045260245ffd5b50919050565b5f8451611062818460208901610dfe565b7fffffffffffffffffffffffff0000000000000000000000000000000000000000949094169190930190815260609190911b7fffffffffffffffffffffffffffffffffffffffff00000000000000000000000016600c8201526020019291505056fe608060405234801561000f575f80fd5b506040516100df3803806100df83398101604081905261002e91610055565b7f360894a13ba1a3210667c828492db98dca3e2076cc3735a920a3ca505d382bbc55610082565b5f60208284031215610065575f80fd5b81516001600160a01b038116811461007b575f80fd5b9392505050565b60518061008e5f395ff3fe60806040527f360894a13ba1a3210667c828492db98dca3e2076cc3735a920a3ca505d382bbc54365f80375f80365f845af490503d5f803e80603f573d5ffd5b503d5ff3fea164736f6c6343000815000aa164736f6c6343000815000a",
  "devdoc": {
    "events": {
      "EIP712DomainChanged()": {
        "details": "MAY be emitted to signal that the domain could have changed."
      }
    },
    "kind": "dev",
    "methods": {
      "eip712Domain()": {
        "details": "See {EIP-5267}. _Available since v4.9._"
      }
    },
    "version": 1
  },
  "userdoc": {
    "kind": "user",
    "methods": {},
    "version": 1
  },
  "storageLayout": {
    "storage": [
      {
        "astId": 2979,
        "contract": "contracts/token/erc20/wrapped/ERC20WrappedTokenFactory.sol:ERC20WrappedTokenFactory",
        "label": "_nameFallback",
        "offset": 0,
        "slot": "0",
        "type": "t_string_storage"
      },
      {
        "astId": 2981,
        "contract": "contracts/token/erc20/wrapped/ERC20WrappedTokenFactory.sol:ERC20WrappedTokenFactory",
        "label": "_versionFallback",
        "offset": 0,
        "slot": "1",
        "type": "t_string_storage"
      },
      {
        "astId": 6300,
        "contract": "contracts/token/erc20/wrapped/ERC20WrappedTokenFactory.sol:ERC20WrappedTokenFactory",
        "label": "_owner",
        "offset": 0,
        "slot": "2",
        "type": "t_address"
      },
      {
        "astId": 6769,
        "contract": "contracts/token/erc20/wrapped/ERC20WrappedTokenFactory.sol:ERC20WrappedTokenFactory",
        "label": "_initialized",
        "offset": 20,
        "slot": "2",
        "type": "t_bool"
      },
      {
        "astId": 7665,
        "contract": "contracts/token/erc20/wrapped/ERC20WrappedTokenFactory.sol:ERC20WrappedTokenFactory",
        "label": "_gateway",
        "offset": 0,
        "slot": "3",
        "type": "t_address"
      },
      {
        "astId": 7851,
        "contract": "contracts/token/erc20/wrapped/ERC20WrappedTokenFactory.sol:ERC20WrappedTokenFactory",
        "label": "_tokenRegistry",
        "offset": 0,
        "slot": "4",
        "type": "t_address"
      },
      {
        "astId": 7853,
        "contract": "contracts/token/erc20/wrapped/ERC20WrappedTokenFactory.sol:ERC20WrappedTokenFactory",
        "label": "_tokenImpl",
        "offset": 0,
        "slot": "5",
        "type": "t_address"
      }
    ],
    "types": {
      "t_address": {
        "encoding": "inplace",
        "label": "address",
        "numberOfBytes": "20"
      },
      "t_bool": {
        "encoding": "inplace",
        "label": "bool",
        "numberOfBytes": "1"
      },
      "t_string_storage": {
        "encoding": "bytes",
        "label": "string",
        "numberOfBytes": "32"
      }
    }
  }
}