{
  "address": "0xB54e110b6981657f2365B110a97845cB65d3E30A",
  "abi": [
    {
      "inputs": [
        {
          "internalType": "address",
          "name": "owner",
          "type": "address"
        }
      ],
      "stateMutability": "nonpayable",
      "type": "constructor"
    },
    {
      "inputs": [],
      "name": "AlreadyInitialized",
      "type": "error"
    },
    {
      "inputs": [],
      "name": "MsgSenderIsNotTheOwner",
      "type": "error"
    },
    {
      "inputs": [],
      "name": "OwnerIsTheZeroAddress",
      "type": "error"
    },
    {
      "inputs": [],
      "name": "TokenImplIsTheZeroAddress",
      "type": "error"
    },
    {
      "inputs": [],
      "name": "TokenRegistryIsTheZeroAddress",
      "type": "error"
    },
    {
      "anonymous": false,
      "inputs": [
        {
          "indexed": false,
          "internalType": "address",
          "name": "gateway",
          "type": "address"
        },
        {
          "indexed": false,
          "internalType": "address",
          "name": "tokenImpl",
          "type": "address"
        },
        {
          "indexed": false,
          "internalType": "address",
          "name": "tokenRegistry",
          "type": "address"
        }
      ],
      "name": "Initialized",
      "type": "event"
    },
    {
      "anonymous": false,
      "inputs": [
        {
          "indexed": false,
          "internalType": "address",
          "name": "owner",
          "type": "address"
        }
      ],
      "name": "OwnerUpdated",
      "type": "event"
    },
    {
      "inputs": [
        {
          "internalType": "string",
          "name": "symbol",
          "type": "string"
        }
      ],
      "name": "computeToken",
      "outputs": [
        {
          "internalType": "address",
          "name": "",
          "type": "address"
        }
      ],
      "stateMutability": "view",
      "type": "function"
    },
    {
      "inputs": [
        {
          "internalType": "address",
          "name": "owner",
          "type": "address"
        },
        {
          "internalType": "string",
          "name": "name",
          "type": "string"
        },
        {
          "internalType": "string",
          "name": "symbol",
          "type": "string"
        },
        {
          "internalType": "address",
          "name": "controller",
          "type": "address"
        },
        {
          "internalType": "bool",
          "name": "locked",
          "type": "bool"
        },
        {
          "internalType": "bytes",
          "name": "guardianSignature",
          "type": "bytes"
        }
      ],
      "name": "createToken",
      "outputs": [],
      "stateMutability": "nonpayable",
      "type": "function"
    },
    {
      "inputs": [],
      "name": "getGateway",
      "outputs": [
        {
          "internalType": "address",
          "name": "",
          "type": "address"
        }
      ],
      "stateMutability": "view",
      "type": "function"
    },
    {
      "inputs": [],
      "name": "getOwner",
      "outputs": [
        {
          "internalType": "address",
          "name": "",
          "type": "address"
        }
      ],
      "stateMutability": "view",
      "type": "function"
    },
    {
      "inputs": [],
      "name": "getTokenImpl",
      "outputs": [
        {
          "internalType": "address",
          "name": "",
          "type": "address"
        }
      ],
      "stateMutability": "view",
      "type": "function"
    },
    {
      "inputs": [],
      "name": "getTokenRegistry",
      "outputs": [
        {
          "internalType": "address",
          "name": "",
          "type": "address"
        }
      ],
      "stateMutability": "view",
      "type": "function"
    },
    {
      "inputs": [
        {
          "internalType": "address",
          "name": "gateway",
          "type": "address"
        },
        {
          "internalType": "address",
          "name": "tokenImpl",
          "type": "address"
        },
        {
          "internalType": "address",
          "name": "tokenRegistry",
          "type": "address"
        }
      ],
      "name": "initialize",
      "outputs": [],
      "stateMutability": "nonpayable",
      "type": "function"
    },
    {
      "inputs": [],
      "name": "initialized",
      "outputs": [
        {
          "internalType": "bool",
          "name": "",
          "type": "bool"
        }
      ],
      "stateMutability": "view",
      "type": "function"
    },
    {
      "inputs": [
        {
          "internalType": "address",
          "name": "owner",
          "type": "address"
        }
      ],
      "name": "setOwner",
      "outputs": [],
      "stateMutability": "nonpayable",
      "type": "function"
    }
  ],
  "transactionHash": "0x1fd6eaa5d6e947c040045c8b37f3b07539e0b3bcb08da9d676449e6f2d2471fa",
  "args": [
    "0xF2a1699320517FA9C5c749EA9DfB5594Bb9862e5"
  ],
  "numDeployments": 1,
  "solcInputHash": "a9e2a0197f364155452382066c2f023a",
  "bytecode": "0x608060405234801561001057600080fd5b50604051610cf8380380610cf883398101604081905261002f9161007a565b8061003981610040565b50506100aa565b6001600160a01b038116156100555780610057565b335b600180546001600160a01b0319166001600160a01b039290921691909117905550565b60006020828403121561008c57600080fd5b81516001600160a01b03811681146100a357600080fd5b9392505050565b610c3f806100b96000396000f3fe608060405234801561001057600080fd5b50600436106100a35760003560e01c806342bf3cc111610076578063c0c53b8b1161005b578063c0c53b8b1461017e578063c1cb7d0014610191578063f78356e1146101af57600080fd5b806342bf3cc114610142578063893d20e81461016057600080fd5b8063057838bd146100a857806313af4035146100ec578063158ef93e146101015780632f4754a51461012f575b600080fd5b60035473ffffffffffffffffffffffffffffffffffffffff165b60405173ffffffffffffffffffffffffffffffffffffffff90911681526020015b60405180910390f35b6100ff6100fa3660046108b6565b6101c2565b005b60015474010000000000000000000000000000000000000000900460ff1660405190151581526020016100e3565b6100ff61013d36600461091a565b6101d8565b60005473ffffffffffffffffffffffffffffffffffffffff166100c2565b60015473ffffffffffffffffffffffffffffffffffffffff166100c2565b6100ff61018c3660046109f4565b6102e3565b60025473ffffffffffffffffffffffffffffffffffffffff166100c2565b6100c26101bd366004610a37565b6104c2565b6101ca61058a565b6101d581600161059c565b50565b6102d886866040516020016101ee929190610a79565b604080517fffffffffffffffffffffffffffffffffffffffffffffffffffffffffffffffe0818403018152908290528051602090910120600054909161025b9173ffffffffffffffffffffffffffffffffffffffff16908d908d908d908d908d908d908d90602401610ad2565b604080517fffffffffffffffffffffffffffffffffffffffffffffffffffffffffffffffe08184030181529190526020810180517bffffffffffffffffffffffffffffffffffffffffffffffffffffffff167f10ef9b8700000000000000000000000000000000000000000000000000000000179052848461067d565b505050505050505050565b60015474010000000000000000000000000000000000000000900460ff1615610338576040517f0dc149f000000000000000000000000000000000000000000000000000000000815260040160405180910390fd5b600180547fffffffffffffffffffffff00ffffffffffffffffffffffffffffffffffffffff167401000000000000000000000000000000000000000017905561037f61058a565b73ffffffffffffffffffffffffffffffffffffffff82166103cc576040517f0e11028600000000000000000000000000000000000000000000000000000000815260040160405180910390fd5b73ffffffffffffffffffffffffffffffffffffffff8116610419576040517fb4889bf600000000000000000000000000000000000000000000000000000000815260040160405180910390fd5b6000805473ffffffffffffffffffffffffffffffffffffffff8581167fffffffffffffffffffffffff0000000000000000000000000000000000000000928316811790935560028054868316908416811790915560038054928616929093168217909255604080519384526020840192909252908201527fad307780531f6353137c35adc50ad58d71b76e76aa891e729387f2e720f2de209060600160405180910390a1505050565b600061058383836040516020016104da929190610a79565b604080517fffffffffffffffffffffffffffffffffffffffffffffffffffffffffffffffe081840301815290829052805160209091012060025460035473ffffffffffffffffffffffffffffffffffffffff90811660388501526f5af43d82803e903d91602b57fd5bf3ff6024850152166014830152733d602d80600a3d3981f3363d3d373d3d3d363d73825260588201526037600c8201206078820152605560439091012090565b9392505050565b61059a6105956107e9565b610839565b565b73ffffffffffffffffffffffffffffffffffffffff82166105e9576040517f465f799000000000000000000000000000000000000000000000000000000000815260040160405180910390fd5b600180547fffffffffffffffffffffffff00000000000000000000000000000000000000001673ffffffffffffffffffffffffffffffffffffffff841617905580156106795760405173ffffffffffffffffffffffffffffffffffffffff831681527f4ffd725fc4a22075e9ec71c59edf9c38cdeb588a91b24fc5b61388c5be41282b9060200160405180910390a15b5050565b60015473ffffffffffffffffffffffffffffffffffffffff1661069e6107e9565b73ffffffffffffffffffffffffffffffffffffffff160361074e576003546002546040517f249ea85700000000000000000000000000000000000000000000000000000000815273ffffffffffffffffffffffffffffffffffffffff9283169263249ea857926107179291169088908890600401610ba0565b600060405180830381600087803b15801561073157600080fd5b505af1158015610745573d6000803e3d6000fd5b505050506107e3565b6003546002546040517ff1c07db800000000000000000000000000000000000000000000000000000000815273ffffffffffffffffffffffffffffffffffffffff9283169263f1c07db8926107b0929116908890889088908890600401610bde565b600060405180830381600087803b1580156107ca57600080fd5b505af11580156107de573d6000803e3d6000fd5b505050505b50505050565b6000805473ffffffffffffffffffffffffffffffffffffffff16330361083457507fffffffffffffffffffffffffffffffffffffffffffffffffffffffffffffffec36013560601c90565b503390565b60015473ffffffffffffffffffffffffffffffffffffffff8281169116146101d5576040517fbfb2c26800000000000000000000000000000000000000000000000000000000815260040160405180910390fd5b803573ffffffffffffffffffffffffffffffffffffffff811681146108b157600080fd5b919050565b6000602082840312156108c857600080fd5b6105838261088d565b60008083601f8401126108e357600080fd5b50813567ffffffffffffffff8111156108fb57600080fd5b60208301915083602082850101111561091357600080fd5b9250929050565b600080600080600080600080600060c08a8c03121561093857600080fd5b6109418a61088d565b985060208a013567ffffffffffffffff8082111561095e57600080fd5b61096a8d838e016108d1565b909a50985060408c013591508082111561098357600080fd5b61098f8d838e016108d1565b90985096508691506109a360608d0161088d565b955060808c0135915081151582146109ba57600080fd5b90935060a08b013590808211156109d057600080fd5b506109dd8c828d016108d1565b915080935050809150509295985092959850929598565b600080600060608486031215610a0957600080fd5b610a128461088d565b9250610a206020850161088d565b9150610a2e6040850161088d565b90509250925092565b60008060208385031215610a4a57600080fd5b823567ffffffffffffffff811115610a6157600080fd5b610a6d858286016108d1565b90969095509350505050565b8183823760009101908152919050565b8183528181602085013750600060208284010152600060207fffffffffffffffffffffffffffffffffffffffffffffffffffffffffffffffe0601f840116840101905092915050565b600073ffffffffffffffffffffffffffffffffffffffff808b168352808a16602084015260c06040840152610b0b60c08401898b610a89565b8381036060850152610b1e81888a610a89565b959091166080840152505090151560a0909101529695505050505050565b6000815180845260005b81811015610b6257602081850181015186830182015201610b46565b5060006020828601015260207fffffffffffffffffffffffffffffffffffffffffffffffffffffffffffffffe0601f83011685010191505092915050565b73ffffffffffffffffffffffffffffffffffffffff84168152826020820152606060408201526000610bd56060830184610b3c565b95945050505050565b73ffffffffffffffffffffffffffffffffffffffff86168152846020820152608060408201526000610c136080830186610b3c565b8281036060840152610c26818587610a89565b9897505050505050505056fea164736f6c6343000815000a",
  "devdoc": {
    "kind": "dev",
    "methods": {},
    "version": 1
  },
  "userdoc": {
    "kind": "user",
    "methods": {},
    "version": 1
  },
  "storageLayout": {
    "storage": [
      {
        "astId": 5984,
        "contract": "contracts/tokens/presets/DefaultTokenFactory.sol:DefaultTokenFactory",
        "label": "_gateway",
        "offset": 0,
        "slot": "0",
        "type": "t_address"
      },
      {
        "astId": 5255,
        "contract": "contracts/tokens/presets/DefaultTokenFactory.sol:DefaultTokenFactory",
        "label": "_owner",
        "offset": 0,
        "slot": "1",
        "type": "t_address"
      },
      {
        "astId": 8326,
        "contract": "contracts/tokens/presets/DefaultTokenFactory.sol:DefaultTokenFactory",
        "label": "_initialized",
        "offset": 20,
        "slot": "1",
        "type": "t_bool"
      },
      {
        "astId": 6272,
        "contract": "contracts/tokens/presets/DefaultTokenFactory.sol:DefaultTokenFactory",
        "label": "_tokenImpl",
        "offset": 0,
        "slot": "2",
        "type": "t_address"
      },
      {
        "astId": 6275,
        "contract": "contracts/tokens/presets/DefaultTokenFactory.sol:DefaultTokenFactory",
        "label": "_tokenRegistry",
        "offset": 0,
        "slot": "3",
        "type": "t_contract(TokenRegistry)6919"
      }
    ],
    "types": {
      "t_address": {
        "encoding": "inplace",
        "label": "address",
        "numberOfBytes": "20"
      },
      "t_bool": {
        "encoding": "inplace",
        "label": "bool",
        "numberOfBytes": "1"
      },
      "t_contract(TokenRegistry)6919": {
        "encoding": "inplace",
        "label": "contract TokenRegistry",
        "numberOfBytes": "20"
      }
    }
  }
}