{
  "address": "0xAEeD883E5b04F3C2BD492718677ef9A2b187d776",
  "abi": [
    {
      "inputs": [],
      "stateMutability": "nonpayable",
      "type": "constructor"
    },
    {
      "inputs": [],
      "name": "AlreadyInitialized",
      "type": "error"
    },
    {
      "inputs": [],
      "name": "ControllerIsTheZeroAddress",
      "type": "error"
    },
    {
      "inputs": [
        {
          "internalType": "address",
          "name": "sender",
          "type": "address"
        },
        {
          "internalType": "uint256",
          "name": "tokenId",
          "type": "uint256"
        },
        {
          "internalType": "address",
          "name": "owner",
          "type": "address"
        }
      ],
      "name": "ERC721IncorrectOwner",
      "type": "error"
    },
    {
      "inputs": [
        {
          "internalType": "address",
          "name": "operator",
          "type": "address"
        },
        {
          "internalType": "uint256",
          "name": "tokenId",
          "type": "uint256"
        }
      ],
      "name": "ERC721InsufficientApproval",
      "type": "error"
    },
    {
      "inputs": [
        {
          "internalType": "address",
          "name": "approver",
          "type": "address"
        }
      ],
      "name": "ERC721InvalidApprover",
      "type": "error"
    },
    {
      "inputs": [
        {
          "internalType": "address",
          "name": "operator",
          "type": "address"
        }
      ],
      "name": "ERC721InvalidOperator",
      "type": "error"
    },
    {
      "inputs": [
        {
          "internalType": "address",
          "name": "owner",
          "type": "address"
        }
      ],
      "name": "ERC721InvalidOwner",
      "type": "error"
    },
    {
      "inputs": [
        {
          "internalType": "address",
          "name": "receiver",
          "type": "address"
        }
      ],
      "name": "ERC721InvalidReceiver",
      "type": "error"
    },
    {
      "inputs": [
        {
          "internalType": "address",
          "name": "sender",
          "type": "address"
        }
      ],
      "name": "ERC721InvalidSender",
      "type": "error"
    },
    {
      "inputs": [
        {
          "internalType": "uint256",
          "name": "tokenId",
          "type": "uint256"
        }
      ],
      "name": "ERC721NonexistentToken",
      "type": "error"
    },
    {
      "inputs": [],
      "name": "MsgSenderIsNotTheController",
      "type": "error"
    },
    {
      "anonymous": false,
      "inputs": [
        {
          "indexed": true,
          "internalType": "address",
          "name": "owner",
          "type": "address"
        },
        {
          "indexed": true,
          "internalType": "address",
          "name": "approved",
          "type": "address"
        },
        {
          "indexed": true,
          "internalType": "uint256",
          "name": "tokenId",
          "type": "uint256"
        }
      ],
      "name": "Approval",
      "type": "event"
    },
    {
      "anonymous": false,
      "inputs": [
        {
          "indexed": true,
          "internalType": "address",
          "name": "owner",
          "type": "address"
        },
        {
          "indexed": true,
          "internalType": "address",
          "name": "operator",
          "type": "address"
        },
        {
          "indexed": false,
          "internalType": "bool",
          "name": "approved",
          "type": "bool"
        }
      ],
      "name": "ApprovalForAll",
      "type": "event"
    },
    {
      "anonymous": false,
      "inputs": [
        {
          "indexed": true,
          "internalType": "address",
          "name": "from",
          "type": "address"
        },
        {
          "indexed": true,
          "internalType": "address",
          "name": "to",
          "type": "address"
        },
        {
          "indexed": true,
          "internalType": "uint256",
          "name": "tokenId",
          "type": "uint256"
        }
      ],
      "name": "Transfer",
      "type": "event"
    },
    {
      "inputs": [
        {
          "internalType": "address",
          "name": "to",
          "type": "address"
        },
        {
          "internalType": "uint256",
          "name": "tokenId",
          "type": "uint256"
        }
      ],
      "name": "approve",
      "outputs": [],
      "stateMutability": "nonpayable",
      "type": "function"
    },
    {
      "inputs": [
        {
          "internalType": "address",
          "name": "owner",
          "type": "address"
        }
      ],
      "name": "balanceOf",
      "outputs": [
        {
          "internalType": "uint256",
          "name": "",
          "type": "uint256"
        }
      ],
      "stateMutability": "view",
      "type": "function"
    },
    {
      "inputs": [
        {
          "internalType": "uint256",
          "name": "tokenId",
          "type": "uint256"
        }
      ],
      "name": "burn",
      "outputs": [],
      "stateMutability": "nonpayable",
      "type": "function"
    },
    {
      "inputs": [
        {
          "internalType": "uint256",
          "name": "tokenId",
          "type": "uint256"
        }
      ],
      "name": "getApproved",
      "outputs": [
        {
          "internalType": "address",
          "name": "",
          "type": "address"
        }
      ],
      "stateMutability": "view",
      "type": "function"
    },
    {
      "inputs": [],
      "name": "getGateway",
      "outputs": [
        {
          "internalType": "address",
          "name": "",
          "type": "address"
        }
      ],
      "stateMutability": "view",
      "type": "function"
    },
    {
      "inputs": [],
      "name": "getTokenFactory",
      "outputs": [
        {
          "internalType": "address",
          "name": "",
          "type": "address"
        }
      ],
      "stateMutability": "view",
      "type": "function"
    },
    {
      "inputs": [
        {
          "internalType": "address",
          "name": "controller",
          "type": "address"
        }
      ],
      "name": "hasController",
      "outputs": [
        {
          "internalType": "bool",
          "name": "",
          "type": "bool"
        }
      ],
      "stateMutability": "view",
      "type": "function"
    },
    {
      "inputs": [
        {
          "internalType": "address",
          "name": "gateway",
          "type": "address"
        },
        {
          "internalType": "string",
          "name": "name_",
          "type": "string"
        },
        {
          "internalType": "string",
          "name": "symbol_",
          "type": "string"
        },
        {
          "internalType": "address[]",
          "name": "controllers",
          "type": "address[]"
        }
      ],
      "name": "initialize",
      "outputs": [],
      "stateMutability": "nonpayable",
      "type": "function"
    },
    {
      "inputs": [],
      "name": "initialized",
      "outputs": [
        {
          "internalType": "bool",
          "name": "",
          "type": "bool"
        }
      ],
      "stateMutability": "view",
      "type": "function"
    },
    {
      "inputs": [
        {
          "internalType": "address",
          "name": "owner",
          "type": "address"
        },
        {
          "internalType": "address",
          "name": "operator",
          "type": "address"
        }
      ],
      "name": "isApprovedForAll",
      "outputs": [
        {
          "internalType": "bool",
          "name": "",
          "type": "bool"
        }
      ],
      "stateMutability": "view",
      "type": "function"
    },
    {
      "inputs": [
        {
          "internalType": "address",
          "name": "to",
          "type": "address"
        },
        {
          "internalType": "uint256",
          "name": "tokenId",
          "type": "uint256"
        }
      ],
      "name": "mint",
      "outputs": [],
      "stateMutability": "nonpayable",
      "type": "function"
    },
    {
      "inputs": [],
      "name": "name",
      "outputs": [
        {
          "internalType": "string",
          "name": "",
          "type": "string"
        }
      ],
      "stateMutability": "view",
      "type": "function"
    },
    {
      "inputs": [
        {
          "internalType": "uint256",
          "name": "tokenId",
          "type": "uint256"
        }
      ],
      "name": "ownerOf",
      "outputs": [
        {
          "internalType": "address",
          "name": "",
          "type": "address"
        }
      ],
      "stateMutability": "view",
      "type": "function"
    },
    {
      "inputs": [
        {
          "internalType": "address",
          "name": "from",
          "type": "address"
        },
        {
          "internalType": "address",
          "name": "to",
          "type": "address"
        },
        {
          "internalType": "uint256",
          "name": "tokenId",
          "type": "uint256"
        }
      ],
      "name": "safeTransferFrom",
      "outputs": [],
      "stateMutability": "nonpayable",
      "type": "function"
    },
    {
      "inputs": [
        {
          "internalType": "address",
          "name": "from",
          "type": "address"
        },
        {
          "internalType": "address",
          "name": "to",
          "type": "address"
        },
        {
          "internalType": "uint256",
          "name": "tokenId",
          "type": "uint256"
        },
        {
          "internalType": "bytes",
          "name": "data",
          "type": "bytes"
        }
      ],
      "name": "safeTransferFrom",
      "outputs": [],
      "stateMutability": "nonpayable",
      "type": "function"
    },
    {
      "inputs": [
        {
          "internalType": "address",
          "name": "operator",
          "type": "address"
        },
        {
          "internalType": "bool",
          "name": "approved",
          "type": "bool"
        }
      ],
      "name": "setApprovalForAll",
      "outputs": [],
      "stateMutability": "nonpayable",
      "type": "function"
    },
    {
      "inputs": [
        {
          "internalType": "bytes4",
          "name": "interfaceId",
          "type": "bytes4"
        }
      ],
      "name": "supportsInterface",
      "outputs": [
        {
          "internalType": "bool",
          "name": "",
          "type": "bool"
        }
      ],
      "stateMutability": "view",
      "type": "function"
    },
    {
      "inputs": [],
      "name": "symbol",
      "outputs": [
        {
          "internalType": "string",
          "name": "",
          "type": "string"
        }
      ],
      "stateMutability": "view",
      "type": "function"
    },
    {
      "inputs": [
        {
          "internalType": "uint256",
          "name": "tokenId",
          "type": "uint256"
        }
      ],
      "name": "tokenURI",
      "outputs": [
        {
          "internalType": "string",
          "name": "",
          "type": "string"
        }
      ],
      "stateMutability": "view",
      "type": "function"
    },
    {
      "inputs": [
        {
          "internalType": "address",
          "name": "from",
          "type": "address"
        },
        {
          "internalType": "address",
          "name": "to",
          "type": "address"
        },
        {
          "internalType": "uint256",
          "name": "tokenId",
          "type": "uint256"
        }
      ],
      "name": "transferFrom",
      "outputs": [],
      "stateMutability": "nonpayable",
      "type": "function"
    }
  ],
  "transactionHash": "0x95e4d893b16ec4f10e0a5a37ec50faece7370d6409ba8c4a8d32260b7c56eb13",
  "args": [],
  "numDeployments": 1,
  "solcInputHash": "08e69e23bcbdb608ff194fa8d418e3b8",
  "bytecode": "0x60806040523480156200001157600080fd5b506040805160208082018352600080835283519182019093529182529060016200003c83826200010c565b5060026200004b82826200010c565b50506007805460ff60a01b1916600160a01b17905550620001d8565b634e487b7160e01b600052604160045260246000fd5b600181811c908216806200009257607f821691505b602082108103620000b357634e487b7160e01b600052602260045260246000fd5b50919050565b601f8211156200010757600081815260208120601f850160051c81016020861015620000e25750805b601f850160051c820191505b818110156200010357828155600101620000ee565b5050505b505050565b81516001600160401b0381111562000128576200012862000067565b62000140816200013984546200007d565b84620000b9565b602080601f8311600181146200017857600084156200015f5750858301515b600019600386901b1c1916600185901b17855562000103565b600085815260208120601f198616915b82811015620001a95788860151825594840194600190910190840162000188565b5085821015620001c85787850151600019600388901b60f8161c191681555b5050505050600190811b01905550565b611beb80620001e86000396000f3fe608060405234801561001057600080fd5b506004361061016c5760003560e01c80636352211e116100cd578063a22cb46511610081578063b88d4fde11610066578063b88d4fde1461030d578063c87b56dd14610320578063e985e9c51461033357600080fd5b8063a22cb465146102ce578063a31f831f146102e157600080fd5b80638d83d6cc116100b25780638d83d6cc146102a2578063925d6ba2146102b557806395d89b41146102c657600080fd5b80636352211e1461026e57806370a082311461028157600080fd5b806323b872dd1161012457806342842e0e1161010957806342842e0e1461023757806342966c681461024a57806342bf3cc11461025d57600080fd5b806323b872dd1461021157806340c10f191461022457600080fd5b8063081812fc11610155578063081812fc146101ae578063095ea7b3146101d9578063158ef93e146101ee57600080fd5b806301ffc9a71461017157806306fdde0314610199575b600080fd5b61018461017f366004611564565b61036f565b60405190151581526020015b60405180910390f35b6101a1610454565b60405161019091906115ef565b6101c16101bc366004611602565b610463565b6040516001600160a01b039091168152602001610190565b6101ec6101e7366004611637565b61048c565b005b60075474010000000000000000000000000000000000000000900460ff16610184565b6101ec61021f366004611661565b6104a2565b6101ec610232366004611637565b61056b565b6101ec610245366004611661565b6105be565b6101ec610258366004611602565b6105de565b6007546001600160a01b03166101c1565b6101c161027c366004611602565b610633565b61029461028f36600461169d565b61063e565b604051908152602001610190565b6101ec6102b0366004611701565b61069f565b6008546001600160a01b03166101c1565b6101a16106bf565b6101ec6102dc3660046117dc565b6106c9565b6101846102ef36600461169d565b6001600160a01b031660009081526020819052604090205460ff1690565b6101ec61031b366004611847565b6106db565b6101a161032e366004611602565b6106f2565b610184610341366004611941565b6001600160a01b03918216600090815260066020908152604080832093909416825291909152205460ff1690565b60007fffffffff0000000000000000000000000000000000000000000000000000000082167f80ac58cd00000000000000000000000000000000000000000000000000000000148061040257507fffffffff0000000000000000000000000000000000000000000000000000000082167f5b5e139f00000000000000000000000000000000000000000000000000000000145b8061044e57507f01ffc9a7000000000000000000000000000000000000000000000000000000007fffffffff000000000000000000000000000000000000000000000000000000008316145b92915050565b606061045e610767565b905090565b600061046e826107f9565b506000828152600560205260409020546001600160a01b031661044e565b61049e828261049961084b565b610855565b5050565b6001600160a01b0382166104ea576040517f64a0ae92000000000000000000000000000000000000000000000000000000008152600060048201526024015b60405180910390fd5b60006104fe83836104f961084b565b610862565b9050836001600160a01b0316816001600160a01b031614610565576040517f64283d7b0000000000000000000000000000000000000000000000000000000081526001600160a01b03808616600483015260248201849052821660448201526064016104e1565b50505050565b3360009081526020819052604090205460ff166105b4576040517f16b45a5400000000000000000000000000000000000000000000000000000000815260040160405180910390fd5b61049e82826108ff565b6105d9838383604051806020016040528060008152506106db565b505050565b3360009081526020819052604090205460ff16610627576040517f16b45a5400000000000000000000000000000000000000000000000000000000815260040160405180910390fd5b61063081610996565b50565b600061044e826107f9565b60006001600160a01b038216610683576040517f89c62b64000000000000000000000000000000000000000000000000000000008152600060048201526024016104e1565b506001600160a01b031660009081526004602052604090205490565b6106ac87878787876109ea565b6106b68282610a16565b50505050505050565b606061045e610af8565b61049e6106d461084b565b8383610b07565b6106e68484846104a2565b61056584848484610b96565b60606106fd826107f9565b50600061071560408051602081019091526000815290565b905060008151116107355760405180602001604052806000815250610760565b8061073f84610d47565b604051602001610750929190611974565b6040516020818303038152906040525b9392505050565b606060098054610776906119a3565b80601f01602080910402602001604051908101604052809291908181526020018280546107a2906119a3565b80156107ef5780601f106107c4576101008083540402835291602001916107ef565b820191906000526020600020905b8154815290600101906020018083116107d257829003601f168201915b5050505050905090565b6000818152600360205260408120546001600160a01b03168061044e576040517f7e273289000000000000000000000000000000000000000000000000000000008152600481018490526024016104e1565b600061045e610e05565b6105d98383836001610e4a565b600061086f848484610f0c565b6008546040517f1be448590000000000000000000000000000000000000000000000000000000081526001600160a01b038084166004830152878116602483015260448201879052929350911690631be4485990606401600060405180830381600087803b1580156108e057600080fd5b505af11580156108f4573d6000803e3d6000fd5b505050509392505050565b6001600160a01b038216610942576040517f64a0ae92000000000000000000000000000000000000000000000000000000008152600060048201526024016104e1565b600061095083836000610862565b90506001600160a01b038116156105d9576040517f73c6ac6e000000000000000000000000000000000000000000000000000000008152600060048201526024016104e1565b60006109a56000836000610862565b90506001600160a01b03811661049e576040517f7e273289000000000000000000000000000000000000000000000000000000008152600481018390526024016104e1565b6109f38561103b565b6009610a00848683611a3c565b50600a610a0e828483611a3c565b505050505050565b8060005b81811015610565576000848483818110610a3657610a36611b56565b9050602002016020810190610a4b919061169d565b90506001600160a01b038116610a8d576040517f9f05655a00000000000000000000000000000000000000000000000000000000815260040160405180910390fd5b6001600160a01b03811660009081526020819052604090205460ff16610aef576001600160a01b038116600090815260208190526040902080547fffffffffffffffffffffffffffffffffffffffffffffffffffffffffffffff001660011790555b50600101610a1a565b6060600a8054610776906119a3565b610b1283838361110c565b6008546040517ffef8de0b0000000000000000000000000000000000000000000000000000000081526001600160a01b038581166004830152848116602483015283151560448301529091169063fef8de0b90606401600060405180830381600087803b158015610b8257600080fd5b505af11580156106b6573d6000803e3d6000fd5b6001600160a01b0383163b1561056557826001600160a01b031663150b7a02610bbd61084b565b8685856040518563ffffffff1660e01b8152600401610bdf9493929190611b85565b6020604051808303816000875af1925050508015610c38575060408051601f3d9081017fffffffffffffffffffffffffffffffffffffffffffffffffffffffffffffffe0168201909252610c3591810190611bc1565b60015b610cba573d808015610c66576040519150601f19603f3d011682016040523d82523d6000602084013e610c6b565b606091505b508051600003610cb2576040517f64a0ae920000000000000000000000000000000000000000000000000000000081526001600160a01b03851660048201526024016104e1565b805181602001fd5b7fffffffff0000000000000000000000000000000000000000000000000000000081167f150b7a020000000000000000000000000000000000000000000000000000000014610d40576040517f64a0ae920000000000000000000000000000000000000000000000000000000081526001600160a01b03851660048201526024016104e1565b5050505050565b60606000610d54836111e2565b600101905060008167ffffffffffffffff811115610d7457610d74611818565b6040519080825280601f01601f191660200182016040528015610d9e576020820181803683370190505b5090508181016020015b7fffffffffffffffffffffffffffffffffffffffffffffffffffffffffffffffff017f3031323334353637383961626364656600000000000000000000000000000000600a86061a8153600a8504945084610da857509392505050565b6007546000906001600160a01b03163303610e4557507fffffffffffffffffffffffffffffffffffffffffffffffffffffffffffffffec36013560601c90565b503390565b610e56848484846112c4565b6008546001600160a01b031663fd836ab8610e86856000908152600360205260409020546001600160a01b031690565b6040517fffffffff0000000000000000000000000000000000000000000000000000000060e084901b1681526001600160a01b039182166004820152908716602482015260448101869052606401600060405180830381600087803b158015610eee57600080fd5b505af1158015610f02573d6000803e3d6000fd5b5050505050505050565b6000828152600360205260408120546001600160a01b0390811690831615610f3957610f3981848661141a565b6001600160a01b03811615610f9557610f56600085600080610e4a565b6001600160a01b038116600090815260046020526040902080547fffffffffffffffffffffffffffffffffffffffffffffffffffffffffffffffff0190555b6001600160a01b03851615610fc4576001600160a01b0385166000908152600460205260409020805460010190555b60008481526003602052604080822080547fffffffffffffffffffffffff0000000000000000000000000000000000000000166001600160a01b0389811691821790925591518793918516917fddf252ad1be2c89b69c2b068fc378daa952ba7f163c4a11628f55a4df523b3ef91a4949350505050565b60075474010000000000000000000000000000000000000000900460ff1615611090576040517f0dc149f000000000000000000000000000000000000000000000000000000000815260040160405180910390fd5b600780546001600160a01b039092167fffffffffffffffffffffff0000000000000000000000000000000000000000009092169190911774010000000000000000000000000000000000000000179055600880547fffffffffffffffffffffffff00000000000000000000000000000000000000001633179055565b6001600160a01b038216611157576040517f5b08ba180000000000000000000000000000000000000000000000000000000081526001600160a01b03831660048201526024016104e1565b6001600160a01b0383811660008181526006602090815260408083209487168084529482529182902080547fffffffffffffffffffffffffffffffffffffffffffffffffffffffffffffff001686151590811790915591519182527f17307eab39ab6107e8899845ad3d59bd9653f200f220920489ca2b5937696c31910160405180910390a3505050565b6000807a184f03e93ff9f4daa797ed6e38ed64bf6a1f010000000000000000831061122b577a184f03e93ff9f4daa797ed6e38ed64bf6a1f010000000000000000830492506040015b6d04ee2d6d415b85acef81000000008310611257576d04ee2d6d415b85acef8100000000830492506020015b662386f26fc10000831061127557662386f26fc10000830492506010015b6305f5e100831061128d576305f5e100830492506008015b61271083106112a157612710830492506004015b606483106112b3576064830492506002015b600a831061044e5760010192915050565b80806112d857506001600160a01b03821615155b156113d25760006112e8846107f9565b90506001600160a01b038316158015906113145750826001600160a01b0316816001600160a01b031614155b801561134657506001600160a01b0380821660009081526006602090815260408083209387168352929052205460ff16155b15611388576040517fa9fbf51f0000000000000000000000000000000000000000000000000000000081526001600160a01b03841660048201526024016104e1565b81156113d05783856001600160a01b0316826001600160a01b03167f8c5be1e5ebec7d5bd14f71427d1e84f3dd0314c0f7b2291e5b200ac8c7c3b92560405160405180910390a45b505b5050600090815260056020526040902080547fffffffffffffffffffffffff0000000000000000000000000000000000000000166001600160a01b0392909216919091179055565b6114258383836114b0565b6105d9576001600160a01b03831661146c576040517f7e273289000000000000000000000000000000000000000000000000000000008152600481018290526024016104e1565b6040517f177e802f0000000000000000000000000000000000000000000000000000000081526001600160a01b0383166004820152602481018290526044016104e1565b60006001600160a01b0383161580159061152e5750826001600160a01b0316846001600160a01b0316148061150a57506001600160a01b0380851660009081526006602090815260408083209387168352929052205460ff165b8061152e57506000828152600560205260409020546001600160a01b038481169116145b949350505050565b7fffffffff000000000000000000000000000000000000000000000000000000008116811461063057600080fd5b60006020828403121561157657600080fd5b813561076081611536565b60005b8381101561159c578181015183820152602001611584565b50506000910152565b600081518084526115bd816020860160208601611581565b601f017fffffffffffffffffffffffffffffffffffffffffffffffffffffffffffffffe0169290920160200192915050565b60208152600061076060208301846115a5565b60006020828403121561161457600080fd5b5035919050565b80356001600160a01b038116811461163257600080fd5b919050565b6000806040838503121561164a57600080fd5b6116538361161b565b946020939093013593505050565b60008060006060848603121561167657600080fd5b61167f8461161b565b925061168d6020850161161b565b9150604084013590509250925092565b6000602082840312156116af57600080fd5b6107608261161b565b60008083601f8401126116ca57600080fd5b50813567ffffffffffffffff8111156116e257600080fd5b6020830191508360208285010111156116fa57600080fd5b9250929050565b60008060008060008060006080888a03121561171c57600080fd5b6117258861161b565b9650602088013567ffffffffffffffff8082111561174257600080fd5b61174e8b838c016116b8565b909850965060408a013591508082111561176757600080fd5b6117738b838c016116b8565b909650945060608a013591508082111561178c57600080fd5b818a0191508a601f8301126117a057600080fd5b8135818111156117af57600080fd5b8b60208260051b85010111156117c457600080fd5b60208301945080935050505092959891949750929550565b600080604083850312156117ef57600080fd5b6117f88361161b565b91506020830135801515811461180d57600080fd5b809150509250929050565b7f4e487b7100000000000000000000000000000000000000000000000000000000600052604160045260246000fd5b6000806000806080858703121561185d57600080fd5b6118668561161b565b93506118746020860161161b565b925060408501359150606085013567ffffffffffffffff8082111561189857600080fd5b818701915087601f8301126118ac57600080fd5b8135818111156118be576118be611818565b604051601f82017fffffffffffffffffffffffffffffffffffffffffffffffffffffffffffffffe0908116603f0116810190838211818310171561190457611904611818565b816040528281528a602084870101111561191d57600080fd5b82602086016020830137600060208483010152809550505050505092959194509250565b6000806040838503121561195457600080fd5b61195d8361161b565b915061196b6020840161161b565b90509250929050565b60008351611986818460208801611581565b83519083019061199a818360208801611581565b01949350505050565b600181811c908216806119b757607f821691505b6020821081036119f0577f4e487b7100000000000000000000000000000000000000000000000000000000600052602260045260246000fd5b50919050565b601f8211156105d957600081815260208120601f850160051c81016020861015611a1d5750805b601f850160051c820191505b81811015610a0e57828155600101611a29565b67ffffffffffffffff831115611a5457611a54611818565b611a6883611a6283546119a3565b836119f6565b6000601f841160018114611aba5760008515611a845750838201355b7fffffffffffffffffffffffffffffffffffffffffffffffffffffffffffffffff600387901b1c1916600186901b178355610d40565b6000838152602090207fffffffffffffffffffffffffffffffffffffffffffffffffffffffffffffffe0861690835b82811015611b095786850135825560209485019460019092019101611ae9565b5086821015611b44577fffffffffffffffffffffffffffffffffffffffffffffffffffffffffffffffff60f88860031b161c19848701351681555b505060018560011b0183555050505050565b7f4e487b7100000000000000000000000000000000000000000000000000000000600052603260045260246000fd5b60006001600160a01b03808716835280861660208401525083604083015260806060830152611bb760808301846115a5565b9695505050505050565b600060208284031215611bd357600080fd5b81516107608161153656fea164736f6c6343000815000a",
  "devdoc": {
    "errors": {
      "ERC721IncorrectOwner(address,uint256,address)": [
        {
          "details": "Indicates an error related to the ownership over a particular token. Used in transfers.",
          "params": {
            "owner": "Address of the current owner of a token.",
            "sender": "Address whose tokens are being transferred.",
            "tokenId": "Identifier number of a token."
          }
        }
      ],
      "ERC721InsufficientApproval(address,uint256)": [
        {
          "details": "Indicates a failure with the `operator`’s approval. Used in transfers.",
          "params": {
            "operator": "Address that may be allowed to operate on tokens without being their owner.",
            "tokenId": "Identifier number of a token."
          }
        }
      ],
      "ERC721InvalidApprover(address)": [
        {
          "details": "Indicates a failure with the `approver` of a token to be approved. Used in approvals.",
          "params": {
            "approver": "Address initiating an approval operation."
          }
        }
      ],
      "ERC721InvalidOperator(address)": [
        {
          "details": "Indicates a failure with the `operator` to be approved. Used in approvals.",
          "params": {
            "operator": "Address that may be allowed to operate on tokens without being their owner."
          }
        }
      ],
      "ERC721InvalidOwner(address)": [
        {
          "details": "Indicates that an address can't be an owner. For example, `address(0)` is a forbidden owner in EIP-20. Used in balance queries.",
          "params": {
            "owner": "Address of the current owner of a token."
          }
        }
      ],
      "ERC721InvalidReceiver(address)": [
        {
          "details": "Indicates a failure with the token `receiver`. Used in transfers.",
          "params": {
            "receiver": "Address to which tokens are being transferred."
          }
        }
      ],
      "ERC721InvalidSender(address)": [
        {
          "details": "Indicates a failure with the token `sender`. Used in transfers.",
          "params": {
            "sender": "Address whose tokens are being transferred."
          }
        }
      ],
      "ERC721NonexistentToken(uint256)": [
        {
          "details": "Indicates a `tokenId` whose `owner` is the zero address.",
          "params": {
            "tokenId": "Identifier number of a token."
          }
        }
      ]
    },
    "events": {
      "Approval(address,address,uint256)": {
        "details": "Emitted when `owner` enables `approved` to manage the `tokenId` token."
      },
      "ApprovalForAll(address,address,bool)": {
        "details": "Emitted when `owner` enables or disables (`approved`) `operator` to manage all of its assets."
      },
      "Transfer(address,address,uint256)": {
        "details": "Emitted when `tokenId` token is transferred from `from` to `to`."
      }
    },
    "kind": "dev",
    "methods": {
      "approve(address,uint256)": {
        "details": "See {IERC721-approve}."
      },
      "balanceOf(address)": {
        "details": "See {IERC721-balanceOf}."
      },
      "getApproved(uint256)": {
        "details": "See {IERC721-getApproved}."
      },
      "isApprovedForAll(address,address)": {
        "details": "See {IERC721-isApprovedForAll}."
      },
      "ownerOf(uint256)": {
        "details": "See {IERC721-ownerOf}."
      },
      "safeTransferFrom(address,address,uint256)": {
        "details": "See {IERC721-safeTransferFrom}."
      },
      "safeTransferFrom(address,address,uint256,bytes)": {
        "details": "See {IERC721-safeTransferFrom}."
      },
      "setApprovalForAll(address,bool)": {
        "details": "See {IERC721-setApprovalForAll}."
      },
      "supportsInterface(bytes4)": {
        "details": "See {IERC165-supportsInterface}."
      },
      "tokenURI(uint256)": {
        "details": "See {IERC721Metadata-tokenURI}."
      },
      "transferFrom(address,address,uint256)": {
        "details": "See {IERC721-transferFrom}."
      }
    },
    "version": 1
  },
  "userdoc": {
    "kind": "user",
    "methods": {},
    "version": 1
  },
  "storageLayout": {
    "storage": [
      {
        "astId": 5084,
        "contract": "contracts/tokens/erc721/presets/ERC721ControlledTokenImpl.sol:ERC721ControlledTokenImpl",
        "label": "_controllers",
        "offset": 0,
        "slot": "0",
        "type": "t_mapping(t_address,t_bool)"
      },
      {
        "astId": 1238,
        "contract": "contracts/tokens/erc721/presets/ERC721ControlledTokenImpl.sol:ERC721ControlledTokenImpl",
        "label": "_name",
        "offset": 0,
        "slot": "1",
        "type": "t_string_storage"
      },
      {
        "astId": 1240,
        "contract": "contracts/tokens/erc721/presets/ERC721ControlledTokenImpl.sol:ERC721ControlledTokenImpl",
        "label": "_symbol",
        "offset": 0,
        "slot": "2",
        "type": "t_string_storage"
      },
      {
        "astId": 1244,
        "contract": "contracts/tokens/erc721/presets/ERC721ControlledTokenImpl.sol:ERC721ControlledTokenImpl",
        "label": "_owners",
        "offset": 0,
        "slot": "3",
        "type": "t_mapping(t_uint256,t_address)"
      },
      {
        "astId": 1248,
        "contract": "contracts/tokens/erc721/presets/ERC721ControlledTokenImpl.sol:ERC721ControlledTokenImpl",
        "label": "_balances",
        "offset": 0,
        "slot": "4",
        "type": "t_mapping(t_address,t_uint256)"
      },
      {
        "astId": 1252,
        "contract": "contracts/tokens/erc721/presets/ERC721ControlledTokenImpl.sol:ERC721ControlledTokenImpl",
        "label": "_tokenApprovals",
        "offset": 0,
        "slot": "5",
        "type": "t_mapping(t_uint256,t_address)"
      },
      {
        "astId": 1258,
        "contract": "contracts/tokens/erc721/presets/ERC721ControlledTokenImpl.sol:ERC721ControlledTokenImpl",
        "label": "_operatorApprovals",
        "offset": 0,
        "slot": "6",
        "type": "t_mapping(t_address,t_mapping(t_address,t_bool))"
      },
      {
        "astId": 6129,
        "contract": "contracts/tokens/erc721/presets/ERC721ControlledTokenImpl.sol:ERC721ControlledTokenImpl",
        "label": "_gateway",
        "offset": 0,
        "slot": "7",
        "type": "t_address"
      },
      {
        "astId": 8589,
        "contract": "contracts/tokens/erc721/presets/ERC721ControlledTokenImpl.sol:ERC721ControlledTokenImpl",
        "label": "_initialized",
        "offset": 20,
        "slot": "7",
        "type": "t_bool"
      },
      {
        "astId": 6496,
        "contract": "contracts/tokens/erc721/presets/ERC721ControlledTokenImpl.sol:ERC721ControlledTokenImpl",
        "label": "_tokenFactory",
        "offset": 0,
        "slot": "8",
        "type": "t_address"
      },
      {
        "astId": 6498,
        "contract": "contracts/tokens/erc721/presets/ERC721ControlledTokenImpl.sol:ERC721ControlledTokenImpl",
        "label": "_name",
        "offset": 0,
        "slot": "9",
        "type": "t_string_storage"
      },
      {
        "astId": 6500,
        "contract": "contracts/tokens/erc721/presets/ERC721ControlledTokenImpl.sol:ERC721ControlledTokenImpl",
        "label": "_symbol",
        "offset": 0,
        "slot": "10",
        "type": "t_string_storage"
      }
    ],
    "types": {
      "t_address": {
        "encoding": "inplace",
        "label": "address",
        "numberOfBytes": "20"
      },
      "t_bool": {
        "encoding": "inplace",
        "label": "bool",
        "numberOfBytes": "1"
      },
      "t_mapping(t_address,t_bool)": {
        "encoding": "mapping",
        "key": "t_address",
        "label": "mapping(address => bool)",
        "numberOfBytes": "32",
        "value": "t_bool"
      },
      "t_mapping(t_address,t_mapping(t_address,t_bool))": {
        "encoding": "mapping",
        "key": "t_address",
        "label": "mapping(address => mapping(address => bool))",
        "numberOfBytes": "32",
        "value": "t_mapping(t_address,t_bool)"
      },
      "t_mapping(t_address,t_uint256)": {
        "encoding": "mapping",
        "key": "t_address",
        "label": "mapping(address => uint256)",
        "numberOfBytes": "32",
        "value": "t_uint256"
      },
      "t_mapping(t_uint256,t_address)": {
        "encoding": "mapping",
        "key": "t_uint256",
        "label": "mapping(uint256 => address)",
        "numberOfBytes": "32",
        "value": "t_address"
      },
      "t_string_storage": {
        "encoding": "bytes",
        "label": "string",
        "numberOfBytes": "32"
      },
      "t_uint256": {
        "encoding": "inplace",
        "label": "uint256",
        "numberOfBytes": "32"
      }
    }
  }
}