{
  "address": "0xCbF4E0267c7E2D6471184E1029EDCc5398cbC080",
  "abi": [
    {
      "inputs": [
        {
          "internalType": "address",
          "name": "owner",
          "type": "address"
        },
        {
          "internalType": "string",
          "name": "name",
          "type": "string"
        }
      ],
      "stateMutability": "nonpayable",
      "type": "constructor"
    },
    {
      "inputs": [],
      "name": "AlreadyInitialized",
      "type": "error"
    },
    {
      "inputs": [],
      "name": "ECDSAInvalidSignature",
      "type": "error"
    },
    {
      "inputs": [
        {
          "internalType": "uint256",
          "name": "length",
          "type": "uint256"
        }
      ],
      "name": "ECDSAInvalidSignatureLength",
      "type": "error"
    },
    {
      "inputs": [
        {
          "internalType": "bytes32",
          "name": "s",
          "type": "bytes32"
        }
      ],
      "name": "ECDSAInvalidSignatureS",
      "type": "error"
    },
    {
      "inputs": [],
      "name": "ERC1167FailedCreateClone",
      "type": "error"
    },
    {
      "inputs": [],
      "name": "GuardianAlreadyExists",
      "type": "error"
    },
    {
      "inputs": [],
      "name": "GuardianDoesntExist",
      "type": "error"
    },
    {
      "inputs": [],
      "name": "GuardianIsTheZeroAddress",
      "type": "error"
    },
    {
      "inputs": [],
      "name": "InvalidGuardianSignature",
      "type": "error"
    },
    {
      "inputs": [],
      "name": "InvalidShortString",
      "type": "error"
    },
    {
      "inputs": [],
      "name": "MsgSenderIsNotTheGuardian",
      "type": "error"
    },
    {
      "inputs": [],
      "name": "MsgSenderIsNotTheOwner",
      "type": "error"
    },
    {
      "inputs": [],
      "name": "MsgSenderIsNotTheToken",
      "type": "error"
    },
    {
      "inputs": [],
      "name": "NotEnoughTokenControllers",
      "type": "error"
    },
    {
      "inputs": [],
      "name": "OwnerIsTheZeroAddress",
      "type": "error"
    },
    {
      "inputs": [
        {
          "internalType": "string",
          "name": "str",
          "type": "string"
        }
      ],
      "name": "StringTooLong",
      "type": "error"
    },
    {
      "inputs": [],
      "name": "TokenImplIsTheZeroAddress",
      "type": "error"
    },
    {
      "anonymous": false,
      "inputs": [],
      "name": "EIP712DomainChanged",
      "type": "event"
    },
    {
      "anonymous": false,
      "inputs": [
        {
          "indexed": false,
          "internalType": "address",
          "name": "guardian",
          "type": "address"
        }
      ],
      "name": "GuardianAdded",
      "type": "event"
    },
    {
      "anonymous": false,
      "inputs": [
        {
          "indexed": false,
          "internalType": "address",
          "name": "guardian",
          "type": "address"
        }
      ],
      "name": "GuardianRemoved",
      "type": "event"
    },
    {
      "anonymous": false,
      "inputs": [
        {
          "indexed": false,
          "internalType": "address",
          "name": "gateway",
          "type": "address"
        },
        {
          "indexed": false,
          "internalType": "address[]",
          "name": "guardians",
          "type": "address[]"
        },
        {
          "indexed": false,
          "internalType": "address",
          "name": "tokenImpl",
          "type": "address"
        }
      ],
      "name": "Initialized",
      "type": "event"
    },
    {
      "anonymous": false,
      "inputs": [
        {
          "indexed": false,
          "internalType": "address",
          "name": "owner",
          "type": "address"
        }
      ],
      "name": "OwnerUpdated",
      "type": "event"
    },
    {
      "anonymous": false,
      "inputs": [
        {
          "indexed": false,
          "internalType": "address",
          "name": "token",
          "type": "address"
        },
        {
          "indexed": false,
          "internalType": "address",
          "name": "owner",
          "type": "address"
        },
        {
          "indexed": false,
          "internalType": "address",
          "name": "approved",
          "type": "address"
        },
        {
          "indexed": false,
          "internalType": "uint256",
          "name": "tokenId",
          "type": "uint256"
        }
      ],
      "name": "TokenApproval",
      "type": "event"
    },
    {
      "anonymous": false,
      "inputs": [
        {
          "indexed": false,
          "internalType": "address",
          "name": "token",
          "type": "address"
        },
        {
          "indexed": false,
          "internalType": "address",
          "name": "owner",
          "type": "address"
        },
        {
          "indexed": false,
          "internalType": "address",
          "name": "operator",
          "type": "address"
        },
        {
          "indexed": false,
          "internalType": "bool",
          "name": "approved",
          "type": "bool"
        }
      ],
      "name": "TokenApprovalForAll",
      "type": "event"
    },
    {
      "anonymous": false,
      "inputs": [
        {
          "indexed": false,
          "internalType": "address",
          "name": "token",
          "type": "address"
        },
        {
          "indexed": false,
          "internalType": "string",
          "name": "name",
          "type": "string"
        },
        {
          "indexed": false,
          "internalType": "string",
          "name": "symbol",
          "type": "string"
        },
        {
          "indexed": false,
          "internalType": "address[]",
          "name": "controllers",
          "type": "address[]"
        }
      ],
      "name": "TokenCreated",
      "type": "event"
    },
    {
      "anonymous": false,
      "inputs": [
        {
          "indexed": false,
          "internalType": "address",
          "name": "token",
          "type": "address"
        },
        {
          "indexed": false,
          "internalType": "address",
          "name": "from",
          "type": "address"
        },
        {
          "indexed": false,
          "internalType": "address",
          "name": "to",
          "type": "address"
        },
        {
          "indexed": false,
          "internalType": "uint256",
          "name": "tokenId",
          "type": "uint256"
        }
      ],
      "name": "TokenTransfer",
      "type": "event"
    },
    {
      "inputs": [
        {
          "internalType": "address",
          "name": "guardian",
          "type": "address"
        }
      ],
      "name": "addGuardian",
      "outputs": [],
      "stateMutability": "nonpayable",
      "type": "function"
    },
    {
      "inputs": [
        {
          "internalType": "string",
          "name": "symbol",
          "type": "string"
        }
      ],
      "name": "computeToken",
      "outputs": [
        {
          "internalType": "address",
          "name": "",
          "type": "address"
        }
      ],
      "stateMutability": "view",
      "type": "function"
    },
    {
      "inputs": [
        {
          "components": [
            {
              "internalType": "string",
              "name": "name",
              "type": "string"
            },
            {
              "internalType": "string",
              "name": "symbol",
              "type": "string"
            },
            {
              "internalType": "address[]",
              "name": "controllers",
              "type": "address[]"
            }
          ],
          "internalType": "struct ERC721ControlledTokenFactory.TokenData",
          "name": "tokenData",
          "type": "tuple"
        },
        {
          "internalType": "bytes",
          "name": "signature",
          "type": "bytes"
        }
      ],
      "name": "createToken",
      "outputs": [],
      "stateMutability": "nonpayable",
      "type": "function"
    },
    {
      "inputs": [],
      "name": "eip712Domain",
      "outputs": [
        {
          "internalType": "bytes1",
          "name": "fields",
          "type": "bytes1"
        },
        {
          "internalType": "string",
          "name": "name",
          "type": "string"
        },
        {
          "internalType": "string",
          "name": "version",
          "type": "string"
        },
        {
          "internalType": "uint256",
          "name": "chainId",
          "type": "uint256"
        },
        {
          "internalType": "address",
          "name": "verifyingContract",
          "type": "address"
        },
        {
          "internalType": "bytes32",
          "name": "salt",
          "type": "bytes32"
        },
        {
          "internalType": "uint256[]",
          "name": "extensions",
          "type": "uint256[]"
        }
      ],
      "stateMutability": "view",
      "type": "function"
    },
    {
      "inputs": [
        {
          "internalType": "address",
          "name": "owner",
          "type": "address"
        },
        {
          "internalType": "address",
          "name": "approved",
          "type": "address"
        },
        {
          "internalType": "uint256",
          "name": "tokenId",
          "type": "uint256"
        }
      ],
      "name": "emitTokenApproval",
      "outputs": [],
      "stateMutability": "nonpayable",
      "type": "function"
    },
    {
      "inputs": [
        {
          "internalType": "address",
          "name": "owner",
          "type": "address"
        },
        {
          "internalType": "address",
          "name": "operator",
          "type": "address"
        },
        {
          "internalType": "bool",
          "name": "approved",
          "type": "bool"
        }
      ],
      "name": "emitTokenApprovalForAll",
      "outputs": [],
      "stateMutability": "nonpayable",
      "type": "function"
    },
    {
      "inputs": [
        {
          "internalType": "address",
          "name": "from",
          "type": "address"
        },
        {
          "internalType": "address",
          "name": "to",
          "type": "address"
        },
        {
          "internalType": "uint256",
          "name": "tokenId",
          "type": "uint256"
        }
      ],
      "name": "emitTokenTransfer",
      "outputs": [],
      "stateMutability": "nonpayable",
      "type": "function"
    },
    {
      "inputs": [],
      "name": "getGateway",
      "outputs": [
        {
          "internalType": "address",
          "name": "",
          "type": "address"
        }
      ],
      "stateMutability": "view",
      "type": "function"
    },
    {
      "inputs": [],
      "name": "getOwner",
      "outputs": [
        {
          "internalType": "address",
          "name": "",
          "type": "address"
        }
      ],
      "stateMutability": "view",
      "type": "function"
    },
    {
      "inputs": [
        {
          "internalType": "address",
          "name": "guardian",
          "type": "address"
        }
      ],
      "name": "hasGuardian",
      "outputs": [
        {
          "internalType": "bool",
          "name": "",
          "type": "bool"
        }
      ],
      "stateMutability": "view",
      "type": "function"
    },
    {
      "inputs": [
        {
          "internalType": "address",
          "name": "token",
          "type": "address"
        }
      ],
      "name": "hasToken",
      "outputs": [
        {
          "internalType": "bool",
          "name": "",
          "type": "bool"
        }
      ],
      "stateMutability": "view",
      "type": "function"
    },
    {
      "inputs": [
        {
          "components": [
            {
              "internalType": "string",
              "name": "name",
              "type": "string"
            },
            {
              "internalType": "string",
              "name": "symbol",
              "type": "string"
            },
            {
              "internalType": "address[]",
              "name": "controllers",
              "type": "address[]"
            }
          ],
          "internalType": "struct ERC721ControlledTokenFactory.TokenData",
          "name": "tokenData",
          "type": "tuple"
        }
      ],
      "name": "hashToken",
      "outputs": [
        {
          "internalType": "bytes32",
          "name": "",
          "type": "bytes32"
        }
      ],
      "stateMutability": "view",
      "type": "function"
    },
    {
      "inputs": [
        {
          "internalType": "address",
          "name": "gateway",
          "type": "address"
        },
        {
          "internalType": "address[]",
          "name": "guardians",
          "type": "address[]"
        },
        {
          "internalType": "address",
          "name": "tokenImpl",
          "type": "address"
        }
      ],
      "name": "initialize",
      "outputs": [],
      "stateMutability": "nonpayable",
      "type": "function"
    },
    {
      "inputs": [],
      "name": "initialized",
      "outputs": [
        {
          "internalType": "bool",
          "name": "",
          "type": "bool"
        }
      ],
      "stateMutability": "view",
      "type": "function"
    },
    {
      "inputs": [
        {
          "internalType": "address",
          "name": "guardian",
          "type": "address"
        }
      ],
      "name": "removeGuardian",
      "outputs": [],
      "stateMutability": "nonpayable",
      "type": "function"
    },
    {
      "inputs": [
        {
          "internalType": "address",
          "name": "owner",
          "type": "address"
        }
      ],
      "name": "setOwner",
      "outputs": [],
      "stateMutability": "nonpayable",
      "type": "function"
    }
  ],
  "transactionHash": "0x4a577643622cb3ddc2e9fde3cc620ea46da759d164956ba0e2faf1029a0c791a",
  "args": [
    "0xF2a1699320517FA9C5c749EA9DfB5594Bb9862e5",
    "OM!goods ERC721 Controlled Token Factory"
  ],
  "numDeployments": 1,
  "solcInputHash": "08e69e23bcbdb608ff194fa8d418e3b8",
  "bytecode": "0x6101606040523480156200001257600080fd5b50604051620021e9380380620021e983398101604081905262000035916200021d565b81818181818082604051806040016040528060018152602001603160f81b8152506200006c6000836200015c60201b90919060201c565b610120526200007d8160016200015c565b61014052815160208084019190912060e052815190820120610100524660a0526200010b60e05161010051604080517f8b73c3c69bb8fe3d512ecc4cf759cc79239f7b179b0ffacaa9a75d522b39400f60208201529081019290925260608201524660808201523060a082015260009060c00160405160208183030381529060405280519060200120905090565b60805250503060c0526001600160a01b038116156200012b57806200012d565b335b600380546001600160a01b0319166001600160a01b039290921691909117905550620004ad9650505050505050565b60006020835110156200017c57620001748362000195565b90506200018f565b8162000189848262000387565b5060ff90505b92915050565b600080829050601f81511115620001cc578260405163305a27a960e01b8152600401620001c3919062000453565b60405180910390fd5b8051620001d98262000488565b179392505050565b634e487b7160e01b600052604160045260246000fd5b60005b8381101562000214578181015183820152602001620001fa565b50506000910152565b600080604083850312156200023157600080fd5b82516001600160a01b03811681146200024957600080fd5b60208401519092506001600160401b03808211156200026757600080fd5b818501915085601f8301126200027c57600080fd5b815181811115620002915762000291620001e1565b604051601f8201601f19908116603f01168101908382118183101715620002bc57620002bc620001e1565b81604052828152886020848701011115620002d657600080fd5b620002e9836020830160208801620001f7565b80955050505050509250929050565b600181811c908216806200030d57607f821691505b6020821081036200032e57634e487b7160e01b600052602260045260246000fd5b50919050565b601f8211156200038257600081815260208120601f850160051c810160208610156200035d5750805b601f850160051c820191505b818110156200037e5782815560010162000369565b5050505b505050565b81516001600160401b03811115620003a357620003a3620001e1565b620003bb81620003b48454620002f8565b8462000334565b602080601f831160018114620003f35760008415620003da5750858301515b600019600386901b1c1916600185901b1785556200037e565b600085815260208120601f198616915b82811015620004245788860151825594840194600190910190840162000403565b5085821015620004435787850151600019600388901b60f8161c191681555b5050505050600190811b01905550565b602081526000825180602084015262000474816040850160208701620001f7565b601f01601f19169190910160400192915050565b805160208083015191908110156200032e5760001960209190910360031b1b16919050565b60805160a05160c05160e051610100516101205161014051611ce1620005086000396000610e2a01526000610dfd015260006112f4015260006112cc01526000611227015260006112510152600061127b0152611ce16000f3fe608060405234801561001057600080fd5b50600436106101005760003560e01c8063893d20e811610097578063e2684a8311610066578063e2684a8314610233578063f78356e114610246578063fd836ab814610259578063fef8de0b1461026c57600080fd5b8063893d20e8146101d05780639bb0f599146101e1578063a526d83b1461020d578063dc5b68a61461022057600080fd5b806342bf3cc1116100d357806342bf3cc11461015c578063682fcc5f1461018157806371404156146101a257806384b0196e146101b557600080fd5b806313af403514610105578063158ef93e1461011a57806318ea53af146101365780631be4485914610149575b600080fd5b610118610113366004611652565b61027f565b005b60055460ff165b60405190151581526020015b60405180910390f35b6101186101443660046116ce565b610380565b610118610157366004611737565b610514565b6002546001600160a01b03165b6040516001600160a01b03909116815260200161012d565b61019461018f366004611773565b6105b7565b60405190815260200161012d565b6101186101b0366004611652565b6105c8565b6101bd61071d565b60405161012d9796959493929190611814565b6003546001600160a01b0316610169565b6101216101ef366004611652565b6001600160a01b031660009081526006602052604090205460ff1690565b61011861021b366004611652565b61077f565b61011861022e3660046118c6565b6108d8565b610121610241366004611652565b610a7e565b61016961025436600461195d565b610a89565b610118610267366004611737565b610ac3565b61011861027a36600461199f565b610b5d565b6003546001600160a01b0316610293610bf8565b6001600160a01b0316146102d3576040517fbfb2c26800000000000000000000000000000000000000000000000000000000815260040160405180910390fd5b6001600160a01b038116610313576040517f465f799000000000000000000000000000000000000000000000000000000000815260040160405180910390fd5b600380547fffffffffffffffffffffffff0000000000000000000000000000000000000000166001600160a01b0383169081179091556040519081527f4ffd725fc4a22075e9ec71c59edf9c38cdeb588a91b24fc5b61388c5be41282b906020015b60405180910390a150565b61038d60408401846119eb565b90506000036103c8576040517f67bcccf800000000000000000000000000000000000000000000000000000000815260040160405180910390fd5b6103db6103d484610c42565b8383610d5f565b60006104196103ed6020860186611a53565b6040516020016103fe929190611ab8565b60405160208183030381529060405280519060200120610d91565b6002549091506001600160a01b0380831691638d83d6cc911661043c8780611a53565b61044960208a018a611a53565b61045660408c018c6119eb565b6040518863ffffffff1660e01b81526004016104789796959493929190611b58565b600060405180830381600087803b15801561049257600080fd5b505af11580156104a6573d6000803e3d6000fd5b507f6d034bd5b534bde619de49dedd104c941cb81c8be0f9994f086e191952c5c5ce92508391506104d990508680611a53565b6104e66020890189611a53565b6104f360408b018b6119eb565b6040516105069796959493929190611b58565b60405180910390a150505050565b3360009081526006602052604090205460ff1661055d576040517f5c81ee7b00000000000000000000000000000000000000000000000000000000815260040160405180910390fd5b604080513381526001600160a01b038086166020830152841691810191909152606081018290527fae33cb06d7303f889d953bb09540983050163c1c4c98b330db432a911cfb63fd906080015b60405180910390a1505050565b60006105c282610c42565b92915050565b6003546001600160a01b03166105dc610bf8565b6001600160a01b03161461061c576040517fbfb2c26800000000000000000000000000000000000000000000000000000000815260040160405180910390fd5b6001600160a01b03811661065c576040517f0398ea3f00000000000000000000000000000000000000000000000000000000815260040160405180910390fd5b6001600160a01b03811660009081526004602052604090205460ff166106ae576040517ff9c7c4e100000000000000000000000000000000000000000000000000000000815260040160405180910390fd5b6001600160a01b03811660008181526004602090815260409182902080547fffffffffffffffffffffffffffffffffffffffffffffffffffffffffffffff0016905590519182527fb8107d0c6b40be480ce3172ee66ba6d64b71f6b1685a851340036e6e2e3e3c529101610375565b600060608060008060006060610731610df6565b610739610e23565b604080516000808252602082019092527f0f000000000000000000000000000000000000000000000000000000000000009b939a50919850469750309650945092509050565b6003546001600160a01b0316610793610bf8565b6001600160a01b0316146107d3576040517fbfb2c26800000000000000000000000000000000000000000000000000000000815260040160405180910390fd5b6001600160a01b038116610813576040517f0398ea3f00000000000000000000000000000000000000000000000000000000815260040160405180910390fd5b6001600160a01b03811660009081526004602052604090205460ff1615610866576040517ffecca77f00000000000000000000000000000000000000000000000000000000815260040160405180910390fd5b6001600160a01b03811660008181526004602090815260409182902080547fffffffffffffffffffffffffffffffffffffffffffffffffffffffffffffff0016600117905590519182527f038596bb31e2e7d3d9f184d4c98b310103f6d7f5830e5eec32bffe6f1728f9699101610375565b60055460ff1615610915576040517f0dc149f000000000000000000000000000000000000000000000000000000000815260040160405180910390fd5b600580547fffffffffffffffffffffffffffffffffffffffffffffffffffffffffffffff001660011790556003546001600160a01b0316610954610bf8565b6001600160a01b031614610994576040517fbfb2c26800000000000000000000000000000000000000000000000000000000815260040160405180910390fd5b6001600160a01b0381166109d4576040517f0e11028600000000000000000000000000000000000000000000000000000000815260040160405180910390fd5b600280547fffffffffffffffffffffffff0000000000000000000000000000000000000000166001600160a01b038616179055610a118383610e50565b600580547fffffffffffffffffffffff0000000000000000000000000000000000000000ff166101006001600160a01b038416021790556040517fe4fd2004c05020ea04f23d6df3f7507a1a531f39324e32ccbcefee06adf8539d90610506908690869086908690611bb1565b60006105c282610f69565b6000610abc8383604051602001610aa1929190611ab8565b60405160208183030381529060405280519060200120610fa2565b9392505050565b3360009081526006602052604090205460ff16610b0c576040517f5c81ee7b00000000000000000000000000000000000000000000000000000000815260040160405180910390fd5b604080513381526001600160a01b038086166020830152841691810191909152606081018290527f2c6e87be19eb54f68d01e25832a3ea2b8247b5cc92fcc754d67e161193a154f5906080016105aa565b3360009081526006602052604090205460ff16610ba6576040517f5c81ee7b00000000000000000000000000000000000000000000000000000000815260040160405180910390fd5b604080513381526001600160a01b03808616602083015284169181019190915281151560608201527f19afadee34c8a5ade383c1a98b49a2fc4f0a9fb3566d525579c988b43c34c5d0906080016105aa565b6002546000906001600160a01b03163303610c3857507fffffffffffffffffffffffffffffffffffffffffffffffffffffffffffffffec36013560601c90565b503390565b905090565b60006105c27fd76f9ffa144ac2d2eac3737edf34044caaae21962cc7baff080b0c4e7b025cd3610c728480611a53565b604051602001610c83929190611ab8565b60405160208183030381529060405280519060200120848060200190610ca99190611a53565b604051602001610cba929190611ab8565b60405160208183030381529060405280519060200120858060400190610ce091906119eb565b604051602001610cf1929190611be9565b604080517fffffffffffffffffffffffffffffffffffffffffffffffffffffffffffffffe08184030181528282528051602091820120908301959095528101929092526060820152608081019190915260a00160405160208183030381529060405280519060200120610fc0565b6003546001600160a01b0316610d73610bf8565b6001600160a01b031614610d8c57610d8c838383611008565b505050565b600554600090610daf9061010090046001600160a01b031683611088565b6001600160a01b038116600090815260066020526040902080547fffffffffffffffffffffffffffffffffffffffffffffffffffffffffffffff0016600117905592915050565b6060610c3d7f0000000000000000000000000000000000000000000000000000000000000000600061110f565b6060610c3d7f0000000000000000000000000000000000000000000000000000000000000000600161110f565b8060005b81811015610f63576000848483818110610e7057610e70611c29565b9050602002016020810190610e859190611652565b90506001600160a01b038116610ec7576040517f0398ea3f00000000000000000000000000000000000000000000000000000000815260040160405180910390fd5b6001600160a01b03811660009081526004602052604090205460ff1615610f1a576040517ffecca77f00000000000000000000000000000000000000000000000000000000815260040160405180910390fd5b6001600160a01b0316600090815260046020526040902080547fffffffffffffffffffffffffffffffffffffffffffffffffffffffffffffff0016600190811790915501610e54565b50505050565b6003546000906001600160a01b03838116911614806105c25750506001600160a01b031660009081526004602052604090205460ff1690565b6005546000906105c29061010090046001600160a01b0316836111ba565b60006105c2610fcd61121a565b836040517f19010000000000000000000000000000000000000000000000000000000000008152600281019290925260228201526042902090565b61105261104d83838080601f01602080910402602001604051908101604052809392919081815260200183838082843760009201919091525088939250506113459050565b610f69565b610d8c576040517f07a81bc400000000000000000000000000000000000000000000000000000000815260040160405180910390fd5b6000763d602d80600a3d3981f3363d3d373d3d3d363d730000008360601b60e81c176000526e5af43d82803e903d91602b57fd5bf38360781b1760205281603760096000f590506001600160a01b0381166105c2576040517fc2f868f400000000000000000000000000000000000000000000000000000000815260040160405180910390fd5b606060ff8314611129576111228361136f565b90506105c2565b81805461113590611c58565b80601f016020809104026020016040519081016040528092919081815260200182805461116190611c58565b80156111ae5780601f10611183576101008083540402835291602001916111ae565b820191906000526020600020905b81548152906001019060200180831161119157829003601f168201915b505050505090506105c2565b6040513060388201526f5af43d82803e903d91602b57fd5bf3ff602482015260148101839052733d602d80600a3d3981f3363d3d373d3d3d363d738152605881018290526037600c82012060788201526055604390910120600090610abc565b6000306001600160a01b037f00000000000000000000000000000000000000000000000000000000000000001614801561127357507f000000000000000000000000000000000000000000000000000000000000000046145b1561129d57507f000000000000000000000000000000000000000000000000000000000000000090565b610c3d604080517f8b73c3c69bb8fe3d512ecc4cf759cc79239f7b179b0ffacaa9a75d522b39400f60208201527f0000000000000000000000000000000000000000000000000000000000000000918101919091527f000000000000000000000000000000000000000000000000000000000000000060608201524660808201523060a082015260009060c00160405160208183030381529060405280519060200120905090565b60008060008061135586866113ae565b92509250925061136582826113fb565b5090949350505050565b6060600061137c83611508565b604080516020808252818301909252919250600091906020820181803683375050509182525060208101929092525090565b600080600083516041036113e85760208401516040850151606086015160001a6113da88828585611549565b9550955095505050506113f4565b50508151600091506002905b9250925092565b600082600381111561140f5761140f611ca5565b03611418575050565b600182600381111561142c5761142c611ca5565b03611463576040517ff645eedf00000000000000000000000000000000000000000000000000000000815260040160405180910390fd5b600282600381111561147757611477611ca5565b036114b6576040517ffce698f7000000000000000000000000000000000000000000000000000000008152600481018290526024015b60405180910390fd5b60038260038111156114ca576114ca611ca5565b03611504576040517fd78bce0c000000000000000000000000000000000000000000000000000000008152600481018290526024016114ad565b5050565b600060ff8216601f8111156105c2576040517fb3512b0c00000000000000000000000000000000000000000000000000000000815260040160405180910390fd5b600080807f7fffffffffffffffffffffffffffffff5d576e7357a4501ddfe92f46681b20a0841115611584575060009150600390508261162c565b604080516000808252602082018084528a905260ff891692820192909252606081018790526080810186905260019060a0016020604051602081039080840390855afa1580156115d8573d6000803e3d6000fd5b50506040517fffffffffffffffffffffffffffffffffffffffffffffffffffffffffffffffe001519150506001600160a01b0381166116225750600092506001915082905061162c565b9250600091508190505b9450945094915050565b80356001600160a01b038116811461164d57600080fd5b919050565b60006020828403121561166457600080fd5b610abc82611636565b60006060828403121561167f57600080fd5b50919050565b60008083601f84011261169757600080fd5b50813567ffffffffffffffff8111156116af57600080fd5b6020830191508360208285010111156116c757600080fd5b9250929050565b6000806000604084860312156116e357600080fd5b833567ffffffffffffffff808211156116fb57600080fd5b6117078783880161166d565b9450602086013591508082111561171d57600080fd5b5061172a86828701611685565b9497909650939450505050565b60008060006060848603121561174c57600080fd5b61175584611636565b925061176360208501611636565b9150604084013590509250925092565b60006020828403121561178557600080fd5b813567ffffffffffffffff81111561179c57600080fd5b6117a88482850161166d565b949350505050565b6000815180845260005b818110156117d6576020818501810151868301820152016117ba565b5060006020828601015260207fffffffffffffffffffffffffffffffffffffffffffffffffffffffffffffffe0601f83011685010191505092915050565b7fff00000000000000000000000000000000000000000000000000000000000000881681526000602060e08184015261185060e084018a6117b0565b8381036040850152611862818a6117b0565b606085018990526001600160a01b038816608086015260a0850187905284810360c0860152855180825283870192509083019060005b818110156118b457835183529284019291840191600101611898565b50909c9b505050505050505050505050565b600080600080606085870312156118dc57600080fd5b6118e585611636565b9350602085013567ffffffffffffffff8082111561190257600080fd5b818701915087601f83011261191657600080fd5b81358181111561192557600080fd5b8860208260051b850101111561193a57600080fd5b60208301955080945050505061195260408601611636565b905092959194509250565b6000806020838503121561197057600080fd5b823567ffffffffffffffff81111561198757600080fd5b61199385828601611685565b90969095509350505050565b6000806000606084860312156119b457600080fd5b6119bd84611636565b92506119cb60208501611636565b9150604084013580151581146119e057600080fd5b809150509250925092565b60008083357fffffffffffffffffffffffffffffffffffffffffffffffffffffffffffffffe1843603018112611a2057600080fd5b83018035915067ffffffffffffffff821115611a3b57600080fd5b6020019150600581901b36038213156116c757600080fd5b60008083357fffffffffffffffffffffffffffffffffffffffffffffffffffffffffffffffe1843603018112611a8857600080fd5b83018035915067ffffffffffffffff821115611aa357600080fd5b6020019150368190038213156116c757600080fd5b8183823760009101908152919050565b8183528181602085013750600060208284010152600060207fffffffffffffffffffffffffffffffffffffffffffffffffffffffffffffffe0601f840116840101905092915050565b8183526000602080850194508260005b85811015611b4d576001600160a01b03611b3a83611636565b1687529582019590820190600101611b21565b509495945050505050565b6001600160a01b0388168152608060208201526000611b7b60808301888a611ac8565b8281036040840152611b8e818789611ac8565b90508281036060840152611ba3818587611b11565b9a9950505050505050505050565b60006001600160a01b03808716835260606020840152611bd5606084018688611b11565b915080841660408401525095945050505050565b60008184825b85811015611c1e576001600160a01b03611c0883611636565b1683526020928301929190910190600101611bef565b509095945050505050565b7f4e487b7100000000000000000000000000000000000000000000000000000000600052603260045260246000fd5b600181811c90821680611c6c57607f821691505b60208210810361167f577f4e487b7100000000000000000000000000000000000000000000000000000000600052602260045260246000fd5b7f4e487b7100000000000000000000000000000000000000000000000000000000600052602160045260246000fdfea164736f6c6343000815000a",
  "devdoc": {
    "errors": {
      "ECDSAInvalidSignature()": [
        {
          "details": "The signature derives the `address(0)`."
        }
      ],
      "ECDSAInvalidSignatureLength(uint256)": [
        {
          "details": "The signature has an invalid length."
        }
      ],
      "ECDSAInvalidSignatureS(bytes32)": [
        {
          "details": "The signature has an S value that is in the upper half order."
        }
      ],
      "ERC1167FailedCreateClone()": [
        {
          "details": "A clone instance deployment failed."
        }
      ]
    },
    "events": {
      "EIP712DomainChanged()": {
        "details": "MAY be emitted to signal that the domain could have changed."
      }
    },
    "kind": "dev",
    "methods": {
      "eip712Domain()": {
        "details": "See {IERC-5267}."
      }
    },
    "version": 1
  },
  "userdoc": {
    "kind": "user",
    "methods": {},
    "version": 1
  },
  "storageLayout": {
    "storage": [
      {
        "astId": 3619,
        "contract": "contracts/tokens/erc721/presets/ERC721ControlledTokenFactory.sol:ERC721ControlledTokenFactory",
        "label": "_nameFallback",
        "offset": 0,
        "slot": "0",
        "type": "t_string_storage"
      },
      {
        "astId": 3621,
        "contract": "contracts/tokens/erc721/presets/ERC721ControlledTokenFactory.sol:ERC721ControlledTokenFactory",
        "label": "_versionFallback",
        "offset": 0,
        "slot": "1",
        "type": "t_string_storage"
      },
      {
        "astId": 6129,
        "contract": "contracts/tokens/erc721/presets/ERC721ControlledTokenFactory.sol:ERC721ControlledTokenFactory",
        "label": "_gateway",
        "offset": 0,
        "slot": "2",
        "type": "t_address"
      },
      {
        "astId": 5398,
        "contract": "contracts/tokens/erc721/presets/ERC721ControlledTokenFactory.sol:ERC721ControlledTokenFactory",
        "label": "_owner",
        "offset": 0,
        "slot": "3",
        "type": "t_address"
      },
      {
        "astId": 5184,
        "contract": "contracts/tokens/erc721/presets/ERC721ControlledTokenFactory.sol:ERC721ControlledTokenFactory",
        "label": "_guardians",
        "offset": 0,
        "slot": "4",
        "type": "t_mapping(t_address,t_bool)"
      },
      {
        "astId": 8589,
        "contract": "contracts/tokens/erc721/presets/ERC721ControlledTokenFactory.sol:ERC721ControlledTokenFactory",
        "label": "_initialized",
        "offset": 0,
        "slot": "5",
        "type": "t_bool"
      },
      {
        "astId": 6321,
        "contract": "contracts/tokens/erc721/presets/ERC721ControlledTokenFactory.sol:ERC721ControlledTokenFactory",
        "label": "_tokenImpl",
        "offset": 1,
        "slot": "5",
        "type": "t_address"
      },
      {
        "astId": 6325,
        "contract": "contracts/tokens/erc721/presets/ERC721ControlledTokenFactory.sol:ERC721ControlledTokenFactory",
        "label": "_tokens",
        "offset": 0,
        "slot": "6",
        "type": "t_mapping(t_address,t_bool)"
      }
    ],
    "types": {
      "t_address": {
        "encoding": "inplace",
        "label": "address",
        "numberOfBytes": "20"
      },
      "t_bool": {
        "encoding": "inplace",
        "label": "bool",
        "numberOfBytes": "1"
      },
      "t_mapping(t_address,t_bool)": {
        "encoding": "mapping",
        "key": "t_address",
        "label": "mapping(address => bool)",
        "numberOfBytes": "32",
        "value": "t_bool"
      },
      "t_string_storage": {
        "encoding": "bytes",
        "label": "string",
        "numberOfBytes": "32"
      }
    }
  }
}