{
  "address": "0xB74dF292cd66C95e616e3561B0Eb9A0c85b6F26D",
  "abi": [
    {
      "inputs": [],
      "stateMutability": "nonpayable",
      "type": "constructor"
    },
    {
      "inputs": [],
      "name": "AlreadyInitialized",
      "type": "error"
    },
    {
      "inputs": [
        {
          "internalType": "address",
          "name": "sender",
          "type": "address"
        },
        {
          "internalType": "uint256",
          "name": "tokenId",
          "type": "uint256"
        },
        {
          "internalType": "address",
          "name": "owner",
          "type": "address"
        }
      ],
      "name": "ERC721IncorrectOwner",
      "type": "error"
    },
    {
      "inputs": [
        {
          "internalType": "address",
          "name": "operator",
          "type": "address"
        },
        {
          "internalType": "uint256",
          "name": "tokenId",
          "type": "uint256"
        }
      ],
      "name": "ERC721InsufficientApproval",
      "type": "error"
    },
    {
      "inputs": [
        {
          "internalType": "address",
          "name": "approver",
          "type": "address"
        }
      ],
      "name": "ERC721InvalidApprover",
      "type": "error"
    },
    {
      "inputs": [
        {
          "internalType": "address",
          "name": "operator",
          "type": "address"
        }
      ],
      "name": "ERC721InvalidOperator",
      "type": "error"
    },
    {
      "inputs": [
        {
          "internalType": "address",
          "name": "owner",
          "type": "address"
        }
      ],
      "name": "ERC721InvalidOwner",
      "type": "error"
    },
    {
      "inputs": [
        {
          "internalType": "address",
          "name": "receiver",
          "type": "address"
        }
      ],
      "name": "ERC721InvalidReceiver",
      "type": "error"
    },
    {
      "inputs": [
        {
          "internalType": "address",
          "name": "sender",
          "type": "address"
        }
      ],
      "name": "ERC721InvalidSender",
      "type": "error"
    },
    {
      "inputs": [
        {
          "internalType": "uint256",
          "name": "tokenId",
          "type": "uint256"
        }
      ],
      "name": "ERC721NonexistentToken",
      "type": "error"
    },
    {
      "inputs": [],
      "name": "ExpectedLocked",
      "type": "error"
    },
    {
      "inputs": [],
      "name": "MsgSenderIsNotTheController",
      "type": "error"
    },
    {
      "inputs": [],
      "name": "MsgSenderIsNotTheOwner",
      "type": "error"
    },
    {
      "inputs": [],
      "name": "OwnerIsTheZeroAddress",
      "type": "error"
    },
    {
      "inputs": [],
      "name": "TokenRegistryIsTheZeroAddress",
      "type": "error"
    },
    {
      "anonymous": false,
      "inputs": [
        {
          "indexed": true,
          "internalType": "address",
          "name": "owner",
          "type": "address"
        },
        {
          "indexed": true,
          "internalType": "address",
          "name": "approved",
          "type": "address"
        },
        {
          "indexed": true,
          "internalType": "uint256",
          "name": "tokenId",
          "type": "uint256"
        }
      ],
      "name": "Approval",
      "type": "event"
    },
    {
      "anonymous": false,
      "inputs": [
        {
          "indexed": true,
          "internalType": "address",
          "name": "owner",
          "type": "address"
        },
        {
          "indexed": true,
          "internalType": "address",
          "name": "operator",
          "type": "address"
        },
        {
          "indexed": false,
          "internalType": "bool",
          "name": "approved",
          "type": "bool"
        }
      ],
      "name": "ApprovalForAll",
      "type": "event"
    },
    {
      "anonymous": false,
      "inputs": [
        {
          "indexed": false,
          "internalType": "address",
          "name": "owner",
          "type": "address"
        }
      ],
      "name": "OwnerUpdated",
      "type": "event"
    },
    {
      "anonymous": false,
      "inputs": [
        {
          "indexed": true,
          "internalType": "address",
          "name": "from",
          "type": "address"
        },
        {
          "indexed": true,
          "internalType": "address",
          "name": "to",
          "type": "address"
        },
        {
          "indexed": true,
          "internalType": "uint256",
          "name": "tokenId",
          "type": "uint256"
        }
      ],
      "name": "Transfer",
      "type": "event"
    },
    {
      "anonymous": false,
      "inputs": [],
      "name": "Unlocked",
      "type": "event"
    },
    {
      "inputs": [
        {
          "internalType": "address",
          "name": "to",
          "type": "address"
        },
        {
          "internalType": "uint256",
          "name": "tokenId",
          "type": "uint256"
        }
      ],
      "name": "approve",
      "outputs": [],
      "stateMutability": "nonpayable",
      "type": "function"
    },
    {
      "inputs": [
        {
          "internalType": "address",
          "name": "owner",
          "type": "address"
        }
      ],
      "name": "balanceOf",
      "outputs": [
        {
          "internalType": "uint256",
          "name": "",
          "type": "uint256"
        }
      ],
      "stateMutability": "view",
      "type": "function"
    },
    {
      "inputs": [
        {
          "internalType": "uint256",
          "name": "tokenId",
          "type": "uint256"
        }
      ],
      "name": "burn",
      "outputs": [],
      "stateMutability": "nonpayable",
      "type": "function"
    },
    {
      "inputs": [
        {
          "internalType": "uint256",
          "name": "tokenId",
          "type": "uint256"
        }
      ],
      "name": "getApproved",
      "outputs": [
        {
          "internalType": "address",
          "name": "",
          "type": "address"
        }
      ],
      "stateMutability": "view",
      "type": "function"
    },
    {
      "inputs": [],
      "name": "getController",
      "outputs": [
        {
          "internalType": "address",
          "name": "",
          "type": "address"
        }
      ],
      "stateMutability": "view",
      "type": "function"
    },
    {
      "inputs": [],
      "name": "getGateway",
      "outputs": [
        {
          "internalType": "address",
          "name": "",
          "type": "address"
        }
      ],
      "stateMutability": "view",
      "type": "function"
    },
    {
      "inputs": [],
      "name": "getOwner",
      "outputs": [
        {
          "internalType": "address",
          "name": "",
          "type": "address"
        }
      ],
      "stateMutability": "view",
      "type": "function"
    },
    {
      "inputs": [],
      "name": "getTokenRegistry",
      "outputs": [
        {
          "internalType": "address",
          "name": "",
          "type": "address"
        }
      ],
      "stateMutability": "view",
      "type": "function"
    },
    {
      "inputs": [
        {
          "internalType": "address",
          "name": "gateway",
          "type": "address"
        },
        {
          "internalType": "address",
          "name": "owner",
          "type": "address"
        },
        {
          "internalType": "string",
          "name": "name_",
          "type": "string"
        },
        {
          "internalType": "string",
          "name": "symbol_",
          "type": "string"
        },
        {
          "internalType": "address",
          "name": "controller",
          "type": "address"
        },
        {
          "internalType": "bool",
          "name": "locked_",
          "type": "bool"
        }
      ],
      "name": "initialize",
      "outputs": [],
      "stateMutability": "nonpayable",
      "type": "function"
    },
    {
      "inputs": [],
      "name": "initialized",
      "outputs": [
        {
          "internalType": "bool",
          "name": "",
          "type": "bool"
        }
      ],
      "stateMutability": "view",
      "type": "function"
    },
    {
      "inputs": [
        {
          "internalType": "address",
          "name": "owner",
          "type": "address"
        },
        {
          "internalType": "address",
          "name": "operator",
          "type": "address"
        }
      ],
      "name": "isApprovedForAll",
      "outputs": [
        {
          "internalType": "bool",
          "name": "",
          "type": "bool"
        }
      ],
      "stateMutability": "view",
      "type": "function"
    },
    {
      "inputs": [],
      "name": "locked",
      "outputs": [
        {
          "internalType": "bool",
          "name": "",
          "type": "bool"
        }
      ],
      "stateMutability": "view",
      "type": "function"
    },
    {
      "inputs": [
        {
          "internalType": "address",
          "name": "to",
          "type": "address"
        },
        {
          "internalType": "uint256",
          "name": "tokenId",
          "type": "uint256"
        }
      ],
      "name": "mint",
      "outputs": [],
      "stateMutability": "nonpayable",
      "type": "function"
    },
    {
      "inputs": [],
      "name": "name",
      "outputs": [
        {
          "internalType": "string",
          "name": "",
          "type": "string"
        }
      ],
      "stateMutability": "view",
      "type": "function"
    },
    {
      "inputs": [
        {
          "internalType": "uint256",
          "name": "tokenId",
          "type": "uint256"
        }
      ],
      "name": "ownerOf",
      "outputs": [
        {
          "internalType": "address",
          "name": "",
          "type": "address"
        }
      ],
      "stateMutability": "view",
      "type": "function"
    },
    {
      "inputs": [
        {
          "internalType": "address",
          "name": "from",
          "type": "address"
        },
        {
          "internalType": "address",
          "name": "to",
          "type": "address"
        },
        {
          "internalType": "uint256",
          "name": "tokenId",
          "type": "uint256"
        }
      ],
      "name": "safeTransferFrom",
      "outputs": [],
      "stateMutability": "nonpayable",
      "type": "function"
    },
    {
      "inputs": [
        {
          "internalType": "address",
          "name": "from",
          "type": "address"
        },
        {
          "internalType": "address",
          "name": "to",
          "type": "address"
        },
        {
          "internalType": "uint256",
          "name": "tokenId",
          "type": "uint256"
        },
        {
          "internalType": "bytes",
          "name": "data",
          "type": "bytes"
        }
      ],
      "name": "safeTransferFrom",
      "outputs": [],
      "stateMutability": "nonpayable",
      "type": "function"
    },
    {
      "inputs": [
        {
          "internalType": "address",
          "name": "operator",
          "type": "address"
        },
        {
          "internalType": "bool",
          "name": "approved",
          "type": "bool"
        }
      ],
      "name": "setApprovalForAll",
      "outputs": [],
      "stateMutability": "nonpayable",
      "type": "function"
    },
    {
      "inputs": [
        {
          "internalType": "address",
          "name": "owner",
          "type": "address"
        }
      ],
      "name": "setOwner",
      "outputs": [],
      "stateMutability": "nonpayable",
      "type": "function"
    },
    {
      "inputs": [
        {
          "internalType": "bytes4",
          "name": "interfaceId",
          "type": "bytes4"
        }
      ],
      "name": "supportsInterface",
      "outputs": [
        {
          "internalType": "bool",
          "name": "",
          "type": "bool"
        }
      ],
      "stateMutability": "view",
      "type": "function"
    },
    {
      "inputs": [],
      "name": "symbol",
      "outputs": [
        {
          "internalType": "string",
          "name": "",
          "type": "string"
        }
      ],
      "stateMutability": "view",
      "type": "function"
    },
    {
      "inputs": [
        {
          "internalType": "uint256",
          "name": "tokenId",
          "type": "uint256"
        }
      ],
      "name": "tokenURI",
      "outputs": [
        {
          "internalType": "string",
          "name": "",
          "type": "string"
        }
      ],
      "stateMutability": "view",
      "type": "function"
    },
    {
      "inputs": [
        {
          "internalType": "address",
          "name": "from",
          "type": "address"
        },
        {
          "internalType": "address",
          "name": "to",
          "type": "address"
        },
        {
          "internalType": "uint256",
          "name": "tokenId",
          "type": "uint256"
        }
      ],
      "name": "transferFrom",
      "outputs": [],
      "stateMutability": "nonpayable",
      "type": "function"
    },
    {
      "inputs": [],
      "name": "unlock",
      "outputs": [],
      "stateMutability": "nonpayable",
      "type": "function"
    }
  ],
  "transactionHash": "0xb04f2f4fe292556af410d3e845fe93985bec427c9aea44f554a7b47684cef9ba",
  "args": [],
  "numDeployments": 1,
  "solcInputHash": "a9e2a0197f364155452382066c2f023a",
  "bytecode": "0x60806040523480156200001157600080fd5b5060408051602080820183526000808352835191820190935282815290916200003b83826200010b565b5060016200004a82826200010b565b50506007805460ff60a01b1916600160a01b17905550620001d7565b634e487b7160e01b600052604160045260246000fd5b600181811c908216806200009157607f821691505b602082108103620000b257634e487b7160e01b600052602260045260246000fd5b50919050565b601f8211156200010657600081815260208120601f850160051c81016020861015620000e15750805b601f850160051c820191505b818110156200010257828155600101620000ed565b5050505b505050565b81516001600160401b0381111562000127576200012762000066565b6200013f816200013884546200007c565b84620000b8565b602080601f8311600181146200017757600084156200015e5750858301515b600019600386901b1c1916600185901b17855562000102565b600085815260208120601f198616915b82811015620001a85788860151825594840194600190910190840162000187565b5085821015620001c75787850151600019600388901b60f8161c191681555b5050505050600190811b01905550565b611d5280620001e76000396000f3fe608060405234801561001057600080fd5b50600436106101985760003560e01c806342966c68116100e3578063a22cb4651161008c578063c87b56dd11610066578063c87b56dd14610359578063cf3090121461036c578063e985e9c51461038f57600080fd5b8063a22cb4651461032b578063a69df4b51461033e578063b88d4fde1461034657600080fd5b806370a08231116100bd57806370a08231146102f1578063893d20e81461031257806395d89b411461032357600080fd5b806342966c68146102ba57806342bf3cc1146102cd5780636352211e146102de57600080fd5b806313af4035116101455780633018205f1161011f5780633018205f1461028357806340c10f191461029457806342842e0e146102a757600080fd5b806313af40351461023a578063158ef93e1461024d57806323b872dd1461027057600080fd5b8063081812fc11610176578063081812fc146101ff578063095ea7b31461021257806310ef9b871461022757600080fd5b806301ffc9a71461019d578063057838bd146101c557806306fdde03146101ea575b600080fd5b6101b06101ab366004611709565b6103cb565b60405190151581526020015b60405180910390f35b6008546001600160a01b03165b6040516001600160a01b0390911681526020016101bc565b6101f26104b0565b6040516101bc9190611794565b6101d261020d3660046117a7565b6104bf565b6102256102203660046117dc565b6104e8565b005b61022561023536600461185f565b6104fe565b610225610248366004611911565b61058a565b60075474010000000000000000000000000000000000000000900460ff166101b0565b61022561027e36600461192c565b6105a0565b600b546001600160a01b03166101d2565b6102256102a23660046117dc565b610669565b6102256102b536600461192c565b61067b565b6102256102c83660046117a7565b61069b565b6006546001600160a01b03166101d2565b6101d26102ec3660046117a7565b6106ac565b6103046102ff366004611911565b6106b7565b6040519081526020016101bc565b6007546001600160a01b03166101d2565b6101f2610718565b610225610339366004611968565b610722565b610225610734565b6102256103543660046119ca565b6107b2565b6101f26103673660046117a7565b6107c9565b600b5474010000000000000000000000000000000000000000900460ff166101b0565b6101b061039d366004611ac4565b6001600160a01b03918216600090815260056020908152604080832093909416825291909152205460ff1690565b60007fffffffff0000000000000000000000000000000000000000000000000000000082167f80ac58cd00000000000000000000000000000000000000000000000000000000148061045e57507fffffffff0000000000000000000000000000000000000000000000000000000082167f5b5e139f00000000000000000000000000000000000000000000000000000000145b806104aa57507f01ffc9a7000000000000000000000000000000000000000000000000000000007fffffffff000000000000000000000000000000000000000000000000000000008316145b92915050565b60606104ba61083e565b905090565b60006104ca826108d0565b506000828152600460205260409020546001600160a01b03166104aa565b6104fa82826104f5610922565b61092c565b5050565b61050788610939565b610512876000610a10565b600961051f868883611b87565b50600a61052d848683611b87565b50600b805491151574010000000000000000000000000000000000000000027fffffffffffffffffffffff0000000000000000000000000000000000000000009092166001600160a01b0390931692909217179055505050505050565b610592610a50565b61059d816001610a10565b50565b6001600160a01b0382166105e8576040517f64a0ae92000000000000000000000000000000000000000000000000000000008152600060048201526024015b60405180910390fd5b60006105fc83836105f7610922565b610a60565b9050836001600160a01b0316816001600160a01b031614610663576040517f64283d7b0000000000000000000000000000000000000000000000000000000081526001600160a01b03808616600483015260248201849052821660448201526064016105df565b50505050565b610671610aa1565b6104fa8282610b21565b610696838383604051806020016040528060008152506107b2565b505050565b6106a3610aa1565b61059d81610bb8565b60006104aa826108d0565b60006001600160a01b0382166106fc576040517f89c62b64000000000000000000000000000000000000000000000000000000008152600060048201526024016105df565b506001600160a01b031660009081526003602052604090205490565b60606104ba610c0c565b6104fa61072d610922565b8383610c1b565b61073c610a50565b610744610c5a565b600b80547fffffffffffffffffffffff00ffffffffffffffffffffffffffffffffffffffff1690556040517f19aad37188a1d3921e29eb3c66acf43d81975e107cb650d58cca878627955fd690600090a16040805160008152602081019091526107b090601090610cae565b565b6107bd8484846105a0565b61066384848484610d2f565b60606107d4826108d0565b5060006107ec60408051602081019091526000815290565b9050600081511161080c5760405180602001604052806000815250610837565b8061081684610ee0565b604051602001610827929190611ca1565b6040516020818303038152906040525b9392505050565b60606009805461084d90611aee565b80601f016020809104026020016040519081016040528092919081815260200182805461087990611aee565b80156108c65780601f1061089b576101008083540402835291602001916108c6565b820191906000526020600020905b8154815290600101906020018083116108a957829003601f168201915b5050505050905090565b6000818152600260205260408120546001600160a01b0316806104aa576040517f7e273289000000000000000000000000000000000000000000000000000000008152600481018490526024016105df565b60006104ba610f9e565b6106968383836001610fe3565b60075474010000000000000000000000000000000000000000900460ff161561098e576040517f0dc149f000000000000000000000000000000000000000000000000000000000815260040160405180910390fd5b600780547fffffffffffffffffffffff00ffffffffffffffffffffffffffffffffffffffff1674010000000000000000000000000000000000000000179055600680546001600160a01b039092167fffffffffffffffffffffffff00000000000000000000000000000000000000009283161790556008805490911633179055565b610a1a8282611043565b80156104fa57604080516001600160a01b03841660208201526104fa91600091015b604051602081830303815290604052610cae565b6107b0610a5b610922565b6110fc565b600b5460009074010000000000000000000000000000000000000000900460ff1615610a8e57610a8e610a50565b610a99848484611143565b949350505050565b6000610aab610922565b600b549091506001600160a01b0380831691161461059d57600b5474010000000000000000000000000000000000000000900460ff1615610aef5761059d816110fc565b6040517f16b45a5400000000000000000000000000000000000000000000000000000000815260040160405180910390fd5b6001600160a01b038216610b64576040517f64a0ae92000000000000000000000000000000000000000000000000000000008152600060048201526024016105df565b6000610b7283836000610a60565b90506001600160a01b03811615610696576040517f73c6ac6e000000000000000000000000000000000000000000000000000000008152600060048201526024016105df565b6000610bc76000836000610a60565b90506001600160a01b0381166104fa576040517f7e273289000000000000000000000000000000000000000000000000000000008152600481018390526024016105df565b6060600a805461084d90611aee565b610c26838383611185565b604080516001600160a01b038086166020830152841691810191909152811515606082015261069690606290608001610a3c565b600b5474010000000000000000000000000000000000000000900460ff166107b0576040517fd00a654600000000000000000000000000000000000000000000000000000000815260040160405180910390fd5b6008546040517f62d40c2f0000000000000000000000000000000000000000000000000000000081526001600160a01b03909116906362d40c2f90610cf99085908590600401611cd0565b600060405180830381600087803b158015610d1357600080fd5b505af1158015610d27573d6000803e3d6000fd5b505050505050565b6001600160a01b0383163b1561066357826001600160a01b031663150b7a02610d56610922565b8685856040518563ffffffff1660e01b8152600401610d789493929190611cec565b6020604051808303816000875af1925050508015610dd1575060408051601f3d9081017fffffffffffffffffffffffffffffffffffffffffffffffffffffffffffffffe0168201909252610dce91810190611d28565b60015b610e53573d808015610dff576040519150601f19603f3d011682016040523d82523d6000602084013e610e04565b606091505b508051600003610e4b576040517f64a0ae920000000000000000000000000000000000000000000000000000000081526001600160a01b03851660048201526024016105df565b805181602001fd5b7fffffffff0000000000000000000000000000000000000000000000000000000081167f150b7a020000000000000000000000000000000000000000000000000000000014610ed9576040517f64a0ae920000000000000000000000000000000000000000000000000000000081526001600160a01b03851660048201526024016105df565b5050505050565b60606000610eed8361125b565b600101905060008167ffffffffffffffff811115610f0d57610f0d61199b565b6040519080825280601f01601f191660200182016040528015610f37576020820181803683370190505b5090508181016020015b7fffffffffffffffffffffffffffffffffffffffffffffffffffffffffffffffff017f3031323334353637383961626364656600000000000000000000000000000000600a86061a8153600a8504945084610f4157509392505050565b6006546000906001600160a01b03163303610fde57507fffffffffffffffffffffffffffffffffffffffffffffffffffffffffffffffec36013560601c90565b503390565b610fef8484848461133d565b8015610663576106636061611019856000908152600260205260409020546001600160a01b031690565b604080516001600160a01b0392831660208201529188169082015260608101869052608001610a3c565b6001600160a01b038216611083576040517f465f799000000000000000000000000000000000000000000000000000000000815260040160405180910390fd5b600780547fffffffffffffffffffffffff0000000000000000000000000000000000000000166001600160a01b03841617905580156104fa576040516001600160a01b03831681527f4ffd725fc4a22075e9ec71c59edf9c38cdeb588a91b24fc5b61388c5be41282b9060200160405180910390a15050565b6007546001600160a01b0382811691161461059d576040517fbfb2c26800000000000000000000000000000000000000000000000000000000815260040160405180910390fd5b6000611150848484611493565b604080516001600160a01b03808416602083015287169181019190915260608181018690529192506108379190608001610a3c565b6001600160a01b0382166111d0576040517f5b08ba180000000000000000000000000000000000000000000000000000000081526001600160a01b03831660048201526024016105df565b6001600160a01b0383811660008181526005602090815260408083209487168084529482529182902080547fffffffffffffffffffffffffffffffffffffffffffffffffffffffffffffff001686151590811790915591519182527f17307eab39ab6107e8899845ad3d59bd9653f200f220920489ca2b5937696c31910160405180910390a3505050565b6000807a184f03e93ff9f4daa797ed6e38ed64bf6a1f01000000000000000083106112a4577a184f03e93ff9f4daa797ed6e38ed64bf6a1f010000000000000000830492506040015b6d04ee2d6d415b85acef810000000083106112d0576d04ee2d6d415b85acef8100000000830492506020015b662386f26fc1000083106112ee57662386f26fc10000830492506010015b6305f5e1008310611306576305f5e100830492506008015b612710831061131a57612710830492506004015b6064831061132c576064830492506002015b600a83106104aa5760010192915050565b808061135157506001600160a01b03821615155b1561144b576000611361846108d0565b90506001600160a01b0383161580159061138d5750826001600160a01b0316816001600160a01b031614155b80156113bf57506001600160a01b0380821660009081526005602090815260408083209387168352929052205460ff16155b15611401576040517fa9fbf51f0000000000000000000000000000000000000000000000000000000081526001600160a01b03841660048201526024016105df565b81156114495783856001600160a01b0316826001600160a01b03167f8c5be1e5ebec7d5bd14f71427d1e84f3dd0314c0f7b2291e5b200ac8c7c3b92560405160405180910390a45b505b5050600090815260046020526040902080547fffffffffffffffffffffffff0000000000000000000000000000000000000000166001600160a01b0392909216919091179055565b6000828152600260205260408120546001600160a01b03908116908316156114c0576114c08184866115c2565b6001600160a01b0381161561151c576114dd600085600080610fe3565b6001600160a01b038116600090815260036020526040902080547fffffffffffffffffffffffffffffffffffffffffffffffffffffffffffffffff0190555b6001600160a01b0385161561154b576001600160a01b0385166000908152600360205260409020805460010190555b60008481526002602052604080822080547fffffffffffffffffffffffff0000000000000000000000000000000000000000166001600160a01b0389811691821790925591518793918516917fddf252ad1be2c89b69c2b068fc378daa952ba7f163c4a11628f55a4df523b3ef91a4949350505050565b6115cd838383611658565b610696576001600160a01b038316611614576040517f7e273289000000000000000000000000000000000000000000000000000000008152600481018290526024016105df565b6040517f177e802f0000000000000000000000000000000000000000000000000000000081526001600160a01b0383166004820152602481018290526044016105df565b60006001600160a01b03831615801590610a995750826001600160a01b0316846001600160a01b031614806116b257506001600160a01b0380851660009081526005602090815260408083209387168352929052205460ff165b80610a995750506000908152600460205260409020546001600160a01b03908116911614919050565b7fffffffff000000000000000000000000000000000000000000000000000000008116811461059d57600080fd5b60006020828403121561171b57600080fd5b8135610837816116db565b60005b83811015611741578181015183820152602001611729565b50506000910152565b60008151808452611762816020860160208601611726565b601f017fffffffffffffffffffffffffffffffffffffffffffffffffffffffffffffffe0169290920160200192915050565b602081526000610837602083018461174a565b6000602082840312156117b957600080fd5b5035919050565b80356001600160a01b03811681146117d757600080fd5b919050565b600080604083850312156117ef57600080fd5b6117f8836117c0565b946020939093013593505050565b60008083601f84011261181857600080fd5b50813567ffffffffffffffff81111561183057600080fd5b60208301915083602082850101111561184857600080fd5b9250929050565b803580151581146117d757600080fd5b60008060008060008060008060c0898b03121561187b57600080fd5b611884896117c0565b975061189260208a016117c0565b9650604089013567ffffffffffffffff808211156118af57600080fd5b6118bb8c838d01611806565b909850965060608b01359150808211156118d457600080fd5b506118e18b828c01611806565b90955093506118f4905060808a016117c0565b915061190260a08a0161184f565b90509295985092959890939650565b60006020828403121561192357600080fd5b610837826117c0565b60008060006060848603121561194157600080fd5b61194a846117c0565b9250611958602085016117c0565b9150604084013590509250925092565b6000806040838503121561197b57600080fd5b611984836117c0565b91506119926020840161184f565b90509250929050565b7f4e487b7100000000000000000000000000000000000000000000000000000000600052604160045260246000fd5b600080600080608085870312156119e057600080fd5b6119e9856117c0565b93506119f7602086016117c0565b925060408501359150606085013567ffffffffffffffff80821115611a1b57600080fd5b818701915087601f830112611a2f57600080fd5b813581811115611a4157611a4161199b565b604051601f82017fffffffffffffffffffffffffffffffffffffffffffffffffffffffffffffffe0908116603f01168101908382118183101715611a8757611a8761199b565b816040528281528a6020848701011115611aa057600080fd5b82602086016020830137600060208483010152809550505050505092959194509250565b60008060408385031215611ad757600080fd5b611ae0836117c0565b9150611992602084016117c0565b600181811c90821680611b0257607f821691505b602082108103611b3b577f4e487b7100000000000000000000000000000000000000000000000000000000600052602260045260246000fd5b50919050565b601f82111561069657600081815260208120601f850160051c81016020861015611b685750805b601f850160051c820191505b81811015610d2757828155600101611b74565b67ffffffffffffffff831115611b9f57611b9f61199b565b611bb383611bad8354611aee565b83611b41565b6000601f841160018114611c055760008515611bcf5750838201355b7fffffffffffffffffffffffffffffffffffffffffffffffffffffffffffffffff600387901b1c1916600186901b178355610ed9565b6000838152602090207fffffffffffffffffffffffffffffffffffffffffffffffffffffffffffffffe0861690835b82811015611c545786850135825560209485019460019092019101611c34565b5086821015611c8f577fffffffffffffffffffffffffffffffffffffffffffffffffffffffffffffffff60f88860031b161c19848701351681555b505060018560011b0183555050505050565b60008351611cb3818460208801611726565b835190830190611cc7818360208801611726565b01949350505050565b60ff83168152604060208201526000610a99604083018461174a565b60006001600160a01b03808716835280861660208401525083604083015260806060830152611d1e608083018461174a565b9695505050505050565b600060208284031215611d3a57600080fd5b8151610837816116db56fea164736f6c6343000815000a",
  "devdoc": {
    "errors": {
      "ERC721IncorrectOwner(address,uint256,address)": [
        {
          "details": "Indicates an error related to the ownership over a particular token. Used in transfers.",
          "params": {
            "owner": "Address of the current owner of a token.",
            "sender": "Address whose tokens are being transferred.",
            "tokenId": "Identifier number of a token."
          }
        }
      ],
      "ERC721InsufficientApproval(address,uint256)": [
        {
          "details": "Indicates a failure with the `operator`’s approval. Used in transfers.",
          "params": {
            "operator": "Address that may be allowed to operate on tokens without being their owner.",
            "tokenId": "Identifier number of a token."
          }
        }
      ],
      "ERC721InvalidApprover(address)": [
        {
          "details": "Indicates a failure with the `approver` of a token to be approved. Used in approvals.",
          "params": {
            "approver": "Address initiating an approval operation."
          }
        }
      ],
      "ERC721InvalidOperator(address)": [
        {
          "details": "Indicates a failure with the `operator` to be approved. Used in approvals.",
          "params": {
            "operator": "Address that may be allowed to operate on tokens without being their owner."
          }
        }
      ],
      "ERC721InvalidOwner(address)": [
        {
          "details": "Indicates that an address can't be an owner. For example, `address(0)` is a forbidden owner in EIP-20. Used in balance queries.",
          "params": {
            "owner": "Address of the current owner of a token."
          }
        }
      ],
      "ERC721InvalidReceiver(address)": [
        {
          "details": "Indicates a failure with the token `receiver`. Used in transfers.",
          "params": {
            "receiver": "Address to which tokens are being transferred."
          }
        }
      ],
      "ERC721InvalidSender(address)": [
        {
          "details": "Indicates a failure with the token `sender`. Used in transfers.",
          "params": {
            "sender": "Address whose tokens are being transferred."
          }
        }
      ],
      "ERC721NonexistentToken(uint256)": [
        {
          "details": "Indicates a `tokenId` whose `owner` is the zero address.",
          "params": {
            "tokenId": "Identifier number of a token."
          }
        }
      ]
    },
    "events": {
      "Approval(address,address,uint256)": {
        "details": "Emitted when `owner` enables `approved` to manage the `tokenId` token."
      },
      "ApprovalForAll(address,address,bool)": {
        "details": "Emitted when `owner` enables or disables (`approved`) `operator` to manage all of its assets."
      },
      "Transfer(address,address,uint256)": {
        "details": "Emitted when `tokenId` token is transferred from `from` to `to`."
      }
    },
    "kind": "dev",
    "methods": {
      "approve(address,uint256)": {
        "details": "See {IERC721-approve}."
      },
      "balanceOf(address)": {
        "details": "See {IERC721-balanceOf}."
      },
      "getApproved(uint256)": {
        "details": "See {IERC721-getApproved}."
      },
      "isApprovedForAll(address,address)": {
        "details": "See {IERC721-isApprovedForAll}."
      },
      "ownerOf(uint256)": {
        "details": "See {IERC721-ownerOf}."
      },
      "safeTransferFrom(address,address,uint256)": {
        "details": "See {IERC721-safeTransferFrom}."
      },
      "safeTransferFrom(address,address,uint256,bytes)": {
        "details": "See {IERC721-safeTransferFrom}."
      },
      "setApprovalForAll(address,bool)": {
        "details": "See {IERC721-setApprovalForAll}."
      },
      "supportsInterface(bytes4)": {
        "details": "See {IERC165-supportsInterface}."
      },
      "tokenURI(uint256)": {
        "details": "See {IERC721Metadata-tokenURI}."
      },
      "transferFrom(address,address,uint256)": {
        "details": "See {IERC721-transferFrom}."
      }
    },
    "version": 1
  },
  "userdoc": {
    "kind": "user",
    "methods": {},
    "version": 1
  },
  "storageLayout": {
    "storage": [
      {
        "astId": 1238,
        "contract": "contracts/tokens/erc721/presets/ERC721DefaultTokenImpl.sol:ERC721DefaultTokenImpl",
        "label": "_name",
        "offset": 0,
        "slot": "0",
        "type": "t_string_storage"
      },
      {
        "astId": 1240,
        "contract": "contracts/tokens/erc721/presets/ERC721DefaultTokenImpl.sol:ERC721DefaultTokenImpl",
        "label": "_symbol",
        "offset": 0,
        "slot": "1",
        "type": "t_string_storage"
      },
      {
        "astId": 1244,
        "contract": "contracts/tokens/erc721/presets/ERC721DefaultTokenImpl.sol:ERC721DefaultTokenImpl",
        "label": "_owners",
        "offset": 0,
        "slot": "2",
        "type": "t_mapping(t_uint256,t_address)"
      },
      {
        "astId": 1248,
        "contract": "contracts/tokens/erc721/presets/ERC721DefaultTokenImpl.sol:ERC721DefaultTokenImpl",
        "label": "_balances",
        "offset": 0,
        "slot": "3",
        "type": "t_mapping(t_address,t_uint256)"
      },
      {
        "astId": 1252,
        "contract": "contracts/tokens/erc721/presets/ERC721DefaultTokenImpl.sol:ERC721DefaultTokenImpl",
        "label": "_tokenApprovals",
        "offset": 0,
        "slot": "4",
        "type": "t_mapping(t_uint256,t_address)"
      },
      {
        "astId": 1258,
        "contract": "contracts/tokens/erc721/presets/ERC721DefaultTokenImpl.sol:ERC721DefaultTokenImpl",
        "label": "_operatorApprovals",
        "offset": 0,
        "slot": "5",
        "type": "t_mapping(t_address,t_mapping(t_address,t_bool))"
      },
      {
        "astId": 5984,
        "contract": "contracts/tokens/erc721/presets/ERC721DefaultTokenImpl.sol:ERC721DefaultTokenImpl",
        "label": "_gateway",
        "offset": 0,
        "slot": "6",
        "type": "t_address"
      },
      {
        "astId": 5255,
        "contract": "contracts/tokens/erc721/presets/ERC721DefaultTokenImpl.sol:ERC721DefaultTokenImpl",
        "label": "_owner",
        "offset": 0,
        "slot": "7",
        "type": "t_address"
      },
      {
        "astId": 8326,
        "contract": "contracts/tokens/erc721/presets/ERC721DefaultTokenImpl.sol:ERC721DefaultTokenImpl",
        "label": "_initialized",
        "offset": 20,
        "slot": "7",
        "type": "t_bool"
      },
      {
        "astId": 6173,
        "contract": "contracts/tokens/erc721/presets/ERC721DefaultTokenImpl.sol:ERC721DefaultTokenImpl",
        "label": "_tokenRegistry",
        "offset": 0,
        "slot": "8",
        "type": "t_address"
      },
      {
        "astId": 7912,
        "contract": "contracts/tokens/erc721/presets/ERC721DefaultTokenImpl.sol:ERC721DefaultTokenImpl",
        "label": "_name",
        "offset": 0,
        "slot": "9",
        "type": "t_string_storage"
      },
      {
        "astId": 7914,
        "contract": "contracts/tokens/erc721/presets/ERC721DefaultTokenImpl.sol:ERC721DefaultTokenImpl",
        "label": "_symbol",
        "offset": 0,
        "slot": "10",
        "type": "t_string_storage"
      },
      {
        "astId": 7916,
        "contract": "contracts/tokens/erc721/presets/ERC721DefaultTokenImpl.sol:ERC721DefaultTokenImpl",
        "label": "_controller",
        "offset": 0,
        "slot": "11",
        "type": "t_address"
      },
      {
        "astId": 7918,
        "contract": "contracts/tokens/erc721/presets/ERC721DefaultTokenImpl.sol:ERC721DefaultTokenImpl",
        "label": "_locked",
        "offset": 20,
        "slot": "11",
        "type": "t_bool"
      }
    ],
    "types": {
      "t_address": {
        "encoding": "inplace",
        "label": "address",
        "numberOfBytes": "20"
      },
      "t_bool": {
        "encoding": "inplace",
        "label": "bool",
        "numberOfBytes": "1"
      },
      "t_mapping(t_address,t_bool)": {
        "encoding": "mapping",
        "key": "t_address",
        "label": "mapping(address => bool)",
        "numberOfBytes": "32",
        "value": "t_bool"
      },
      "t_mapping(t_address,t_mapping(t_address,t_bool))": {
        "encoding": "mapping",
        "key": "t_address",
        "label": "mapping(address => mapping(address => bool))",
        "numberOfBytes": "32",
        "value": "t_mapping(t_address,t_bool)"
      },
      "t_mapping(t_address,t_uint256)": {
        "encoding": "mapping",
        "key": "t_address",
        "label": "mapping(address => uint256)",
        "numberOfBytes": "32",
        "value": "t_uint256"
      },
      "t_mapping(t_uint256,t_address)": {
        "encoding": "mapping",
        "key": "t_uint256",
        "label": "mapping(uint256 => address)",
        "numberOfBytes": "32",
        "value": "t_address"
      },
      "t_string_storage": {
        "encoding": "bytes",
        "label": "string",
        "numberOfBytes": "32"
      },
      "t_uint256": {
        "encoding": "inplace",
        "label": "uint256",
        "numberOfBytes": "32"
      }
    }
  }
}