{
  "address": "0xed4e682Ee8B6A5C0e58Dfc757980320D1B71ce74",
  "abi": [
    {
      "inputs": [
        {
          "internalType": "address",
          "name": "owner",
          "type": "address"
        },
        {
          "internalType": "string",
          "name": "name",
          "type": "string"
        },
        {
          "internalType": "string",
          "name": "version",
          "type": "string"
        }
      ],
      "stateMutability": "nonpayable",
      "type": "constructor"
    },
    {
      "inputs": [],
      "name": "AccountRegistryIsTheZeroAddress",
      "type": "error"
    },
    {
      "inputs": [],
      "name": "AlreadyInitialized",
      "type": "error"
    },
    {
      "inputs": [],
      "name": "EmptyRequestsBatch",
      "type": "error"
    },
    {
      "inputs": [],
      "name": "InvalidRequestNonce",
      "type": "error"
    },
    {
      "inputs": [],
      "name": "InvalidRequestsBatchSize",
      "type": "error"
    },
    {
      "inputs": [],
      "name": "InvalidShortString",
      "type": "error"
    },
    {
      "inputs": [],
      "name": "MsgSenderIsNotTheContractOwner",
      "type": "error"
    },
    {
      "inputs": [],
      "name": "OwnerIsTheZeroAddress",
      "type": "error"
    },
    {
      "inputs": [],
      "name": "RequestForbidden",
      "type": "error"
    },
    {
      "inputs": [],
      "name": "RequestFromTheZeroAddress",
      "type": "error"
    },
    {
      "inputs": [],
      "name": "RequestToTheInvalidAddress",
      "type": "error"
    },
    {
      "inputs": [],
      "name": "RequestToTheZeroAddress",
      "type": "error"
    },
    {
      "inputs": [
        {
          "internalType": "string",
          "name": "str",
          "type": "string"
        }
      ],
      "name": "StringTooLong",
      "type": "error"
    },
    {
      "anonymous": false,
      "inputs": [],
      "name": "EIP712DomainChanged",
      "type": "event"
    },
    {
      "anonymous": false,
      "inputs": [
        {
          "indexed": false,
          "internalType": "address",
          "name": "accountRegistry",
          "type": "address"
        }
      ],
      "name": "Initialized",
      "type": "event"
    },
    {
      "anonymous": false,
      "inputs": [
        {
          "indexed": false,
          "internalType": "address",
          "name": "account",
          "type": "address"
        },
        {
          "indexed": false,
          "internalType": "uint256",
          "name": "nonce",
          "type": "uint256"
        }
      ],
      "name": "NonceUpdated",
      "type": "event"
    },
    {
      "anonymous": false,
      "inputs": [
        {
          "indexed": false,
          "internalType": "address",
          "name": "owner",
          "type": "address"
        }
      ],
      "name": "OwnerUpdated",
      "type": "event"
    },
    {
      "anonymous": false,
      "inputs": [
        {
          "indexed": false,
          "internalType": "address",
          "name": "sender",
          "type": "address"
        },
        {
          "indexed": false,
          "internalType": "address",
          "name": "from",
          "type": "address"
        },
        {
          "indexed": false,
          "internalType": "address",
          "name": "to",
          "type": "address"
        },
        {
          "indexed": false,
          "internalType": "uint256",
          "name": "value",
          "type": "uint256"
        },
        {
          "indexed": false,
          "internalType": "bytes",
          "name": "data",
          "type": "bytes"
        }
      ],
      "name": "RequestSent",
      "type": "event"
    },
    {
      "anonymous": false,
      "inputs": [
        {
          "indexed": false,
          "internalType": "address",
          "name": "sender",
          "type": "address"
        },
        {
          "indexed": false,
          "internalType": "address",
          "name": "from",
          "type": "address"
        },
        {
          "indexed": false,
          "internalType": "address[]",
          "name": "to",
          "type": "address[]"
        },
        {
          "indexed": false,
          "internalType": "uint256[]",
          "name": "value",
          "type": "uint256[]"
        },
        {
          "indexed": false,
          "internalType": "bytes[]",
          "name": "data",
          "type": "bytes[]"
        }
      ],
      "name": "RequestsSent",
      "type": "event"
    },
    {
      "inputs": [],
      "name": "eip712Domain",
      "outputs": [
        {
          "internalType": "bytes1",
          "name": "fields",
          "type": "bytes1"
        },
        {
          "internalType": "string",
          "name": "name",
          "type": "string"
        },
        {
          "internalType": "string",
          "name": "version",
          "type": "string"
        },
        {
          "internalType": "uint256",
          "name": "chainId",
          "type": "uint256"
        },
        {
          "internalType": "address",
          "name": "verifyingContract",
          "type": "address"
        },
        {
          "internalType": "bytes32",
          "name": "salt",
          "type": "bytes32"
        },
        {
          "internalType": "uint256[]",
          "name": "extensions",
          "type": "uint256[]"
        }
      ],
      "stateMutability": "view",
      "type": "function"
    },
    {
      "inputs": [
        {
          "components": [
            {
              "internalType": "address",
              "name": "from",
              "type": "address"
            },
            {
              "internalType": "uint256",
              "name": "nonce",
              "type": "uint256"
            },
            {
              "internalType": "address",
              "name": "to",
              "type": "address"
            },
            {
              "internalType": "uint256",
              "name": "value",
              "type": "uint256"
            },
            {
              "internalType": "bytes",
              "name": "data",
              "type": "bytes"
            }
          ],
          "internalType": "struct Gateway.RequestData",
          "name": "requestData",
          "type": "tuple"
        },
        {
          "internalType": "bytes",
          "name": "senderSignature",
          "type": "bytes"
        }
      ],
      "name": "forwardRequest",
      "outputs": [],
      "stateMutability": "nonpayable",
      "type": "function"
    },
    {
      "inputs": [
        {
          "components": [
            {
              "internalType": "address",
              "name": "from",
              "type": "address"
            },
            {
              "internalType": "uint256",
              "name": "nonce",
              "type": "uint256"
            },
            {
              "internalType": "address[]",
              "name": "to",
              "type": "address[]"
            },
            {
              "internalType": "uint256[]",
              "name": "value",
              "type": "uint256[]"
            },
            {
              "internalType": "bytes[]",
              "name": "data",
              "type": "bytes[]"
            }
          ],
          "internalType": "struct Gateway.RequestsData",
          "name": "requestsData",
          "type": "tuple"
        },
        {
          "internalType": "bytes",
          "name": "senderSignature",
          "type": "bytes"
        }
      ],
      "name": "forwardRequests",
      "outputs": [],
      "stateMutability": "nonpayable",
      "type": "function"
    },
    {
      "inputs": [
        {
          "internalType": "address",
          "name": "account",
          "type": "address"
        }
      ],
      "name": "getNonce",
      "outputs": [
        {
          "internalType": "uint256",
          "name": "",
          "type": "uint256"
        }
      ],
      "stateMutability": "view",
      "type": "function"
    },
    {
      "inputs": [],
      "name": "getOwner",
      "outputs": [
        {
          "internalType": "address",
          "name": "",
          "type": "address"
        }
      ],
      "stateMutability": "view",
      "type": "function"
    },
    {
      "inputs": [
        {
          "components": [
            {
              "internalType": "address",
              "name": "from",
              "type": "address"
            },
            {
              "internalType": "uint256",
              "name": "nonce",
              "type": "uint256"
            },
            {
              "internalType": "address",
              "name": "to",
              "type": "address"
            },
            {
              "internalType": "uint256",
              "name": "value",
              "type": "uint256"
            },
            {
              "internalType": "bytes",
              "name": "data",
              "type": "bytes"
            }
          ],
          "internalType": "struct Gateway.RequestData",
          "name": "requestData",
          "type": "tuple"
        }
      ],
      "name": "hashRequest",
      "outputs": [
        {
          "internalType": "bytes32",
          "name": "",
          "type": "bytes32"
        }
      ],
      "stateMutability": "view",
      "type": "function"
    },
    {
      "inputs": [
        {
          "components": [
            {
              "internalType": "address",
              "name": "from",
              "type": "address"
            },
            {
              "internalType": "uint256",
              "name": "nonce",
              "type": "uint256"
            },
            {
              "internalType": "address[]",
              "name": "to",
              "type": "address[]"
            },
            {
              "internalType": "uint256[]",
              "name": "value",
              "type": "uint256[]"
            },
            {
              "internalType": "bytes[]",
              "name": "data",
              "type": "bytes[]"
            }
          ],
          "internalType": "struct Gateway.RequestsData",
          "name": "requestsData",
          "type": "tuple"
        }
      ],
      "name": "hashRequests",
      "outputs": [
        {
          "internalType": "bytes32",
          "name": "",
          "type": "bytes32"
        }
      ],
      "stateMutability": "view",
      "type": "function"
    },
    {
      "inputs": [
        {
          "internalType": "address",
          "name": "accountRegistry",
          "type": "address"
        }
      ],
      "name": "initialize",
      "outputs": [],
      "stateMutability": "nonpayable",
      "type": "function"
    },
    {
      "inputs": [],
      "name": "initialized",
      "outputs": [
        {
          "internalType": "bool",
          "name": "",
          "type": "bool"
        }
      ],
      "stateMutability": "view",
      "type": "function"
    },
    {
      "inputs": [
        {
          "internalType": "address",
          "name": "account",
          "type": "address"
        },
        {
          "internalType": "bytes32",
          "name": "hash",
          "type": "bytes32"
        },
        {
          "internalType": "bytes",
          "name": "signature",
          "type": "bytes"
        }
      ],
      "name": "recoverTrustedSigner",
      "outputs": [
        {
          "internalType": "address",
          "name": "",
          "type": "address"
        }
      ],
      "stateMutability": "view",
      "type": "function"
    },
    {
      "inputs": [
        {
          "internalType": "address",
          "name": "to",
          "type": "address"
        },
        {
          "internalType": "uint256",
          "name": "value",
          "type": "uint256"
        },
        {
          "internalType": "bytes",
          "name": "data",
          "type": "bytes"
        }
      ],
      "name": "sendRequest",
      "outputs": [],
      "stateMutability": "nonpayable",
      "type": "function"
    },
    {
      "inputs": [
        {
          "internalType": "address",
          "name": "from",
          "type": "address"
        },
        {
          "internalType": "address",
          "name": "to",
          "type": "address"
        },
        {
          "internalType": "uint256",
          "name": "value",
          "type": "uint256"
        },
        {
          "internalType": "bytes",
          "name": "data",
          "type": "bytes"
        }
      ],
      "name": "sendRequestFrom",
      "outputs": [],
      "stateMutability": "nonpayable",
      "type": "function"
    },
    {
      "inputs": [
        {
          "internalType": "address[]",
          "name": "to",
          "type": "address[]"
        },
        {
          "internalType": "uint256[]",
          "name": "value",
          "type": "uint256[]"
        },
        {
          "internalType": "bytes[]",
          "name": "data",
          "type": "bytes[]"
        }
      ],
      "name": "sendRequests",
      "outputs": [],
      "stateMutability": "nonpayable",
      "type": "function"
    },
    {
      "inputs": [
        {
          "internalType": "address",
          "name": "from",
          "type": "address"
        },
        {
          "internalType": "address[]",
          "name": "to",
          "type": "address[]"
        },
        {
          "internalType": "uint256[]",
          "name": "value",
          "type": "uint256[]"
        },
        {
          "internalType": "bytes[]",
          "name": "data",
          "type": "bytes[]"
        }
      ],
      "name": "sendRequestsFrom",
      "outputs": [],
      "stateMutability": "nonpayable",
      "type": "function"
    },
    {
      "inputs": [
        {
          "internalType": "address",
          "name": "owner",
          "type": "address"
        }
      ],
      "name": "setOwner",
      "outputs": [],
      "stateMutability": "nonpayable",
      "type": "function"
    }
  ],
  "transactionHash": "0x9e932dbd78fd7cecad23bc601798c23c5e529573833947a284355e8c4a82d25e",
  "args": [
    "0xF2a1699320517FA9C5c749EA9DfB5594Bb9862e5",
    "Gateway",
    "0.0.1"
  ],
  "numDeployments": 1,
  "solcInputHash": "6192676cc397315b66316256ae4c7243",
  "bytecode": "0x61016060405234801562000011575f80fd5b50604051620025be380380620025be833981016040819052620000349162000277565b82828262000043825f6200012e565b61012052620000548160016200012e565b61014052815160208084019190912060e052815190820120610100524660a052620000e160e05161010051604080517f8b73c3c69bb8fe3d512ecc4cf759cc79239f7b179b0ffacaa9a75d522b39400f60208201529081019290925260608201524660808201523060a08201525f9060c00160405160208183030381529060405280519060200120905090565b60805250503060c0526001600160a01b0381161562000101578062000103565b335b600280546001600160a01b0319166001600160a01b039290921691909117905550620004a792505050565b5f6020835110156200014d57620001458362000166565b905062000160565b816200015a848262000387565b5060ff90505b92915050565b5f80829050601f815111156200019c578260405163305a27a960e01b81526004016200019391906200044f565b60405180910390fd5b8051620001a98262000483565b179392505050565b634e487b7160e01b5f52604160045260245ffd5b5f5b83811015620001e1578181015183820152602001620001c7565b50505f910152565b5f82601f830112620001f9575f80fd5b81516001600160401b0380821115620002165762000216620001b1565b604051601f8301601f19908116603f01168101908282118183101715620002415762000241620001b1565b816040528381528660208588010111156200025a575f80fd5b6200026d846020830160208901620001c5565b9695505050505050565b5f805f606084860312156200028a575f80fd5b83516001600160a01b0381168114620002a1575f80fd5b60208501519093506001600160401b0380821115620002be575f80fd5b620002cc87838801620001e9565b93506040860151915080821115620002e2575f80fd5b50620002f186828701620001e9565b9150509250925092565b600181811c908216806200031057607f821691505b6020821081036200032f57634e487b7160e01b5f52602260045260245ffd5b50919050565b601f82111562000382575f81815260208120601f850160051c810160208610156200035d5750805b601f850160051c820191505b818110156200037e5782815560010162000369565b5050505b505050565b81516001600160401b03811115620003a357620003a3620001b1565b620003bb81620003b48454620002fb565b8462000335565b602080601f831160018114620003f1575f8415620003d95750858301515b5f19600386901b1c1916600185901b1785556200037e565b5f85815260208120601f198616915b82811015620004215788860151825594840194600190910190840162000400565b50858210156200043f57878501515f19600388901b60f8161c191681555b5050505050600190811b01905550565b602081525f82518060208401526200046f816040850160208701620001c5565b601f01601f19169190910160400192915050565b805160208083015191908110156200032f575f1960209190910360031b1b16919050565b60805160a05160c05160e0516101005161012051610140516120c5620004f95f395f61043101525f61040701525f61136701525f61133f01525f61129a01525f6112c401525f6112ee01526120c55ff3fe608060405234801561000f575f80fd5b50600436106100f0575f3560e01c8063873c42e9116100935780639d199946116100635780639d1999461461024b578063aaeafbd41461025e578063c4d66de814610271578063f405a4fb14610284575f80fd5b8063873c42e9146101d3578063893d20e8146101e65780639994f893146102255780639c4def0814610238575f80fd5b80632d0335ab116100ce5780632d0335ab1461014f5780634fc98c7d1461019257806357e1d3d0146101a557806384b0196e146101b8575f80fd5b806313af4035146100f4578063158ef93e146101095780631ae1a0901461013c575b5f80fd5b610107610102366004611705565b610297565b005b60025474010000000000000000000000000000000000000000900460ff1660405190151581526020015b60405180910390f35b61010761014a366004611772565b610357565b61018461015d366004611705565b73ffffffffffffffffffffffffffffffffffffffff165f9081526004602052604090205490565b604051908152602001610133565b6101076101a0366004611817565b6103bf565b6101076101b33660046118ba565b6103e2565b6101c06103fa565b60405161013397969594939291906119b8565b6101076101e1366004611a75565b61049c565b60025473ffffffffffffffffffffffffffffffffffffffff165b60405173ffffffffffffffffffffffffffffffffffffffff9091168152602001610133565b610200610233366004611a75565b6104ac565b610107610246366004611acb565b6104c4565b610184610259366004611b35565b6104e5565b61018461026c366004611b35565b6104f5565b61010761027f366004611705565b6104ff565b610107610292366004611772565b6106c1565b60025473ffffffffffffffffffffffffffffffffffffffff163373ffffffffffffffffffffffffffffffffffffffff16146102fe576040517fcd52968d00000000000000000000000000000000000000000000000000000000815260040160405180910390fd5b73ffffffffffffffffffffffffffffffffffffffff811661034b576040517f465f799000000000000000000000000000000000000000000000000000000000815260040160405180910390fd5b6103548161070d565b50565b5f61037d61036485610753565b84846103736020890189611705565b8860200135610826565b90506103b9816103906020870187611705565b6103a06060880160408901611705565b60608801356103b260808a018a611b67565b6001610959565b50505050565b6103c93388610b2f565b6103d93388888888888888610b7c565b50505050505050565b6103f23333888888888888610b7c565b505050505050565b5f6060808280808361042c7f000000000000000000000000000000000000000000000000000000000000000083610ccf565b6104577f00000000000000000000000000000000000000000000000000000000000000006001610ccf565b604080515f808252602082019092527f0f000000000000000000000000000000000000000000000000000000000000009b939a50919850469750309650945092509050565b6103b93333868686866001610959565b5f6104b985858585610d79565b90505b949350505050565b6104ce3386610b2f565b6104de3386868686866001610959565b5050505050565b5f6104ef82610753565b92915050565b5f6104ef82610ebd565b60025473ffffffffffffffffffffffffffffffffffffffff163373ffffffffffffffffffffffffffffffffffffffff1614610566576040517fcd52968d00000000000000000000000000000000000000000000000000000000815260040160405180910390fd5b60025474010000000000000000000000000000000000000000900460ff16156105bb576040517f0dc149f000000000000000000000000000000000000000000000000000000000815260040160405180910390fd5b600280547fffffffffffffffffffffff00ffffffffffffffffffffffffffffffffffffffff167401000000000000000000000000000000000000000017905573ffffffffffffffffffffffffffffffffffffffff8116610647576040517fae6c17ef00000000000000000000000000000000000000000000000000000000815260040160405180910390fd5b600380547fffffffffffffffffffffffff00000000000000000000000000000000000000001673ffffffffffffffffffffffffffffffffffffffff83169081179091556040519081527f908408e307fc569b417f6cbec5d5a06f44a0a505ac0479b47d421a4b2fd6a1e6906020015b60405180910390a150565b5f6106ce61036485610ebd565b90506103b9816106e16020870187611705565b6106ee6040880188611bf5565b6106fb60608a018a611bf5565b61070860808c018c611bf5565b610b7c565b60405173ffffffffffffffffffffffffffffffffffffffff821681527f4ffd725fc4a22075e9ec71c59edf9c38cdeb588a91b24fc5b61388c5be41282b906020016106b6565b5f6104ef7f50680b954180227723a71179ed5362a65750abe07f728d93dbd7121df38f99566107856020850185611705565b602085013561079a6060870160408801611705565b60608701356107ac6080890189611b67565b6040516107ba929190611c59565b60408051918290038220602083019790975273ffffffffffffffffffffffffffffffffffffffff9586169082015260608101939093529216608082015260a081019190915260c081019190915260e0015b60405160208183030381529060405280519060200120610ffb565b5f61083083611042565b73ffffffffffffffffffffffffffffffffffffffff83165f90815260046020526040902054821461088d576040517fbbfbf9a500000000000000000000000000000000000000000000000000000000815260040160405180910390fd5b73ffffffffffffffffffffffffffffffffffffffff83165f8181526004602090815260409182902060018601908190558251938452908301819052917f2ddf4902150368e68ca3b1565faf1e0603da0895a2699dc884f1db788c8396a2910160405180910390a161090084888888610d79565b915073ffffffffffffffffffffffffffffffffffffffff821661094f576040517fb27fd17200000000000000000000000000000000000000000000000000000000815260040160405180910390fd5b5095945050505050565b73ffffffffffffffffffffffffffffffffffffffff85166109a6576040517fd562963b00000000000000000000000000000000000000000000000000000000815260040160405180910390fd5b3073ffffffffffffffffffffffffffffffffffffffff8616036109f5576040517fc67e8d9f00000000000000000000000000000000000000000000000000000000815260040160405180910390fd5b6003545f9073ffffffffffffffffffffffffffffffffffffffff878116911614610a1f5786610a21565b875b90505f808773ffffffffffffffffffffffffffffffffffffffff1687878786604051602001610a5293929190611c68565b604080517fffffffffffffffffffffffffffffffffffffffffffffffffffffffffffffffe081840301815290829052610a8a91611ca1565b5f6040518083038185875af1925050503d805f8114610ac4576040519150601f19603f3d011682016040523d82523d5f602084013e610ac9565b606091505b509150915081610adb57805160208201fd5b8315610b23577f9fb0ec4da295e8344237426dabc70d59283b38c77870dc4a630a9a95ea9df99a8a8a8a8a8a8a604051610b1a96959493929190611d03565b60405180910390a15b50505050505050505050565b610b3881611042565b610b42818361108f565b610b78576040517fb27fd17200000000000000000000000000000000000000000000000000000000815260040160405180910390fd5b5050565b845f819003610bb7576040517f762ba14d00000000000000000000000000000000000000000000000000000000815260040160405180910390fd5b8084141580610bc65750808214155b15610bfd576040517ff47f7d4b00000000000000000000000000000000000000000000000000000000815260040160405180910390fd5b5f5b81811015610c7e57610c768a8a8a8a85818110610c1e57610c1e611d56565b9050602002016020810190610c339190611705565b898986818110610c4557610c45611d56565b90506020020135888887818110610c5e57610c5e611d56565b9050602002810190610c709190611b67565b5f610959565b600101610bff565b507f51ea9eec0ca38230a09feb2f24541fc5d02b013bb4150d244a81e4773cc3235b8989898989898989604051610cbc989796959493929190611e2e565b60405180910390a1505050505050505050565b606060ff8314610ce957610ce283611166565b90506104ef565b818054610cf590611f01565b80601f0160208091040260200160405190810160405280929190818152602001828054610d2190611f01565b8015610d6c5780601f10610d4357610100808354040283529160200191610d6c565b820191905f5260205f20905b815481529060010190602001808311610d4f57829003601f168201915b5050505050905092915050565b5f610dbb83838080601f0160208091040260200160405190810160405280939291908181526020018383808284375f9201919091525088939250506111a39050565b9050610dc7858261108f565b6104bc5773ffffffffffffffffffffffffffffffffffffffff85163b15158015610ea757506040517f1626ba7e000000000000000000000000000000000000000000000000000000008082529073ffffffffffffffffffffffffffffffffffffffff871690631626ba7e90610e4490889088908890600401611f4c565b602060405180830381865afa158015610e5f573d5f803e3d5ffd5b505050506040513d601f19601f82011682018060405250810190610e839190611f65565b7fffffffff0000000000000000000000000000000000000000000000000000000016145b15610eb35750836104bc565b505f949350505050565b5f6104ef7f39c584fe02c8d5d8bafc81289e83063dfbea6128cca594fc9c6d9b036ce8d90f610eef6020850185611705565b6020850135610f016040870187611bf5565b604051602001610f12929190611fa4565b604080517fffffffffffffffffffffffffffffffffffffffffffffffffffffffffffffffe08184030181529190528051602090910120610f556060880188611bf5565b604051602001610f66929190611ff0565b604080517fffffffffffffffffffffffffffffffffffffffffffffffffffffffffffffffe08184030181529190528051602090910120610fb1610fac60808a018a611bf5565b6111c5565b60408051602081019790975273ffffffffffffffffffffffffffffffffffffffff909516948601949094526060850192909252608084015260a083015260c082015260e00161080b565b5f6104ef611007611281565b836040517f19010000000000000000000000000000000000000000000000000000000000008152600281019290925260228201526042902090565b73ffffffffffffffffffffffffffffffffffffffff8116610354576040517f4eba1ca400000000000000000000000000000000000000000000000000000000815260040160405180910390fd5b5f8173ffffffffffffffffffffffffffffffffffffffff168373ffffffffffffffffffffffffffffffffffffffff16148061115f57506003546040517ff088bf5d00000000000000000000000000000000000000000000000000000000815273ffffffffffffffffffffffffffffffffffffffff858116600483015284811660248301529091169063f088bf5d90604401602060405180830381865afa15801561113b573d5f803e3d5ffd5b505050506040513d601f19601f8201168201806040525081019061115f9190612030565b9392505050565b60605f611172836113bc565b6040805160208082528183019092529192505f91906020820181803683375050509182525060208101929092525090565b5f805f6111b085856113fc565b915091506111bd8161143e565b509392505050565b5f81816111d382602061204f565b67ffffffffffffffff8111156111eb576111eb611bc8565b6040519080825280601f01601f191660200182016040528015611215576020820181803683370190505b5090505f5b82811015611270575f86868381811061123557611235611d56565b90506020028101906112479190611b67565b604051611255929190611c59565b6040519081900390206020838102850101525060010161121a565b508051602090910120949350505050565b5f3073ffffffffffffffffffffffffffffffffffffffff7f0000000000000000000000000000000000000000000000000000000000000000161480156112e657507f000000000000000000000000000000000000000000000000000000000000000046145b1561131057507f000000000000000000000000000000000000000000000000000000000000000090565b6113b7604080517f8b73c3c69bb8fe3d512ecc4cf759cc79239f7b179b0ffacaa9a75d522b39400f60208201527f0000000000000000000000000000000000000000000000000000000000000000918101919091527f000000000000000000000000000000000000000000000000000000000000000060608201524660808201523060a08201525f9060c00160405160208183030381529060405280519060200120905090565b905090565b5f60ff8216601f8111156104ef576040517fb3512b0c00000000000000000000000000000000000000000000000000000000815260040160405180910390fd5b5f808251604103611430576020830151604084015160608501515f1a611424878285856115f5565b94509450505050611437565b505f905060025b9250929050565b5f8160048111156114515761145161208b565b036114595750565b600181600481111561146d5761146d61208b565b036114d9576040517f08c379a000000000000000000000000000000000000000000000000000000000815260206004820152601860248201527f45434453413a20696e76616c6964207369676e6174757265000000000000000060448201526064015b60405180910390fd5b60028160048111156114ed576114ed61208b565b03611554576040517f08c379a000000000000000000000000000000000000000000000000000000000815260206004820152601f60248201527f45434453413a20696e76616c6964207369676e6174757265206c656e6774680060448201526064016114d0565b60038160048111156115685761156861208b565b03610354576040517f08c379a000000000000000000000000000000000000000000000000000000000815260206004820152602260248201527f45434453413a20696e76616c6964207369676e6174757265202773272076616c60448201527f756500000000000000000000000000000000000000000000000000000000000060648201526084016114d0565b5f807f7fffffffffffffffffffffffffffffff5d576e7357a4501ddfe92f46681b20a083111561162a57505f905060036116d4565b604080515f8082526020820180845289905260ff881692820192909252606081018690526080810185905260019060a0016020604051602081039080840390855afa15801561167b573d5f803e3d5ffd5b50506040517fffffffffffffffffffffffffffffffffffffffffffffffffffffffffffffffe0015191505073ffffffffffffffffffffffffffffffffffffffff81166116ce575f600192509250506116d4565b91505f90505b94509492505050565b803573ffffffffffffffffffffffffffffffffffffffff81168114611700575f80fd5b919050565b5f60208284031215611715575f80fd5b61115f826116dd565b5f60a0828403121561172e575f80fd5b50919050565b5f8083601f840112611744575f80fd5b50813567ffffffffffffffff81111561175b575f80fd5b602083019150836020828501011115611437575f80fd5b5f805f60408486031215611784575f80fd5b833567ffffffffffffffff8082111561179b575f80fd5b6117a78783880161171e565b945060208601359150808211156117bc575f80fd5b506117c986828701611734565b9497909650939450505050565b5f8083601f8401126117e6575f80fd5b50813567ffffffffffffffff8111156117fd575f80fd5b6020830191508360208260051b8501011115611437575f80fd5b5f805f805f805f6080888a03121561182d575f80fd5b611836886116dd565b9650602088013567ffffffffffffffff80821115611852575f80fd5b61185e8b838c016117d6565b909850965060408a0135915080821115611876575f80fd5b6118828b838c016117d6565b909650945060608a013591508082111561189a575f80fd5b506118a78a828b016117d6565b989b979a50959850939692959293505050565b5f805f805f80606087890312156118cf575f80fd5b863567ffffffffffffffff808211156118e6575f80fd5b6118f28a838b016117d6565b9098509650602089013591508082111561190a575f80fd5b6119168a838b016117d6565b9096509450604089013591508082111561192e575f80fd5b5061193b89828a016117d6565b979a9699509497509295939492505050565b5f5b8381101561196757818101518382015260200161194f565b50505f910152565b5f815180845261198681602086016020860161194d565b601f017fffffffffffffffffffffffffffffffffffffffffffffffffffffffffffffffe0169290920160200192915050565b7fff00000000000000000000000000000000000000000000000000000000000000881681525f602060e0818401526119f360e084018a61196f565b8381036040850152611a05818a61196f565b6060850189905273ffffffffffffffffffffffffffffffffffffffff8816608086015260a0850187905284810360c086015285518082528387019250908301905f5b81811015611a6357835183529284019291840191600101611a47565b50909c9b505050505050505050505050565b5f805f8060608587031215611a88575f80fd5b611a91856116dd565b935060208501359250604085013567ffffffffffffffff811115611ab3575f80fd5b611abf87828801611734565b95989497509550505050565b5f805f805f60808688031215611adf575f80fd5b611ae8866116dd565b9450611af6602087016116dd565b935060408601359250606086013567ffffffffffffffff811115611b18575f80fd5b611b2488828901611734565b969995985093965092949392505050565b5f60208284031215611b45575f80fd5b813567ffffffffffffffff811115611b5b575f80fd5b6104bc8482850161171e565b5f8083357fffffffffffffffffffffffffffffffffffffffffffffffffffffffffffffffe1843603018112611b9a575f80fd5b83018035915067ffffffffffffffff821115611bb4575f80fd5b602001915036819003821315611437575f80fd5b7f4e487b71000000000000000000000000000000000000000000000000000000005f52604160045260245ffd5b5f8083357fffffffffffffffffffffffffffffffffffffffffffffffffffffffffffffffe1843603018112611c28575f80fd5b83018035915067ffffffffffffffff821115611c42575f80fd5b6020019150600581901b3603821315611437575f80fd5b818382375f9101908152919050565b8284823760609190911b7fffffffffffffffffffffffffffffffffffffffff000000000000000000000000169101908152601401919050565b5f8251611cb281846020870161194d565b9190910192915050565b81835281816020850137505f602082840101525f60207fffffffffffffffffffffffffffffffffffffffffffffffffffffffffffffffe0601f840116840101905092915050565b5f73ffffffffffffffffffffffffffffffffffffffff8089168352808816602084015280871660408401525084606083015260a06080830152611d4a60a083018486611cbc565b98975050505050505050565b7f4e487b71000000000000000000000000000000000000000000000000000000005f52603260045260245ffd5b8183525f6020808501808196508560051b81019150845f5b87811015611e2157828403895281357fffffffffffffffffffffffffffffffffffffffffffffffffffffffffffffffe1883603018112611dd9575f80fd5b8701858101903567ffffffffffffffff811115611df4575f80fd5b803603821315611e02575f80fd5b611e0d868284611cbc565b9a87019a9550505090840190600101611d9b565b5091979650505050505050565b5f60a0820173ffffffffffffffffffffffffffffffffffffffff808c1684526020818c168186015260a06040860152828a845260c0860190508b93505f5b8b811015611e915783611e7e866116dd565b1682529382019390820190600101611e6c565b5085810360608701528881527f07ffffffffffffffffffffffffffffffffffffffffffffffffffffffffffffff891115611ec9575f80fd5b8860051b9350838a838301379092018481038301608086015291611ef08184018789611d83565b9d9c50505050505050505050505050565b600181811c90821680611f1557607f821691505b60208210810361172e577f4e487b71000000000000000000000000000000000000000000000000000000005f52602260045260245ffd5b838152604060208201525f6104b9604083018486611cbc565b5f60208284031215611f75575f80fd5b81517fffffffff000000000000000000000000000000000000000000000000000000008116811461115f575f80fd5b5f8184825b85811015611fe55773ffffffffffffffffffffffffffffffffffffffff611fcf836116dd565b1683526020928301929190910190600101611fa9565b509095945050505050565b5f7f07ffffffffffffffffffffffffffffffffffffffffffffffffffffffffffffff83111561201d575f80fd5b8260051b80858437919091019392505050565b5f60208284031215612040575f80fd5b8151801515811461115f575f80fd5b80820281158282048414176104ef577f4e487b71000000000000000000000000000000000000000000000000000000005f52601160045260245ffd5b7f4e487b71000000000000000000000000000000000000000000000000000000005f52602160045260245ffdfea164736f6c6343000815000a",
  "devdoc": {
    "events": {
      "EIP712DomainChanged()": {
        "details": "MAY be emitted to signal that the domain could have changed."
      }
    },
    "kind": "dev",
    "methods": {
      "eip712Domain()": {
        "details": "See {EIP-5267}. _Available since v4.9._"
      }
    },
    "version": 1
  },
  "userdoc": {
    "kind": "user",
    "methods": {},
    "version": 1
  },
  "storageLayout": {
    "storage": [
      {
        "astId": 2979,
        "contract": "contracts/gateway/Gateway.sol:Gateway",
        "label": "_nameFallback",
        "offset": 0,
        "slot": "0",
        "type": "t_string_storage"
      },
      {
        "astId": 2981,
        "contract": "contracts/gateway/Gateway.sol:Gateway",
        "label": "_versionFallback",
        "offset": 0,
        "slot": "1",
        "type": "t_string_storage"
      },
      {
        "astId": 6300,
        "contract": "contracts/gateway/Gateway.sol:Gateway",
        "label": "_owner",
        "offset": 0,
        "slot": "2",
        "type": "t_address"
      },
      {
        "astId": 6769,
        "contract": "contracts/gateway/Gateway.sol:Gateway",
        "label": "_initialized",
        "offset": 20,
        "slot": "2",
        "type": "t_bool"
      },
      {
        "astId": 6905,
        "contract": "contracts/gateway/Gateway.sol:Gateway",
        "label": "_accountRegistry",
        "offset": 0,
        "slot": "3",
        "type": "t_address"
      },
      {
        "astId": 6909,
        "contract": "contracts/gateway/Gateway.sol:Gateway",
        "label": "_nonce",
        "offset": 0,
        "slot": "4",
        "type": "t_mapping(t_address,t_uint256)"
      }
    ],
    "types": {
      "t_address": {
        "encoding": "inplace",
        "label": "address",
        "numberOfBytes": "20"
      },
      "t_bool": {
        "encoding": "inplace",
        "label": "bool",
        "numberOfBytes": "1"
      },
      "t_mapping(t_address,t_uint256)": {
        "encoding": "mapping",
        "key": "t_address",
        "label": "mapping(address => uint256)",
        "numberOfBytes": "32",
        "value": "t_uint256"
      },
      "t_string_storage": {
        "encoding": "bytes",
        "label": "string",
        "numberOfBytes": "32"
      },
      "t_uint256": {
        "encoding": "inplace",
        "label": "uint256",
        "numberOfBytes": "32"
      }
    }
  }
}