{
  "address": "0x42274Ce59ABeFE2577f7c9673F1c6C4c5f884948",
  "abi": [
    {
      "inputs": [
        {
          "internalType": "string",
          "name": "name",
          "type": "string"
        }
      ],
      "stateMutability": "nonpayable",
      "type": "constructor"
    },
    {
      "inputs": [],
      "name": "AccountIsTheZeroAddress",
      "type": "error"
    },
    {
      "inputs": [],
      "name": "CallToTheZeroAddress",
      "type": "error"
    },
    {
      "inputs": [],
      "name": "ECDSAInvalidSignature",
      "type": "error"
    },
    {
      "inputs": [
        {
          "internalType": "uint256",
          "name": "length",
          "type": "uint256"
        }
      ],
      "name": "ECDSAInvalidSignatureLength",
      "type": "error"
    },
    {
      "inputs": [
        {
          "internalType": "bytes32",
          "name": "s",
          "type": "bytes32"
        }
      ],
      "name": "ECDSAInvalidSignatureS",
      "type": "error"
    },
    {
      "inputs": [],
      "name": "EmptyRequestBatch",
      "type": "error"
    },
    {
      "inputs": [],
      "name": "InvalidRequestBatchSize",
      "type": "error"
    },
    {
      "inputs": [],
      "name": "InvalidShortString",
      "type": "error"
    },
    {
      "inputs": [],
      "name": "InvalidSignature",
      "type": "error"
    },
    {
      "inputs": [
        {
          "internalType": "string",
          "name": "str",
          "type": "string"
        }
      ],
      "name": "StringTooLong",
      "type": "error"
    },
    {
      "anonymous": false,
      "inputs": [],
      "name": "EIP712DomainChanged",
      "type": "event"
    },
    {
      "anonymous": false,
      "inputs": [
        {
          "indexed": false,
          "internalType": "address",
          "name": "account",
          "type": "address"
        },
        {
          "indexed": false,
          "internalType": "uint256",
          "name": "nonce",
          "type": "uint256"
        },
        {
          "indexed": false,
          "internalType": "address[]",
          "name": "to",
          "type": "address[]"
        },
        {
          "indexed": false,
          "internalType": "bytes[]",
          "name": "data",
          "type": "bytes[]"
        }
      ],
      "name": "RequestBatchSent",
      "type": "event"
    },
    {
      "anonymous": false,
      "inputs": [
        {
          "indexed": false,
          "internalType": "address",
          "name": "account",
          "type": "address"
        },
        {
          "indexed": false,
          "internalType": "uint256",
          "name": "nonce",
          "type": "uint256"
        },
        {
          "indexed": false,
          "internalType": "address",
          "name": "to",
          "type": "address"
        },
        {
          "indexed": false,
          "internalType": "bytes",
          "name": "data",
          "type": "bytes"
        }
      ],
      "name": "RequestSent",
      "type": "event"
    },
    {
      "inputs": [],
      "name": "eip712Domain",
      "outputs": [
        {
          "internalType": "bytes1",
          "name": "fields",
          "type": "bytes1"
        },
        {
          "internalType": "string",
          "name": "name",
          "type": "string"
        },
        {
          "internalType": "string",
          "name": "version",
          "type": "string"
        },
        {
          "internalType": "uint256",
          "name": "chainId",
          "type": "uint256"
        },
        {
          "internalType": "address",
          "name": "verifyingContract",
          "type": "address"
        },
        {
          "internalType": "bytes32",
          "name": "salt",
          "type": "bytes32"
        },
        {
          "internalType": "uint256[]",
          "name": "extensions",
          "type": "uint256[]"
        }
      ],
      "stateMutability": "view",
      "type": "function"
    },
    {
      "inputs": [
        {
          "internalType": "address",
          "name": "account",
          "type": "address"
        },
        {
          "internalType": "address",
          "name": "to",
          "type": "address"
        },
        {
          "internalType": "bytes",
          "name": "data",
          "type": "bytes"
        },
        {
          "internalType": "bytes",
          "name": "signature",
          "type": "bytes"
        }
      ],
      "name": "forwardRequest",
      "outputs": [],
      "stateMutability": "nonpayable",
      "type": "function"
    },
    {
      "inputs": [
        {
          "internalType": "address",
          "name": "account",
          "type": "address"
        },
        {
          "internalType": "address[]",
          "name": "to",
          "type": "address[]"
        },
        {
          "internalType": "bytes[]",
          "name": "data",
          "type": "bytes[]"
        },
        {
          "internalType": "bytes",
          "name": "signature",
          "type": "bytes"
        }
      ],
      "name": "forwardRequestBatch",
      "outputs": [],
      "stateMutability": "nonpayable",
      "type": "function"
    },
    {
      "inputs": [
        {
          "internalType": "address",
          "name": "account",
          "type": "address"
        }
      ],
      "name": "getNextNonce",
      "outputs": [
        {
          "internalType": "uint256",
          "name": "",
          "type": "uint256"
        }
      ],
      "stateMutability": "view",
      "type": "function"
    },
    {
      "inputs": [
        {
          "components": [
            {
              "internalType": "address",
              "name": "account",
              "type": "address"
            },
            {
              "internalType": "uint256",
              "name": "nonce",
              "type": "uint256"
            },
            {
              "internalType": "address",
              "name": "to",
              "type": "address"
            },
            {
              "internalType": "bytes",
              "name": "data",
              "type": "bytes"
            }
          ],
          "internalType": "struct Gateway.RequestData",
          "name": "requestData",
          "type": "tuple"
        }
      ],
      "name": "hashRequest",
      "outputs": [
        {
          "internalType": "bytes32",
          "name": "",
          "type": "bytes32"
        }
      ],
      "stateMutability": "view",
      "type": "function"
    },
    {
      "inputs": [
        {
          "components": [
            {
              "internalType": "address",
              "name": "account",
              "type": "address"
            },
            {
              "internalType": "uint256",
              "name": "nonce",
              "type": "uint256"
            },
            {
              "internalType": "address[]",
              "name": "to",
              "type": "address[]"
            },
            {
              "internalType": "bytes[]",
              "name": "data",
              "type": "bytes[]"
            }
          ],
          "internalType": "struct Gateway.RequestBatchData",
          "name": "requestBatchData",
          "type": "tuple"
        }
      ],
      "name": "hashRequestBatch",
      "outputs": [
        {
          "internalType": "bytes32",
          "name": "",
          "type": "bytes32"
        }
      ],
      "stateMutability": "view",
      "type": "function"
    },
    {
      "inputs": [
        {
          "internalType": "address",
          "name": "to",
          "type": "address"
        },
        {
          "internalType": "bytes",
          "name": "data",
          "type": "bytes"
        }
      ],
      "name": "sendRequest",
      "outputs": [],
      "stateMutability": "nonpayable",
      "type": "function"
    },
    {
      "inputs": [
        {
          "internalType": "address[]",
          "name": "to",
          "type": "address[]"
        },
        {
          "internalType": "bytes[]",
          "name": "data",
          "type": "bytes[]"
        }
      ],
      "name": "sendRequestBatch",
      "outputs": [],
      "stateMutability": "nonpayable",
      "type": "function"
    }
  ],
  "transactionHash": "0x6242d4b19cfe4e919bfc527a1eda6c40a74eb959c7a03733a34a43203bc5c569",
  "args": [
    "OM!goods Gateway"
  ],
  "numDeployments": 1,
  "solcInputHash": "1179d9d37cb9c2e343e41829b8119480",
  "bytecode": "0x61016060405234801562000011575f80fd5b5060405162001ca838038062001ca88339810160408190526200003491620001c3565b6040805180820190915260018152603160f81b602082015281906200005a825f62000108565b610120526200006b81600162000108565b61014052815160208084019190912060e052815190820120610100524660a052620000f860e05161010051604080517f8b73c3c69bb8fe3d512ecc4cf759cc79239f7b179b0ffacaa9a75d522b39400f60208201529081019290925260608201524660808201523060a08201525f9060c00160405160208183030381529060405280519060200120905090565b60805250503060c0525062000422565b5f60208351101562000127576200011f8362000140565b90506200013a565b8162000134848262000302565b5060ff90505b92915050565b5f80829050601f8151111562000176578260405163305a27a960e01b81526004016200016d9190620003ca565b60405180910390fd5b80516200018382620003fe565b179392505050565b634e487b7160e01b5f52604160045260245ffd5b5f5b83811015620001bb578181015183820152602001620001a1565b50505f910152565b5f60208284031215620001d4575f80fd5b81516001600160401b0380821115620001eb575f80fd5b818401915084601f830112620001ff575f80fd5b8151818111156200021457620002146200018b565b604051601f8201601f19908116603f011681019083821181831017156200023f576200023f6200018b565b8160405282815287602084870101111562000258575f80fd5b6200026b8360208301602088016200019f565b979650505050505050565b600181811c908216806200028b57607f821691505b602082108103620002aa57634e487b7160e01b5f52602260045260245ffd5b50919050565b601f821115620002fd575f81815260208120601f850160051c81016020861015620002d85750805b601f850160051c820191505b81811015620002f957828155600101620002e4565b5050505b505050565b81516001600160401b038111156200031e576200031e6200018b565b62000336816200032f845462000276565b84620002b0565b602080601f8311600181146200036c575f8415620003545750858301515b5f19600386901b1c1916600185901b178555620002f9565b5f85815260208120601f198616915b828110156200039c578886015182559484019460019091019084016200037b565b5085821015620003ba57878501515f19600388901b60f8161c191681555b5050505050600190811b01905550565b602081525f8251806020840152620003ea8160408501602087016200019f565b601f01601f19169190910160400192915050565b80516020808301519190811015620002aa575f1960209190910360031b1b16919050565b60805160a05160c05160e051610100516101205161014051611834620004745f395f6106f101525f6106c001525f610c4701525f610c1f01525f610b7a01525f610ba401525f610bce01526118345ff3fe608060405234801561000f575f80fd5b5060043610610085575f3560e01c806394cc064c1161005857806394cc064c14610118578063de94c5021461012b578063e3bdb17d1461013e578063f4c56ae614610151575f80fd5b80633872814b1461008957806362d3fe461461009e57806384b0196e146100b157806390193b7c146100d5575b5f80fd5b61009c61009736600461100a565b610164565b005b61009c6100ac3660046110ad565b6101ba565b6100b96101db565b6040516100cc9796959493929190611167565b60405180910390f35b61010a6100e3366004611224565b73ffffffffffffffffffffffffffffffffffffffff165f9081526002602052604090205490565b6040519081526020016100cc565b61009c610126366004611244565b610239565b61009c6101393660046112ab565b61025c565b61010a61014c36600461134c565b6102a8565b61010a61015f36600461134c565b6102e3565b73ffffffffffffffffffffffffffffffffffffffff87165f908152600260205260409020546101a28861019b81848b8b8b8b61031b565b85856103dc565b6101b08882898989896105bd565b5050505050505050565b335f818152600260205260409020546101d6919085858561063d565b505050565b5f6060805f805f60606101ec6106b9565b6101f46106ea565b604080515f808252602082019092527f0f000000000000000000000000000000000000000000000000000000000000009b939a50919850469750309650945092509050565b335f818152600260205260409020546102569190868686866105bd565b50505050565b73ffffffffffffffffffffffffffffffffffffffff86165f908152600260205260409020546102928761019b81848a8a8a610717565b61029f878288888861063d565b50505050505050565b5f6102dd6102b96020840184611224565b60208401356102cb60408601866113b3565b6102d860608801886113b3565b61031b565b92915050565b5f6102dd6102f46020840184611224565b60208401356103096060860160408701611224565b6103166060870187611417565b610717565b5f6103d17f94b728e38ed588fa0e358a3f5fed463b44b14260ee37b65c44c1a796e8be217688888888604051602001610355929190611478565b6040516020818303038152906040528051906020012061037588886107a8565b60408051602081019690965273ffffffffffffffffffffffffffffffffffffffff909416938501939093526060840191909152608083015260a082015260c0015b60405160208183030381529060405280519060200120610864565b979650505050505050565b73ffffffffffffffffffffffffffffffffffffffff8416610429576040517f744fa2d000000000000000000000000000000000000000000000000000000000815260040160405180910390fd5b5f61046b83838080601f0160208091040260200160405190810160405280939291908181526020018383808284375f9201919091525088939250506108ab9050565b90508073ffffffffffffffffffffffffffffffffffffffff168573ffffffffffffffffffffffffffffffffffffffff161415801561057f575073ffffffffffffffffffffffffffffffffffffffff85163b158061057f57506040517f1626ba7e000000000000000000000000000000000000000000000000000000008082529073ffffffffffffffffffffffffffffffffffffffff871690631626ba7e9061051b9088908890889060040161150b565b602060405180830381865afa158015610536573d5f803e3d5ffd5b505050506040513d601f19601f8201168201806040525081019061055a919061152d565b7fffffffff000000000000000000000000000000000000000000000000000000001614155b156105b6576040517f8baa579f00000000000000000000000000000000000000000000000000000000815260040160405180910390fd5b5050505050565b73ffffffffffffffffffffffffffffffffffffffff86165f9081526002602052604090206001860190556105f486858585856108d3565b7f1c7116c1d763b19a8f4d4a297460e4a7b492a1fadd568cd98ec9b88b1320f96986868686868660405161062d9695949392919061156c565b60405180910390a1505050505050565b73ffffffffffffffffffffffffffffffffffffffff85165f908152600260205260409020600185019055610673858484846109ad565b7f2e1dae53d1316f7d8bfc936b28c97e26c02b169e387e4366790db836a74826ec85858585856040516106aa9594939291906116a4565b60405180910390a15050505050565b60606106e57f00000000000000000000000000000000000000000000000000000000000000005f610ab8565b905090565b60606106e57f00000000000000000000000000000000000000000000000000000000000000006001610ab8565b5f61079e7f7230b424eec5412e1883503d0eb5eb699e10576f7e2ee5f86fb7b546a06937e6878787878760405161074f9291906116e3565b6040519081900381206103b6959493929160200194855273ffffffffffffffffffffffffffffffffffffffff938416602086015260408501929092529091166060830152608082015260a00190565b9695505050505050565b5f81816107b68260206116f2565b67ffffffffffffffff8111156107ce576107ce611386565b6040519080825280601f01601f1916602001820160405280156107f8576020820181803683370190505b5090505f5b82811015610853575f8686838181106108185761081861172e565b905060200281019061082a9190611417565b6040516108389291906116e3565b604051908190039020602083810285010152506001016107fd565b508051602090910120949350505050565b5f6102dd610870610b61565b836040517f19010000000000000000000000000000000000000000000000000000000000008152600281019290925260228201526042902090565b5f805f806108b98686610c97565b9250925092506108c98282610ce0565b5090949350505050565b825f81900361090e576040517f81d6b19e00000000000000000000000000000000000000000000000000000000815260040160405180910390fd5b808214610947576040517f2797bfd300000000000000000000000000000000000000000000000000000000815260040160405180910390fd5b5f5b8181101561029f576109a5878787848181106109675761096761172e565b905060200201602081019061097c9190611224565b86868581811061098e5761098e61172e565b90506020028101906109a09190611417565b6109ad565b600101610949565b73ffffffffffffffffffffffffffffffffffffffff83166109fa576040517ff88cd52400000000000000000000000000000000000000000000000000000000815260040160405180910390fd5b5f808473ffffffffffffffffffffffffffffffffffffffff16848488604051602001610a289392919061175b565b604080517fffffffffffffffffffffffffffffffffffffffffffffffffffffffffffffffe081840301815290829052610a6091611794565b5f604051808303815f865af19150503d805f8114610a99576040519150601f19603f3d011682016040523d82523d5f602084013e610a9e565b606091505b509150915081610ab057805160208201fd5b505050505050565b606060ff8314610ad257610acb83610dec565b90506102dd565b818054610ade906117af565b80601f0160208091040260200160405190810160405280929190818152602001828054610b0a906117af565b8015610b555780601f10610b2c57610100808354040283529160200191610b55565b820191905f5260205f20905b815481529060010190602001808311610b3857829003601f168201915b505050505090506102dd565b5f3073ffffffffffffffffffffffffffffffffffffffff7f000000000000000000000000000000000000000000000000000000000000000016148015610bc657507f000000000000000000000000000000000000000000000000000000000000000046145b15610bf057507f000000000000000000000000000000000000000000000000000000000000000090565b6106e5604080517f8b73c3c69bb8fe3d512ecc4cf759cc79239f7b179b0ffacaa9a75d522b39400f60208201527f0000000000000000000000000000000000000000000000000000000000000000918101919091527f000000000000000000000000000000000000000000000000000000000000000060608201524660808201523060a08201525f9060c00160405160208183030381529060405280519060200120905090565b5f805f8351604103610cce576020840151604085015160608601515f1a610cc088828585610e29565b955095509550505050610cd9565b505081515f91506002905b9250925092565b5f826003811115610cf357610cf36117fa565b03610cfc575050565b6001826003811115610d1057610d106117fa565b03610d47576040517ff645eedf00000000000000000000000000000000000000000000000000000000815260040160405180910390fd5b6002826003811115610d5b57610d5b6117fa565b03610d9a576040517ffce698f7000000000000000000000000000000000000000000000000000000008152600481018290526024015b60405180910390fd5b6003826003811115610dae57610dae6117fa565b03610de8576040517fd78bce0c00000000000000000000000000000000000000000000000000000000815260048101829052602401610d91565b5050565b60605f610df883610f1c565b6040805160208082528183019092529192505f91906020820181803683375050509182525060208101929092525090565b5f80807f7fffffffffffffffffffffffffffffff5d576e7357a4501ddfe92f46681b20a0841115610e6257505f91506003905082610f12565b604080515f808252602082018084528a905260ff891692820192909252606081018790526080810186905260019060a0016020604051602081039080840390855afa158015610eb3573d5f803e3d5ffd5b50506040517fffffffffffffffffffffffffffffffffffffffffffffffffffffffffffffffe0015191505073ffffffffffffffffffffffffffffffffffffffff8116610f0957505f925060019150829050610f12565b92505f91508190505b9450945094915050565b5f60ff8216601f8111156102dd576040517fb3512b0c00000000000000000000000000000000000000000000000000000000815260040160405180910390fd5b803573ffffffffffffffffffffffffffffffffffffffff81168114610f7f575f80fd5b919050565b5f8083601f840112610f94575f80fd5b50813567ffffffffffffffff811115610fab575f80fd5b6020830191508360208260051b8501011115610fc5575f80fd5b9250929050565b5f8083601f840112610fdc575f80fd5b50813567ffffffffffffffff811115610ff3575f80fd5b602083019150836020828501011115610fc5575f80fd5b5f805f805f805f6080888a031215611020575f80fd5b61102988610f5c565b9650602088013567ffffffffffffffff80821115611045575f80fd5b6110518b838c01610f84565b909850965060408a0135915080821115611069575f80fd5b6110758b838c01610f84565b909650945060608a013591508082111561108d575f80fd5b5061109a8a828b01610fcc565b989b979a50959850939692959293505050565b5f805f604084860312156110bf575f80fd5b6110c884610f5c565b9250602084013567ffffffffffffffff8111156110e3575f80fd5b6110ef86828701610fcc565b9497909650939450505050565b5f5b838110156111165781810151838201526020016110fe565b50505f910152565b5f81518084526111358160208601602086016110fc565b601f017fffffffffffffffffffffffffffffffffffffffffffffffffffffffffffffffe0169290920160200192915050565b7fff00000000000000000000000000000000000000000000000000000000000000881681525f602060e0818401526111a260e084018a61111e565b83810360408501526111b4818a61111e565b6060850189905273ffffffffffffffffffffffffffffffffffffffff8816608086015260a0850187905284810360c086015285518082528387019250908301905f5b81811015611212578351835292840192918401916001016111f6565b50909c9b505050505050505050505050565b5f60208284031215611234575f80fd5b61123d82610f5c565b9392505050565b5f805f8060408587031215611257575f80fd5b843567ffffffffffffffff8082111561126e575f80fd5b61127a88838901610f84565b90965094506020870135915080821115611292575f80fd5b5061129f87828801610f84565b95989497509550505050565b5f805f805f80608087890312156112c0575f80fd5b6112c987610f5c565b95506112d760208801610f5c565b9450604087013567ffffffffffffffff808211156112f3575f80fd5b6112ff8a838b01610fcc565b90965094506060890135915080821115611317575f80fd5b5061132489828a01610fcc565b979a9699509497509295939492505050565b5f60808284031215611346575f80fd5b50919050565b5f6020828403121561135c575f80fd5b813567ffffffffffffffff811115611372575f80fd5b61137e84828501611336565b949350505050565b7f4e487b71000000000000000000000000000000000000000000000000000000005f52604160045260245ffd5b5f8083357fffffffffffffffffffffffffffffffffffffffffffffffffffffffffffffffe18436030181126113e6575f80fd5b83018035915067ffffffffffffffff821115611400575f80fd5b6020019150600581901b3603821315610fc5575f80fd5b5f8083357fffffffffffffffffffffffffffffffffffffffffffffffffffffffffffffffe184360301811261144a575f80fd5b83018035915067ffffffffffffffff821115611464575f80fd5b602001915036819003821315610fc5575f80fd5b5f8184825b858110156114b95773ffffffffffffffffffffffffffffffffffffffff6114a383610f5c565b168352602092830192919091019060010161147d565b509095945050505050565b81835281816020850137505f602082840101525f60207fffffffffffffffffffffffffffffffffffffffffffffffffffffffffffffffe0601f840116840101905092915050565b838152604060208201525f6115246040830184866114c4565b95945050505050565b5f6020828403121561153d575f80fd5b81517fffffffff000000000000000000000000000000000000000000000000000000008116811461123d575f80fd5b73ffffffffffffffffffffffffffffffffffffffff8781168252602080830188905260806040840181905283018690525f91879160a08501845b898110156115cb57836115b886610f5c565b16825293820193908201906001016115a6565b5085810360608701528681528181019350600587901b810182019250875f5b88811015611692577fffffffffffffffffffffffffffffffffffffffffffffffffffffffffffffffe083860301865281357fffffffffffffffffffffffffffffffffffffffffffffffffffffffffffffffe18b360301811261164a575f80fd5b8a01848101903567ffffffffffffffff811115611665575f80fd5b803603821315611673575f80fd5b61167e8782846114c4565b9786019796505050908301906001016115ea565b50929c9b505050505050505050505050565b5f73ffffffffffffffffffffffffffffffffffffffff8088168352866020840152808616604084015250608060608301526103d16080830184866114c4565b818382375f9101908152919050565b80820281158282048414176102dd577f4e487b71000000000000000000000000000000000000000000000000000000005f52601160045260245ffd5b7f4e487b71000000000000000000000000000000000000000000000000000000005f52603260045260245ffd5b8284823760609190911b7fffffffffffffffffffffffffffffffffffffffff000000000000000000000000169101908152601401919050565b5f82516117a58184602087016110fc565b9190910192915050565b600181811c908216806117c357607f821691505b602082108103611346577f4e487b71000000000000000000000000000000000000000000000000000000005f52602260045260245ffd5b7f4e487b71000000000000000000000000000000000000000000000000000000005f52602160045260245ffdfea164736f6c6343000815000a",
  "devdoc": {
    "errors": {
      "ECDSAInvalidSignature()": [
        {
          "details": "The signature derives the `address(0)`."
        }
      ],
      "ECDSAInvalidSignatureLength(uint256)": [
        {
          "details": "The signature has an invalid length."
        }
      ],
      "ECDSAInvalidSignatureS(bytes32)": [
        {
          "details": "The signature has an S value that is in the upper half order."
        }
      ]
    },
    "events": {
      "EIP712DomainChanged()": {
        "details": "MAY be emitted to signal that the domain could have changed."
      }
    },
    "kind": "dev",
    "methods": {
      "eip712Domain()": {
        "details": "See {IERC-5267}."
      }
    },
    "version": 1
  },
  "userdoc": {
    "kind": "user",
    "methods": {},
    "version": 1
  },
  "storageLayout": {
    "storage": [
      {
        "astId": 2447,
        "contract": "contracts/gateway/Gateway.sol:Gateway",
        "label": "_nameFallback",
        "offset": 0,
        "slot": "0",
        "type": "t_string_storage"
      },
      {
        "astId": 2449,
        "contract": "contracts/gateway/Gateway.sol:Gateway",
        "label": "_versionFallback",
        "offset": 0,
        "slot": "1",
        "type": "t_string_storage"
      },
      {
        "astId": 4228,
        "contract": "contracts/gateway/Gateway.sol:Gateway",
        "label": "_nextNonce",
        "offset": 0,
        "slot": "2",
        "type": "t_mapping(t_address,t_uint256)"
      }
    ],
    "types": {
      "t_address": {
        "encoding": "inplace",
        "label": "address",
        "numberOfBytes": "20"
      },
      "t_mapping(t_address,t_uint256)": {
        "encoding": "mapping",
        "key": "t_address",
        "label": "mapping(address => uint256)",
        "numberOfBytes": "32",
        "value": "t_uint256"
      },
      "t_string_storage": {
        "encoding": "bytes",
        "label": "string",
        "numberOfBytes": "32"
      },
      "t_uint256": {
        "encoding": "inplace",
        "label": "uint256",
        "numberOfBytes": "32"
      }
    }
  }
}