{
  "address": "0x5C87D202B526A8fd5378C455B0dCa5242c46AfC9",
  "abi": [
    {
      "inputs": [
        {
          "internalType": "string",
          "name": "name",
          "type": "string"
        }
      ],
      "stateMutability": "nonpayable",
      "type": "constructor"
    },
    {
      "inputs": [],
      "name": "AccountIsTheZeroAddress",
      "type": "error"
    },
    {
      "inputs": [],
      "name": "CallToTheZeroAddress",
      "type": "error"
    },
    {
      "inputs": [],
      "name": "ECDSAInvalidSignature",
      "type": "error"
    },
    {
      "inputs": [
        {
          "internalType": "uint256",
          "name": "length",
          "type": "uint256"
        }
      ],
      "name": "ECDSAInvalidSignatureLength",
      "type": "error"
    },
    {
      "inputs": [
        {
          "internalType": "bytes32",
          "name": "s",
          "type": "bytes32"
        }
      ],
      "name": "ECDSAInvalidSignatureS",
      "type": "error"
    },
    {
      "inputs": [],
      "name": "EmptyRequestBatch",
      "type": "error"
    },
    {
      "inputs": [],
      "name": "InvalidRequestBatchSize",
      "type": "error"
    },
    {
      "inputs": [],
      "name": "InvalidShortString",
      "type": "error"
    },
    {
      "inputs": [],
      "name": "InvalidSignature",
      "type": "error"
    },
    {
      "inputs": [
        {
          "internalType": "string",
          "name": "str",
          "type": "string"
        }
      ],
      "name": "StringTooLong",
      "type": "error"
    },
    {
      "anonymous": false,
      "inputs": [],
      "name": "EIP712DomainChanged",
      "type": "event"
    },
    {
      "anonymous": false,
      "inputs": [
        {
          "indexed": false,
          "internalType": "address",
          "name": "account",
          "type": "address"
        },
        {
          "indexed": false,
          "internalType": "uint256",
          "name": "nonce",
          "type": "uint256"
        },
        {
          "indexed": false,
          "internalType": "address[]",
          "name": "to",
          "type": "address[]"
        },
        {
          "indexed": false,
          "internalType": "bytes[]",
          "name": "data",
          "type": "bytes[]"
        }
      ],
      "name": "RequestBatchSent",
      "type": "event"
    },
    {
      "anonymous": false,
      "inputs": [
        {
          "indexed": false,
          "internalType": "address",
          "name": "account",
          "type": "address"
        },
        {
          "indexed": false,
          "internalType": "uint256",
          "name": "nonce",
          "type": "uint256"
        },
        {
          "indexed": false,
          "internalType": "address",
          "name": "to",
          "type": "address"
        },
        {
          "indexed": false,
          "internalType": "bytes",
          "name": "data",
          "type": "bytes"
        }
      ],
      "name": "RequestSent",
      "type": "event"
    },
    {
      "inputs": [],
      "name": "eip712Domain",
      "outputs": [
        {
          "internalType": "bytes1",
          "name": "fields",
          "type": "bytes1"
        },
        {
          "internalType": "string",
          "name": "name",
          "type": "string"
        },
        {
          "internalType": "string",
          "name": "version",
          "type": "string"
        },
        {
          "internalType": "uint256",
          "name": "chainId",
          "type": "uint256"
        },
        {
          "internalType": "address",
          "name": "verifyingContract",
          "type": "address"
        },
        {
          "internalType": "bytes32",
          "name": "salt",
          "type": "bytes32"
        },
        {
          "internalType": "uint256[]",
          "name": "extensions",
          "type": "uint256[]"
        }
      ],
      "stateMutability": "view",
      "type": "function"
    },
    {
      "inputs": [
        {
          "internalType": "address",
          "name": "account",
          "type": "address"
        },
        {
          "internalType": "address",
          "name": "to",
          "type": "address"
        },
        {
          "internalType": "bytes",
          "name": "data",
          "type": "bytes"
        },
        {
          "internalType": "bytes",
          "name": "signature",
          "type": "bytes"
        }
      ],
      "name": "forwardRequest",
      "outputs": [],
      "stateMutability": "nonpayable",
      "type": "function"
    },
    {
      "inputs": [
        {
          "internalType": "address",
          "name": "account",
          "type": "address"
        },
        {
          "internalType": "address[]",
          "name": "to",
          "type": "address[]"
        },
        {
          "internalType": "bytes[]",
          "name": "data",
          "type": "bytes[]"
        },
        {
          "internalType": "bytes",
          "name": "signature",
          "type": "bytes"
        }
      ],
      "name": "forwardRequestBatch",
      "outputs": [],
      "stateMutability": "nonpayable",
      "type": "function"
    },
    {
      "inputs": [
        {
          "internalType": "address",
          "name": "account",
          "type": "address"
        }
      ],
      "name": "getNextNonce",
      "outputs": [
        {
          "internalType": "uint256",
          "name": "",
          "type": "uint256"
        }
      ],
      "stateMutability": "view",
      "type": "function"
    },
    {
      "inputs": [
        {
          "components": [
            {
              "internalType": "address",
              "name": "account",
              "type": "address"
            },
            {
              "internalType": "uint256",
              "name": "nonce",
              "type": "uint256"
            },
            {
              "internalType": "address",
              "name": "to",
              "type": "address"
            },
            {
              "internalType": "bytes",
              "name": "data",
              "type": "bytes"
            }
          ],
          "internalType": "struct Gateway.RequestData",
          "name": "requestData",
          "type": "tuple"
        }
      ],
      "name": "hashRequest",
      "outputs": [
        {
          "internalType": "bytes32",
          "name": "",
          "type": "bytes32"
        }
      ],
      "stateMutability": "view",
      "type": "function"
    },
    {
      "inputs": [
        {
          "components": [
            {
              "internalType": "address",
              "name": "account",
              "type": "address"
            },
            {
              "internalType": "uint256",
              "name": "nonce",
              "type": "uint256"
            },
            {
              "internalType": "address[]",
              "name": "to",
              "type": "address[]"
            },
            {
              "internalType": "bytes[]",
              "name": "data",
              "type": "bytes[]"
            }
          ],
          "internalType": "struct Gateway.RequestBatchData",
          "name": "requestBatchData",
          "type": "tuple"
        }
      ],
      "name": "hashRequestBatch",
      "outputs": [
        {
          "internalType": "bytes32",
          "name": "",
          "type": "bytes32"
        }
      ],
      "stateMutability": "view",
      "type": "function"
    },
    {
      "inputs": [
        {
          "internalType": "address",
          "name": "to",
          "type": "address"
        },
        {
          "internalType": "bytes",
          "name": "data",
          "type": "bytes"
        }
      ],
      "name": "sendRequest",
      "outputs": [],
      "stateMutability": "nonpayable",
      "type": "function"
    },
    {
      "inputs": [
        {
          "internalType": "address[]",
          "name": "to",
          "type": "address[]"
        },
        {
          "internalType": "bytes[]",
          "name": "data",
          "type": "bytes[]"
        }
      ],
      "name": "sendRequestBatch",
      "outputs": [],
      "stateMutability": "nonpayable",
      "type": "function"
    }
  ],
  "transactionHash": "0x732734d86cfbc9f4c659c66761f6456a056e0045280ad059960aeb9436db8d1d",
  "args": [
    "OM!goods Gateway"
  ],
  "numDeployments": 1,
  "solcInputHash": "a9e2a0197f364155452382066c2f023a",
  "bytecode": "0x6101606040523480156200001257600080fd5b5060405162001d4d38038062001d4d8339810160408190526200003591620001cc565b6040805180820190915260018152603160f81b602082015281906200005c8260006200010b565b610120526200006d8160016200010b565b61014052815160208084019190912060e052815190820120610100524660a052620000fb60e05161010051604080517f8b73c3c69bb8fe3d512ecc4cf759cc79239f7b179b0ffacaa9a75d522b39400f60208201529081019290925260608201524660808201523060a082015260009060c00160405160208183030381529060405280519060200120905090565b60805250503060c0525062000439565b60006020835110156200012b57620001238362000144565b90506200013e565b8162000138848262000313565b5060ff90505b92915050565b600080829050601f815111156200017b578260405163305a27a960e01b8152600401620001729190620003df565b60405180910390fd5b8051620001888262000414565b179392505050565b634e487b7160e01b600052604160045260246000fd5b60005b83811015620001c3578181015183820152602001620001a9565b50506000910152565b600060208284031215620001df57600080fd5b81516001600160401b0380821115620001f757600080fd5b818401915084601f8301126200020c57600080fd5b81518181111562000221576200022162000190565b604051601f8201601f19908116603f011681019083821181831017156200024c576200024c62000190565b816040528281528760208487010111156200026657600080fd5b62000279836020830160208801620001a6565b979650505050505050565b600181811c908216806200029957607f821691505b602082108103620002ba57634e487b7160e01b600052602260045260246000fd5b50919050565b601f8211156200030e57600081815260208120601f850160051c81016020861015620002e95750805b601f850160051c820191505b818110156200030a57828155600101620002f5565b5050505b505050565b81516001600160401b038111156200032f576200032f62000190565b620003478162000340845462000284565b84620002c0565b602080601f8311600181146200037f5760008415620003665750858301515b600019600386901b1c1916600185901b1785556200030a565b600085815260208120601f198616915b82811015620003b0578886015182559484019460019091019084016200038f565b5085821015620003cf5787850151600019600388901b60f8161c191681555b5050505050600190811b01905550565b602081526000825180602084015262000400816040850160208701620001a6565b601f01601f19169190910160400192915050565b80516020808301519190811015620002ba5760001960209190910360031b1b16919050565b60805160a05160c05160e0516101005161012051610140516118b9620004946000396000610708015260006106d601526000610c6f01526000610c4701526000610ba201526000610bcc01526000610bf601526118b96000f3fe608060405234801561001057600080fd5b50600436106100885760003560e01c806394cc064c1161005b57806394cc064c1461011d578063de94c50214610130578063e3bdb17d14610143578063f4c56ae61461015657600080fd5b80633872814b1461008d57806362d3fe46146100a257806384b0196e146100b557806390193b7c146100d9575b600080fd5b6100a061009b36600461104b565b610169565b005b6100a06100b03660046110f6565b6101c0565b6100bd6101e2565b6040516100d097969594939291906111b7565b60405180910390f35b61010f6100e7366004611276565b73ffffffffffffffffffffffffffffffffffffffff1660009081526002602052604090205490565b6040519081526020016100d0565b6100a061012b366004611298565b610244565b6100a061013e366004611304565b610268565b61010f6101513660046113ad565b6102b5565b61010f6101643660046113ad565b6102f1565b73ffffffffffffffffffffffffffffffffffffffff87166000908152600260205260409020546101a8886101a181848b8b8b8b61032a565b85856103ec565b6101b68882898989896105d1565b5050505050505050565b336000818152600260205260409020546101dd9190858585610652565b505050565b6000606080600080600060606101f66106cf565b6101fe610701565b604080516000808252602082019092527f0f000000000000000000000000000000000000000000000000000000000000009b939a50919850469750309650945092509050565b336000818152600260205260409020546102629190868686866105d1565b50505050565b73ffffffffffffffffffffffffffffffffffffffff861660009081526002602052604090205461029f876101a181848a8a8a61072e565b6102ac8782888888610652565b50505050505050565b60006102eb6102c76020840184611276565b60208401356102d96040860186611419565b6102e66060880188611419565b61032a565b92915050565b60006102eb6103036020840184611276565b60208401356103186060860160408701611276565b6103256060870187611481565b61072e565b60006103e17f94b728e38ed588fa0e358a3f5fed463b44b14260ee37b65c44c1a796e8be2176888888886040516020016103659291906114e6565b6040516020818303038152906040528051906020012061038588886107c0565b60408051602081019690965273ffffffffffffffffffffffffffffffffffffffff909416938501939093526060840191909152608083015260a082015260c0015b6040516020818303038152906040528051906020012061087f565b979650505050505050565b73ffffffffffffffffffffffffffffffffffffffff8416610439576040517f744fa2d000000000000000000000000000000000000000000000000000000000815260040160405180910390fd5b600061047d83838080601f01602080910402602001604051908101604052809392919081815260200183838082843760009201919091525088939250506108c79050565b90508073ffffffffffffffffffffffffffffffffffffffff168573ffffffffffffffffffffffffffffffffffffffff1614158015610593575073ffffffffffffffffffffffffffffffffffffffff85163b158061059357506040517f1626ba7e000000000000000000000000000000000000000000000000000000008082529073ffffffffffffffffffffffffffffffffffffffff871690631626ba7e9061052d9088908890889060040161157c565b602060405180830381865afa15801561054a573d6000803e3d6000fd5b505050506040513d601f19601f8201168201806040525081019061056e919061159f565b7fffffffff000000000000000000000000000000000000000000000000000000001614155b156105ca576040517f8baa579f00000000000000000000000000000000000000000000000000000000815260040160405180910390fd5b5050505050565b73ffffffffffffffffffffffffffffffffffffffff8616600090815260026020526040902060018601905561060986858585856108f1565b7f1c7116c1d763b19a8f4d4a297460e4a7b492a1fadd568cd98ec9b88b1320f969868686868686604051610642969594939291906115e1565b60405180910390a1505050505050565b73ffffffffffffffffffffffffffffffffffffffff85166000908152600260205260409020600185019055610689858484846109cd565b7f2e1dae53d1316f7d8bfc936b28c97e26c02b169e387e4366790db836a74826ec85858585856040516106c095949392919061171e565b60405180910390a15050505050565b60606106fc7f00000000000000000000000000000000000000000000000000000000000000006000610add565b905090565b60606106fc7f00000000000000000000000000000000000000000000000000000000000000006001610add565b60006107b67f7230b424eec5412e1883503d0eb5eb699e10576f7e2ee5f86fb7b546a06937e6878787878760405161076792919061175e565b6040519081900381206103c6959493929160200194855273ffffffffffffffffffffffffffffffffffffffff938416602086015260408501929092529091166060830152608082015260a00190565b9695505050505050565b600081816107cf82602061176e565b67ffffffffffffffff8111156107e7576107e76113ea565b6040519080825280601f01601f191660200182016040528015610811576020820181803683370190505b50905060005b8281101561086e576000868683818110610833576108336117ac565b90506020028101906108459190611481565b60405161085392919061175e565b60405190819003902060208381028501015250600101610817565b508051602090910120949350505050565b60006102eb61088c610b88565b836040517f19010000000000000000000000000000000000000000000000000000000000008152600281019290925260228201526042902090565b6000806000806108d78686610cc0565b9250925092506108e78282610d0d565b5090949350505050565b82600081900361092d576040517f81d6b19e00000000000000000000000000000000000000000000000000000000815260040160405180910390fd5b808214610966576040517f2797bfd300000000000000000000000000000000000000000000000000000000815260040160405180910390fd5b60005b818110156102ac576109c587878784818110610987576109876117ac565b905060200201602081019061099c9190611276565b8686858181106109ae576109ae6117ac565b90506020028101906109c09190611481565b6109cd565b600101610969565b73ffffffffffffffffffffffffffffffffffffffff8316610a1a576040517ff88cd52400000000000000000000000000000000000000000000000000000000815260040160405180910390fd5b6000808473ffffffffffffffffffffffffffffffffffffffff16848488604051602001610a49939291906117db565b604080517fffffffffffffffffffffffffffffffffffffffffffffffffffffffffffffffe081840301815290829052610a8191611814565b6000604051808303816000865af19150503d8060008114610abe576040519150601f19603f3d011682016040523d82523d6000602084013e610ac3565b606091505b509150915081610ad557805160208201fd5b505050505050565b606060ff8314610af757610af083610e1a565b90506102eb565b818054610b0390611830565b80601f0160208091040260200160405190810160405280929190818152602001828054610b2f90611830565b8015610b7c5780601f10610b5157610100808354040283529160200191610b7c565b820191906000526020600020905b815481529060010190602001808311610b5f57829003601f168201915b505050505090506102eb565b60003073ffffffffffffffffffffffffffffffffffffffff7f000000000000000000000000000000000000000000000000000000000000000016148015610bee57507f000000000000000000000000000000000000000000000000000000000000000046145b15610c1857507f000000000000000000000000000000000000000000000000000000000000000090565b6106fc604080517f8b73c3c69bb8fe3d512ecc4cf759cc79239f7b179b0ffacaa9a75d522b39400f60208201527f0000000000000000000000000000000000000000000000000000000000000000918101919091527f000000000000000000000000000000000000000000000000000000000000000060608201524660808201523060a082015260009060c00160405160208183030381529060405280519060200120905090565b60008060008351604103610cfa5760208401516040850151606086015160001a610cec88828585610e59565b955095509550505050610d06565b50508151600091506002905b9250925092565b6000826003811115610d2157610d2161187d565b03610d2a575050565b6001826003811115610d3e57610d3e61187d565b03610d75576040517ff645eedf00000000000000000000000000000000000000000000000000000000815260040160405180910390fd5b6002826003811115610d8957610d8961187d565b03610dc8576040517ffce698f7000000000000000000000000000000000000000000000000000000008152600481018290526024015b60405180910390fd5b6003826003811115610ddc57610ddc61187d565b03610e16576040517fd78bce0c00000000000000000000000000000000000000000000000000000000815260048101829052602401610dbf565b5050565b60606000610e2783610f53565b604080516020808252818301909252919250600091906020820181803683375050509182525060208101929092525090565b600080807f7fffffffffffffffffffffffffffffff5d576e7357a4501ddfe92f46681b20a0841115610e945750600091506003905082610f49565b604080516000808252602082018084528a905260ff891692820192909252606081018790526080810186905260019060a0016020604051602081039080840390855afa158015610ee8573d6000803e3d6000fd5b50506040517fffffffffffffffffffffffffffffffffffffffffffffffffffffffffffffffe0015191505073ffffffffffffffffffffffffffffffffffffffff8116610f3f57506000925060019150829050610f49565b9250600091508190505b9450945094915050565b600060ff8216601f8111156102eb576040517fb3512b0c00000000000000000000000000000000000000000000000000000000815260040160405180910390fd5b803573ffffffffffffffffffffffffffffffffffffffff81168114610fb857600080fd5b919050565b60008083601f840112610fcf57600080fd5b50813567ffffffffffffffff811115610fe757600080fd5b6020830191508360208260051b850101111561100257600080fd5b9250929050565b60008083601f84011261101b57600080fd5b50813567ffffffffffffffff81111561103357600080fd5b60208301915083602082850101111561100257600080fd5b60008060008060008060006080888a03121561106657600080fd5b61106f88610f94565b9650602088013567ffffffffffffffff8082111561108c57600080fd5b6110988b838c01610fbd565b909850965060408a01359150808211156110b157600080fd5b6110bd8b838c01610fbd565b909650945060608a01359150808211156110d657600080fd5b506110e38a828b01611009565b989b979a50959850939692959293505050565b60008060006040848603121561110b57600080fd5b61111484610f94565b9250602084013567ffffffffffffffff81111561113057600080fd5b61113c86828701611009565b9497909650939450505050565b60005b8381101561116457818101518382015260200161114c565b50506000910152565b60008151808452611185816020860160208601611149565b601f017fffffffffffffffffffffffffffffffffffffffffffffffffffffffffffffffe0169290920160200192915050565b7fff00000000000000000000000000000000000000000000000000000000000000881681526000602060e0818401526111f360e084018a61116d565b8381036040850152611205818a61116d565b6060850189905273ffffffffffffffffffffffffffffffffffffffff8816608086015260a0850187905284810360c0860152855180825283870192509083019060005b8181101561126457835183529284019291840191600101611248565b50909c9b505050505050505050505050565b60006020828403121561128857600080fd5b61129182610f94565b9392505050565b600080600080604085870312156112ae57600080fd5b843567ffffffffffffffff808211156112c657600080fd5b6112d288838901610fbd565b909650945060208701359150808211156112eb57600080fd5b506112f887828801610fbd565b95989497509550505050565b6000806000806000806080878903121561131d57600080fd5b61132687610f94565b955061133460208801610f94565b9450604087013567ffffffffffffffff8082111561135157600080fd5b61135d8a838b01611009565b9096509450606089013591508082111561137657600080fd5b5061138389828a01611009565b979a9699509497509295939492505050565b6000608082840312156113a757600080fd5b50919050565b6000602082840312156113bf57600080fd5b813567ffffffffffffffff8111156113d657600080fd5b6113e284828501611395565b949350505050565b7f4e487b7100000000000000000000000000000000000000000000000000000000600052604160045260246000fd5b60008083357fffffffffffffffffffffffffffffffffffffffffffffffffffffffffffffffe184360301811261144e57600080fd5b83018035915067ffffffffffffffff82111561146957600080fd5b6020019150600581901b360382131561100257600080fd5b60008083357fffffffffffffffffffffffffffffffffffffffffffffffffffffffffffffffe18436030181126114b657600080fd5b83018035915067ffffffffffffffff8211156114d157600080fd5b60200191503681900382131561100257600080fd5b60008184825b858110156115285773ffffffffffffffffffffffffffffffffffffffff61151283610f94565b16835260209283019291909101906001016114ec565b509095945050505050565b8183528181602085013750600060208284010152600060207fffffffffffffffffffffffffffffffffffffffffffffffffffffffffffffffe0601f840116840101905092915050565b838152604060208201526000611596604083018486611533565b95945050505050565b6000602082840312156115b157600080fd5b81517fffffffff000000000000000000000000000000000000000000000000000000008116811461129157600080fd5b73ffffffffffffffffffffffffffffffffffffffff878116825260208083018890526080604084018190528301869052600091879160a08501845b89811015611641578361162e86610f94565b168252938201939082019060010161161c565b5085810360608701528681528181019350600587901b8101820192508760005b8881101561170c577fffffffffffffffffffffffffffffffffffffffffffffffffffffffffffffffe083860301865281357fffffffffffffffffffffffffffffffffffffffffffffffffffffffffffffffe18b36030181126116c257600080fd5b8a01848101903567ffffffffffffffff8111156116de57600080fd5b8036038213156116ed57600080fd5b6116f8878284611533565b978601979650505090830190600101611661565b50929c9b505050505050505050505050565b600073ffffffffffffffffffffffffffffffffffffffff8088168352866020840152808616604084015250608060608301526103e1608083018486611533565b8183823760009101908152919050565b80820281158282048414176102eb577f4e487b7100000000000000000000000000000000000000000000000000000000600052601160045260246000fd5b7f4e487b7100000000000000000000000000000000000000000000000000000000600052603260045260246000fd5b8284823760609190911b7fffffffffffffffffffffffffffffffffffffffff000000000000000000000000169101908152601401919050565b60008251611826818460208701611149565b9190910192915050565b600181811c9082168061184457607f821691505b6020821081036113a7577f4e487b7100000000000000000000000000000000000000000000000000000000600052602260045260246000fd5b7f4e487b7100000000000000000000000000000000000000000000000000000000600052602160045260246000fdfea164736f6c6343000815000a",
  "devdoc": {
    "errors": {
      "ECDSAInvalidSignature()": [
        {
          "details": "The signature derives the `address(0)`."
        }
      ],
      "ECDSAInvalidSignatureLength(uint256)": [
        {
          "details": "The signature has an invalid length."
        }
      ],
      "ECDSAInvalidSignatureS(bytes32)": [
        {
          "details": "The signature has an S value that is in the upper half order."
        }
      ]
    },
    "events": {
      "EIP712DomainChanged()": {
        "details": "MAY be emitted to signal that the domain could have changed."
      }
    },
    "kind": "dev",
    "methods": {
      "eip712Domain()": {
        "details": "See {IERC-5267}."
      }
    },
    "version": 1
  },
  "userdoc": {
    "kind": "user",
    "methods": {},
    "version": 1
  },
  "storageLayout": {
    "storage": [
      {
        "astId": 3619,
        "contract": "contracts/gateway/Gateway.sol:Gateway",
        "label": "_nameFallback",
        "offset": 0,
        "slot": "0",
        "type": "t_string_storage"
      },
      {
        "astId": 3621,
        "contract": "contracts/gateway/Gateway.sol:Gateway",
        "label": "_versionFallback",
        "offset": 0,
        "slot": "1",
        "type": "t_string_storage"
      },
      {
        "astId": 5480,
        "contract": "contracts/gateway/Gateway.sol:Gateway",
        "label": "_nextNonce",
        "offset": 0,
        "slot": "2",
        "type": "t_mapping(t_address,t_uint256)"
      }
    ],
    "types": {
      "t_address": {
        "encoding": "inplace",
        "label": "address",
        "numberOfBytes": "20"
      },
      "t_mapping(t_address,t_uint256)": {
        "encoding": "mapping",
        "key": "t_address",
        "label": "mapping(address => uint256)",
        "numberOfBytes": "32",
        "value": "t_uint256"
      },
      "t_string_storage": {
        "encoding": "bytes",
        "label": "string",
        "numberOfBytes": "32"
      },
      "t_uint256": {
        "encoding": "inplace",
        "label": "uint256",
        "numberOfBytes": "32"
      }
    }
  }
}