{
  "address": "0x587B5f9B481a866bA6697cC368Fef896B5E7951d",
  "abi": [
    {
      "inputs": [
        {
          "internalType": "address",
          "name": "target",
          "type": "address"
        },
        {
          "internalType": "bytes[]",
          "name": "data",
          "type": "bytes[]"
        }
      ],
      "name": "callTarget",
      "outputs": [
        {
          "internalType": "bytes[]",
          "name": "result",
          "type": "bytes[]"
        }
      ],
      "stateMutability": "view",
      "type": "function"
    },
    {
      "inputs": [
        {
          "internalType": "address[]",
          "name": "targets",
          "type": "address[]"
        },
        {
          "internalType": "bytes[]",
          "name": "data",
          "type": "bytes[]"
        }
      ],
      "name": "callTargets",
      "outputs": [
        {
          "internalType": "bytes[]",
          "name": "result",
          "type": "bytes[]"
        }
      ],
      "stateMutability": "view",
      "type": "function"
    }
  ],
  "transactionHash": "0xe4a60d4477a085d7901ae7162d9ae36e3b564a30bdb1ad4e0a9b397a1383c967",
  "args": [],
  "numDeployments": 1,
  "solcInputHash": "e8be84beeb13f60b255d9a294077bb7b",
  "bytecode": "0x608060405234801561001057600080fd5b50610651806100206000396000f3fe608060405234801561001057600080fd5b50600436106100365760003560e01c806320bf0f491461003b578063552ff17b14610064575b600080fd5b61004e6100493660046103a0565b610077565b60405161005b919061040c565b60405180910390f35b61004e610072366004610503565b610211565b606083808303610208578067ffffffffffffffff81111561009a5761009a610556565b6040519080825280602002602001820160405280156100cd57816020015b60608152602001906001900390816100b85790505b50915060005b818110156102065760008787838181106100ef576100ef610585565b905060200201602081019061010491906105b4565b73ffffffffffffffffffffffffffffffffffffffff16146101fe5760008088888481811061013457610134610585565b905060200201602081019061014991906105b4565b73ffffffffffffffffffffffffffffffffffffffff1687878581811061017157610171610585565b905060200281019061018391906105cf565b604051610191929190610634565b600060405180830381855afa9150503d80600081146101cc576040519150601f19603f3d011682016040523d82523d6000602084013e6101d1565b606091505b509150915081156101fb57808584815181106101ef576101ef610585565b60200260200101819052505b50505b6001016100d3565b505b50949350505050565b606073ffffffffffffffffffffffffffffffffffffffff84161561034d57818067ffffffffffffffff81111561024957610249610556565b60405190808252806020026020018201604052801561027c57816020015b60608152602001906001900390816102675790505b50915060005b8181101561034a576000808773ffffffffffffffffffffffffffffffffffffffff168787858181106102b6576102b6610585565b90506020028101906102c891906105cf565b6040516102d6929190610634565b600060405180830381855afa9150503d8060008114610311576040519150601f19603f3d011682016040523d82523d6000602084013e610316565b606091505b50915091508115610340578085848151811061033457610334610585565b60200260200101819052505b5050600101610282565b50505b9392505050565b60008083601f84011261036657600080fd5b50813567ffffffffffffffff81111561037e57600080fd5b6020830191508360208260051b850101111561039957600080fd5b9250929050565b600080600080604085870312156103b657600080fd5b843567ffffffffffffffff808211156103ce57600080fd5b6103da88838901610354565b909650945060208701359150808211156103f357600080fd5b5061040087828801610354565b95989497509550505050565b6000602080830181845280855180835260408601915060408160051b87010192508387016000805b838110156104cc577fffffffffffffffffffffffffffffffffffffffffffffffffffffffffffffffc089870301855282518051808852835b81811015610487578281018a01518982018b0152890161046c565b508781018901849052601f017fffffffffffffffffffffffffffffffffffffffffffffffffffffffffffffffe016909601870195509386019391860191600101610434565b509398975050505050505050565b803573ffffffffffffffffffffffffffffffffffffffff811681146104fe57600080fd5b919050565b60008060006040848603121561051857600080fd5b610521846104da565b9250602084013567ffffffffffffffff81111561053d57600080fd5b61054986828701610354565b9497909650939450505050565b7f4e487b7100000000000000000000000000000000000000000000000000000000600052604160045260246000fd5b7f4e487b7100000000000000000000000000000000000000000000000000000000600052603260045260246000fd5b6000602082840312156105c657600080fd5b61034d826104da565b60008083357fffffffffffffffffffffffffffffffffffffffffffffffffffffffffffffffe184360301811261060457600080fd5b83018035915067ffffffffffffffff82111561061f57600080fd5b60200191503681900382131561039957600080fd5b818382376000910190815291905056fea164736f6c6343000815000a",
  "devdoc": {
    "kind": "dev",
    "methods": {},
    "version": 1
  },
  "userdoc": {
    "kind": "user",
    "methods": {},
    "version": 1
  },
  "storageLayout": {
    "storage": [],
    "types": null
  }
}