{
  "address": "0x1BAE67010389c987dE129983ca5738e16aB6F313",
  "abi": [
    {
      "inputs": [
        {
          "internalType": "address",
          "name": "owner",
          "type": "address"
        },
        {
          "internalType": "string",
          "name": "name",
          "type": "string"
        }
      ],
      "stateMutability": "nonpayable",
      "type": "constructor"
    },
    {
      "inputs": [],
      "name": "AlreadyInitialized",
      "type": "error"
    },
    {
      "inputs": [],
      "name": "ECDSAInvalidSignature",
      "type": "error"
    },
    {
      "inputs": [
        {
          "internalType": "uint256",
          "name": "length",
          "type": "uint256"
        }
      ],
      "name": "ECDSAInvalidSignatureLength",
      "type": "error"
    },
    {
      "inputs": [
        {
          "internalType": "bytes32",
          "name": "s",
          "type": "bytes32"
        }
      ],
      "name": "ECDSAInvalidSignatureS",
      "type": "error"
    },
    {
      "inputs": [],
      "name": "ERC1167FailedCreateClone",
      "type": "error"
    },
    {
      "inputs": [],
      "name": "GuardianAlreadyExists",
      "type": "error"
    },
    {
      "inputs": [],
      "name": "GuardianDoesntExist",
      "type": "error"
    },
    {
      "inputs": [],
      "name": "GuardianIsTheZeroAddress",
      "type": "error"
    },
    {
      "inputs": [],
      "name": "InvalidGuardianSignature",
      "type": "error"
    },
    {
      "inputs": [],
      "name": "InvalidShortString",
      "type": "error"
    },
    {
      "inputs": [],
      "name": "MsgSenderIsNotTheOwner",
      "type": "error"
    },
    {
      "inputs": [],
      "name": "MsgSenderIsNotTheToken",
      "type": "error"
    },
    {
      "inputs": [],
      "name": "MsgSenderIsNotTheTokenFactory",
      "type": "error"
    },
    {
      "inputs": [],
      "name": "OwnerIsTheZeroAddress",
      "type": "error"
    },
    {
      "inputs": [
        {
          "internalType": "string",
          "name": "str",
          "type": "string"
        }
      ],
      "name": "StringTooLong",
      "type": "error"
    },
    {
      "inputs": [],
      "name": "TokenAlreadyExists",
      "type": "error"
    },
    {
      "inputs": [],
      "name": "TokenFactoryAlreadyExists",
      "type": "error"
    },
    {
      "inputs": [],
      "name": "TokenFactoryDoesntExist",
      "type": "error"
    },
    {
      "inputs": [],
      "name": "TokenFactoryIsTheZeroAddress",
      "type": "error"
    },
    {
      "inputs": [],
      "name": "TokenIsTheZeroAddress",
      "type": "error"
    },
    {
      "anonymous": false,
      "inputs": [],
      "name": "EIP712DomainChanged",
      "type": "event"
    },
    {
      "anonymous": false,
      "inputs": [
        {
          "indexed": false,
          "internalType": "address",
          "name": "guardian",
          "type": "address"
        }
      ],
      "name": "GuardianAdded",
      "type": "event"
    },
    {
      "anonymous": false,
      "inputs": [
        {
          "indexed": false,
          "internalType": "address",
          "name": "guardian",
          "type": "address"
        }
      ],
      "name": "GuardianRemoved",
      "type": "event"
    },
    {
      "anonymous": false,
      "inputs": [
        {
          "indexed": false,
          "internalType": "address",
          "name": "gateway",
          "type": "address"
        },
        {
          "indexed": false,
          "internalType": "address[]",
          "name": "guardians",
          "type": "address[]"
        }
      ],
      "name": "Initialized",
      "type": "event"
    },
    {
      "anonymous": false,
      "inputs": [
        {
          "indexed": false,
          "internalType": "address",
          "name": "owner",
          "type": "address"
        }
      ],
      "name": "OwnerUpdated",
      "type": "event"
    },
    {
      "anonymous": false,
      "inputs": [
        {
          "indexed": false,
          "internalType": "address",
          "name": "token",
          "type": "address"
        }
      ],
      "name": "TokenAdded",
      "type": "event"
    },
    {
      "anonymous": false,
      "inputs": [
        {
          "indexed": false,
          "internalType": "address",
          "name": "token",
          "type": "address"
        },
        {
          "indexed": false,
          "internalType": "address",
          "name": "tokenImpl",
          "type": "address"
        },
        {
          "indexed": false,
          "internalType": "bytes",
          "name": "initCode",
          "type": "bytes"
        }
      ],
      "name": "TokenCreated",
      "type": "event"
    },
    {
      "anonymous": false,
      "inputs": [
        {
          "indexed": false,
          "internalType": "address",
          "name": "tokenFactory",
          "type": "address"
        }
      ],
      "name": "TokenFactoryAdded",
      "type": "event"
    },
    {
      "anonymous": false,
      "inputs": [
        {
          "indexed": false,
          "internalType": "address",
          "name": "tokenFactory",
          "type": "address"
        }
      ],
      "name": "TokenFactoryRemoved",
      "type": "event"
    },
    {
      "anonymous": false,
      "inputs": [
        {
          "indexed": false,
          "internalType": "address",
          "name": "token",
          "type": "address"
        },
        {
          "indexed": false,
          "internalType": "uint8",
          "name": "kind",
          "type": "uint8"
        },
        {
          "indexed": false,
          "internalType": "bytes",
          "name": "encodedData",
          "type": "bytes"
        }
      ],
      "name": "TokenNotificationSent",
      "type": "event"
    },
    {
      "inputs": [
        {
          "internalType": "address",
          "name": "guardian",
          "type": "address"
        }
      ],
      "name": "addGuardian",
      "outputs": [],
      "stateMutability": "nonpayable",
      "type": "function"
    },
    {
      "inputs": [
        {
          "internalType": "address",
          "name": "token",
          "type": "address"
        }
      ],
      "name": "addToken",
      "outputs": [],
      "stateMutability": "nonpayable",
      "type": "function"
    },
    {
      "inputs": [
        {
          "internalType": "address",
          "name": "tokenFactory",
          "type": "address"
        }
      ],
      "name": "addTokenFactory",
      "outputs": [],
      "stateMutability": "nonpayable",
      "type": "function"
    },
    {
      "inputs": [
        {
          "internalType": "address",
          "name": "tokenImpl",
          "type": "address"
        },
        {
          "internalType": "bytes32",
          "name": "salt",
          "type": "bytes32"
        },
        {
          "internalType": "bytes",
          "name": "initCode",
          "type": "bytes"
        }
      ],
      "name": "createToken",
      "outputs": [],
      "stateMutability": "nonpayable",
      "type": "function"
    },
    {
      "inputs": [
        {
          "internalType": "address",
          "name": "tokenImpl",
          "type": "address"
        },
        {
          "internalType": "bytes32",
          "name": "salt",
          "type": "bytes32"
        },
        {
          "internalType": "bytes",
          "name": "initCode",
          "type": "bytes"
        },
        {
          "internalType": "bytes",
          "name": "guardianSignature",
          "type": "bytes"
        }
      ],
      "name": "createToken",
      "outputs": [],
      "stateMutability": "nonpayable",
      "type": "function"
    },
    {
      "inputs": [],
      "name": "eip712Domain",
      "outputs": [
        {
          "internalType": "bytes1",
          "name": "fields",
          "type": "bytes1"
        },
        {
          "internalType": "string",
          "name": "name",
          "type": "string"
        },
        {
          "internalType": "string",
          "name": "version",
          "type": "string"
        },
        {
          "internalType": "uint256",
          "name": "chainId",
          "type": "uint256"
        },
        {
          "internalType": "address",
          "name": "verifyingContract",
          "type": "address"
        },
        {
          "internalType": "bytes32",
          "name": "salt",
          "type": "bytes32"
        },
        {
          "internalType": "uint256[]",
          "name": "extensions",
          "type": "uint256[]"
        }
      ],
      "stateMutability": "view",
      "type": "function"
    },
    {
      "inputs": [],
      "name": "getGateway",
      "outputs": [
        {
          "internalType": "address",
          "name": "",
          "type": "address"
        }
      ],
      "stateMutability": "view",
      "type": "function"
    },
    {
      "inputs": [],
      "name": "getOwner",
      "outputs": [
        {
          "internalType": "address",
          "name": "",
          "type": "address"
        }
      ],
      "stateMutability": "view",
      "type": "function"
    },
    {
      "inputs": [
        {
          "internalType": "address",
          "name": "guardian",
          "type": "address"
        }
      ],
      "name": "hasGuardian",
      "outputs": [
        {
          "internalType": "bool",
          "name": "",
          "type": "bool"
        }
      ],
      "stateMutability": "view",
      "type": "function"
    },
    {
      "inputs": [
        {
          "internalType": "address",
          "name": "token",
          "type": "address"
        }
      ],
      "name": "hasToken",
      "outputs": [
        {
          "internalType": "bool",
          "name": "",
          "type": "bool"
        }
      ],
      "stateMutability": "view",
      "type": "function"
    },
    {
      "inputs": [
        {
          "internalType": "address",
          "name": "tokenFactory",
          "type": "address"
        }
      ],
      "name": "hasTokenFactory",
      "outputs": [
        {
          "internalType": "bool",
          "name": "",
          "type": "bool"
        }
      ],
      "stateMutability": "view",
      "type": "function"
    },
    {
      "inputs": [
        {
          "components": [
            {
              "internalType": "address",
              "name": "tokenImpl",
              "type": "address"
            },
            {
              "internalType": "bytes",
              "name": "initCode",
              "type": "bytes"
            }
          ],
          "internalType": "struct TokenRegistry.TokenData",
          "name": "tokenData",
          "type": "tuple"
        }
      ],
      "name": "hashToken",
      "outputs": [
        {
          "internalType": "bytes32",
          "name": "",
          "type": "bytes32"
        }
      ],
      "stateMutability": "view",
      "type": "function"
    },
    {
      "inputs": [
        {
          "internalType": "address",
          "name": "gateway",
          "type": "address"
        },
        {
          "internalType": "address[]",
          "name": "guardians",
          "type": "address[]"
        }
      ],
      "name": "initialize",
      "outputs": [],
      "stateMutability": "nonpayable",
      "type": "function"
    },
    {
      "inputs": [],
      "name": "initialized",
      "outputs": [
        {
          "internalType": "bool",
          "name": "",
          "type": "bool"
        }
      ],
      "stateMutability": "view",
      "type": "function"
    },
    {
      "inputs": [
        {
          "internalType": "address",
          "name": "guardian",
          "type": "address"
        }
      ],
      "name": "removeGuardian",
      "outputs": [],
      "stateMutability": "nonpayable",
      "type": "function"
    },
    {
      "inputs": [
        {
          "internalType": "address",
          "name": "tokenFactory",
          "type": "address"
        }
      ],
      "name": "removeTokenFactory",
      "outputs": [],
      "stateMutability": "nonpayable",
      "type": "function"
    },
    {
      "inputs": [
        {
          "internalType": "uint8",
          "name": "kind",
          "type": "uint8"
        },
        {
          "internalType": "bytes",
          "name": "encodedData",
          "type": "bytes"
        }
      ],
      "name": "sendTokenNotification",
      "outputs": [],
      "stateMutability": "nonpayable",
      "type": "function"
    },
    {
      "inputs": [
        {
          "internalType": "address",
          "name": "owner",
          "type": "address"
        }
      ],
      "name": "setOwner",
      "outputs": [],
      "stateMutability": "nonpayable",
      "type": "function"
    }
  ],
  "transactionHash": "0xa8a62ff7efbe9aa06503f0d3a7805177e04f344c9fdde48ba67d9b9a37faa7b6",
  "args": [
    "0xF2a1699320517FA9C5c749EA9DfB5594Bb9862e5",
    "OM!goods Token Registry"
  ],
  "numDeployments": 1,
  "solcInputHash": "a9e2a0197f364155452382066c2f023a",
  "bytecode": "0x6101606040523480156200001257600080fd5b50604051620020cb380380620020cb833981016040819052620000359162000214565b6040805180820190915260018152603160f81b602082015281906200005c82600062000117565b610120526200006d81600162000117565b61014052815160208084019190912060e052815190820120610100524660a052620000fb60e05161010051604080517f8b73c3c69bb8fe3d512ecc4cf759cc79239f7b179b0ffacaa9a75d522b39400f60208201529081019290925260608201524660808201523060a082015260009060c00160405160208183030381529060405280519060200120905090565b60805250503060c0526200010f8262000150565b5050620004a4565b600060208351101562000137576200012f836200018c565b90506200014a565b816200014484826200037e565b5060ff90505b92915050565b6001600160a01b0381161562000167578062000169565b335b600380546001600160a01b0319166001600160a01b039290921691909117905550565b600080829050601f81511115620001c3578260405163305a27a960e01b8152600401620001ba91906200044a565b60405180910390fd5b8051620001d0826200047f565b179392505050565b634e487b7160e01b600052604160045260246000fd5b60005b838110156200020b578181015183820152602001620001f1565b50506000910152565b600080604083850312156200022857600080fd5b82516001600160a01b03811681146200024057600080fd5b60208401519092506001600160401b03808211156200025e57600080fd5b818501915085601f8301126200027357600080fd5b815181811115620002885762000288620001d8565b604051601f8201601f19908116603f01168101908382118183101715620002b357620002b3620001d8565b81604052828152886020848701011115620002cd57600080fd5b620002e0836020830160208801620001ee565b80955050505050509250929050565b600181811c908216806200030457607f821691505b6020821081036200032557634e487b7160e01b600052602260045260246000fd5b50919050565b601f8211156200037957600081815260208120601f850160051c81016020861015620003545750805b601f850160051c820191505b81811015620003755782815560010162000360565b5050505b505050565b81516001600160401b038111156200039a576200039a620001d8565b620003b281620003ab8454620002ef565b846200032b565b602080601f831160018114620003ea5760008415620003d15750858301515b600019600386901b1c1916600185901b17855562000375565b600085815260208120601f198616915b828110156200041b57888601518255948401946001909101908401620003fa565b50858210156200043a5787850151600019600388901b60f8161c191681555b5050505050600190811b01905550565b60208152600082518060208401526200046b816040850160208701620001ee565b601f01601f19169190910160400192915050565b80516020808301519190811015620003255760001960209190910360031b1b16919050565b60805160a05160c05160e051610100516101205161014051611bcc620004ff6000396000610d7301526000610d41015260006113ea015260006113c20152600061131d01526000611347015260006113710152611bcc6000f3fe608060405234801561001057600080fd5b50600436106101365760003560e01c8063937529ef116100b2578063a0fcedbb11610081578063d48bfca711610066578063d48bfca7146102fc578063e2684a831461030f578063f1c07db81461032257600080fd5b8063a0fcedbb146102b0578063a526d83b146102e957600080fd5b8063937529ef1461023e578063946d9204146102515780639bb0f599146102645780639ce193651461029d57600080fd5b806342bf3cc11161010957806371404156116100ee57806371404156146101f257806384b0196e14610205578063893d20e81461022057600080fd5b806342bf3cc1146101a057806362d40c2f146101df57600080fd5b806304ae6abb1461013b57806313af403514610161578063158ef93e14610176578063249ea8571461018d575b600080fd5b61014e6101493660046115b5565b610335565b6040519081526020015b60405180910390f35b61017461016f366004611620565b61035f565b005b60055460ff165b6040519015158152602001610158565b61017461019b366004611684565b610375565b60025473ffffffffffffffffffffffffffffffffffffffff165b60405173ffffffffffffffffffffffffffffffffffffffff9091168152602001610158565b6101746101ed3660046116de565b610387565b610174610200366004611620565b6103d1565b61020d6104ea565b604051610158979695949392919061179d565b60035473ffffffffffffffffffffffffffffffffffffffff166101ba565b61017461024c366004611620565b61054c565b61017461025f36600461185c565b61065e565b61017d610272366004611620565b73ffffffffffffffffffffffffffffffffffffffff1660009081526006602052604090205460ff1690565b6101746102ab366004611620565b61072d565b61017d6102be366004611620565b73ffffffffffffffffffffffffffffffffffffffff1660009081526007602052604090205460ff1690565b6101746102f7366004611620565b610843565b61017461030a366004611620565b61089a565b61017d61031d366004611620565b6109b0565b6101746103303660046118e2565b6109bb565b60006103596103476020840184611620565b610354602085018561196c565b610a5a565b92915050565b610367610af2565b610372816001610b04565b50565b61038184848484610be5565b50505050565b61038f610cf1565b7f4bce49d255d785214e4aaa33ede2a69344289729e8a3e0661a77e0764661a8b4338484846040516103c49493929190611a1a565b60405180910390a1505050565b6103d9610af2565b73ffffffffffffffffffffffffffffffffffffffff8116610426576040517f0398ea3f00000000000000000000000000000000000000000000000000000000815260040160405180910390fd5b73ffffffffffffffffffffffffffffffffffffffff811660009081526004602052604090205460ff16610485576040517ff9c7c4e100000000000000000000000000000000000000000000000000000000815260040160405180910390fd5b73ffffffffffffffffffffffffffffffffffffffff8116600081815260046020908152604091829020805460ff1916905590519182527fb8107d0c6b40be480ce3172ee66ba6d64b71f6b1685a851340036e6e2e3e3c5291015b60405180910390a150565b6000606080600080600060606104fe610d3a565b610506610d6c565b604080516000808252602082019092527f0f000000000000000000000000000000000000000000000000000000000000009b939a50919850469750309650945092509050565b610554610af2565b73ffffffffffffffffffffffffffffffffffffffff81166105a1576040517f449bb61500000000000000000000000000000000000000000000000000000000815260040160405180910390fd5b73ffffffffffffffffffffffffffffffffffffffff811660009081526007602052604090205460ff16610600576040517fd9ba596300000000000000000000000000000000000000000000000000000000815260040160405180910390fd5b73ffffffffffffffffffffffffffffffffffffffff8116600081815260076020908152604091829020805460ff1916905590519182527fd1fd5274f793d20291c0abfe42e1ef63213a11b34996d485f7afb8fe0142485191016104df565b60055460ff161561069b576040517f0dc149f000000000000000000000000000000000000000000000000000000000815260040160405180910390fd5b6005805460ff191660011790556106b0610af2565b600280547fffffffffffffffffffffffff00000000000000000000000000000000000000001673ffffffffffffffffffffffffffffffffffffffff85161790556106fa8282610d99565b7f0feb0f9ede834a7ddfe99175340e9b07082bade6db9fcb833542ecf363f284b88383836040516103c493929190611a5d565b610735610af2565b73ffffffffffffffffffffffffffffffffffffffff8116610782576040517f449bb61500000000000000000000000000000000000000000000000000000000815260040160405180910390fd5b73ffffffffffffffffffffffffffffffffffffffff811660009081526007602052604090205460ff16156107e2576040517fb491dc8700000000000000000000000000000000000000000000000000000000815260040160405180910390fd5b73ffffffffffffffffffffffffffffffffffffffff8116600081815260076020908152604091829020805460ff1916600117905590519182527f45eb8ac5344d2d3f306550fe6e969ca4190526313c512afed851d052bf2ab2fd91016104df565b61084b610af2565b61085481610ddc565b60405173ffffffffffffffffffffffffffffffffffffffff821681527f038596bb31e2e7d3d9f184d4c98b310103f6d7f5830e5eec32bffe6f1728f969906020016104df565b6108a2610af2565b73ffffffffffffffffffffffffffffffffffffffff81166108ef576040517f2a3191c500000000000000000000000000000000000000000000000000000000815260040160405180910390fd5b73ffffffffffffffffffffffffffffffffffffffff811660009081526006602052604090205460ff161561094f576040517fc991cbb100000000000000000000000000000000000000000000000000000000815260040160405180910390fd5b73ffffffffffffffffffffffffffffffffffffffff8116600081815260066020908152604091829020805460ff1916600117905590519182527f784c8f4dbf0ffedd6e72c76501c545a70f8b203b30a26ce542bf92ba87c248a491016104df565b600061035982610eba565b610a10610a0b83838080601f016020809104026020016040519081016040528093929190818152602001838380828437600092019190915250610a0592508b915089905088610a5a565b90610f0d565b610eba565b610a46576040517f07a81bc400000000000000000000000000000000000000000000000000000000815260040160405180910390fd5b610a5286868686610be5565b505050505050565b6000610aea7f91e3e3d63f7d317cc21a17d533e13bb3b8808893217381181c84b1333b4edd81858585604051610a91929190611ac4565b604051908190038120610acf93929160200192835273ffffffffffffffffffffffffffffffffffffffff919091166020830152604082015260600190565b60405160208183030381529060405280519060200120610f37565b949350505050565b610b02610afd610f7f565b610fd1565b565b73ffffffffffffffffffffffffffffffffffffffff8216610b51576040517f465f799000000000000000000000000000000000000000000000000000000000815260040160405180910390fd5b600380547fffffffffffffffffffffffff00000000000000000000000000000000000000001673ffffffffffffffffffffffffffffffffffffffff84161790558015610be15760405173ffffffffffffffffffffffffffffffffffffffff831681527f4ffd725fc4a22075e9ec71c59edf9c38cdeb588a91b24fc5b61388c5be41282b9060200160405180910390a15b5050565b610bed611025565b6000610bf9858561106e565b73ffffffffffffffffffffffffffffffffffffffff811660009081526006602052604090819020805460ff19166001179055519091507f130ee85ef741928b68fa92781472444f697f6dcd0f5739ac88cdc158075dc82890610c62908390889087908790611ad4565b60405180910390a16000808273ffffffffffffffffffffffffffffffffffffffff168585604051610c94929190611ac4565b6000604051808303816000865af19150503d8060008114610cd1576040519150601f19603f3d011682016040523d82523d6000602084013e610cd6565b606091505b509150915081610ce857805160208201fd5b50505050505050565b3360009081526006602052604090205460ff16610b02576040517f5c81ee7b00000000000000000000000000000000000000000000000000000000815260040160405180910390fd5b6060610d677f00000000000000000000000000000000000000000000000000000000000000006000611102565b905090565b6060610d677f00000000000000000000000000000000000000000000000000000000000000006001611102565b8060005b8181101561038157610dd4848483818110610dba57610dba611b0e565b9050602002016020810190610dcf9190611620565b610ddc565b600101610d9d565b73ffffffffffffffffffffffffffffffffffffffff8116610e29576040517f0398ea3f00000000000000000000000000000000000000000000000000000000815260040160405180910390fd5b73ffffffffffffffffffffffffffffffffffffffff811660009081526004602052604090205460ff1615610e89576040517ffecca77f00000000000000000000000000000000000000000000000000000000815260040160405180910390fd5b73ffffffffffffffffffffffffffffffffffffffff166000908152600460205260409020805460ff19166001179055565b60035460009073ffffffffffffffffffffffffffffffffffffffff8381169116148061035957505073ffffffffffffffffffffffffffffffffffffffff1660009081526004602052604090205460ff1690565b600080600080610f1d86866111ad565b925092509250610f2d82826111fa565b5090949350505050565b6000610359610f44611303565b836040517f19010000000000000000000000000000000000000000000000000000000000008152600281019290925260228201526042902090565b60025460009073ffffffffffffffffffffffffffffffffffffffff163303610fcc57507fffffffffffffffffffffffffffffffffffffffffffffffffffffffffffffffec36013560601c90565b503390565b60035473ffffffffffffffffffffffffffffffffffffffff828116911614610372576040517fbfb2c26800000000000000000000000000000000000000000000000000000000815260040160405180910390fd5b3360009081526007602052604090205460ff16610b02576040517f18725c8200000000000000000000000000000000000000000000000000000000815260040160405180910390fd5b6000763d602d80600a3d3981f3363d3d373d3d3d363d730000008360601b60e81c176000526e5af43d82803e903d91602b57fd5bf38360781b1760205281603760096000f5905073ffffffffffffffffffffffffffffffffffffffff8116610359576040517fc2f868f400000000000000000000000000000000000000000000000000000000815260040160405180910390fd5b606060ff831461111c576111158361143b565b9050610359565b81805461112890611b3d565b80601f016020809104026020016040519081016040528092919081815260200182805461115490611b3d565b80156111a15780601f10611176576101008083540402835291602001916111a1565b820191906000526020600020905b81548152906001019060200180831161118457829003601f168201915b50505050509050610359565b600080600083516041036111e75760208401516040850151606086015160001a6111d98882858561147a565b9550955095505050506111f3565b50508151600091506002905b9250925092565b600082600381111561120e5761120e611b90565b03611217575050565b600182600381111561122b5761122b611b90565b03611262576040517ff645eedf00000000000000000000000000000000000000000000000000000000815260040160405180910390fd5b600282600381111561127657611276611b90565b036112b5576040517ffce698f7000000000000000000000000000000000000000000000000000000008152600481018290526024015b60405180910390fd5b60038260038111156112c9576112c9611b90565b03610be1576040517fd78bce0c000000000000000000000000000000000000000000000000000000008152600481018290526024016112ac565b60003073ffffffffffffffffffffffffffffffffffffffff7f00000000000000000000000000000000000000000000000000000000000000001614801561136957507f000000000000000000000000000000000000000000000000000000000000000046145b1561139357507f000000000000000000000000000000000000000000000000000000000000000090565b610d67604080517f8b73c3c69bb8fe3d512ecc4cf759cc79239f7b179b0ffacaa9a75d522b39400f60208201527f0000000000000000000000000000000000000000000000000000000000000000918101919091527f000000000000000000000000000000000000000000000000000000000000000060608201524660808201523060a082015260009060c00160405160208183030381529060405280519060200120905090565b6060600061144883611574565b604080516020808252818301909252919250600091906020820181803683375050509182525060208101929092525090565b600080807f7fffffffffffffffffffffffffffffff5d576e7357a4501ddfe92f46681b20a08411156114b5575060009150600390508261156a565b604080516000808252602082018084528a905260ff891692820192909252606081018790526080810186905260019060a0016020604051602081039080840390855afa158015611509573d6000803e3d6000fd5b50506040517fffffffffffffffffffffffffffffffffffffffffffffffffffffffffffffffe0015191505073ffffffffffffffffffffffffffffffffffffffff81166115605750600092506001915082905061156a565b9250600091508190505b9450945094915050565b600060ff8216601f811115610359576040517fb3512b0c00000000000000000000000000000000000000000000000000000000815260040160405180910390fd5b6000602082840312156115c757600080fd5b813567ffffffffffffffff8111156115de57600080fd5b8201604081850312156115f057600080fd5b9392505050565b803573ffffffffffffffffffffffffffffffffffffffff8116811461161b57600080fd5b919050565b60006020828403121561163257600080fd5b6115f0826115f7565b60008083601f84011261164d57600080fd5b50813567ffffffffffffffff81111561166557600080fd5b60208301915083602082850101111561167d57600080fd5b9250929050565b6000806000806060858703121561169a57600080fd5b6116a3856115f7565b935060208501359250604085013567ffffffffffffffff8111156116c657600080fd5b6116d28782880161163b565b95989497509550505050565b6000806000604084860312156116f357600080fd5b833560ff8116811461170457600080fd5b9250602084013567ffffffffffffffff81111561172057600080fd5b61172c8682870161163b565b9497909650939450505050565b6000815180845260005b8181101561175f57602081850181015186830182015201611743565b5060006020828601015260207fffffffffffffffffffffffffffffffffffffffffffffffffffffffffffffffe0601f83011685010191505092915050565b7fff00000000000000000000000000000000000000000000000000000000000000881681526000602060e0818401526117d960e084018a611739565b83810360408501526117eb818a611739565b6060850189905273ffffffffffffffffffffffffffffffffffffffff8816608086015260a0850187905284810360c0860152855180825283870192509083019060005b8181101561184a5783518352928401929184019160010161182e565b50909c9b505050505050505050505050565b60008060006040848603121561187157600080fd5b61187a846115f7565b9250602084013567ffffffffffffffff8082111561189757600080fd5b818601915086601f8301126118ab57600080fd5b8135818111156118ba57600080fd5b8760208260051b85010111156118cf57600080fd5b6020830194508093505050509250925092565b600080600080600080608087890312156118fb57600080fd5b611904876115f7565b955060208701359450604087013567ffffffffffffffff8082111561192857600080fd5b6119348a838b0161163b565b9096509450606089013591508082111561194d57600080fd5b5061195a89828a0161163b565b979a9699509497509295939492505050565b60008083357fffffffffffffffffffffffffffffffffffffffffffffffffffffffffffffffe18436030181126119a157600080fd5b83018035915067ffffffffffffffff8211156119bc57600080fd5b60200191503681900382131561167d57600080fd5b8183528181602085013750600060208284010152600060207fffffffffffffffffffffffffffffffffffffffffffffffffffffffffffffffe0601f840116840101905092915050565b73ffffffffffffffffffffffffffffffffffffffff8516815260ff84166020820152606060408201526000611a536060830184866119d1565b9695505050505050565b73ffffffffffffffffffffffffffffffffffffffff848116825260406020808401829052908301849052600091859160608501845b87811015611ab75783611aa4866115f7565b1682529382019390820190600101611a92565b5098975050505050505050565b8183823760009101908152919050565b600073ffffffffffffffffffffffffffffffffffffffff808716835280861660208401525060606040830152611a536060830184866119d1565b7f4e487b7100000000000000000000000000000000000000000000000000000000600052603260045260246000fd5b600181811c90821680611b5157607f821691505b602082108103611b8a577f4e487b7100000000000000000000000000000000000000000000000000000000600052602260045260246000fd5b50919050565b7f4e487b7100000000000000000000000000000000000000000000000000000000600052602160045260246000fdfea164736f6c6343000815000a",
  "devdoc": {
    "errors": {
      "ECDSAInvalidSignature()": [
        {
          "details": "The signature derives the `address(0)`."
        }
      ],
      "ECDSAInvalidSignatureLength(uint256)": [
        {
          "details": "The signature has an invalid length."
        }
      ],
      "ECDSAInvalidSignatureS(bytes32)": [
        {
          "details": "The signature has an S value that is in the upper half order."
        }
      ],
      "ERC1167FailedCreateClone()": [
        {
          "details": "A clone instance deployment failed."
        }
      ]
    },
    "events": {
      "EIP712DomainChanged()": {
        "details": "MAY be emitted to signal that the domain could have changed."
      }
    },
    "kind": "dev",
    "methods": {
      "eip712Domain()": {
        "details": "See {IERC-5267}."
      }
    },
    "version": 1
  },
  "userdoc": {
    "kind": "user",
    "methods": {},
    "version": 1
  },
  "storageLayout": {
    "storage": [
      {
        "astId": 3619,
        "contract": "contracts/tokens/TokenRegistry.sol:TokenRegistry",
        "label": "_nameFallback",
        "offset": 0,
        "slot": "0",
        "type": "t_string_storage"
      },
      {
        "astId": 3621,
        "contract": "contracts/tokens/TokenRegistry.sol:TokenRegistry",
        "label": "_versionFallback",
        "offset": 0,
        "slot": "1",
        "type": "t_string_storage"
      },
      {
        "astId": 5984,
        "contract": "contracts/tokens/TokenRegistry.sol:TokenRegistry",
        "label": "_gateway",
        "offset": 0,
        "slot": "2",
        "type": "t_address"
      },
      {
        "astId": 5255,
        "contract": "contracts/tokens/TokenRegistry.sol:TokenRegistry",
        "label": "_owner",
        "offset": 0,
        "slot": "3",
        "type": "t_address"
      },
      {
        "astId": 5088,
        "contract": "contracts/tokens/TokenRegistry.sol:TokenRegistry",
        "label": "_guardians",
        "offset": 0,
        "slot": "4",
        "type": "t_mapping(t_address,t_bool)"
      },
      {
        "astId": 8326,
        "contract": "contracts/tokens/TokenRegistry.sol:TokenRegistry",
        "label": "_initialized",
        "offset": 0,
        "slot": "5",
        "type": "t_bool"
      },
      {
        "astId": 6492,
        "contract": "contracts/tokens/TokenRegistry.sol:TokenRegistry",
        "label": "_tokens",
        "offset": 0,
        "slot": "6",
        "type": "t_mapping(t_address,t_bool)"
      },
      {
        "astId": 6496,
        "contract": "contracts/tokens/TokenRegistry.sol:TokenRegistry",
        "label": "_tokenFactories",
        "offset": 0,
        "slot": "7",
        "type": "t_mapping(t_address,t_bool)"
      }
    ],
    "types": {
      "t_address": {
        "encoding": "inplace",
        "label": "address",
        "numberOfBytes": "20"
      },
      "t_bool": {
        "encoding": "inplace",
        "label": "bool",
        "numberOfBytes": "1"
      },
      "t_mapping(t_address,t_bool)": {
        "encoding": "mapping",
        "key": "t_address",
        "label": "mapping(address => bool)",
        "numberOfBytes": "32",
        "value": "t_bool"
      },
      "t_string_storage": {
        "encoding": "bytes",
        "label": "string",
        "numberOfBytes": "32"
      }
    }
  }
}