{
  "address": "0x4d4E68BfD8b2890260aA7aBd6318d9cBC62457ca",
  "abi": [
    {
      "inputs": [],
      "stateMutability": "nonpayable",
      "type": "constructor"
    },
    {
      "inputs": [],
      "name": "AlreadyInitialized",
      "type": "error"
    },
    {
      "stateMutability": "payable",
      "type": "fallback"
    },
    {
      "inputs": [],
      "name": "getFactory",
      "outputs": [
        {
          "internalType": "address",
          "name": "",
          "type": "address"
        }
      ],
      "stateMutability": "view",
      "type": "function"
    },
    {
      "inputs": [],
      "name": "getImpl",
      "outputs": [
        {
          "internalType": "address",
          "name": "",
          "type": "address"
        }
      ],
      "stateMutability": "view",
      "type": "function"
    },
    {
      "inputs": [
        {
          "internalType": "address",
          "name": "impl",
          "type": "address"
        },
        {
          "internalType": "bytes",
          "name": "initData",
          "type": "bytes"
        }
      ],
      "name": "initialize",
      "outputs": [],
      "stateMutability": "nonpayable",
      "type": "function"
    },
    {
      "inputs": [],
      "name": "isInitialized",
      "outputs": [
        {
          "internalType": "bool",
          "name": "",
          "type": "bool"
        }
      ],
      "stateMutability": "view",
      "type": "function"
    },
    {
      "stateMutability": "payable",
      "type": "receive"
    }
  ],
  "transactionHash": "0x40186355aeac828b226a5c5593ff22494cbbb3dd8cfa222fe187be7695201e21",
  "args": [],
  "numDeployments": 1,
  "solcInputHash": "3c231b4b45fc16ef51b6ba82c0d650c2",
  "bytecode": "0x6080604052348015600f57600080fd5b506016601a565b608e565b602260016024565b565b8060796040516020016059907f496e697469616c697a61626c6523696e697469616c697a656400000000000000815260190190565b60405160208183030381529060405280519060200120608b60201b60201c565b805460ff191691151591909117905550565b90565b6104bd8061009d6000396000f3fe6080604052600436106100435760003560e01c8063392e53cd1461006557806388cc58e41461008f578063d1f57894146100c9578063dfb80831146100e95761005a565b3661005a576100586100536100fe565b61016b565b005b6100586100536100fe565b34801561007157600080fd5b5061007a610194565b60405190151581526020015b60405180910390f35b34801561009b57600080fd5b506100a46101a3565b60405173ffffffffffffffffffffffffffffffffffffffff9091168152602001610086565b3480156100d557600080fd5b506100586100e4366004610410565b6101ad565b3480156100f557600080fd5b506100a4610207565b600061014f604051602001610136907f436c6f6e6523696d706c000000000000000000000000000000000000000000008152600a0190565b6040516020818303038152906040528051906020012090565b5473ffffffffffffffffffffffffffffffffffffffff16919050565b3660008037600080366000845af43d6000803e80801561018a573d6000f35b3d6000fd5b505050565b600061019e610211565b905090565b600061019e610252565b6101b561028a565b6101be336102d3565b6101c783610350565b61018f8383838080601f01602080910402602001604051908101604052809392919081815260200183838082843760009201919091525061038792505050565b600061019e6100fe565b6000610249604051602001610136907f496e697469616c697a61626c6523696e697469616c697a656400000000000000815260190190565b5460ff16919050565b600061014f604051602001610136907f436c6f6e6523666163746f7279000000000000000000000000000000000000008152600d0190565b610292610211565b156102c9576040517f0dc149f000000000000000000000000000000000000000000000000000000000815260040160405180910390fd5b6102d16103a4565b565b8061030a604051602001610136907f436c6f6e6523666163746f7279000000000000000000000000000000000000008152600d0190565b80547fffffffffffffffffffffffff00000000000000000000000000000000000000001673ffffffffffffffffffffffffffffffffffffffff9290921691909117905550565b8061030a604051602001610136907f436c6f6e6523696d706c000000000000000000000000000000000000000000008152600a0190565b600080825160208401855af43d6000803e80801561018a573d6000f35b6102d16001806103e0604051602001610136907f496e697469616c697a61626c6523696e697469616c697a656400000000000000815260190190565b80547fffffffffffffffffffffffffffffffffffffffffffffffffffffffffffffff001691151591909117905550565b60008060006040848603121561042557600080fd5b833573ffffffffffffffffffffffffffffffffffffffff8116811461044957600080fd5b9250602084013567ffffffffffffffff81111561046557600080fd5b8401601f8101861361047657600080fd5b803567ffffffffffffffff81111561048d57600080fd5b86602082840101111561049f57600080fd5b93966020919091019550929350505056fea164736f6c634300081b000a",
  "devdoc": {
    "kind": "dev",
    "methods": {},
    "version": 1
  },
  "userdoc": {
    "kind": "user",
    "methods": {},
    "version": 1
  },
  "storageLayout": {
    "storage": [],
    "types": null
  }
}