{
  "address": "0x5d6E895F3EaDb09F8093724900107dD6d13a30FE",
  "abi": [
    {
      "inputs": [
        {
          "internalType": "string",
          "name": "eip712Name",
          "type": "string"
        }
      ],
      "stateMutability": "nonpayable",
      "type": "constructor"
    },
    {
      "inputs": [],
      "name": "AccountIsTheZeroAddress",
      "type": "error"
    },
    {
      "inputs": [],
      "name": "BatchIsEmpty",
      "type": "error"
    },
    {
      "inputs": [],
      "name": "CallToTheZeroAddress",
      "type": "error"
    },
    {
      "inputs": [],
      "name": "ECDSAInvalidSignature",
      "type": "error"
    },
    {
      "inputs": [
        {
          "internalType": "uint256",
          "name": "length",
          "type": "uint256"
        }
      ],
      "name": "ECDSAInvalidSignatureLength",
      "type": "error"
    },
    {
      "inputs": [
        {
          "internalType": "bytes32",
          "name": "s",
          "type": "bytes32"
        }
      ],
      "name": "ECDSAInvalidSignatureS",
      "type": "error"
    },
    {
      "inputs": [],
      "name": "InvalidBatchSize",
      "type": "error"
    },
    {
      "inputs": [],
      "name": "InvalidShortString",
      "type": "error"
    },
    {
      "inputs": [],
      "name": "InvalidSignature",
      "type": "error"
    },
    {
      "inputs": [
        {
          "internalType": "string",
          "name": "str",
          "type": "string"
        }
      ],
      "name": "StringTooLong",
      "type": "error"
    },
    {
      "anonymous": false,
      "inputs": [
        {
          "indexed": false,
          "internalType": "address",
          "name": "account",
          "type": "address"
        },
        {
          "indexed": false,
          "internalType": "uint256",
          "name": "nonce",
          "type": "uint256"
        },
        {
          "indexed": false,
          "internalType": "address[]",
          "name": "to",
          "type": "address[]"
        },
        {
          "indexed": false,
          "internalType": "bytes[]",
          "name": "data",
          "type": "bytes[]"
        },
        {
          "indexed": false,
          "internalType": "uint256",
          "name": "timestamp",
          "type": "uint256"
        }
      ],
      "name": "BatchSent",
      "type": "event"
    },
    {
      "anonymous": false,
      "inputs": [],
      "name": "EIP712DomainChanged",
      "type": "event"
    },
    {
      "anonymous": false,
      "inputs": [
        {
          "indexed": false,
          "internalType": "address",
          "name": "account",
          "type": "address"
        },
        {
          "indexed": false,
          "internalType": "uint256",
          "name": "nonce",
          "type": "uint256"
        },
        {
          "indexed": false,
          "internalType": "address",
          "name": "to",
          "type": "address"
        },
        {
          "indexed": false,
          "internalType": "bytes",
          "name": "data",
          "type": "bytes"
        },
        {
          "indexed": false,
          "internalType": "uint256",
          "name": "timestamp",
          "type": "uint256"
        }
      ],
      "name": "RequestSent",
      "type": "event"
    },
    {
      "inputs": [],
      "name": "eip712Domain",
      "outputs": [
        {
          "internalType": "bytes1",
          "name": "fields",
          "type": "bytes1"
        },
        {
          "internalType": "string",
          "name": "name",
          "type": "string"
        },
        {
          "internalType": "string",
          "name": "version",
          "type": "string"
        },
        {
          "internalType": "uint256",
          "name": "chainId",
          "type": "uint256"
        },
        {
          "internalType": "address",
          "name": "verifyingContract",
          "type": "address"
        },
        {
          "internalType": "bytes32",
          "name": "salt",
          "type": "bytes32"
        },
        {
          "internalType": "uint256[]",
          "name": "extensions",
          "type": "uint256[]"
        }
      ],
      "stateMutability": "view",
      "type": "function"
    },
    {
      "inputs": [
        {
          "internalType": "address",
          "name": "account",
          "type": "address"
        },
        {
          "internalType": "address[]",
          "name": "to",
          "type": "address[]"
        },
        {
          "internalType": "bytes[]",
          "name": "data",
          "type": "bytes[]"
        },
        {
          "internalType": "bytes",
          "name": "signature",
          "type": "bytes"
        }
      ],
      "name": "forwardBatch",
      "outputs": [],
      "stateMutability": "nonpayable",
      "type": "function"
    },
    {
      "inputs": [
        {
          "internalType": "address",
          "name": "account",
          "type": "address"
        },
        {
          "internalType": "address",
          "name": "to",
          "type": "address"
        },
        {
          "internalType": "bytes",
          "name": "data",
          "type": "bytes"
        },
        {
          "internalType": "bytes",
          "name": "signature",
          "type": "bytes"
        }
      ],
      "name": "forwardRequest",
      "outputs": [],
      "stateMutability": "nonpayable",
      "type": "function"
    },
    {
      "inputs": [
        {
          "internalType": "address",
          "name": "account",
          "type": "address"
        }
      ],
      "name": "getNextNonce",
      "outputs": [
        {
          "internalType": "uint256",
          "name": "",
          "type": "uint256"
        }
      ],
      "stateMutability": "view",
      "type": "function"
    },
    {
      "inputs": [
        {
          "components": [
            {
              "internalType": "address",
              "name": "account",
              "type": "address"
            },
            {
              "internalType": "uint256",
              "name": "nonce",
              "type": "uint256"
            },
            {
              "internalType": "address[]",
              "name": "to",
              "type": "address[]"
            },
            {
              "internalType": "bytes[]",
              "name": "data",
              "type": "bytes[]"
            }
          ],
          "internalType": "struct Forwarder.BatchData",
          "name": "batchData",
          "type": "tuple"
        }
      ],
      "name": "hashBatch",
      "outputs": [
        {
          "internalType": "bytes32",
          "name": "",
          "type": "bytes32"
        }
      ],
      "stateMutability": "view",
      "type": "function"
    },
    {
      "inputs": [
        {
          "components": [
            {
              "internalType": "address",
              "name": "account",
              "type": "address"
            },
            {
              "internalType": "uint256",
              "name": "nonce",
              "type": "uint256"
            },
            {
              "internalType": "address",
              "name": "to",
              "type": "address"
            },
            {
              "internalType": "bytes",
              "name": "data",
              "type": "bytes"
            }
          ],
          "internalType": "struct Forwarder.RequestData",
          "name": "requestData",
          "type": "tuple"
        }
      ],
      "name": "hashRequest",
      "outputs": [
        {
          "internalType": "bytes32",
          "name": "",
          "type": "bytes32"
        }
      ],
      "stateMutability": "view",
      "type": "function"
    },
    {
      "inputs": [
        {
          "internalType": "address[]",
          "name": "to",
          "type": "address[]"
        },
        {
          "internalType": "bytes[]",
          "name": "data",
          "type": "bytes[]"
        }
      ],
      "name": "sendBatch",
      "outputs": [],
      "stateMutability": "nonpayable",
      "type": "function"
    },
    {
      "inputs": [
        {
          "internalType": "address",
          "name": "to",
          "type": "address"
        },
        {
          "internalType": "bytes",
          "name": "data",
          "type": "bytes"
        }
      ],
      "name": "sendRequest",
      "outputs": [],
      "stateMutability": "nonpayable",
      "type": "function"
    }
  ],
  "transactionHash": "0xd40044f8d45649b4a0a5c7482ef03e92fcfedf1e7b3d2efa26328438297a5ed6",
  "args": [
    "OM!goods Forwarder"
  ],
  "numDeployments": 1,
  "solcInputHash": "48b7536c1f70d8010a7f440f5d78645b",
  "bytecode": "0x61016060405234801561001157600080fd5b50604051611d0d380380611d0d833981016040819052610030916101b4565b6040805180820190915260018152603160f81b60208201528190610055826000610100565b61012052610064816001610100565b61014052815160208084019190912060e052815190820120610100524660a0526100f160e05161010051604080517f8b73c3c69bb8fe3d512ecc4cf759cc79239f7b179b0ffacaa9a75d522b39400f60208201529081019290925260608201524660808201523060a082015260009060c00160405160208183030381529060405280519060200120905090565b60805250503060c05250610404565b600060208351101561011c5761011583610133565b905061012d565b8161012784826102ef565b5060ff90505b92915050565b600080829050601f81511115610167578260405163305a27a960e01b815260040161015e91906103ad565b60405180910390fd5b8051610172826103e0565b179392505050565b634e487b7160e01b600052604160045260246000fd5b60005b838110156101ab578181015183820152602001610193565b50506000910152565b6000602082840312156101c657600080fd5b81516001600160401b038111156101dc57600080fd5b8201601f810184136101ed57600080fd5b80516001600160401b038111156102065761020661017a565b604051601f8201601f19908116603f011681016001600160401b03811182821017156102345761023461017a565b60405281815282820160200186101561024c57600080fd5b61025d826020830160208601610190565b95945050505050565b600181811c9082168061027a57607f821691505b60208210810361029a57634e487b7160e01b600052602260045260246000fd5b50919050565b601f8211156102ea57806000526020600020601f840160051c810160208510156102c75750805b601f840160051c820191505b818110156102e757600081556001016102d3565b50505b505050565b81516001600160401b038111156103085761030861017a565b61031c816103168454610266565b846102a0565b6020601f82116001811461035057600083156103385750848201515b600019600385901b1c1916600184901b1784556102e7565b600084815260208120601f198516915b828110156103805787850151825560209485019460019092019101610360565b508482101561039e5786840151600019600387901b60f8161c191681555b50505050600190811b01905550565b60208152600082518060208401526103cc816040850160208701610190565b601f01601f19169190910160400192915050565b8051602080830151919081101561029a5760001960209190910360031b1b16919050565b60805160a05160c05160e0516101005161012051610140516118af61045e60003960006103e2015260006103b001526000610cba01526000610c9201526000610bed01526000610c1701526000610c4101526118af6000f3fe608060405234801561001057600080fd5b50600436106100885760003560e01c8063c61b48081161005b578063c61b48081461011d578063de94c50214610130578063e36573af14610143578063f4c56ae61461015657600080fd5b806362d3fe461461008d57806384b0196e146100a257806390193b7c146100c65780639f2556261461010a575b600080fd5b6100a061009b366004610ff4565b610169565b005b6100aa61018b565b6040516100bd9796959493929190611097565b60405180910390f35b6100fc6100d4366004611158565b73ffffffffffffffffffffffffffffffffffffffff1660009081526002602052604090205490565b6040519081526020016100bd565b6100a06101183660046111bf565b6101ed565b6100a061012b366004611230565b610211565b6100a061013e3660046112e7565b610268565b6100fc610151366004611395565b6102b5565b6100fc610164366004611395565b6102f1565b33600081815260026020526040902054610186919085858561032a565b505050565b60006060806000806000606061019f6103a9565b6101a76103db565b604080516000808252602082019092527f0f000000000000000000000000000000000000000000000000000000000000009b939a50919850469750309650945092509050565b3360008181526002602052604090205461020b919086868686610408565b50505050565b73ffffffffffffffffffffffffffffffffffffffff87166000908152600260205260409020546102508861024981848b8b8b8b61048b565b858561054d565b61025e888289898989610408565b5050505050505050565b73ffffffffffffffffffffffffffffffffffffffff861660009081526002602052604090205461029f8761024981848a8a8a610626565b6102ac878288888861032a565b50505050505050565b60006102eb6102c76020840184611158565b60208401356102d96040860186611401565b6102e66060880188611401565b61048b565b92915050565b60006102eb6103036020840184611158565b60208401356103186060860160408701611158565b6103256060870187611469565b610626565b73ffffffffffffffffffffffffffffffffffffffff85166000908152600260205260409020600185019055610361858484846106b8565b7fd3f6d22bd661c925713f605493212b1fc829e6df2490829542069e034d346ed285858585854260405161039a969594939291906114f9565b60405180910390a15050505050565b60606103d67f000000000000000000000000000000000000000000000000000000000000000060006107aa565b905090565b60606103d67f000000000000000000000000000000000000000000000000000000000000000060016107aa565b73ffffffffffffffffffffffffffffffffffffffff861660009081526002602052604090206001860190556104408685858585610856565b7faf0041bd95506d1e67ddd1f7cdde749c2297f54dc3713935c8ccc9d1f14f9f068686868686864260405161047b979695949392919061155e565b60405180910390a1505050505050565b60006105427f5964f3624f2dbc3d6478246da81402bcb14b9117cd93d001baf09c7c06b3175a888888886040516020016104c69291906116a2565b604051602081830303815290604052805190602001206104e68888610932565b60408051602081019690965273ffffffffffffffffffffffffffffffffffffffff909416938501939093526060840191909152608083015260a082015260c0015b604051602081830303815290604052805190602001206109f1565b979650505050505050565b73ffffffffffffffffffffffffffffffffffffffff841661059a576040517f744fa2d000000000000000000000000000000000000000000000000000000000815260040160405180910390fd5b60006105de83838080601f0160208091040260200160405190810160405280939291908181526020018383808284376000920191909152508893925050610a399050565b90508073ffffffffffffffffffffffffffffffffffffffff168573ffffffffffffffffffffffffffffffffffffffff161461061f5761061f85858585610a63565b5050505050565b60006106ae7f7230b424eec5412e1883503d0eb5eb699e10576f7e2ee5f86fb7b546a06937e6878787878760405161065f9291906116ef565b604051908190038120610527959493929160200194855273ffffffffffffffffffffffffffffffffffffffff938416602086015260408501929092529091166060830152608082015260a00190565b9695505050505050565b73ffffffffffffffffffffffffffffffffffffffff8316610705576040517ff88cd52400000000000000000000000000000000000000000000000000000000815260040160405180910390fd5b6000808473ffffffffffffffffffffffffffffffffffffffff16848488604051602001610734939291906116ff565b60408051601f198184030181529082905261074e91611738565b6000604051808303816000865af19150503d806000811461078b576040519150601f19603f3d011682016040523d82523d6000602084013e610790565b606091505b5091509150816107a257805160208201fd5b505050505050565b606060ff83146107c4576107bd83610b94565b90506102eb565b8180546107d090611754565b80601f01602080910402602001604051908101604052809291908181526020018280546107fc90611754565b80156108495780601f1061081e57610100808354040283529160200191610849565b820191906000526020600020905b81548152906001019060200180831161082c57829003601f168201915b5050505050905092915050565b826000819003610892576040517f0a06884500000000000000000000000000000000000000000000000000000000815260040160405180910390fd5b8082146108cb576040517f7862e95900000000000000000000000000000000000000000000000000000000815260040160405180910390fd5b60005b818110156102ac5761092a878787848181106108ec576108ec6117a1565b90506020020160208101906109019190611158565b868685818110610913576109136117a1565b90506020028101906109259190611469565b6106b8565b6001016108ce565b600081816109418260206117d0565b67ffffffffffffffff811115610959576109596113d2565b6040519080825280601f01601f191660200182016040528015610983576020820181803683370190505b50905060005b828110156109e05760008686838181106109a5576109a56117a1565b90506020028101906109b79190611469565b6040516109c59291906116ef565b60405190819003902060208381028501015250600101610989565b508051602090910120949350505050565b60006102eb6109fe610bd3565b836040517f19010000000000000000000000000000000000000000000000000000000000008152600281019290925260228201526042902090565b600080600080610a498686610d0b565b925092509250610a598282610d58565b5090949350505050565b600073ffffffffffffffffffffffffffffffffffffffff85163b15610b5d576040517f1626ba7e00000000000000000000000000000000000000000000000000000000815273ffffffffffffffffffffffffffffffffffffffff861690631626ba7e90610ad89087908790879060040161180e565b602060405180830381865afa925050508015610b11575060408051601f3d908101601f19168201909252610b0e91810190611831565b60015b15610b5d577fffffffff00000000000000000000000000000000000000000000000000000000167f1626ba7e000000000000000000000000000000000000000000000000000000001490505b8061061f576040517f8baa579f00000000000000000000000000000000000000000000000000000000815260040160405180910390fd5b60606000610ba183610e65565b604080516020808252818301909252919250600091906020820181803683375050509182525060208101929092525090565b60003073ffffffffffffffffffffffffffffffffffffffff7f000000000000000000000000000000000000000000000000000000000000000016148015610c3957507f000000000000000000000000000000000000000000000000000000000000000046145b15610c6357507f000000000000000000000000000000000000000000000000000000000000000090565b6103d6604080517f8b73c3c69bb8fe3d512ecc4cf759cc79239f7b179b0ffacaa9a75d522b39400f60208201527f0000000000000000000000000000000000000000000000000000000000000000918101919091527f000000000000000000000000000000000000000000000000000000000000000060608201524660808201523060a082015260009060c00160405160208183030381529060405280519060200120905090565b60008060008351604103610d455760208401516040850151606086015160001a610d3788828585610ea6565b955095509550505050610d51565b50508151600091506002905b9250925092565b6000826003811115610d6c57610d6c611873565b03610d75575050565b6001826003811115610d8957610d89611873565b03610dc0576040517ff645eedf00000000000000000000000000000000000000000000000000000000815260040160405180910390fd5b6002826003811115610dd457610dd4611873565b03610e13576040517ffce698f7000000000000000000000000000000000000000000000000000000008152600481018290526024015b60405180910390fd5b6003826003811115610e2757610e27611873565b03610e61576040517fd78bce0c00000000000000000000000000000000000000000000000000000000815260048101829052602401610e0a565b5050565b600060ff8216601f8111156102eb576040517fb3512b0c00000000000000000000000000000000000000000000000000000000815260040160405180910390fd5b600080807f7fffffffffffffffffffffffffffffff5d576e7357a4501ddfe92f46681b20a0841115610ee15750600091506003905082610f78565b604080516000808252602082018084528a905260ff891692820192909252606081018790526080810186905260019060a0016020604051602081039080840390855afa158015610f35573d6000803e3d6000fd5b5050604051601f19015191505073ffffffffffffffffffffffffffffffffffffffff8116610f6e57506000925060019150829050610f78565b9250600091508190505b9450945094915050565b803573ffffffffffffffffffffffffffffffffffffffff81168114610fa657600080fd5b919050565b60008083601f840112610fbd57600080fd5b50813567ffffffffffffffff811115610fd557600080fd5b602083019150836020828501011115610fed57600080fd5b9250929050565b60008060006040848603121561100957600080fd5b61101284610f82565b9250602084013567ffffffffffffffff81111561102e57600080fd5b61103a86828701610fab565b9497909650939450505050565b60005b8381101561106257818101518382015260200161104a565b50506000910152565b60008151808452611083816020860160208601611047565b601f01601f19169290920160200192915050565b7fff000000000000000000000000000000000000000000000000000000000000008816815260e0602082015260006110d260e083018961106b565b82810360408401526110e4818961106b565b6060840188905273ffffffffffffffffffffffffffffffffffffffff8716608085015260a0840186905283810360c08501528451808252602080870193509091019060005b81811015611147578351835260209384019390920191600101611129565b50909b9a5050505050505050505050565b60006020828403121561116a57600080fd5b61117382610f82565b9392505050565b60008083601f84011261118c57600080fd5b50813567ffffffffffffffff8111156111a457600080fd5b6020830191508360208260051b8501011115610fed57600080fd5b600080600080604085870312156111d557600080fd5b843567ffffffffffffffff8111156111ec57600080fd5b6111f88782880161117a565b909550935050602085013567ffffffffffffffff81111561121857600080fd5b6112248782880161117a565b95989497509550505050565b60008060008060008060006080888a03121561124b57600080fd5b61125488610f82565b9650602088013567ffffffffffffffff81111561127057600080fd5b61127c8a828b0161117a565b909750955050604088013567ffffffffffffffff81111561129c57600080fd5b6112a88a828b0161117a565b909550935050606088013567ffffffffffffffff8111156112c857600080fd5b6112d48a828b01610fab565b989b979a50959850939692959293505050565b6000806000806000806080878903121561130057600080fd5b61130987610f82565b955061131760208801610f82565b9450604087013567ffffffffffffffff81111561133357600080fd5b61133f89828a01610fab565b909550935050606087013567ffffffffffffffff81111561135f57600080fd5b61136b89828a01610fab565b979a9699509497509295939492505050565b60006080828403121561138f57600080fd5b50919050565b6000602082840312156113a757600080fd5b813567ffffffffffffffff8111156113be57600080fd5b6113ca8482850161137d565b949350505050565b7f4e487b7100000000000000000000000000000000000000000000000000000000600052604160045260246000fd5b60008083357fffffffffffffffffffffffffffffffffffffffffffffffffffffffffffffffe184360301811261143657600080fd5b83018035915067ffffffffffffffff82111561145157600080fd5b6020019150600581901b3603821315610fed57600080fd5b60008083357fffffffffffffffffffffffffffffffffffffffffffffffffffffffffffffffe184360301811261149e57600080fd5b83018035915067ffffffffffffffff8211156114b957600080fd5b602001915036819003821315610fed57600080fd5b818352818160208501375060006020828401015260006020601f19601f840116840101905092915050565b73ffffffffffffffffffffffffffffffffffffffff8716815285602082015273ffffffffffffffffffffffffffffffffffffffff8516604082015260a06060820152600061154b60a0830185876114ce565b9050826080830152979650505050505050565b73ffffffffffffffffffffffffffffffffffffffff881681526020810187905260a060408201819052810185905260008660c08301825b888110156115d05773ffffffffffffffffffffffffffffffffffffffff6115bb84610f82565b16825260209283019290910190600101611595565b508381036060850152809150600086825260208201925060208760051b83010188827fffffffffffffffffffffffffffffffffffffffffffffffffffffffffffffffe18b3603015b8a82101561168657601f198685030187528235818112611636578586fd5b8c0160208101903567ffffffffffffffff811115611652578687fd5b803603821315611660578687fd5b61166b8682846114ce565b95505050602083019250602087019650600182019150611618565b5050506080959095019590955250919998505050505050505050565b60008184825b858110156116e45773ffffffffffffffffffffffffffffffffffffffff6116ce83610f82565b16835260209283019291909101906001016116a8565b509095945050505050565b8183823760009101908152919050565b8284823760609190911b7fffffffffffffffffffffffffffffffffffffffff000000000000000000000000169101908152601401919050565b6000825161174a818460208701611047565b9190910192915050565b600181811c9082168061176857607f821691505b60208210810361138f577f4e487b7100000000000000000000000000000000000000000000000000000000600052602260045260246000fd5b7f4e487b7100000000000000000000000000000000000000000000000000000000600052603260045260246000fd5b80820281158282048414176102eb577f4e487b7100000000000000000000000000000000000000000000000000000000600052601160045260246000fd5b8381526040602082015260006118286040830184866114ce565b95945050505050565b60006020828403121561184357600080fd5b81517fffffffff000000000000000000000000000000000000000000000000000000008116811461117357600080fd5b7f4e487b7100000000000000000000000000000000000000000000000000000000600052602160045260246000fdfea164736f6c634300081b000a",
  "devdoc": {
    "errors": {
      "ECDSAInvalidSignature()": [
        {
          "details": "The signature derives the `address(0)`."
        }
      ],
      "ECDSAInvalidSignatureLength(uint256)": [
        {
          "details": "The signature has an invalid length."
        }
      ],
      "ECDSAInvalidSignatureS(bytes32)": [
        {
          "details": "The signature has an S value that is in the upper half order."
        }
      ]
    },
    "events": {
      "EIP712DomainChanged()": {
        "details": "MAY be emitted to signal that the domain could have changed."
      }
    },
    "kind": "dev",
    "methods": {
      "eip712Domain()": {
        "details": "See {IERC-5267}."
      }
    },
    "version": 1
  },
  "userdoc": {
    "kind": "user",
    "methods": {},
    "version": 1
  },
  "storageLayout": {
    "storage": [
      {
        "astId": 3304,
        "contract": "contracts/metatx/Forwarder.sol:Forwarder",
        "label": "_nameFallback",
        "offset": 0,
        "slot": "0",
        "type": "t_string_storage"
      },
      {
        "astId": 3306,
        "contract": "contracts/metatx/Forwarder.sol:Forwarder",
        "label": "_versionFallback",
        "offset": 0,
        "slot": "1",
        "type": "t_string_storage"
      },
      {
        "astId": 7604,
        "contract": "contracts/metatx/Forwarder.sol:Forwarder",
        "label": "_nextNonce",
        "offset": 0,
        "slot": "2",
        "type": "t_mapping(t_address,t_uint256)"
      }
    ],
    "types": {
      "t_address": {
        "encoding": "inplace",
        "label": "address",
        "numberOfBytes": "20"
      },
      "t_mapping(t_address,t_uint256)": {
        "encoding": "mapping",
        "key": "t_address",
        "label": "mapping(address => uint256)",
        "numberOfBytes": "32",
        "value": "t_uint256"
      },
      "t_string_storage": {
        "encoding": "bytes",
        "label": "string",
        "numberOfBytes": "32"
      },
      "t_uint256": {
        "encoding": "inplace",
        "label": "uint256",
        "numberOfBytes": "32"
      }
    }
  }
}