{
  "address": "0x3367D1104e480F886E03890F4d68309232078551",
  "abi": [
    {
      "inputs": [
        {
          "internalType": "address",
          "name": "token",
          "type": "address"
        }
      ],
      "name": "getTokenMetadata",
      "outputs": [
        {
          "internalType": "string",
          "name": "name",
          "type": "string"
        },
        {
          "internalType": "string",
          "name": "symbol",
          "type": "string"
        },
        {
          "internalType": "uint8",
          "name": "decimals",
          "type": "uint8"
        }
      ],
      "stateMutability": "view",
      "type": "function"
    }
  ],
  "transactionHash": "0xbd9e9720f509da14d91fe352194739c7512753d620f32d5a0a3120f9a10db0c1",
  "args": [],
  "numDeployments": 1,
  "solcInputHash": "3c231b4b45fc16ef51b6ba82c0d650c2",
  "bytecode": "0x6080604052348015600f57600080fd5b506104988061001f6000396000f3fe608060405234801561001057600080fd5b506004361061002b5760003560e01c8063c00f14ab14610030575b600080fd5b61004361003e366004610247565b61005b565b604051610052939291906102f2565b60405180910390f35b606080600073ffffffffffffffffffffffffffffffffffffffff84163b156101655760006100a9857f95d89b410000000000000000000000000000000000000000000000000000000061016c565b905080516000146100cb57808060200190518101906100c8919061035a565b92505b6100f5857f06fdde030000000000000000000000000000000000000000000000000000000061016c565b905080516000146101175780806020019051810190610114919061035a565b93505b610141857f313ce5670000000000000000000000000000000000000000000000000000000061016c565b905080516000146101635780806020019051810190610160919061044c565b91505b505b9193909250565b60408051600481526024810182526020810180517bffffffffffffffffffffffffffffffffffffffffffffffffffffffff167fffffffff0000000000000000000000000000000000000000000000000000000085161790529051606091600091829173ffffffffffffffffffffffffffffffffffffffff8716916101f0919061046f565b600060405180830381855afa9150503d806000811461022b576040519150601f19603f3d011682016040523d82523d6000602084013e610230565b606091505b5091509150811561023f578092505b505092915050565b60006020828403121561025957600080fd5b813573ffffffffffffffffffffffffffffffffffffffff8116811461027d57600080fd5b9392505050565b60005b8381101561029f578181015183820152602001610287565b50506000910152565b600081518084526102c0816020860160208601610284565b601f017fffffffffffffffffffffffffffffffffffffffffffffffffffffffffffffffe0169290920160200192915050565b60608152600061030560608301866102a8565b828103602084015261031781866102a8565b91505060ff83166040830152949350505050565b7f4e487b7100000000000000000000000000000000000000000000000000000000600052604160045260246000fd5b60006020828403121561036c57600080fd5b815167ffffffffffffffff81111561038357600080fd5b8201601f8101841361039457600080fd5b805167ffffffffffffffff8111156103ae576103ae61032b565b6040517fffffffffffffffffffffffffffffffffffffffffffffffffffffffffffffffe0603f7fffffffffffffffffffffffffffffffffffffffffffffffffffffffffffffffe0601f8501160116810181811067ffffffffffffffff8211171561041a5761041a61032b565b60405281815282820160200186101561043257600080fd5b610443826020830160208601610284565b95945050505050565b60006020828403121561045e57600080fd5b815160ff8116811461027d57600080fd5b60008251610481818460208701610284565b919091019291505056fea164736f6c634300081b000a",
  "devdoc": {
    "kind": "dev",
    "methods": {},
    "version": 1
  },
  "userdoc": {
    "kind": "user",
    "methods": {},
    "version": 1
  },
  "storageLayout": {
    "storage": [],
    "types": null
  }
}